:1000000080311828013401347E148031003086009C
:10001000003087008B1A0B1D162837302000950002
:100020000B11A7316E278031883102207E10090024
:1000300080311A28803102208031FA00803103207B
:100040008031FB003B308400A3308500683086009F
:10005000013087000730A331272380311C30840012
:10006000A3308500E9308600013087000530A331D8
:1000700027238031ED308400A43085004B3086008A
:10008000023087002530A3312723803120308400BF
:10009000013085003A30A33121238031A030840023
:1000A000013085004930A331212380312030840084
:1000B000023085002B30A33121238031A030840011
:1000C000023085002530A33121237E10200090319D
:1000D000DC28640022004803031D7E282100380824
:1000E000803ABB0080303B02031D78280A3037027B
:1000F000031C7E2801302200BE00872822003E0318
:10010000031D85289A31D52280312200BE0164006A
:1001100023006C0821003806031D922823006B0879
:10012000210037060319B32B38082300EC00210007
:1001300037082300EB00210038082300AA00210023
:1001400037082300A90022003E03031DB02B5508E9
:10015000031DB5285408031DB52821003A082200C4
:10016000D900210039082200D8004A082100BB002C
:10017000BC01BD01BE013E082000AA0021003D08CF
:100180002000A90021003C082000A80021003B0815
:100190002000A70001309C31482480312A08E60065
:1001A0002908E5002808E4002708E3002200580891
:1001B0002000A700220059082000A800890D893BD3
:1001C0008909A900AA0001309C31482480312A08FD
:1001D000B8002908B7002808B6002708B500423043
:1001E000BC00C830BB000030BA000030B900883114
:1001F000362080313808D2003708D1003608D000C8
:100200003508CF004230B800C830B7000030B60023
:100210000030B500220058082000A700220059082D
:100220002000A800890D893B8909A900AA00013096
:100230009C31482480312A08BC002908BB002808CA
:10024000BA002708B9008831362080313808D60036
:100250003708D5003608D4003508D3008931A121EC
:1002600080315208EA005108E9005008E8004F08C0
:10027000E7008D317225803166082100C200200020
:1002800065082100C100200064082100C000200092
:1002900063082100BF003F302000D2008030D10031
:1002A0000030D0000030CF003D30E600EB30E500FC
:1002B0008530E4001F30E3004130B8002030B70043
:1002C0000030B6000030B500210042082000BC001C
:1002D000210041082000BB00210040082000BA0096
:1002E00021003F082000B9008831362080313808CD
:1002F000EA003708E9003608E8003508E7008D31E4
:10030000722580316608D6006508D5006408D400DF
:100310006308D3008931A121803152082100CC002B
:10032000200051082100CB00200050082100CA0005
:1003300020004F082100C9004C082000B80021000F
:100340004B082000B70021004A082000B600210019
:1003500049082000B5003F30BC008030BB000030B1
:10036000BA000030B90088313620803138082100C9
:10037000D800200037082100D700200036082100CF
:10038000D600200035082100D50040302000D200E2
:100390000030D1000030D0000030CF004230B80033
:1003A000C830B7000030B6000030B5002100390871
:1003B0002000A70021003A082000A800890D893BF1
:1003C0008909A900AA0001309C31482480312A08FB
:1003D000BC002908BB002808BA002708B9008831EA
:1003E000362080313808D6003708D5003608D400CA
:1003F0003508D3008931A121803152082100C6007F
:10040000200051082100C500200050082100C40030
:1004100020004F082100C30039082000A700210058
:100420003A082000A800890D893B8909A900AA0083
:1004300001309C31482480312A08B8002908B700CF
:100440002808B6002708B5004230BC00C830BB0001
:100450000030BA000030B9008831362080313808C9
:10046000D2003708D1003608D0003508CF0021006F
:1004700046082000D600210045082000D5002100B4
:1004800044082000D400210043082000D300893113
:10049000A121803152082100CC0020005108210008
:1004A000CB00200050082100CA0020004F08210086
:1004B000C9004C082000B80021004B082000B700FC
:1004C00021004A082000B600210049082000B5009C
:1004D0004030BC008030BB000030BA000030B900B2
:1004E00088313620803138082100D40020003708B8
:1004F0002100D300200036082100D200200035085A
:100500002100D1005808F5005708F4005608F30000
:100510005508F2003F30F9008030F8000030F70055
:100520000030F6009B314F238031031CA02A3F305E
:100530002100D8008030D7000030D6000030D50030
:1005400021005408F5005308F4005208F300510844
:10055000F2003F30F9008030F8000030F700003042
:10056000F6009B314F238031031CBF2A3F3021000E
:10057000D4008030D3000030D2000030D100210000
:1005800037082000A700210038082000A800890DA6
:10059000893B8909A900AA0001309C314824803197
:1005A0002A08EA002908E9002808E8002708E700E7
:1005B000210058082000E600210057082000E5002F
:1005C000210056082000E400210055082000E30027
:1005D0008D317225803166082100D0002000650829
:1005E0002100CF00200064082100CE002000630815
:1005F0002100CD0050082000EA0021004F08200013
:10060000E90021004E082000E80021004D082000EC
:10061000E700210054082000E600210053082000D4
:10062000E500210052082000E400210051082000CC
:10063000E3008D317225803166082100B000200072
:1006400065082100AF00200064082100AE002000F2
:1006500063082100AD009A31162280312E08C800AF
:100660002D08C70058082000EA0021005708200084
:10067000E900210056082000E8002100550820006C
:10068000E700210054082000E60021005308200064
:10069000E500210052082000E4002100510820005C
:1006A000E3008D317225803166082100D0002000E2
:1006B00065082100CF00200064082100CE00200042
:1006C00063082100CD0050082000EA0021004F08F7
:1006D0002000E90021004E082000E80021004D081C
:1006E0002000E7004230E600C830E5000030E400BA
:1006F0000030E3008D317225803166082100B000A2
:10070000200065082100AF00200064082100AE0031
:10071000200063082100AD009A31162280312E0896
:100720002200A10021002D082200A0002108803A0B
:100730002100BB0080303B02031DA12B643022004E
:100740002002031CA82B63302200A0000030A1006F
:10075000210048082300AA00210047082300A9001F
:1007600001302200BC006400080064000230A331A4
:100770009D238331013A031DC02B01302200C600A6
:100780000330A3319D238331A331AE238331200075
:10079000A400A50124082200A600200025082200AC
:1007A000A7000430A3319D238331A331AE238331CD
:1007B0002000A400A5012408A0002508A1000A30FB
:1007C000A2000030A30098310020833121082300CB
:1007D000B400200020082300B3000530A3319D237E
:1007E0008331A331AE2383312000A400A501240866
:1007F000A0002508A1000A30A2000030A300983113
:100800000020833121082300B200200020082300AB
:10081000B1000630A3319D238331A331AE23833150
:100820002000A400A5012408A0002508A1000A308A
:10083000A2000030A300983100208331210823005A
:10084000B000200020082300AF000930A3319D2311
:100850008331A331AE2383312000A400A5012408F5
:10086000A0002508A1000A30A2000030A3009831A2
:100870000020833121082300AE002000200823003F
:10088000AD000A30A3319D2383312200EE000B30EE
:10089000A3319D2383312200CD000C30A3319D2351
:1008A00083312200ED000D30A3319D2383312200DE
:1008B000CC000E30A3319D2383312200EC000F3099
:1008C000A3319D2383312200CB0064001130A3317A
:1008D0009D238331A331AE2383312000A400A501E1
:1008E0001030A3319D238331A331AE238331200007
:1008F000A600A7012608A0002708A1006430A200D6
:100900000030A30098310020833124082007230001
:10091000C10020002508213D2300C2001330A3316F
:100920009D238331A331AE2383312000A400A50190
:100930001230A3319D238331A331AE2383312000B4
:10094000A600A7012608A0002708A1006430A20085
:100950000030A300983100208331240820072300B1
:10096000BF0020002508213D2300C0001530A33121
:100970009D238331A331AE2383312000A400A50140
:100980001430A3319D238331A331AE238331200062
:10099000A600A7012608A0002708A1006430A20035
:1009A0000030A30098310020833124082007230061
:1009B000BD0020002508213D2300BE001730A331D3
:1009C0009D238331A331AE2383312000A400A501F0
:1009D0001630A3319D238331A331AE238331200010
:1009E000A600A7012608A0002708A1006430A200E5
:1009F0000030A30098310020833124082007230011
:100A0000BB0020002508213D2300BC001930A33184
:100A10009D238331A331AE2383312000A400A5019F
:100A20001830A3319D238331A331AE2383312000BD
:100A3000A600A7012608A0002708A1006430A20094
:100A40000030A300983100208331240820072300C0
:100A5000B90020002508213D2300BA001B30A33136
:100A60009D238331A331AE2383312000A400A5014F
:100A70001A30A3319D238331A331AE23833120006B
:100A8000A600A7012608A0002708A1006430A20044
:100A90000030A30098310020833124082007230070
:100AA000B70020002508213D2300B8001D30A331E8
:100AB0009D238331A331AE2383312000A400A501FF
:100AC0001C30A3319D238331A331AE238331200019
:100AD000A600A7012608A0002708A1006430A200F4
:100AE0000030A30098310020833124082007230020
:100AF000B50020002508213D2300B6002130A33198
:100B00009D238331A331AE2383312000A400A501AE
:100B10002030A3319D238331A331AE2383312000C4
:100B2000A600A7012608A0002708A1006430A200A3
:100B30000030A300983100208331240820072300CF
:100B4000CF0020002508213D2300D0002330A33111
:100B50009D238331A331AE2383312000A400A5015E
:100B60002230A3319D238331A331AE238331200072
:100B7000A600A7012608A0002708A1006430A20053
:100B80000030A3009831002083312408200723007F
:100B9000CD0020002508213D2300CE002530A331C3
:100BA0009D238331A331AE2383312000A400A5010E
:100BB0002430A3319D238331A331AE238331200020
:100BC000A600A7012608A0002708A1006430A20003
:100BD0000030A3009831002083312408200723002F
:100BE000CB0020002508213D2300CC002730A33175
:100BF0009D238331A331AE2383312000A400A501BE
:100C00002630A3319D238331A331AE2383312000CD
:100C1000A600A7012608A0002708A1006430A200B2
:100C20000030A300983100208331240820072300DE
:100C3000C90020002508213D2300CA002930A33126
:100C40009D238331A331AE2383312000A400A5016D
:100C50002830A3319D238331A331AE23833120007B
:100C6000A600A7012608A0002708A1006430A20062
:100C70000030A3009831002083312408200723008E
:100C8000C70020002508213D2300C8002B30A331D8
:100C90009D238331A331AE2383312000A400A5011D
:100CA0002A30A3319D238331A331AE238331200029
:100CB000A600A7012608A0002708A1006430A20012
:100CC0000030A3009831002083312408200723003E
:100CD000C50020002508213D2300C6002D30A3318A
:100CE0009D238331A331AE2383312000A400A501CD
:100CF0002C30A3319D238331A331AE2383312000D7
:100D0000A600A7012608A0002708A1006430A200C1
:100D10000030A300983100208331240820072300ED
:100D2000C30020002508213D2300C4003030A3313A
:100D30009D2383312200C9003130A3319D238331AB
:100D4000A331AE2383312200EB003330A3319D2346
:100D500083312200C8003430A3319D238331A33175
:100D6000AE2383312200CA003530A3319D23833165
:100D7000A331AE232300D7006400080022002D0811
:100D8000E2002C08E1009E319126863122002C08D9
:100D90002D04031DCE2EA331E3230800933130230D
:100DA000863122002D08803ADA0080305A02031D75
:100DB000DB2E78302C02031C080092316822863129
:100DC00022002C082D040319CB2E933130238631B9
:100DD00022002D08803ADA0080305A02031DF22EDC
:100DE00078302C02031C08009131A02186312200AA
:100DF0002C082D040319CB2E933130238631220089
:100E00002D08803ADA0080305A02031D092F78300D
:100E10002C02031C080022002D08803ADA008030E2
:100E20005A02031D152FC8302C020318362F22003A
:100E30002D08803ADA006208803A5A02031D222FF8
:100E400061082C020318362F22002C086102DA00F8
:100E50002D08623BDB005B08803ADC0080305C02DE
:100E6000031D342F65305A020318080022002D0894
:100E7000E2002C08E1005508DA00DB015A08DD0029
:100E80005B08DE005408DA00DB015A08DF005B086B
:100E9000E0005303031D4E2FD301502F0130D30028
:100EA000A331E323863122005308A3316423863122
:100EB0003230F2000030F300A43135248631933112
:100EC0003023863122002D08803ADA0080305A0221
:100ED000031D6C2F78302C02031C08009E319126D4
:100EE000863122002C082D040319CB2E9331302398
:100EF000863122002D08803ADA0080305A02031D24
:100F0000832F78302C02031C08009231682286312E
:100F100022002C082D040319CB2E93313023863167
:100F200022002D08803ADA0080305A02031D9A2FE1
:100F300078302C02031C08009131A0218631220058
:100F40002C082D040319CB2E933130238631220037
:100F50002D08803ADA0080305A02031DB12F783014
:100F60002C02031C080022006208803ADA002D08D7
:100F7000803A5A02031DBE2F2C0861020318DE2F8F
:100F800022005303031DC62FD301C82F0130D30005
:100F90005308A3316423863122005D08D5005F0821
:100FA000D40055089D316225863122005408A631AF
:100FB000E92622006208AD006108AC006400080068
:100FC000A400A001A1017208F400F5017408A200B8
:100FD0007508A300241CF02F2208A0072308A13DB8
:100FE0000130A235A30D890BF12F0310A40C2408A6
:100FF000031DEA2F2108F3002008F2000800080072
:101004006908031D08003708031D2428390803193B
:10101400080068083802031821288D1038084B3E50
:101024008600023087000108B6002128361C1C28DF
:101034008D141D288D100310B60C21288D14013039
:10104400B707080009303702031C18280B30370291
:10105400031C2028B7010130B80738086806031DAF
:101064000800B901B80108003C088039C6003C35C5
:10107400CD00BB1B4D144D0803194E284D0A031D0A
:101084004B280030BC000030BB000030BA000030F8
:10109400B900BB17BC0156280030BC000030BB00AF
:1010A4000030BA000030B90038088039C606383537
:1010B400CE00B71B4E144E0803196E284E0A031DAA
:1010C4006B280030B8000030B7000030B6000030A4
:1010D400B500B717B80176280030B8000030B70063
:1010E4000030B6000030B500380837043604350443
:1010F400031D93280030BC000030BB000030BA0050
:101104000030B9008030BB047F30BC044608BC0406
:101114003C08B8003B08B7003A08B6003908B500E7
:1011240008004D08031D9F280030B8000030B700A8
:101134000030B6000030B50008004D08BD00BE0107
:101144003E08C0004E083D02BF00031CC0033F0818
:101154007F3EC7000030403DC8003C08C5003B0846
:10116400C4003A08C3003908C2000030BC00003093
:10117400BB000030BA000030B9000030CC000030B1
:10118400CB000030CA000030C900CE011A304E0234
:10119400031802294E080319E6280130C235C30D8D
:1011A400C40DC50D890BD0280130B935BA0DBB0D5E
:1011B400BC0D890BD728CC1B39140130C935CA0D95
:1011C400CB0DCC0D890BE02838084502031DF4280B
:1011D40037084402031DF42836084302031DF4288B
:1011E40035084202031CFF284C173508C202360892
:1011F400C33B3708C43B3808C53B0130CE07C82879
:101204004508440443044204031D4914BB1B1F291D
:101214000130B935BA0DBB0DBC0D890B0B29CC1BA4
:1012240039140130C935CA0DCB0DCC0D890B1429E5
:10123400FF30C707FF30C83D0829CE01CC1F38292D
:10124400FF304905BD00FF304A05BE00FF304B05A5
:10125400BF007F304C05C00040083F043E043D04FD
:1012640003193918362938290130CE004E080319DC
:101274005F290130B9070030BA3DBB3DBC3D3C1C81
:101284005F293908BD003A08BE003B08BF003C088E
:10129400C0000130C100C037BF0CBE0CBD0CC10B77
:1012A4004D294008BC003F08BB003E08BA003D0879
:1012B400B9000130C7070030C83D4808803ABD0076
:1012C40080303D02031D6829FF304702031C772943
:1012D400FF302000C7000030C8000030BC000030E0
:1012E400BB000030BA000030B90020004808803A42
:1012F400BD0080303D02031D8129013047020318DF
:101304008F292000C701C8010030BC000030BB0099
:101314000030BA000030B900C60120004708CD00F3
:101324004D1C9629BB1798297F30BB054D08BD007D
:101334000130BD36890B9B293D08BC008828520822
:101344008039DF005235E100D11B611461080319B3
:10135400B929610A031DB6290030D2000030D1003A
:101364000030D0000030CF00D117D201C1290030A5
:10137400D2000030D1000030D0000030CF00560839
:101384008039E00060085F06031D5F175635E000F2
:10139400D51B601460080319DD29600A031DDA29CE
:1013A4000030D6000030D5000030D4000030D30027
:1013B400D517D601E5290030D6000030D50000301D
:1013C400D4000030D3006108600203180B2A5F1FA9
:1013D400ED298030DF066108E2006008E100620860
:1013E400E0004F08E2005308CF006208D300500821
:1013F400E2005408D0006208D4005108E200550805
:10140400D1006208D5005208E2005608D2006208F2
:10141400D600E2016008D700D8015808DA00610854
:101424005702D900031CDA035A08803ADB008030E3
:101434005B02031D1F2A1A305902031C512A200083
:101444005208510450044F0403192A2A01302B2A4C
:101454000030E2000030D2000030D1000030D00073
:101464000030CF006008E100562A621C432A62085B
:10147400D7000130D736890B3C2A57080138E200DF
:10148400452A0310E20C4F18E2170130D700D23777
:10149400D10CD00CCF0CD70B492A0130E107200026
:1014A40060086102031C372A5F1B892A6108031D37
:1014B400642A0030D2000030D1000030D000003067
:1014C400CF0008005308CF075408D03D5508D13D3C
:1014D4005608D23D521C022B621C7A2A6208D7009D
:1014E4000130D736890B732A57080138E2007C2A69
:1014F4000310E20C4F18E2170130D700D237D10C99
:10150400D00CCF0CD70B802A0130E107022B5208F4
:10151400803AD7005608803A5702031D9B2A550883
:101524005102031D9B2A54085002031D9B2A530891
:101534004F020318D02AFF30D700FF30D800FF3005
:10154400D900FF30DA004F085302DB005008543B47
:10155400DC005108553BDD005208563BDE005B08B9
:10156400D7075C08D83D5D08D93D5E08DA3D5A08C6
:10157400D2005908D1005808D0005708CF00803055
:10158400DF066203FF3AE2006208031DD82A013035
:10159400CF070030D03DD13DD23DD82A5308CF02E9
:1015A4005408D03B5508D13B5608D23B520851044D
:1015B40050044F04031D002B6208031D002B003050
:1015C400D2000030D1000030D0000030CF0008003D
:1015D4000130CF35D00DD10DD20D890BEB2AE21B92
:1015E4004F14621CF92A0314620DE200FB2A031053
:1015F400E20D61080319002B0130E102D11FEA2A30
:10160400E001E21F0D2B62087F3903194F180B2BE1
:101614000D2B0130E00060080319352B0130CF0792
:101624000030D03DD13DD23D521C352B4F08D70060
:101634005008D8005108D9005208DA000130DB0004
:10164400DA37D90CD80CD70CDB0B222B5A08D20072
:101654005908D1005808D0005708CF00610A03196F
:10166400352B0130E107610A031D6108031D452B79
:101674000030D2000030D1000030D0000030CF0064
:1016840061080319DF01611C492BD1174B2B7F30F3
:10169400D1056108D7000130D736890B4E2B570886
:1016A400D200DF1F0800D217080064009A317522A7
:1016B4008B3125082100C300200026082100C40026
:1016C400C501C601A731B5278B3125082100BF000C
:1016D400200026082100C000C101C20122006C03C1
:1016E400031D952B03302000A2000030A30021002D
:1016F40044082000A100210043082000A0009831E4
:1017040000208B312108A5002008A4009431D024A6
:101714008B312408A7002508A800890D893B890975
:10172400A900AA00B12B0030F9000030F800003005
:10173400F7000330F60021004608F5004508F400E0
:101744004408F3004308F200A6314C268B31750897
:10175400AA007408A9007308A8007208A700013041
:101764009C3148248B312A082100CA002000290812
:101774002100C900200028082100C80020002708F3
:101784002100C7004208803AB7004608803A370271
:10179400031DD62B45084102031DD62B44084002E5
:1017A400031DD62B43083F0203183B2C3F0843027A
:1017B400B7004008443BB8004108453BB900420823
:1017C400463BBA003A082000A7002100390820004F
:1017D400A600210038082000A500210037082000B9
:1017E400A400210043083F07BB004408403DBC005F
:1017F4004508413DBD004608423DBE003E08F50097
:101804003D08F4003C08F3003B08F2000030F90006
:101814000030F8000030F7006430F600A6314C26A2
:101824008B317508AB007408AA007308A90072080C
:10183400A8009B31CB238B3127082100C600200050
:1018440026082100C500200025082100C40020002E
:1018540024082100C300C61B442C4608031D3B2C4E
:101864004508031D3B2CE83043020330443B031C72
:10187400442C00302100C6000030C5000330C400F1
:10188400E730C30044302000B8007A30B70000309D
:10189400B6000030B50021004A082000E60021000F
:1018A40049082000E500210048082000E400210048
:1018B40047082000E30022006B082100B700B801AC
:1018C400B901BA013A082000AA0021003908200011
:1018D400A900210038082000A800210037082000B2
:1018E400A70001309C3148248B312A08EA002908DA
:1018F400E9002808E8002708E7008D3172258B31BC
:101904006608BC006508BB006408BA006308B90037
:10191400883136208B3138082100CA00200037086E
:101924002100C900200036082100C8002000350825
:101934002100C7003F302000B800B430B700FD30AC
:10194400B600F430B50021004A082000BC00210094
:1019540049082000BB00210048082000BA002100EB
:1019640047082000B900883136208B31380821001F
:10197400CA00200037082100C900200036082100D1
:10198400C800200035082100C70022004903031DB8
:10199400D02C42302000B8004830D42C40302000F5
:1019A400B800A030B7000030B6000030B500210008
:1019B4004A082000E600210049082000E500210033
:1019C40048082000E400210047082000E30021002B
:1019D4004A082000EA00210049082000E90021000B
:1019E40048082000E800210047082000E7008D3166
:1019F40072258B316608BC006508BB006408BA0018
:101A04006308B900883136208B3138082100CA00B8
:101A1400200037082100C900200036082100C80032
:101A2400200035082100C7003F302000D2000030DC
:101A3400D1000030D0000030CF0021004A0820003F
:101A4400D600210049082000D500210048082000C4
:101A5400D400210047082000D3008931A1218B3113
:101A640052082100CA00200051082100C9002000AA
:101A740050082100C80020004F082100C7004A0870
:101A8400B0004908AF004808AE004708AD009A31DD
:101A940016228B312E082200AB0021002D082200D3
:101AA400AA002100C61B632D4608031D692D4508A5
:101AB400031D692D4408031D692D64304302031876
:101AC400692DE7302200AC000330AD00080021008E
:101AD40044082200AD00210043082200AC000800A5
:101AE400660880392100A000200066352100A2008C
:101AF4002000E51F7F2D2100221421002208031954
:101B0400922D220A031D8F2D00302000E6000030A4
:101B1400E5000030E4000030E3002000E5179B2DD1
:101B240000302000E6000030E5000030E400003022
:101B3400E3006A0880392100A00620006A352100EC
:101B4400A1002000E91FA82D210021142100210853
:101B54000319BB2D210A031DB82D00302000EA0013
:101B64000030E9000030E8000030E7002000E91709
:101B7400C42D00302000EA000030E9000030E80005
:101B84000030E70021002108031D2208031DD42D85
:101B940000302000E6000030E5000030E4000030B2
:101BA400E300080020006308F20069088731E02799
:101BB4008D3173082100AC007208AB002B082000A3
:101BC400EB00EC01ED01EE016E082100A6002000FF
:101BD4006D082100A50020006C082100A40020004D
:101BE4006B082100A3002C082000EB00EC01ED01A0
:101BF400EE016E082100AA0020006D082100A90052
:101C040020006C082100A80020006B082100A70018
:101C140020006408F20068088731E0278D317308DA
:101C24002100AC007208AB002B082000EB00EC0193
:101C3400ED01EE016B082100A30720006C082100D0
:101C4400A43D20006D082100A53D20006E08210060
:101C5400A63D2C082000EB00EC01ED01EE016B0821
:101C64002100A70720006C082100A83D20006D0872
:101C74002100A93D20006E082100AA3D200065082E
:101C8400F20067088731E0278D3173082100AC002A
:101C94007208AB002B082000EB00EC01ED01EE0113
:101CA4006B082100A30720006C082100A43D20003C
:101CB4006D082100A53D20006E082100A63D2C08DA
:101CC4002000EB00EC01ED01EE016B082100A707F9
:101CD40020006C082100A83D20006D082100A93DCA
:101CE40020006E082100AA3D0830A335A40DA50DDF
:101CF400A60D890B772E20006408F200670887314F
:101D0400E0278D3173082100AC007208AB002B086A
:101D1400A3072C08A43D0030A53DA63D2000630880
:101D2400F20068088731E0278D3173082100AC0088
:101D34007208AB002B08A3072C08A43D0030A53D76
:101D4400A63D0830A335A40DA50DA60D890BA42E20
:101D540020006308F20067088731E0278D3173089B
:101D64002100AC007208AB002B08A3072C08A43D8B
:101D74000030A53DA63D20006408F20069088731C3
:101D8400E0278D3173082100AC007208AB002B08EA
:101D9400A7072C08A83D0030A93DAA3D20006508EE
:101DA400F20068088731E0278D3173082100AC0008
:101DB4007208AB002B08A7072C08A83D0030A93DEA
:101DC400AA3D20006508F20069088731E0278D31BB
:101DD40073082100AC007208AB002B082000EB0054
:101DE40021002C082000EC00ED01EE010830EB3559
:101DF400EC0DED0DEE0D890BF92E6B082100A707F4
:101E040020006C082100A83D20006D082100A93D98
:101E140020006E082100AA3D26082000EB00EC01FA
:101E2400ED01EE016B082100A70720006C082100DA
:101E3400A83D20006D082100A93D20006E08210066
:101E4400AA3D0830A335A40DA50DA60D890B242F9A
:101E5400220821072000EB00EC01EC0D6B08823E08
:101E64002100AB00FF3020006C3D2100AC00A91B19
:101E7400502F0130A735A80DA90DAA0D890B3C2FB1
:101E8400A61B27140130A335A40DA50DA60D890B9F
:101E9400452FFF30AB07FF30AC3D392FA101A61F02
:101EA400722FFF3023052000EB00FF3021002405B2
:101EB4002000EC00FF30210025052000ED007F30DC
:101EC400210026052000EE006E086D046C046B04EE
:101ED400031D6F2F2100271C722F01302100A10048
:101EE40021080319A72F0130A7070030A83DA93DF9
:101EF400AA3D2A1CA72F27082000EB002100280850
:101F04002000EC00210029082000ED0021002A080F
:101F14002000EE000130EF00EE37ED0CEC0CEB0C82
:101F2400EF0B8E2F6E082100AA0020006D082100FF
:101F3400A90020006C082100A80020006B082100E3
:101F4400A7000130AB070030AC3D2C08803A2000DC
:101F5400EB0080306B02031DB22FFF3021002B02F7
:101F6400031CBE2F7F302100AA008030A90000305E
:101F7400A8000030A700EE2F21002C08803A200092
:101F8400EB0080306B02031DCA2F013021002B02AD
:101F94000318D72F00302100AA000030A900003018
:101FA400A8000030A700A001EE2F21002B08A200FA
:101FB400FF30A705FF30A8057F30A9050030AA052A
:101FC4002218A91722082000EB000130EB36890BF8
:101FD400E82F6B082100AA002008AA042A08200080
:101FE400E600210029082000E5002100280820003F
:101FF400E400210027082000E30008002108F7007E
:102004002008F600A43181249031DE30F200A8309B
:10201400F300A5311225903120002308F300220893
:10202400F200A53112259031DE30F200A830F30021
:10203400A5311225080064002200CF01A801A901DE
:10204400D00193313023903122002D08803AE300EF
:1020540080306302031D30286E302C02031C0800FC
:10206400A331E323903122004808031D3C289A3110
:10207400D52290313230F2000030F300A4313524FF
:10208400903193313023903122002D08D9002C084F
:10209400D8002D08803AE30080306302031D5428E1
:1020A4006E302C02031C080023002E08803A220004
:1020B400E30080306302031D62286F3023002D0289
:1020C400031C732823002E08803A2200E3002D0805
:1020D400803A6302031D71282C0823002D02031C7F
:1020E40008008631BE26903122002C082D04031DE1
:1020F4007E28A331E32308002D08803AE3008030D2
:102104006302031D872878302C02031C0800053065
:1021140022006D06031D922805306E06031908007F
:1021240006306E02031C9D287B08D1000130FB00A1
:1021340092316822903122002D08803AE3008030E9
:102144006302031DA72878302C02031C0800063004
:1021540022006D02031CB5287A08D2000130FA006F
:102164009131A0219031053022006E06031DBC2858
:102174000130C72806306E06031DC2280230C72866
:1021840007306E06031DC8280430FB0005306D06B9
:10219400031DCE280130D92806306D06031DD4282E
:1021A4000230D92807306D06031DDA280430FA00FE
:1021B40064000800031AE12801302200C000A6319F
:1021C400B1269031A33119239031A3315B2390318F
:1021D4002C30F2000130F300A43135249031640036
:1021E4008331B52390312C30F2000130F300A43157
:1021F400352490316400053022006E06031D042945
:1022040001300F2906306E06031D0A2902300F29FA
:1022140007306E06031D10290430FB0005306D06DF
:10222400031D16290130212906306D06031D1C29C2
:102234000230212907306D06031D22290430FA00DB
:102244002C30F2000130F300A431352490316400C5
:102254002C30F2000130F300A431352490316400B5
:102264002C30F2000130F300A431352490316400A5
:102274002C30F2000130F300A43135249031640095
:102284002C30F2000130F300A43135249031640085
:10229400FF30A3319D2390312200D400FE30A331BE
:1022A4009D2390312200D500FD30A3319D23903130
:1022B4002200D300FC30A3319D2390312500C500BA
:1022C400C6014508C600C50145082200D8002500FE
:1022D40046082200D900FB30A3319D23903125000C
:1022E400C500C60145082200D8072500460822007B
:1022F400D93D55089D316225903122005408A631FC
:10230400E926903122005308A3316423903122003E
:102314004003031D8F290130BF009831B62090314E
:102324009A31D522903164009631BD269031953191
:10233400BD2590319F314227903195297A08F200CA
:1023440022005208A3317E2391312100EB002200A8
:10235400540821006B07E9007A08E400E501053020
:10236400E435E50D890BB2296408FF3EE600FF3031
:10237400653DE7006708803AE80080306802031D85
:10238400C529690866020318D1297A082100E400E6
:102394000530E435890BCB296408FF3EE9002200AF
:1023A400540821006B020318DD296B082200540233
:1023B4002100EA00DE29EA016A082200D400540858
:1023C400A631E926913193313023913122002C0832
:1023D4002D04031908002D082100ED0022002C080B
:1023E4002100EC006A087A07EE006E086902031CFB
:1023F400632A6E08A631E926913193313023913155
:1024040022002C082D04031908002D08803A21000D
:10241400E4006D08803A6402031D132A6C0822004C
:102424002C02031C1F2A0A30F2000030F300A431EE
:102434003524913193313023913122002D08803A93
:102444002100E4006D08803A6402031D2C2A6C0804
:1024540022002C02031C382A0A30F2000030F30058
:10246400A4313524913193313023913122002D0848
:10247400803A2100E4006D08803A6402031D452A75
:102484006C0822002C020318632A22002D08210064
:10249400ED0022002C082100EC006E082200D4007C
:1024A4002D08803A2100E40080306402031D5D2A77
:1024B400783022002C02031C632A7A082100EE07DC
:1024C400F72922005408A631E92608007B08F20007
:1024D40022005108A3317E2392312100EB00220017
:1024E400550821006B07E9007B08E400E50105308D
:1024F400E435E50D890B7A2A6408FF3EE600FF30D7
:10250400653DE7006708803AE80080306802031DF3
:102514008D2A690866020318992A7B082100E400C1
:102524000530E435890B932A6408FF3EE900220054
:10253400550821006B020318A52A6B0822005502D6
:102544002100EA00A62AEA016A082200D5005508FB
:102554009D316225923193313023923122002C082F
:102564002D04031908002D082100ED0022002C0879
:102574002100EC006A087B07EE006E086902031C68
:102584002B2B6E089D316225923193313023923189
:1025940022002C082D04031908002D08803A21007C
:1025A400E4006D08803A6402031DDB2A6C082200F3
:1025B4002C02031CE72A0A30F2000030F300A43195
:1025C4003524923193313023923122002D08803A00
:1025D4002100E4006D08803A6402031DF42A6C08AB
:1025E40022002C02031C002B0A30F2000030F300FE
:1025F400A4313524923193313023923122002D08B5
:10260400803A2100E4006D08803A6402031D0D2B1A
:102614006C0822002C0203182B2B22002D08210009
:10262400ED0022002C082100EC006E082200D500E9
:102634002D08803A2100E40080306402031D252B1C
:10264400783022002C02031C2B2B7B082100EE0780
:10265400BF2A220055089D31622508008B3157237B
:10266400933164304F0603194F2B0130CF072908EB
:10267400803A2100E30022002B08803A2100630203
:10268400031D472B22002A0828020318652B220069
:102694002B08A9002A08A800652BCF0129082100CE
:1026A400B800220028082100B70022002D082100CC
:1026B400BA0022002C082100B9008031692093312E
:1026C4002200A801A90122002B08803A2100E3007E
:1026D40023003208803A21006302031D752B230076
:1026E400310822002A020318DB2B64008B315723A4
:1026F400933164304F060319972B0130CF07290813
:10270400803A2100E30022002B08803A2100630272
:10271400031D8F2B22002A0828020318AD2B220048
:102724002B08A9002A08A800AD2BCF0129082100F5
:10273400B800220028082100B70022002D0821003B
:10274400BA0022002C082100B9008031692093319D
:102754002200A801A9010D302000A000A10105302C
:10276400A200A301A30AA53139259331003A031924
:10277400BE2B01302200D0000D302000A000A101AA
:102784000530A200A301A531392593312100E300CE
:1027940022005003031DD02B0130D12B0030210027
:1027A40063050319652B983168202200AC01AD0143
:1027B400080023003008803A2100E30022002B089F
:1027C400803A21006302031DEB2B22002A08230018
:1027D4002F020318080023003008803A2100E30088
:1027E40080306302031DF92B013023002F02031CE8
:1027F4000800772B2000A600B02C7B302606031D92
:10280400082C01302200D7000130622C013008006E
:102814007D302606031D132C2200D701B10105309B
:10282400080022302606031DCE2C2200B0010230FF
:10283400622C22302606031D222C03302200622C37
:102844000F30220030020318CE2C3008D93E860007
:102854000130870020002608810001302200B007E3
:102864003008D93E86000130AD2C22302606031DE7
:102874003F2C2200B0010530622C74302606031D63
:102884004D2C01302200D600492C2200D601013003
:10289400B10002300800663026060319472C303098
:1028A4002602031CCE2C3A3026020318CE2C26080E
:1028B400D03E2200AE00FF3003180030AF000430D9
:1028C400B100CE2C30302602031C8B2C3A30260269
:1028D40003188B2C22002F082000A10022002E08B0
:1028E4002000A0000A30A2000030A300983100208C
:1028F400933126082007A4000030213DA5002408B8
:10290400D03E2200AE00FF302000253D2200AF0063
:10291400CE2C01302200B1000330080022302606FC
:10292400031D992C01302200B100043008000F303F
:10293400220030020318CE2C3008203E86000230DC
:10294400870020002608810001302200B0073008EB
:10295400203E8600023087008101CE2C22003108FF
:102964002000A400A5012508003A0319BA2CCE2C96
:102974002408003A0319FF2B013A03190A2C033ADD
:1029840003191B2C013A0319372C073A0319642C39
:10299400013A0319902CCE2C003008002508803A07
:1029A400A60080302602031DD92C513024020318BE
:1029B400DF2C2000A401A501080020002508803A8E
:1029C400A60080302602031DE92CAC302402031833
:1029D400F12CF4302000A4070030A53D08002000AD
:1029E4002508803AA60081302602031DFB2C4930BD
:1029F40024020318032DFE302000A4070030A53D57
:102A0400080020002508803AA60082302602031D13
:102A14000D2D473024020318152D18302000A4076B
:102A24000130A53D080020002508803AA600833027
:102A34002602031D1F2D353024020318272D2930AB
:102A44002000A4070130A53D080020002508803A95
:102A5400A60084302602031D312D4D3024020318B4
:102A6400392D36302000A4070130A53D0800200090
:102A74002508803AA60088302602031D432D86309F
:102A8400240203184B2DAE302000A4070130A53DCD
:102A9400080020002508803AA6008C302602031D79
:102AA400552DFB30240203185D2DE4302000A407CB
:102AB4000130A53D080020002508803AA600923088
:102AC4002602031D672D1030240203186F2D1230C7
:102AD4002000A4070230A53D080020002508803A04
:102AE400A60096302602031D792DE7302402031830
:102AF400812D88302000A4070230A53D0800200065
:102B04002508803AA6009B302602031D8B2DEB304E
:102B140024020318932DE7302000A4070230A53DBA
:102B2400080020002508803AA600A1302602031DD3
:102B34009D2D373024020318A52D20302000A40732
:102B44000330A53D080020002508803AA600A930DE
:102B54002602031DAF2D053024020318B72D48307B
:102B64002000A4070330A53D08005C302000A40722
:102B74000330A53D0800952E6708A531E925953158
:102B8400952ED930F200C530F300A830F400A531F9
:102B94006225953172087304031DE62D2200450851
:102BA400031DE22D4603031DD92D0130DA2D00301B
:102BB40056060319E02DA4310B2495310130222E41
:102BC400A3314A239531952ED930F2006430F300B5
:102BD400A830F400A5316225953172087304031DF1
:102BE400012E22004503031DF92D0130FA2D00307A
:102BF40056060319E02D993107219531E02DD9307E
:102C0400F200B530F300A830F400A5316225953107
:102C140072087304031D122EA33142239531952E9D
:102C2400D930F2006B30F300A830F400A5316225EE
:102C3400953172087304031D242E640001302200B0
:102C4400BC00952ED930F200C030F300A830F40057
:102C5400A5316225953172087304031DE22DA33159
:102C6400F7239531E02DD930F200E830F300A83095
:102C7400F400A5316225953172087304031D4E2EAC
:102C840022002F082000A50022002E082000A40006
:102C9400A431C8249531952ED930F200EC30F300DC
:102CA400A830F400A5316225953172087304031D20
:102CB400642E22002F082300A80022002E082300DF
:102CC400A700952ED930F2009D30F300A830F4000F
:102CD400A5316225953172087304031DE22D22008B
:102CE4002E082000A00023002708A431A324953136
:102CF40028082000A500230027082000A400A431F0
:102D0400C8249531952ED930F200CA30F300A8308A
:102D1400F400A5316225953172087304031DE22D78
:102D2400A6317E269531A4311F249531E70067082A
:102D340003190800803067020318080064002200A9
:102D440067089331FC2395312200E500E60166080B
:102D5400003A0319AE2E952E6508013A0319BE2DCB
:102D6400033A0319C32D013A0319352E073A0319FF
:102D7400852E952E992E2100E101E20123003308CE
:102D84009C3E2100DF00FF302300343D2100E000A1
:102D94002200AA01AB01640078302100DC00DD01CF
:102DA4005C085D020318022F8B31572396312100F2
:102DB4006208803AD90022002B08803A2100590287
:102DC400031DE82E22002A08210061020318F72EB1
:102DD40022002B082100E20022002A082100E10041
:102DE40022002D08A3002C08A2000330F2000030BA
:102DF400F300A4313524963101302100DD07D22EB1
:102E0400640021006208803AD90080305902031D11
:102E14000D2F64306102031C392F0A30F200003098
:102E2400F30021006108053EF4000030623DF50026
:102E340098311B20963173082100E2007208E100EA
:102E44000A302000A0000030A10021006208200008
:102E5400A300210061082000A200983100209631CF
:102E640021082100E200200020082100E1002100C7
:102E740062082300AC00210061082300AB002C0889
:102E8400803A2100D90080305902031D4C2F0A30AA
:102E940023002B020318512F2200A201A3012200B8
:102EA4002308F3002208F200A331BF239631013036
:102EB4002100DE0022002508803A2100D9002200EA
:102EC4002308803A21005902031D6B2F2200220897
:102ED40024020318832F2200240822022100D9008F
:102EE40022002508233B2100DA006008803ADB0039
:102EF4005A08803A5B02031D812F59085F02031CA4
:102F0400B42F22002308803A2100D900220025088A
:102F1400803A21005902031D922F22002408220224
:102F24000318AA2F2200220824022100D90022001B
:102F34002308253B2100DA006008803ADB005A08A8
:102F4400803A5B02031DA82F59085F02031CB42FAB
:102F5400E730220024060330031925060319B42F91
:102F64002100DE0122002308803A2100D900230039
:102F74003408803A21005902031DC42F230033086A
:102F840022002202031CC82F0130C92F0030220066
:102F9400460521005E050319D22F01302200C70027
:102FA40023002C082100B80023002B082100B700BF
:102FB400220023082100BA00220022082100B900BF
:102FC400803169209631640022004E03031D0800FD
:102FD4004A302000A000A830A100A3318D239631EF
:102FE400640010302300E9002730EA00220023089F
:102FF400F3002208F200A331BF230800F801F9010D
:10300400201C08282208F8072308F93D0130A235BE
:10301400A30D890B09280130A136A00C890B0E28B9
:1030240020082104031D02287908A1007808A000C3
:103034000800F701F31F2528F209F309F20A03191E
:10304400F30A0130F700F51F2E28F409F509F40AF4
:103054000319F50A0130F706F801F901720873043F
:1030640003195B280130F600F31B40280130F235C8
:10307400F30D890B39280130F60736280130F8356D
:10308400F90D890B412873087502031D4B2872083A
:103094007402031C52287208F4027308F53B781476
:1030A4000130F336F20C890B53280130F602031D6C
:1030B4004028770803196328F809F909F80A03195D
:1030C400F90A7908F3007808F2000800A331E32331
:1030D400983101302200D3005308A331642398317E
:1030E4002000A001FF30A431A32498312000A001C6
:1030F400FE30A431A32498312000A001A00AFD30A1
:10310400A431A32498312000A001FC30A431A324CD
:1031140098312000A001FB30A431A32498319A31C6
:10312400D52298312200BE012300D8010130D800F5
:103134002200AC01AD01AA01AB01A401A501B53087
:103144002000A000A830A100A3318D239831640091
:1031540010302300E9002730EA001030EB0027305C
:10316400EC009631BD260800640022003F08031DD0
:103174000029F130F200A830F300A531122598316E
:103184005C302000A000A830A100A3318D23983129
:10319400A3315223983197302000A000A830A10019
:1031A4001330A200A830A30090310020983172306F
:1031B4002000A000A830A1008530A200A830A30000
:1031C400903100209831FC302000A000A830A100EC
:1031D400E030A200A830A300903100209831913053
:1031E4002000A000A830A1008B30A200A830A300CA
:1031F400903100209831A3313423983164009A31FE
:10320400D52201302200BC000800640022004508D9
:10321400031D38290130C5005408C4005508C300F3
:103224005308C200D4014B0803191B29FF30D500F1
:103234001C29D5010130D30055089D3162259931EF
:1032440022005408A631E926993122005308A331FB
:103254006423993122003E08031D33299A31D52273
:10326400993122004608C100C6015629C501440807
:10327400D4004308D5004208D3005408A631E926F7
:103284009931220055089D31622599312200530855
:10329400A3316423993122003E08031D53299A3136
:1032A400D52222004108C600640001302200BC007F
:1032B40008006400C0302000A000A830A100A331A1
:1032C4008D23993190311D20993122003E08031D30
:1032D4004808031D70299A31D522993122005408D7
:1032E4002000A000FF30A431A32499312200550806
:1032F4002000A000FE30A431A324993122005308F9
:103304002000A000FD30A431A32499310030F20044
:103314000130F30022005908F5005808F4009831F0
:103324001B20993172082000A000FC30A431A32492
:103334009931220058082000A000FB30A431A324B6
:1033440099311030E9002730EA001030EB002730C3
:10335400EC009631BD2622002D08A5002C08A400FF
:103364002300D8010130D800640008000D3020008B
:10337400A000A1013230A200A301A5313925993161
:10338400003A0319EE29FA30F2000030F300A431B8
:1033940035249931640022005308031DD4290130D7
:1033A400D300D529D3015308A331642399319A3129
:1033B400D52299310D302000A000A1013230A200A5
:1033C400A301A53139259931003A0319EE29963123
:1033D400BD2699316400DC290D302000A0000230A4
:1033E400A1003230A200A301A53139259931003A58
:1033F400031D640022004508031D022A0130032A2C
:1034040000302100E3000D302000A000A101A10A3A
:103414003230A200A301A531392599312100630579
:10342400031908006400080003102F0D300DB600C6
:103434003608031D262A0030B0000030AF000030EB
:10344400AE000030AD0008002D08B1002E08B20017
:103454002F08B3003008B4001F30B436B30CB20CDC
:10346400B10C890B2F2A3108B500AF17FF30AD0519
:10347400FF30AE05FF30AF050030B0059630B60220
:10348400B61F552A3608803A973E031C1D2A013080
:10349400B036AF0CAE0CAD0C890B4A2A0130B6071E
:1034A4000319662A492A2030360203181D2A3608D1
:1034B4000319662A0130AD35AE0DAF0DB00D890B81
:1034C4005D2A0130B602592A350803190800AD09EE
:1034D400AE09AF09B009AD0A0319AE0A0319AF0A60
:1034E4000319B00A0800813022009700171F782AB8
:1034F4000130A5318D259A317308A8007208A70000
:1035040003302802E930031927020318912A220004
:10351400CE0120002808A6002708A5000800823054
:1035240022009700171F942A0130A5318D259A3166
:103534007308A8007208A70003302802E9300319B1
:1035440027020318AD2A2200CE0120002735A5004A
:10355400280DA6000800833022009700171FB02A08
:103564000130A5318D259A317308A8007208A7008F
:1035740003302802E93003192702031CC52A01304D
:103584002200CE00C72A2200CE0120002808F8001D
:103594002708F700F735F80DF735F80D7708A5007B
:1035A4007808A6000800640022005508F400F2011F
:1035B400F301741CE22A23004108F2074208F33D98
:1035C400F41CE92A23003F08F2074008F33D741D68
:1035D400F02A23003D08F2073E08F33DF41DF72AC4
:1035E40023003B08F2073C08F33D741EFE2A230027
:1035F4003908F2073A08F33DF41E052B2300370877
:10360400F2073808F33D741F0C2B23003508F2072A
:103614003608F33D73082300D4007208D300640015
:10362400F201F30122005408F500751C1E2B23003F
:103634004F08F2075008F33DF51C252B23004D08D5
:10364400F2074E08F33D751D2C2B23004B08F2079F
:103654004C08F33DF51D332B23004908F2074A08B3
:10366400F33D751E3A2B23004708F2074808F33D43
:10367400F51E412B23004508F2074608F33D751F4C
:10368400482B23004308F2074408F33D7308230042
:10369400D2007208D10064000800003072052000D6
:1036A400A00000307305A10080307405A2007F30B3
:1036B4007505A3002308220421042004031D6A2B9A
:1036C4000030F5000030F4000030F3000030F20068
:1036D40000307605A00000307705A1008030780521
:1036E400A2007F307905A3002308220421042004CA
:1036F400031D842B0030F9000030F8000030F7007F
:103704000030F600F51F9E2B0030A0000030A10011
:103714000030A2008030A3007208A0027308A13B0D
:103724007408A23B7508A33B2308F5002208F400A3
:103734002108F3002008F200F91FB82B0030A00084
:103744000030A1000030A2008030A3007608A0025F
:103754007708A13B7808A23B7908A33B2308F9002A
:103764002208F8002108F7002008F6008030F5064A
:103774008030F90679087502031D08007808740280
:10378400031D080077087302031D080076087202FF
:103794000800AD01A71FDB2BA409A509A609A709E9
:1037A400A40A0319A50A0319A60A0319A70A0130D2
:1037B400AD00AB1FEA2BA809A909AA09AB09A80AFD
:1037C4000319A90A0319AA0A0319AB0A0130AD06A1
:1037D4000030B1000030B0000030AF000030AE0067
:1037E40027082604250424040319312C0130AC00D5
:1037F400A71B062C0130A435A50DA60DA70D890B1A
:10380400FD2B0130AC07FA2B0130AE35AF0DB00DF6
:10381400B10D890B072C27082B02031D1B2C26082E
:103824002A02031D1B2C25082902031D1B2C240816
:103834002802031C262C2408A8022508A93B2608D4
:10384400AA3B2708AB3B2E140130A736A60CA50CC7
:10385400A40C890B272C0130AC02031D062C2D0867
:1038640003193F2CAE09AF09B009B109AE0A031917
:10387400AF0A0319B00A0319B10A3108A7003008C6
:10388400A6002F08A5002E08A4000800AF002F08EA
:10389400031DAA1F5D2C2709B1002809B2002909BC
:1038A400B3002A09B400B10A0319B20A0319B30A0E
:1038B4000319B40A652C2A08B4002908B30028089F
:1038C400B2002708B1002A08290428042704031D8C
:1038D400742C0030AA000030A9000030A800003089
:1038E400A70008009630B000FE3034050319932C6D
:1038F4000130B0070130B436B30CB20CB10C890BF3
:103904007D2C762C0130B0070130B1070030B23D78
:10391400B33DB43D0130B436B30CB20CB10C890BD9
:103924008D2CFF3034050319A52C842C0230300271
:10393400031CA72C0130B0020130B135B20DB30D18
:10394400B40D890B9F2CB31F982C3018B12CFF3069
:10395400B105FF30B2057F30B305FF30B405031065
:10396400B00C3008AB00AC01AD01AE011830AB3582
:10397400AC0DAD0DAE0D890BB92C2B08B1042C0880
:10398400B2042D08B3042E08B4042F08031DAA1F83
:10399400CC2CB4173408AA003308A9003208A800B4
:1039A4003108A70008002108F7002008F600A43118
:1039B40081249C312000B001B1010030A60024080C
:1039C400063CA500031CA6033108A700A80126088D
:1039D4002806031DEF2C25082706031DF72C3108A4
:1039E400293E860087012E30FC2C3108293E8600B2
:1039F4008701303081000130B10706303102031CE9
:103A0400DF2C0630B1003108293E860087012E30B4
:103A14000106031D0F2D0130B1023108293E860035
:103A240087010A30F2000030F3002308F500220871
:103A3400F400A7312B279C317208303E81000130FD
:103A4400B1020A30F2000030F3002308F500220826
:103A5400F40098311B209C3173082000A3007208E5
:103A6400A20022082304031D052D0030A60024080B
:103A7400053CA500031CA6032608803AA700803055
:103A84002702031D472D3108250203184D2D200060
:103A94002408053CB10020003108013E293E86007F
:103AA40087012E300106031D592D0130B102310862
:103AB400013E293EF2000030F300A5311225080032
:103AC4002000A0002008A10022004B08031D9E2D09
:103AD4002000211C702D22008D15722D22008D11C5
:103AE4002000A11C782D22000C157A2D22000C1127
:103AF4002000211D802D22000D16822D22000D1282
:103B04002000A11D882D22008C158A2D22008C11E5
:103B14002000211E902D22008D16922D22008D1240
:103B24002000A11E982D22008C169A2D22008C12A2
:103B34002000211BE62DE92D03102000211C031475
:103B4400031CA72D22008D15A92D22008D11031011
:103B54002000A11C0314031CB22D22000C15B42D4B
:103B640022000C1103102000211D0314031CBD2D81
:103B740022000D16BF2D22000D1203102000A11DDE
:103B84000314031CC82D22008C15CA2D22008C118D
:103B940003102000211E0314031CD32D22008D16B4
:103BA400D52D22008D1203102000A11E0314031C26
:103BB400DE2D22008C16E02D22008C120310200032
:103BC400211F0314031CE92D22000C16EB2D2200E7
:103BD4000C122708F8002608F700A3312D2308004B
:103BE40003302100E7002200D4015408A631E9265D
:103BF4009D3103302200D200933130239D312200C5
:103C04002C082D04031908001430F2000030F300CE
:103C14002D08F5002C08F40098311B209D3122005A
:103C24002C0872072100E50022002D08733D2100B5
:103C3400E6000330E8007A08F2006808A3317E2326
:103C44009D31A631E9269D31933130239D312200E7
:103C54002C082D04031908002D08803A2100E400E3
:103C64006608803A6402031D3A2E650822002C027D
:103C740003188C2E1430F2000030F30022002D08BB
:103C8400F5002C08F40098311B209D3122002C08EB
:103C940072072100E50022002D08733D2100E60093
:103CA4007A08F2006808A3317E239D312200D400F3
:103CB400210067082200D2002D08803A2100E40088
:103CC40080306402031D692E783022002C02031C0C
:103CD4008C2E21006708E80722004C08031D7A2E69
:103CE400093021006806031D7A2E0830E800872E6B
:103CF40022004C08031D872E113021006806031D85
:103D0400872E1030E8000430E700203021006802DC
:103D1400031C1D2E22005408A631E9260800033096
:103D24002100EE00EC0103302200D1000330210019
:103D3400ED001430F2000030F30022002D08F500ED
:103D44002C08F40098311B209E3122002C087207A5
:103D54002100EA0022002D08733D2100EB00EF0151
:103D64007B08F2006F08A3317E239E319D316225CA
:103D74009E319D31F2259E31933130239E312200B4
:103D84002C082D04031908002D08803A2100E900AD
:103D94006B08803A6902031DD22E6A0822002C02A5
:103DA40003182A2F1430F2000030F30022002D08EB
:103DB400F5002C08F40098311B209E3122002C08B9
:103DC40072072100EA0022002D08733D2100EB0058
:103DD4007B08F2006F08A3317E239E312200D500B8
:103DE40054082100EC006E082200D1005208210082
:103DF400ED0022002D08803A2100E900803069029C
:103E0400031D072F783022002C02031C2A2F2100C7
:103E14006E08EF0722004D08031D182F09302100FA
:103E24006F06031D182F0830EF00252F22004D08C0
:103E3400031D252F113021006F06031D252F10307F
:103E4400EF000430EE00203021006F02031CB22E7C
:103E540021006C082200D40055089D3162259E3152
:103E640022005408A631E9269E3121006D08220063
:103E7400D2000A30F2000030F300A43135240800E7
:103E84005708031D08003D0803194F2FBD013730A3
:103E94002000A400A331D1239F313C08031908005A
:103EA400BC01A33152239F31C5302000A000A830AB
:103EB400A100220046080319612F0130622F00304F
:103EC4002000A200A4314C249F3164302000A000C3
:103ED400A830A100220045080319722F0130732F66
:103EE40000302000A200A4314C249F312108803AE4
:103EF4002000B20080303202031D832F01302200E3
:103F04002002031C962F40302000A000A830A100FE
:103F1400220021082000A300220020082000A20083
:103F2400A4019C31D5249F3122004908031D9E2FF2
:103F340001302000B500A02F2000B501A930A00059
:103F4400A830A10023002A082000A3002300290888
:103F54002000A2003508A4009C31D5249F31E43010
:103F64002000A000A830A100220023082000A30004
:103F7400220022082000A2000230A4009C31D52493
:103F84009F3153030319CB2FF9302000B300A8301D
:103F9400CF2FF6302000B300A830B400A330A00027
:103FA400A830A1003408A3003308A20090310020F7
:103FB4009F311F302000A000A830A1002300520828
:103FC4002000A300230051082000A200A4019C317A
:103FD400D5249F312B302000A000A830A10023005D
:103FE40054082000A300230053082000A200A401C9
:0C3FF4009C31D5249F31A33134230800F8
:1046320022008D140800103427341034273401343A
:10464200640080010131890B222B0034FE0012002C
:104652001E00FE0B282B00347808F3007708F200C6
:10466200A43135240800D430F200A830F300A5317B
:104672001225080025340234013420340134073471
:1046820007346400983168202200C5010130BC0063
:104692000800AF302000A000A830A100A3318D2374
:1046A20008002200B201F330F200A830F300A53175
:1046B20012250800F83021009505951595128B16E4
:1046C2000B178B170800F900790C031C0E10031846
:1046D2000E142708F8002608F700A3312D2308003E
:1046E200F2000F30F2050A30720203187B2B7208B7
:1046F200303E08007208573E0800F400F301741CB3
:10470200842B7208F3070310F20D0310F40C7408E3
:10471200031D802B730808003730F2002108F400D3
:104722002008F3001430F5000030F600A6311A26F6
:1047320001302200BD000800F40064002300951837
:104742009E2B7408F200F301720891007308920024
:104752003F309505151413080800F7000F30770550
:10476200F5000A30F2007708F6000430F636890BBD
:10477200B72B7608A3317E237507080023006A0849
:104782007306031DC62B690872060319CF2B730823
:10479200EA007208E90001302200BC00640008004F
:1047A200A3315223A3317F302000A000A830A10002
:1047B2002408A2000230A30090310020A331A331CB
:1047C200342308002200D501D40155089D31622509
:1047D200A33122005408A631E926A331220027087A
:1047E200F8002608F700A3312D23080064000130E9
:1047F2002300D800D801FA30F2000030F300A431CF
:104802003524A33199315B212200C501C701013052
:10481200BC000800640022004608031D132C01306E
:10482200C600142CC60146082000A0000230A431A4
:10483200A324640001302200BC00080022003A08D0
:104842003B06031D262C003008003A08A03E8600D5
:10485200023087000108F2000130BA0725303A021F
:104862000318BA01720808007308F6007208F5000E
:10487200640075087604031908000630F40030302D
:10488200890B412CF40B412C003264000130F502FB
:104892000030F63B3A2C2108F7002008F600A4313C
:1048A2008124A4312000220803195E2CBB30F200BF
:1048B200A830F300A531122508007930F200A830A3
:1048C200F300A53112250800F7007508860087015C
:1048D2007708F6000430F636890B6C2C7608A33183
:1048E2007123A4318100750A860087017708A331FC
:1048F200712381007508023E86008701810108004C
:104902002200320803198C2CF030F200A830F30098
:10491200A5311225A431DC30F200A830F300A53114
:104922001225A4317708F3007608F200A53112258A
:10493200A431D830F200A830F300A531122501309D
:10494200B20008002000A30023009518A52C200027
:104952002308A100A20121082300910020002208BF
:104962002300920020002008230093003F30950589
:1049720003108B1B03148B13151555309600AA30A8
:10498200960095141511031C08008B17080064008B
:10499200A3315223A4312630F50020002408A4318B
:1049A2006524A4312930F50020002408A3319D2379
:1049B200A431A4316524A431640026302000A00073
:1049C2000030A1002930A2000030A3009031002065
:1049D200A431A3313423080020342034203420347D
:1049E2002034203420342034203420342034203425
:1049F2002034203420342034203420342034203415
:104A02002034203420342034203420342034203404
:104A120020342034203420342034203420342034F4
:104A22000A34F501220039080319292D6400132DD7
:104A320075084B3E860002308700750872078400B5
:104A420073080318013E8500000881000130F50754
:104A520075087207840073080318013E850012006E
:104A6200031D192D75082200E8000130B900080065
:104A72002208F7005D2D0D08422D0D0C422D0D0C64
:104A8200890C0139F8004E2D20002108003A031943
:104A92003C2D013A03193E2D402D780823060319B7
:104AA200542D003008000130F2000030F300A43130
:104AB2003524A5310130F7027708031D452DFF305B
:104AC2000800702D72088600013087000108031962
:104AD2007E2D0130F2070130F3070030F43D7308F8
:104AE2008400740885000008F50072088600013011
:104AF2008700010875060319632D720886000130CC
:104B02008700730884007408850000080102F2001F
:104B1200F301031CF30308002000A0002008F400A6
:104B2200F40DF40D21001D087406833974069D00EE
:104B32009D140630890B9B2D003221009D189E2D5D
:104B42001B082000A30021001C082000A400240848
:104B5200F400F5017408F500F40123087407A100BC
:104B62000030753DA2002208F3002108F20008007F
:104B720000302000A000A830A100A3318D23A53170
:104B8200A331E323A53101302200D3005308A3311E
:104B92006423A531220054082000A000FF30A43174
:104BA200A324A531220055082000A000FE30A43124
:104BB200A324A531220053082000A000FD30A43117
:104BC200A324A53101302200BF009831B62008008D
:104BD200E40072306406031DF82DFA30F200003052
:104BE200F300A4313524A531A3314223A531743019
:104BF20064060319FF2D47080319092EFA30F20043
:104C02000030F300A4313524A531A331F723A531B7
:104C120062306406031D102E99310721A5316130DF
:104C22006406031D08004508031D0800A4310B2477
:104C320008007208F900750876040319412E013044
:104C4200F5020030F63B7908860002308700F90A47
:104C52007408F8007308F700F30A0319F40A7708D6
:104C62008400780885000008C03F89080319412E96
:104C72001C2E790886000230870081010130F90775
:104C82000130F5020030F63B750A031D3A2E760A12
:104C9200031908003A2E00302000A3000030A200C1
:104CA2000030A1000030A000721C602E76082000A7
:104CB200A0077708A13D7808A23D7908A33D0130FD
:104CC200F635F70DF80DF90D890B612E0130F53629
:104CD200F40CF30CF20C890B682E7508740473043F
:104CE2007204031D552E20002308F5002208F4004B
:104CF2002108F3002008F20008006400A3315223C7
:104D0200A6312000AA01AB012430F5002A08A43103
:104D12006524A6312730F50020002A08A3319D23FF
:104D2200A631A4316524A631640024302000A000FD
:104D32000030A1002730A2000030A30090310020F3
:104D4200A63101302000AA070030AB3D01302B0212
:104D5200003003192A02031C852EA33134230800D4
:104D62006400210097121716971117159710640007
:104D7200C03023008C050C148C14C0308D05220029
:104D8200911393137A302100990020008C018D0138
:104D92008E01C03022008C008D018E010330210073
:104DA2008C0007308D008E010D158D108731FF2785
:104DB2001E149E14813022009700A33021009E0011
:104DC2001D14951324000D148D140D158B1308005A
:104DD2002000A0002008A100211CF22E22008E1724
:104DE200F42E22008E132000A11CFA2E22008E1512
:104DF200FC2E22008E112000211D022F22000E17F0
:104E0200042F22000E132000A11D0A2F22000E15CE
:104E12000C2F22000E112000211E122F22008E16AE
:104E2200142F22008E122000A11E1A2F22008E148F
:104E32001C2F22008E102000211F222F22000E166E
:104E4200242F22000E122708F8002608F700A331AB
:104E52002D230800F701F51F352FF409F509F40A8F
:104E62000319F50A0130F700F31F3C2FF209F30989
:104E7200F20A0319F30A720873040319612F01304D
:104E8200F600F31B4C2F0130F235F30D890B452F41
:104E92000130F607422F73087502031D522F720864
:104EA2007402031C582F7208F4027308F53B013098
:104EB200F336F20C890B592F0130F602031D4C2FE9
:104EC20077080319692FF409F509F40A0319F50A99
:104ED2007508F3007408F20008000D0C890C013902
:104EE200F10022003508031D7E2F7108031D7E2F5D
:104EF200B3010130B5000530E90069080319842FB8
:104F02000130E90208000330E900AC2F0310B40CB1
:104F12007108F0000730F035890B8C2F7008B4044B
:104F22000130B30708303306031D08000230B50014
:104F320008007103031DAA2F3B08A03E8600023021
:104F42008700340881000130BB0725303B0203187B
:104F5200BB01B50108003508013A0319872F033A4E
:104F620003199A2FB42F0800813022009700171FCF
:104F7200B82F0030A5318D25A7317308A80072081B
:104F8200A70003302802E930031927020318CE2FA5
:104F92002808A6002708A5000800823022009700F2
:104FA200171FD12F0030A5318D25A7317308A80016
:104FB2007208A70003302802E930031927020318F8
:104FC200E72F2735A500280DA60008008330220010
:104FD2009700171FEA2F0030A5318D257308A8000E
:104FE2007208A7002808F8002708F700F735F80D1F
:104FF200F735F80D7708A5007808A60008005434A4
:1050020065347334743420346D346F3464346534ED
:10501200203469346E3464347534633474346F34D8
:10502200723400344134543455342D3431343034F4
:1050320030345F34453458345434003443346134AA
:105042007034613463346934743461346E3463347B
:105052006534003449346E346434753463347434E2
:1050620061346E34633465340034433461347034F3
:1050720061346334693474346F34723400346534A7
:10508200663466346934633465346E346334793437
:1050920000344F347634653472346C346F34613496
:1050A2006434003449346E34643475346334743493
:1050B2006F3472340034533474346134723474345F
:1050C200753470340034423479347034613473345A
:1050D2007334003453347434613474347534733437
:1050E20000344334723465346434693474340034C3
:1050F200663461346C347334653400344534763448
:1051020065346E34743400344E34373444344434A9
:105112004334003475346B346F3464346134003496
:105122004234753469346C346434003442346F343C
:105132006134723464340034563461346C347534FE
:10514200653400344F34723464346534723400345C
:1051520050346F34773465347234003445347234E9
:1051620072346F34723400345234653473346534BB
:105172007434003474347234753465340034543405
:1051820075346E34653400344134753474346F349C
:105192000034443475346D34703400344C346F341C
:1051A2007334733400340A347D340A3400342234C4
:1051B2003A3420340034203420342234003433345E
:1051C2002E3432340034533457345234003447349A
:1051D20065347434003453346534743400342C34FC
:1051E2000A3400347B340A3400344C3443340034FF
:0C51F20043344C3400344634573400344D
:020000040001F9
:08000000FF3FFF3FFF3FFF3F00
:04000E00FC3FFF3F75
:10E00000780001000100150013000100000000006D
:10E0100002000000070000000700000001000000EF
:10E020000000500001001000020020000400500019
:10E03000100000002200000045000000FF00FF006B
:10E040000000100000002200000047000100000056
:10E05000020020000400700010000000FF00FF001C
:10E06000000011000000010000000000FF00FF00A0
:10E07000FF00FF00FF00FF00FF00FF00FF00FF00A8
:10E08000FF00FF00FF00FF00FF00FF00FF00FF0098
:10E09000FF00FF00FF00FF00FF00FF00FF00FF0088
:10E0A000FF00FF00FF00FF00FF00FF00FF00FF0078
:10E0B000FF00FF00FF00FF00FF00FF00FF00FF0068
:10E0C000FF00FF00FF00FF00FF00FF00FF00FF0058
:10E0D000FF00FF00FF00FF00FF00FF00FF00FF0048
:10E0E000FF00FF00FF00FF00FF00FF00FF00FF0038
:10E0F000FF00FF00FF00FF00FF00FF00FF00FF0028
:10E10000FF00FF00FF00FF00FF00FF00FF00FF0017
:10E11000FF00FF00FF00FF00FF00FF00FF00FF0007
:10E12000FF00FF00FF00FF00FF00FF00FF00FF00F7
:10E13000FF00FF00FF00FF00FF00FF00FF00FF00E7
:10E14000FF00FF00FF00FF00FF00FF00FF00FF00D7
:10E15000FF00FF00FF00FF00FF00FF00FF00FF00C7
:10E16000FF00FF00FF00FF00FF00FF00FF00FF00B7
:10E17000FF00FF00FF00FF00FF00FF00FF00FF00A7
:10E18000FF00FF00FF00FF00FF00FF00FF00FF0097
:10E19000FF00FF00FF00FF00FF00FF00FF00FF0087
:10E1A000FF00FF00FF00FF00FF00FF00FF00FF0077
:10E1B000FF00FF00FF00FF00FF00FF00FF00FF0067
:10E1C000FF00FF00FF00FF00FF00FF00FF00FF0057
:10E1D000FF00FF00FF00FF00FF00FF00FF00FF0047
:10E1E000FF00FF00FF00FF00FF00FF00FF00FF0037
:10E1F000FF00FF00FF000000000001000000000021
:00000001FF
