:1000000080311828013401347E148031003086009C
:10001000003087008B1A0B1D162837302000950002
:100020000B11A731B9278031883102207E100900D9
:1000300080311A28803102208031FA00803103207B
:100040008031FB0067308400A43085006730860073
:10005000013087000830A4314B24803141308400C6
:10006000A4308500DF308600013087000430A431E1
:100070004B248031DF308400A5308500C5308600F8
:10008000023087002530A4314B2480312030840099
:10009000013085003930A43145248031A0308400FE
:1000A000013085003F30A431452480312030840068
:1000B000023085003430A43145248031A0308400E2
:1000C000023085002530A43145247E102000913176
:1000D000E029640022004603031D7E282100380821
:1000E000803ABB0080303B02031D78280A3037027B
:1000F000031C7E2801302200BC00872822003C031C
:10010000031D85289B31932380312200BC016400AC
:100110002300620821003806031D9228230061088D
:10012000210037060319B32B38082300E200210011
:1001300037082300E100210038082300B100210026
:1001400037082300B00022003C03031DB02B5308E6
:10015000031DB5285208031DB52821003A082200C6
:10016000D800210039082200D70048082100BB0030
:10017000BC01BD01BE013E082000AA0021003D08CF
:100180002000A90021003C082000A80021003B0815
:100190002000A70001309D31062580312A08E600A5
:1001A0002908E5002808E4002708E3002200570892
:1001B0002000A700220058082000A800890D893BD4
:1001C0008909A900AA0001309D31062580312A083D
:1001D000B8002908B7002808B6002708B500423043
:1001E000BC00C830BB000030BA000030B900883114
:1001F000362080313808D2003708D1003608D000C8
:100200003508CF004230B800C830B7000030B60023
:100210000030B500220057082000A700220058082F
:100220002000A800890D893B8909A900AA00013096
:100230009D31062580312A08BC002908BB0028080A
:10024000BA002708B9008831362080313808D60036
:100250003708D5003608D4003508D3008931A121EC
:1002600080315208EA005108E9005008E8004F08C0
:10027000E7008D317225803166082100C200200020
:1002800065082100C100200064082100C000200092
:1002900063082100BF003F302000D2008030D10031
:1002A0000030D0000030CF003D30E600EB30E500FC
:1002B0008530E4001F30E3004130B8002030B70043
:1002C0000030B6000030B500210042082000BC001C
:1002D000210041082000BB00210040082000BA0096
:1002E00021003F082000B9008831362080313808CD
:1002F000EA003708E9003608E8003508E7008D31E4
:10030000722580316608D6006508D5006408D400DF
:100310006308D3008931A121803152082100CC002B
:10032000200051082100CB00200050082100CA0005
:1003300020004F082100C9004C082000B80021000F
:100340004B082000B70021004A082000B600210019
:1003500049082000B5003F30BC008030BB000030B1
:10036000BA000030B90088313620803138082100C9
:10037000D800200037082100D700200036082100CF
:10038000D600200035082100D50040302000D200E2
:100390000030D1000030D0000030CF004230B80033
:1003A000C830B7000030B6000030B5002100390871
:1003B0002000A70021003A082000A800890D893BF1
:1003C0008909A900AA0001309D31062580312A083B
:1003D000BC002908BB002808BA002708B9008831EA
:1003E000362080313808D6003708D5003608D400CA
:1003F0003508D3008931A121803152082100C6007F
:10040000200051082100C500200050082100C40030
:1004100020004F082100C30039082000A700210058
:100420003A082000A800890D893B8909A900AA0083
:1004300001309D31062580312A08B8002908B7000F
:100440002808B6002708B5004230BC00C830BB0001
:100450000030BA000030B9008831362080313808C9
:10046000D2003708D1003608D0003508CF0021006F
:1004700046082000D600210045082000D5002100B4
:1004800044082000D400210043082000D300893113
:10049000A121803152082100CC0020005108210008
:1004A000CB00200050082100CA0020004F08210086
:1004B000C9004C082000B80021004B082000B700FC
:1004C00021004A082000B600210049082000B5009C
:1004D0004030BC008030BB000030BA000030B900B2
:1004E00088313620803138082100D40020003708B8
:1004F0002100D300200036082100D200200035085A
:100500002100D1005808F5005708F4005608F30000
:100510005508F2003F30F9008030F8000030F70055
:100520000030F6009C310D248031031CA02A3F309E
:100530002100D8008030D7000030D6000030D50030
:1005400021005408F5005308F4005208F300510844
:10055000F2003F30F9008030F8000030F700003042
:10056000F6009C310D248031031CBF2A3F3021004E
:10057000D4008030D3000030D2000030D100210000
:1005800037082000A700210038082000A800890DA6
:10059000893B8909A900AA0001309D3106258031D7
:1005A0002A08EA002908E9002808E8002708E700E7
:1005B000210058082000E600210057082000E5002F
:1005C000210056082000E400210055082000E30027
:1005D0008D317225803166082100D0002000650829
:1005E0002100CF00200064082100CE002000630815
:1005F0002100CD0050082000EA0021004F08200013
:10060000E90021004E082000E80021004D082000EC
:10061000E700210054082000E600210053082000D4
:10062000E500210052082000E400210051082000CC
:10063000E3008D317225803166082100B000200072
:1006400065082100AF00200064082100AE002000F2
:1006500063082100AD009A31CD2280312E08C800F8
:100660002D08C70058082000EA0021005708200084
:10067000E900210056082000E8002100550820006C
:10068000E700210054082000E60021005308200064
:10069000E500210052082000E4002100510820005C
:1006A000E3008D317225803166082100D0002000E2
:1006B00065082100CF00200064082100CE00200042
:1006C00063082100CD0050082000EA0021004F08F7
:1006D0002000E90021004E082000E80021004D081C
:1006E0002000E7004230E600C830E5000030E400BA
:1006F0000030E3008D317225803166082100B000A2
:10070000200065082100AF00200064082100AE0031
:10071000200063082100AD009A31CD2280312E08DF
:100720002200A10021002D082200A0002108803A0B
:100730002100BB0080303B02031DA12B643022004E
:100740002002031CA82B63302200A0000030A1006F
:10075000210048082300B100210047082300B00011
:1007600001302200BA006400080064000230A431A5
:10077000BE248331013A031DC02B01302200C40086
:100780000330A431BE248331A431AD248331200051
:10079000A400A50124082200A600200025082200AC
:1007A000A7000430A431BE248331A431AD248331A9
:1007B0002000A400A5012408A0002508A1000A30FB
:1007C000A2000030A300A531612583312108230058
:1007D000BB00200020082300BA000530A431BE244D
:1007E0008331A431AD2483312000A400A501240865
:1007F000A0002508A1000A30A2000030A300A53106
:100800006125833121082300B9002000200823003E
:10081000B8000630A431BE248331A431AD24833125
:100820002000A400A5012408A0002508A1000A308A
:10083000A2000030A300A5316125833121082300E7
:10084000B700200020082300B6000930A431BE24E0
:100850008331A431AD2483312000A400A5012408F4
:10086000A0002508A1000A30A2000030A300A53195
:100870006125833121082300B500200020082300D2
:10088000B4000A30A431BE2483312200ED000B30C5
:10089000A431BE2483312200CB000C30A431BE240D
:1008A00083312200EC000D30A431BE2483312200BC
:1008B000CA000E30A431BE2483312200EB000F3079
:1008C000A431BE2483312200C90064001130A43158
:1008D000BE248331A431AD2483312000A400A501BE
:1008E0001030A431BE248331A431AD2483312000E3
:1008F000A600A7012608A0002708A1006430A200D6
:100900000030A300A531612583312408200723008E
:10091000C80020002508213D2300C9001330A43160
:10092000BE248331A431AD2483312000A400A5016D
:100930001230A431BE248331A431AD248331200090
:10094000A600A7012608A0002708A1006430A20085
:100950000030A300A531612583312408200723003E
:10096000C60020002508213D2300C7001530A43112
:10097000BE248331A431AD2483312000A400A5011D
:100980001430A431BE248331A431AD24833120003E
:10099000A600A7012608A0002708A1006430A20035
:1009A0000030A300A53161258331240820072300EE
:1009B000C40020002508213D2300C5001730A431C4
:1009C000BE248331A431AD2483312000A400A501CD
:1009D0001630A431BE248331A431AD2483312000EC
:1009E000A600A7012608A0002708A1006430A200E5
:1009F0000030A300A531612583312408200723009E
:100A0000C20020002508213D2300C3001930A43175
:100A1000BE248331A431AD2483312000A400A5017C
:100A20001830A431BE248331A431AD248331200099
:100A3000A600A7012608A0002708A1006430A20094
:100A40000030A300A531612583312408200723004D
:100A5000C00020002508213D2300C1001B30A43127
:100A6000BE248331A431AD2483312000A400A5012C
:100A70001A30A431BE248331A431AD248331200047
:100A8000A600A7012608A0002708A1006430A20044
:100A90000030A300A53161258331240820072300FD
:100AA000BE0020002508213D2300BF001D30A431D9
:100AB000BE248331A431AD2483312000A400A501DC
:100AC0001C30A431BE248331A431AD2483312000F5
:100AD000A600A7012608A0002708A1006430A200F4
:100AE0000030A300A53161258331240820072300AD
:100AF000BC0020002508213D2300BD002130A43189
:100B0000BE248331A431AD2483312000A400A5018B
:100B10002030A431BE248331A431AD2483312000A0
:100B2000A600A7012608A0002708A1006430A200A3
:100B30000030A300A531612583312408200723005C
:100B4000D60020002508213D2300D7002330A43102
:100B5000BE248331A431AD2483312000A400A5013B
:100B60002230A431BE248331A431AD24833120004E
:100B7000A600A7012608A0002708A1006430A20053
:100B80000030A300A531612583312408200723000C
:100B9000D40020002508213D2300D5002530A431B4
:100BA000BE248331A431AD2483312000A400A501EB
:100BB0002430A431BE248331A431AD2483312000FC
:100BC000A600A7012608A0002708A1006430A20003
:100BD0000030A300A53161258331240820072300BC
:100BE000D20020002508213D2300D3002730A43166
:100BF000BE248331A431AD2483312000A400A5019B
:100C00002630A431BE248331A431AD2483312000A9
:100C1000A600A7012608A0002708A1006430A200B2
:100C20000030A300A531612583312408200723006B
:100C3000D00020002508213D2300D1002930A43117
:100C4000BE248331A431AD2483312000A400A5014A
:100C50002830A431BE248331A431AD248331200057
:100C6000A600A7012608A0002708A1006430A20062
:100C70000030A300A531612583312408200723001B
:100C8000CE0020002508213D2300CF002B30A431C9
:100C9000BE248331A431AD2483312000A400A501FA
:100CA0002A30A431BE248331A431AD248331200005
:100CB000A600A7012608A0002708A1006430A20012
:100CC0000030A300A53161258331240820072300CB
:100CD000CC0020002508213D2300CD002D30A4317B
:100CE000BE248331A431AD2483312000A400A501AA
:100CF0002C30A431BE248331A431AD2483312000B3
:100D0000A600A7012608A0002708A1006430A200C1
:100D10000030A300A531612583312408200723007A
:100D2000CA0020002508213D2300CB003030A4312B
:100D3000BE2483312200C7003130A431BE24833168
:100D4000A431AD2483312200EA003330A431BE2423
:100D500083312200C6003430A431BE248331A43153
:100D6000AD2483312200C8003530A431BE24833144
:100D7000A431AD242300DE006400080022002D0809
:100D8000E1002C08E0009F314F27863122002C081B
:100D90002D04031DCE2EA431F324080094313224F7
:100DA000863122002D08803AD90080305902031D77
:100DB000DB2E78302C02031C080093316A23863125
:100DC00022002C082D040319CB2E943132248631B5
:100DD00022002D08803AD90080305902031DF22EDE
:100DE00078302C02031C08009231A22286312200A6
:100DF0002C082D040319CB2E943132248631220085
:100E00002D08803AD90080305902031D092F78300F
:100E10002C02031C080022002D08803AD9008030E3
:100E20005902031D152FC8302C020318362F22003B
:100E30002D08803AD9006108803A5902031D222FFB
:100E400060082C020318362F22002C086002D900FB
:100E50002D08613BDA005A08803ADB0080305B02E3
:100E6000031D342F653059020318080022002D0895
:100E7000E1002C08E0005308D900DA015908DC0031
:100E80005A08DD005208D900DA015908DE005A0874
:100E9000DF005103031D4E2FD101502F0130D1002F
:100EA000A431F324863122005108A43181248631F3
:100EB0003230F2000030F300A53131258631943113
:100EC0003224863122002D08803AD9008030590220
:100ED000031D6C2F78302C02031C08009F314F2714
:100EE000863122002C082D040319CB2E9431322494
:100EF000863122002D08803AD90080305902031D26
:100F0000832F78302C02031C080093316A2386312A
:100F100022002C082D040319CB2E94313224863163
:100F200022002D08803AD90080305902031D9A2FE3
:100F300078302C02031C08009231A2228631220054
:100F40002C082D040319CB2E943132248631220033
:100F50002D08803AD90080305902031DB12F783016
:100F60002C02031C080022006108803AD9002D08D9
:100F7000803A5902031DBE2F2C0860020318DE2F91
:100F800022005103031DC62FD101C82F0130D1000B
:100F90005108A4318124863122005C08D3005E0808
:100FA000D20053089E312026863122005208A731F4
:100FB000772722006108AD006008AC0064000800DB
:100FC000A400A001A1017208F400F5017408A200B8
:100FD0007508A300241CF02F2208A0072308A13DB8
:100FE0000130A235A30D890BF12F0310A40C2408A6
:100FF000031DEA2F2108F3002008F2000800080072
:101004006808031D08003508031D24283708031940
:10101400080067083602031821288D103608C53EDB
:101024008600023087000108B4002128341C1C28E3
:101034008D141D288D100310B40C21288D1401303B
:10104400B507080009303502031C18280B30350297
:10105400031C2028B5010130B60736086706031DB6
:101064000800B701B60108003C088039C6003C35C9
:10107400CD00BB1B4D144D0803194E284D0A031D0A
:101084004B280030BC000030BB000030BA000030F8
:10109400B900BB17BC0156280030BC000030BB00AF
:1010A4000030BA000030B90038088039C606383537
:1010B400CE00B71B4E144E0803196E284E0A031DAA
:1010C4006B280030B8000030B7000030B6000030A4
:1010D400B500B717B80176280030B8000030B70063
:1010E4000030B6000030B500380837043604350443
:1010F400031D93280030BC000030BB000030BA0050
:101104000030B9008030BB047F30BC044608BC0406
:101114003C08B8003B08B7003A08B6003908B500E7
:1011240008004D08031D9F280030B8000030B700A8
:101134000030B6000030B50008004D08BD00BE0107
:101144003E08C0004E083D02BF00031CC0033F0818
:101154007F3EC7000030403DC8003C08C5003B0846
:10116400C4003A08C3003908C2000030BC00003093
:10117400BB000030BA000030B9000030CC000030B1
:10118400CB000030CA000030C900CE011A304E0234
:10119400031802294E080319E6280130C235C30D8D
:1011A400C40DC50D890BD0280130B935BA0DBB0D5E
:1011B400BC0D890BD728CC1B39140130C935CA0D95
:1011C400CB0DCC0D890BE02838084502031DF4280B
:1011D40037084402031DF42836084302031DF4288B
:1011E40035084202031CFF284C173508C202360892
:1011F400C33B3708C43B3808C53B0130CE07C82879
:101204004508440443044204031D4914BB1B1F291D
:101214000130B935BA0DBB0DBC0D890B0B29CC1BA4
:1012240039140130C935CA0DCB0DCC0D890B1429E5
:10123400FF30C707FF30C83D0829CE01CC1F38292D
:10124400FF304905BD00FF304A05BE00FF304B05A5
:10125400BF007F304C05C00040083F043E043D04FD
:1012640003193918362938290130CE004E080319DC
:101274005F290130B9070030BA3DBB3DBC3D3C1C81
:101284005F293908BD003A08BE003B08BF003C088E
:10129400C0000130C100C037BF0CBE0CBD0CC10B77
:1012A4004D294008BC003F08BB003E08BA003D0879
:1012B400B9000130C7070030C83D4808803ABD0076
:1012C40080303D02031D6829FF304702031C772943
:1012D400FF302000C7000030C8000030BC000030E0
:1012E400BB000030BA000030B90020004808803A42
:1012F400BD0080303D02031D8129013047020318DF
:101304008F292000C701C8010030BC000030BB0099
:101314000030BA000030B900C60120004708CD00F3
:101324004D1C9629BB1798297F30BB054D08BD007D
:101334000130BD36890B9B293D08BC008828520822
:101344008039DF005235E100D11B611461080319B3
:10135400B929610A031DB6290030D2000030D1003A
:101364000030D0000030CF00D117D201C1290030A5
:10137400D2000030D1000030D0000030CF00560839
:101384008039E00060085F06031D5F175635E000F2
:10139400D51B601460080319DD29600A031DDA29CE
:1013A4000030D6000030D5000030D4000030D30027
:1013B400D517D601E5290030D6000030D50000301D
:1013C400D4000030D3006108600203180B2A5F1FA9
:1013D400ED298030DF066108E2006008E100620860
:1013E400E0004F08E2005308CF006208D300500821
:1013F400E2005408D0006208D4005108E200550805
:10140400D1006208D5005208E2005608D2006208F2
:10141400D600E2016008D700D8015808DA00610854
:101424005702D900031CDA035A08803ADB008030E3
:101434005B02031D1F2A1A305902031C512A200083
:101444005208510450044F0403192A2A01302B2A4C
:101454000030E2000030D2000030D1000030D00073
:101464000030CF006008E100562A621C432A62085B
:10147400D7000130D736890B3C2A57080138E200DF
:10148400452A0310E20C4F18E2170130D700D23777
:10149400D10CD00CCF0CD70B492A0130E107200026
:1014A40060086102031C372A5F1B892A6108031D37
:1014B400642A0030D2000030D1000030D000003067
:1014C400CF0008005308CF075408D03D5508D13D3C
:1014D4005608D23D521C022B621C7A2A6208D7009D
:1014E4000130D736890B732A57080138E2007C2A69
:1014F4000310E20C4F18E2170130D700D237D10C99
:10150400D00CCF0CD70B802A0130E107022B5208F4
:10151400803AD7005608803A5702031D9B2A550883
:101524005102031D9B2A54085002031D9B2A530891
:101534004F020318D02AFF30D700FF30D800FF3005
:10154400D900FF30DA004F085302DB005008543B47
:10155400DC005108553BDD005208563BDE005B08B9
:10156400D7075C08D83D5D08D93D5E08DA3D5A08C6
:10157400D2005908D1005808D0005708CF00803055
:10158400DF066203FF3AE2006208031DD82A013035
:10159400CF070030D03DD13DD23DD82A5308CF02E9
:1015A4005408D03B5508D13B5608D23B520851044D
:1015B40050044F04031D002B6208031D002B003050
:1015C400D2000030D1000030D0000030CF0008003D
:1015D4000130CF35D00DD10DD20D890BEB2AE21B92
:1015E4004F14621CF92A0314620DE200FB2A031053
:1015F400E20D61080319002B0130E102D11FEA2A30
:10160400E001E21F0D2B62087F3903194F180B2BE1
:101614000D2B0130E00060080319352B0130CF0792
:101624000030D03DD13DD23D521C352B4F08D70060
:101634005008D8005108D9005208DA000130DB0004
:10164400DA37D90CD80CD70CDB0B222B5A08D20072
:101654005908D1005808D0005708CF00610A03196F
:10166400352B0130E107610A031D6108031D452B79
:101674000030D2000030D1000030D0000030CF0064
:1016840061080319DF01611C492BD1174B2B7F30F3
:10169400D1056108D7000130D736890B4E2B570886
:1016A400D200DF1F0800D217080064009031032025
:1016B4008B3125082100C300200026082100C40026
:1016C400C501C60198318A208B3125082100BF004D
:1016D400200026082100C000C101C20122006B03C2
:1016E400031D952B03302000A2000030A30021002D
:1016F40044082000A100210043082000A000A531D7
:1017040061258B312108A5002008A4009531D0253E
:101714008B312408A7002508A800890D893B890975
:10172400A900AA00B12B0030F9000030F800003005
:10173400F7000330F60021004608F5004508F400E0
:101744004408F3004308F200A7310D278B317508D4
:10175400AA007408A9007308A8007208A700013041
:101764009D3106258B312A082100CA002000290852
:101774002100C900200028082100C80020002708F3
:101784002100C7004208803AB7004608803A370271
:10179400031DD62B45084102031DD62B44084002E5
:1017A400031DD62B43083F0203183B2C3F0843027A
:1017B400B7004008443BB8004108453BB900420823
:1017C400463BBA003A082000A7002100390820004F
:1017D400A600210038082000A500210037082000B9
:1017E400A400210043083F07BB004408403DBC005F
:1017F4004508413DBD004608423DBE003E08F50097
:101804003D08F4003C08F3003B08F2000030F90006
:101814000030F8000030F7006430F600A7310D27DF
:101824008B317508AB007408AA007308A90072080C
:10183400A8009C3189248B3127082100C600200090
:1018440026082100C500200025082100C40020002E
:1018540024082100C300C61B442C4608031D3B2C4E
:101864004508031D3B2CE83043020330443B031C72
:10187400442C00302100C6000030C5000330C400F1
:10188400E730C30044302000B8007A30B70000309D
:10189400B6000030B50021004A082000E60021000F
:1018A40049082000E500210048082000E400210048
:1018B40047082000E30022006A082100B700B801AD
:1018C400B901BA013A082000AA0021003908200011
:1018D400A900210038082000A800210037082000B2
:1018E400A70001309D3106258B312A08EA0029081A
:1018F400E9002808E8002708E7008D3172258B31BC
:101904006608BC006508BB006408BA006308B90037
:10191400883136208B3138082100CA00200037086E
:101924002100C900200036082100C8002000350825
:101934002100C7003F302000B800B430B700FD30AC
:10194400B600F430B50021004A082000BC00210094
:1019540049082000BB00210048082000BA002100EB
:1019640047082000B900883136208B31380821001F
:10197400CA00200037082100C900200036082100D1
:10198400C800200035082100C70022004703031DBA
:10199400D02C42302000B8004830D42C40302000F5
:1019A400B800A030B7000030B6000030B500210008
:1019B4004A082000E600210049082000E500210033
:1019C40048082000E400210047082000E30021002B
:1019D4004A082000EA00210049082000E90021000B
:1019E40048082000E800210047082000E7008D3166
:1019F40072258B316608BC006508BB006408BA0018
:101A04006308B900883136208B3138082100CA00B8
:101A1400200037082100C900200036082100C80032
:101A2400200035082100C7003F302000D2000030DC
:101A3400D1000030D0000030CF0021004A0820003F
:101A4400D600210049082000D500210048082000C4
:101A5400D400210047082000D3008931A1218B3113
:101A640052082100CA00200051082100C9002000AA
:101A740050082100C80020004F082100C7004A0870
:101A8400B0004908AF004808AE004708AD009A31DD
:101A9400CD228B312E082200AB0021002D0822001C
:101AA400AA002100C61B632D4608031D692D4508A5
:101AB400031D692D4408031D692D64304302031876
:101AC400692DE7302200AC000330AD00080021008E
:101AD40044082200AD00210043082200AC000800A5
:101AE400660880392100A000200066352100A2008C
:101AF4002000E51F7F2D2100221421002208031954
:101B0400922D220A031D8F2D00302000E6000030A4
:101B1400E5000030E4000030E3002000E5179B2DD1
:101B240000302000E6000030E5000030E400003022
:101B3400E3006A0880392100A00620006A352100EC
:101B4400A1002000E91FA82D210021142100210853
:101B54000319BB2D210A031DB82D00302000EA0013
:101B64000030E9000030E8000030E7002000E91709
:101B7400C42D00302000EA000030E9000030E80005
:101B84000030E70021002108031D2208031DD42D85
:101B940000302000E6000030E5000030E4000030B2
:101BA400E300080020006308F20069088731E02799
:101BB4008D3173082100AC007208AB002B082000A3
:101BC400EB00EC01ED01EE016E082100A6002000FF
:101BD4006D082100A50020006C082100A40020004D
:101BE4006B082100A3002C082000EB00EC01ED01A0
:101BF400EE016E082100AA0020006D082100A90052
:101C040020006C082100A80020006B082100A70018
:101C140020006408F20068088731E0278D317308DA
:101C24002100AC007208AB002B082000EB00EC0193
:101C3400ED01EE016B082100A30720006C082100D0
:101C4400A43D20006D082100A53D20006E08210060
:101C5400A63D2C082000EB00EC01ED01EE016B0821
:101C64002100A70720006C082100A83D20006D0872
:101C74002100A93D20006E082100AA3D200065082E
:101C8400F20067088731E0278D3173082100AC002A
:101C94007208AB002B082000EB00EC01ED01EE0113
:101CA4006B082100A30720006C082100A43D20003C
:101CB4006D082100A53D20006E082100A63D2C08DA
:101CC4002000EB00EC01ED01EE016B082100A707F9
:101CD40020006C082100A83D20006D082100A93DCA
:101CE40020006E082100AA3D0830A335A40DA50DDF
:101CF400A60D890B772E20006408F200670887314F
:101D0400E0278D3173082100AC007208AB002B086A
:101D1400A3072C08A43D0030A53DA63D2000630880
:101D2400F20068088731E0278D3173082100AC0088
:101D34007208AB002B08A3072C08A43D0030A53D76
:101D4400A63D0830A335A40DA50DA60D890BA42E20
:101D540020006308F20067088731E0278D3173089B
:101D64002100AC007208AB002B08A3072C08A43D8B
:101D74000030A53DA63D20006408F20069088731C3
:101D8400E0278D3173082100AC007208AB002B08EA
:101D9400A7072C08A83D0030A93DAA3D20006508EE
:101DA400F20068088731E0278D3173082100AC0008
:101DB4007208AB002B08A7072C08A83D0030A93DEA
:101DC400AA3D20006508F20069088731E0278D31BB
:101DD40073082100AC007208AB002B082000EB0054
:101DE40021002C082000EC00ED01EE010830EB3559
:101DF400EC0DED0DEE0D890BF92E6B082100A707F4
:101E040020006C082100A83D20006D082100A93D98
:101E140020006E082100AA3D26082000EB00EC01FA
:101E2400ED01EE016B082100A70720006C082100DA
:101E3400A83D20006D082100A93D20006E08210066
:101E4400AA3D0830A335A40DA50DA60D890B242F9A
:101E5400220821072000EB00EC01EC0D6B08823E08
:101E64002100AB00FF3020006C3D2100AC00A91B19
:101E7400502F0130A735A80DA90DAA0D890B3C2FB1
:101E8400A61B27140130A335A40DA50DA60D890B9F
:101E9400452FFF30AB07FF30AC3D392FA101A61F02
:101EA400722FFF3023052000EB00FF3021002405B2
:101EB4002000EC00FF30210025052000ED007F30DC
:101EC400210026052000EE006E086D046C046B04EE
:101ED400031D6F2F2100271C722F01302100A10048
:101EE40021080319A72F0130A7070030A83DA93DF9
:101EF400AA3D2A1CA72F27082000EB002100280850
:101F04002000EC00210029082000ED0021002A080F
:101F14002000EE000130EF00EE37ED0CEC0CEB0C82
:101F2400EF0B8E2F6E082100AA0020006D082100FF
:101F3400A90020006C082100A80020006B082100E3
:101F4400A7000130AB070030AC3D2C08803A2000DC
:101F5400EB0080306B02031DB22FFF3021002B02F7
:101F6400031CBE2F7F302100AA008030A90000305E
:101F7400A8000030A700EE2F21002C08803A200092
:101F8400EB0080306B02031DCA2F013021002B02AD
:101F94000318D72F00302100AA000030A900003018
:101FA400A8000030A700A001EE2F21002B08A200FA
:101FB400FF30A705FF30A8057F30A9050030AA052A
:101FC4002218A91722082000EB000130EB36890BF8
:101FD400E82F6B082100AA002008AA042A08200080
:101FE400E600210029082000E5002100280820003F
:101FF400E400210027082000E300080022008D14DB
:102004000800813022009700171F06280130A631EE
:102014007F2690317308A8007208A70003302802B5
:10202400E9300319270203181F282200CC012000DD
:102034002808A6002708A50008008230220097007F
:10204400171F22280130A6317F2690317308A8007B
:102054007208A70003302802E93003192702031885
:102064003B282200CC0120002735A500280DA6001E
:102074000800833022009700171F3E280130A63144
:102084007F2690317308A8007208A7000330280245
:10209400E93003192702031C532801302200CC0025
:1020A40055282200CC0120002808F8002708F70052
:1020B400F735F80DF735F80D7708A5007808A60070
:1020C40008005608031D08003B0803197028BB01CB
:1020D40030302000A400A431E12490313A080319DF
:1020E4000800BA01A4316F249031B8302000A00058
:1020F400A830A10022004408031982280130832853
:1021040000302000A200A531482590316430200021
:10211400A000A830A100220043080319932801302D
:10212400942800302000A200A531482590312108D0
:10213400803A2000B20080303202031DA42801300E
:1021440022002002031CB72840302000A000A83041
:10215400A100220021082000A30022002008200062
:10216400A200A4019D319325903122004708031D4C
:10217400BF2801302000B500C1282000B5019C30E3
:10218400A000A830A100230031082000A3002300F0
:1021940030082000A2003508A4009D319325903119
:1021A400D2302000A000A830A10022002308200083
:1021B400A300220022082000A2000230A4009D31C6
:1021C4009325903151030319EC28DF302000B3002C
:1021D400A830F028DC302000B300A830B4009630DA
:1021E400A000A830A1003408A3003308A200A53140
:1021F4007C2590311F302000A000A830A1002300CE
:1022040059082000A300230058082000A200A401BC
:102214009D31932590312B302000A000A830A100DF
:1022240023005B082000A30023005A082000A2001A
:10223400A4019D3193259031A431582408006400F1
:102244002200CD01A801A901CE019431322491319B
:1022540022002D08803AE20080306202031D3429F6
:102264006E302C02031C0800A431F32491312200A7
:102274004608031D40299B31932391313230F200EB
:102284000030F300A531312591319431322491315C
:1022940022002D08D8002C08D7002D08803AE2002F
:1022A40080306202031D58296E302C02031C080082
:1022B40023003508803A2200E20080306202031DC8
:1022C40066296F3023003402031C77292300350864
:1022D400803A2200E2002D08803A6202031D75292B
:1022E4002C0823003402031C08008631BE269131D9
:1022F40022002C082D04031D8229A431F324080094
:102304002D08803AE20080306202031D8B29783068
:102314002C02031C0800053022006C06031D9629BC
:1023240005306D060319080006306D02031CA1294F
:102334007B08CF000130FB0093316A2391312200E6
:102344002D08803AE20080306202031DAB29783008
:102354002C02031C0800063022006C02031CB9295D
:102364007A08D0000130FA009231A222913105306E
:1023740022006D06031DC0290130CB2906306D06ED
:10238400031DC6290230CB2907306D06031DCC2955
:102394000430FB0005306C06031DD2290130DD2911
:1023A40006306C06031DD8290230DD2907306C067F
:1023B400031DDE290430FA0064000800031AE5292D
:1023C40001302200BE00A7313F2791319031002017
:1023D4009131A431782491312C30F2000130F30092
:1023E400A5313125913164008331B52391312C30ED
:1023F400F2000130F300A53131259131640005303C
:1024040022006D06031D082A0130132A06306D06CA
:10241400031D0E2A0230132A07306D06031D142AE9
:102424000430FB0005306C06031D1A2A0130252AEE
:1024340006306C06031D202A0230252A07306C065C
:10244400031D262A0430FA002C30F2000130F30078
:10245400A5313125913164002C30F2000130F300B4
:10246400A5313125913164002C30F2000130F300A4
:10247400A5313125913164002C30F2000130F30094
:10248400A5313125913164002C30F2000130F30084
:10249400A531312591316400FF30A431BE2491313E
:1024A4002200D200FE30A431BE2491312200D30098
:1024B400FD30A431BE2491312200D100FC30A4317E
:1024C400BE249131E300E4016308E400E3016308FE
:1024D4002200D700230064082200D800FB30A43176
:1024E400BE249131E300E40163082200D7072300EE
:1024F40064082200D83D53089E31202691312200E1
:102504005208A7317727913122005108A431812440
:10251400913122003E03031D912A0130BD009931FF
:102524006E2191319B319323913164009631BD2604
:1025340091319B312C239131903163209131972A31
:102544007A08F20022005008A4318E24923121002E
:10255400EB002200520821006B07E9007A08E4002E
:10256400E5010530E435E50D890BB42A6408FF3E26
:10257400E600FF30653DE7006708803AE8008030F8
:102584006802031DC72A690866020318D32A7A0859
:102594002100E4000530E435890BCD2A6408FF3EB0
:1025A400E9002200520821006B020318DF2A6B089D
:1025B400220052022100EA00E02AEA016A0822000D
:1025C400D2005208A73177279231943132249231C4
:1025D40022002C082D04031908002D082100ED0009
:1025E40022002C082100EC006A087A07EE006E082D
:1025F4006902031C652B6E08A73177279231943149
:102604003224923122002C082D04031908002D08CD
:10261400803A2100E4006D08803A6402031D152B02
:102624006C0822002C02031C212B0A30F20000301B
:10263400F300A531312592319431322492312200B4
:102644002D08803A2100E4006D08803A6402031DDD
:102654002E2B6C0822002C02031C3A2B0A30F200A9
:102664000030F300A5313125923194313224923176
:1026740022002D08803A2100E4006D08803A6402AB
:10268400031D472B6C0822002C020318652B220023
:102694002D082100ED0022002C082100EC006E081A
:1026A4002200D2002D08803A2100E4008030640228
:1026B400031D5F2B783022002C02031C652B7A0843
:1026C4002100EE07F92A22005208A73177270800D3
:1026D4007B08F20022004F08A4318E24933121009C
:1026E400EB002200530821006B07E9007B08E4009B
:1026F400E5010530E435E50D890B7C2B6408FF3ECC
:10270400E600FF30653DE7006708803AE800803066
:102714006802031D8F2B6908660203189B2B7B0834
:102724002100E4000530E435890B952B6408FF3E55
:10273400E9002200530821006B020318A72B6B0841
:10274400220053022100EA00A82BEA016A082200B1
:10275400D30053089E31202693319431322493318F
:1027640022002C082D04031908002D082100ED0077
:1027740022002C082100EC006A087B07EE006E089A
:102784006902031C2D2C6E089E312026933194314E
:102794003224933122002C082D04031908002D083B
:1027A400803A2100E4006D08803A6402031DDD2BA9
:1027B4006C0822002C02031CE92B0A30F2000030C2
:1027C400F300A53131259331943132249331220021
:1027D4002D08803A2100E4006D08803A6402031D4C
:1027E400F62B6C0822002C02031C022C0A30F20087
:1027F4000030F300A53131259331943132249331E3
:1028040022002D08803A2100E4006D08803A640219
:10281400031D0F2C6C0822002C0203182D2C2200FF
:102824002D082100ED0022002C082100EC006E0888
:102834002200D3002D08803A2100E4008030640295
:10284400031D272C783022002C02031C2D2C7B081E
:102854002100EE07C12B220053089E3120260800D8
:102864008B315723943164304D060319512C0130B8
:10287400CD072908803A2100E30022002B08803A82
:1028840021006302031D492C22002A082802031890
:10289400672C22002B08A9002A08A800672CCD0168
:1028A40029082100B800220028082100B7002200CE
:1028B4002D082100BA0022002C082100B900803123
:1028C400692094312200A801A90122002B08803A32
:1028D4002100E30023003908803A21006302031D2C
:1028E400772C2300380822002A020318DD2C640008
:1028F4008B315723943164304D060319992C0130E0
:10290400CD072908803A2100E30022002B08803AF1
:1029140021006302031D912C22002A0828020318B7
:10292400AF2C22002B08A9002A08A800AF2CCD0147
:1029340029082100B800220028082100B70022003D
:102944002D082100BA0022002C082100B900803192
:10295400692094312200A801A9010D302000A000B3
:10296400A1010530A200A301A30AA6312B269431AC
:10297400003A0319C02C01302200CE000D30200093
:10298400A000A1010530A200A301A6312B26943199
:102994002100E30022004E03031DD22C0130D32C6E
:1029A4000030210063050319672C9831D5202200DB
:1029B400AC01AD01080023003708803A2100E30090
:1029C40022002B08803A21006302031DED2C220013
:1029D4002A08230036020318080023003708803A27
:1029E4002100E30080306302031DFB2C013023002F
:1029F4003602031C0800792C2000A600B02D7B3081
:102A04002606031D0A2D01302200D6000130622D56
:102A1400013008007D302606031D152D2200D60145
:102A2400AF010530080022302606031DCE2D2200FA
:102A3400AE010230622D22302606031D232D033001
:102A4400612D0F3022002E020318CE2D2E08443E95
:102A54008600023087002000260881000130220011
:102A6400AE072E08443EAB2D22302606031D3E2D14
:102A74002200AE010530622D74302606031D4C2D54
:102A840001302200D500482D2200D5010130AF00CD
:102A940002300800663026060319462D303026021F
:102AA400031CCE2D3A3026020318CE2D2608D03E24
:102AB4002300AE00FF3003180030AF0004302200C2
:102AC400AF00CE2D30302602031C8B2D3A30260267
:102AD40003188B2D23002F082000A10023002E08AB
:102AE4002000A0000A30A2000030A300A531612517
:102AF400943126082007A4000030213DA5002408B5
:102B0400D03E2300AE00FF302000253D2300AF005F
:102B1400CE2D01302200AF000330080022302606FB
:102B2400031D992D01302200AF00043008000F303E
:102B340022002E020318CE2D2E08203E86000230DD
:102B4400870020002608810001302200AE072E08ED
:102B5400203E8600023087008101CE2D22002F08FE
:102B64002000A400A5012508003A0319BA2DCE2D92
:102B74002408003A0319012D013A03190C2D033AD4
:102B840003191D2D013A0319362D073A0319642D33
:102B9400013A0319902DCE2D003008002508803A03
:102BA400A60080302602031DD92D513024020318BB
:102BB400DF2D2000A401A501080020002508803A8B
:102BC400A60080302602031DE92DAC302402031830
:102BD400F12DF4302000A4070030A53D08002000AA
:102BE4002508803AA60081302602031DFB2D4930BA
:102BF40024020318032EFE302000A4070030A53D54
:102C0400080020002508803AA60082302602031D11
:102C14000D2E473024020318152E18302000A40767
:102C24000130A53D080020002508803AA600833025
:102C34002602031D1F2E353024020318272E2930A7
:102C44002000A4070130A53D080020002508803A93
:102C5400A60084302602031D312E4D3024020318B1
:102C6400392E36302000A4070130A53D080020008D
:102C74002508803AA60088302602031D432E86309C
:102C8400240203184B2EAE302000A4070130A53DCA
:102C9400080020002508803AA6008C302602031D77
:102CA400552EFB30240203185D2EE4302000A407C7
:102CB4000130A53D080020002508803AA600923086
:102CC4002602031D672E1030240203186F2E1230C3
:102CD4002000A4070230A53D080020002508803A02
:102CE400A60096302602031D792EE730240203182D
:102CF400812E88302000A4070230A53D0800200062
:102D04002508803AA6009B302602031D8B2EEB304B
:102D140024020318932EE7302000A4070230A53DB7
:102D2400080020002508803AA600A1302602031DD1
:102D34009D2E373024020318A52E20302000A4072E
:102D44000330A53D080020002508803AA600A930DC
:102D54002602031DAF2E053024020318B72E483077
:102D64002000A4070330A53D08005C302000A40720
:102D74000330A53D08002100E101E20123003A08E7
:102D84009C3E2100DF00FF3023003B3D2100E0009A
:102D94002200AA01AB01640078302100DC00DD01CF
:102DA4005C085D020318022F8B31572396312100F2
:102DB4006208803AD90022002B08803A2100590287
:102DC400031DE82E22002A08210061020318F72EB1
:102DD40022002B082100E20022002A082100E10041
:102DE40022002D08A3002C08A2000330F2000030BA
:102DF400F300A5313125963101302100DD07D22EB3
:102E0400640021006208803AD90080305902031D11
:102E14000D2F64306102031C392F0A30F200003098
:102E2400F30021006108053EF4000030623DF50026
:102E340099312121963173082100E2007208E100E2
:102E44000A302000A0000030A10021006208200008
:102E5400A300210061082000A200A531612596315C
:102E640021082100E200200020082100E1002100C7
:102E740062082300B300210061082300B200330874
:102E8400803A2100D90080305902031D4C2F0A30AA
:102E9400230032020318512F2200A201A3012200B1
:102EA4002308F3002208F200A431CF249631013024
:102EB4002100DE0022002508803A2100D9002200EA
:102EC4002308803A21005902031D6B2F2200220897
:102ED40024020318832F2200240822022100D9008F
:102EE40022002508233B2100DA006008803ADB0039
:102EF4005A08803A5B02031D812F59085F02031CA4
:102F0400B42F22002308803A2100D900220025088A
:102F1400803A21005902031D922F22002408220224
:102F24000318AA2F2200220824022100D90022001B
:102F34002308253B2100DA006008803ADB005A08A8
:102F4400803A5B02031DA82F59085F02031CB42FAB
:102F5400E730220024060330031925060319B42F91
:102F64002100DE0122002308803A2100D900230039
:102F74003B08803A21005902031DC42F23003A085C
:102F840022002202031CC82F0130C92F0030220066
:102F9400440521005E050319D22F01302200C5002B
:102FA400230033082100B800230032082100B700B1
:102FB400220023082100BA00220022082100B900BF
:102FC400803169209631640022004C03031D0800FF
:102FD4004A302000A000A830A100A4319D249631DD
:102FE400640010302300DF002730E00022002308B3
:102FF400F3002208F200A431CF240800F701F51FE2
:103004000A28F409F509F40A0319F50A0130F7004E
:10301400F31F1128F209F309F20A0319F30A7208DB
:103024007304031936280130F600F31B21280130FC
:10303400F235F30D890B1A280130F60717287308A7
:103044007502031D272872087402031C2D287208B8
:10305400F4027308F53B0130F336F20C890B2E2889
:103064000130F602031D2128770803193E28F409CC
:10307400F509F40A0319F50A7508F3007408F20057
:103084000800E30072306306031D5728FA30F2008B
:103094000030F300A5313125983164009831D520F2
:1030A40098312200C3010130BA0074306306031959
:1030B4005E28450803197928FA30F2000030F3003D
:1030C400A53131259831640001302200D400D401A7
:1030D400FA30F2000030F300A531312598319A31ED
:1030E400132298312200C301C5010130BA006230B5
:1030F4006306031D80289931BF219831613063062E
:10310400031D08004308031D0800A5310725080016
:10311400813022009700171F8D280030A6317F26AA
:1031240098317308A8007208A70003302802E93018
:10313400031927020318A3282808A6002708A500B6
:103144000800823022009700171FA6280030A631FD
:103154007F2698317308A8007208A700033028025C
:10316400E930031927020318BC282735A500280DC8
:10317400A6000800833022009700171FBF280030E4
:10318400A6317F267308A8007208A7002808F80053
:103194002708F700F735F80DF735F80D7708A5007F
:1031A4007808A6000800A431F324983101302200E5
:1031B400D1005108A431812498312000A001FF30AE
:1031C400A531BB2598312000A001FE30A531BB25D7
:1031D40098312000A001A00AFD30A531BB2598310B
:1031E4002000A001FC30A531BB2598312000A001AE
:1031F400FB30A531BB2598319B31932398312200B4
:10320400BC01D4010130D400AC01AD01AA01AB0171
:10321400A401A501A8302000A000A830A100A43179
:103224009D249831640010302300DF002730E00033
:103234001030E1002730E2009631BD260800F70186
:10324400F31F2B29F209F309F20A0319F30A0130D7
:10325400F700F51F3429F409F509F40A0319F50AEE
:103264000130F706F801F9017208730403196129A2
:103274000130F600F31B46290130F235F30D890BBA
:103284003F290130F6073C290130F835F90D890B47
:10329400472973087502031D512972087402031C1F
:1032A40058297208F4027308F53B78140130F33698
:1032B400F20C890B59290130F602031D46297708BF
:1032C40003196929F809F909F80A0319F90A7908A7
:1032D400F3007808F2000800640022003D08031D92
:1032E400B829D730F200A830F300A631042699316A
:1032F4005C302000A000A830A100A4319D249931A5
:10330400A4316F24993190302000A000A830A1008E
:103314001330A200A830A300A5317C2599316B306D
:103324002000A000A830A1007E30A200A830A30095
:10333400A5317C259931E2302000A000A830A100FD
:10334400CE30A200A830A300A5317C2599318A3063
:103354002000A000A830A1008430A200A830A3005F
:10336400A5317C259931A4315824993164009B31CD
:10337400932301302200BA000800640022004308AD
:10338400031DF0290130C3005208C2005308C100D4
:103394005108C000D20149080319D329FF30D300D2
:1033A400D429D3010130D10053089E31202699310C
:1033B40022005208A7317727993122005108A431FD
:1033C4008124993122003C08031DEB299B3193236E
:1033D400993122004408BF00C4010E2AC3014208E7
:1033E400D2004108D3004008D1005208A731772702
:1033F4009931220053089E31202699312200510828
:10340400A4318124993122003C08031D0B2A9B31ED
:10341400932322003F08C400640001302200BA0054
:1034240008006400B3302000A000A830A100A4313B
:103434009D249A31913121219A3122003C08031DA7
:103444004608031D282A9B3193239A3122005208EF
:103454002000A000FF30A531BB259A31220053087B
:103464002000A000FE30A531BB259A31220051086E
:103474002000A000FD30A531BB259A310030F200B8
:103484000130F30022005808F5005708F400993180
:1034940021219A3172082000A000FC30A531BB25FF
:1034A4009A31220057082000A000FB30A531BB252B
:1034B4009A311030DF002730E0001030E10027306F
:1034C400E2009631BD2622002D08A5002C08A40098
:1034D400D4010130D400640008000D302000A000A5
:1034E400A1013230A200A301A6312B269A31003A61
:1034F4000319A52AFA30F2000030F300A531312572
:103504009A31640022005108031D8B2A0130D10036
:103514008C2AD1015108A43181249A319B319323FF
:103524009A310D302000A000A1013230A200A30185
:10353400A6312B269A31003A0319A52A9631BD26C5
:103544009A316400932A0D302000A0000230A100BB
:103554003230A200A301A6312B269A31003A031D72
:10356400640022004308031DB92A0130BA2A00303E
:103574002100E3000D302000A000A101A10A323097
:10358400A200A301A6312B269A3121006305031959
:1035940008006400080003102F0D300DB600360833
:1035A400031DDD2A0030B0000030AF000030AE0053
:1035B4000030AD0008002D08B1002E08B2002F081D
:1035C400B3003008B4001F30B436B30CB20CB10CE5
:1035D400890BE62A3108B500AF17FF30AD05FF307F
:1035E400AE05FF30AF050030B0059630B602B61F09
:1035F4000C2B3608803A973E031CD42A0130B0368F
:10360400AF0CAE0CAD0C890B012B0130B6070319BE
:103614001D2B002B203036020318D42A3608031938
:103624001D2B0130AD35AE0DAF0DB00D890B142B34
:103634000130B602102B350803190800AD09AE0994
:10364400AF09B009AD0A0319AE0A0319AF0A031989
:10365400B00A0800A5311B259B31E6006608031952
:103664000800803066020318080064007D2B660899
:10367400983143209B312C2B4430F200B830F300B6
:10368400A830F400A63154269B3172087304031D3C
:10369400622B22004308031D5E2B4403031D542B9D
:1036A4000130552B0030550603195B2BA531072536
:1036B4009B310130BA002C2BA4315F249B312C2B7D
:1036C4004430F2006430F300A830F400A6315426EC
:1036D4009B3172087304031D5E2B22004303031DF8
:1036E400752B0130762B0030550603195B2B99316D
:1036F400BF219B315B2B220066089431FE249B3151
:103704002200E400E5016508003A03198A2B2C2BFA
:103714006408013A0319392B033A03193E2B2C2B65
:10372400302B640022005308F400F201F301741CEE
:10373400A02B23004808F2074908F33DF41CA72BEB
:1037440023004608F2074708F33D741DAE2B2300FF
:103754004408F2074508F33DF41DB52B2300420845
:10376400F2074308F33D741EBC2B23004008F20704
:103774004108F33DF41EC32B23003E08F2073F0823
:10378400F33D741FCA2B23003C08F2073D08F33DA8
:1037940073082300DB007208DA006400F201F3010D
:1037A40022005208F500751CDC2B23005608F20792
:1037B4005708F33DF51CE32B23005408F207550882
:1037C400F33D751DEA2B23005208F2075308F33D1D
:1037D400F51DF12B23005008F2075108F33D751E27
:1037E400F82B23004E08F2074F08F33DF51EFF2B7C
:1037F40023004C08F2074D08F33D751F062C2300E7
:103804004A08F2074B08F33D73082300D9007208F5
:10381400D80064000800003072052000A0000030C9
:103824007305A10080307405A2007F307505A300E4
:103834002308220421042004031D282C0030F50051
:103844000030F4000030F3000030F2000030760560
:10385400A00000307705A10080307805A2007F30F9
:103864007905A3002308220421042004031D422C0B
:103874000030F9000030F8000030F7000030F600A6
:10388400F51F5C2C0030A0000030A1000030A20025
:103894008030A3007208A0027308A13B7408A23B05
:1038A4007508A33B2308F5002208F4002108F3005F
:1038B4002008F200F91F762C0030A0000030A1008F
:1038C4000030A2008030A3007608A0027708A13B54
:1038D4007808A23B7908A33B2308F9002208F800E2
:1038E4002108F7002008F6008030F5068030F9063C
:1038F40079087502031D080078087402031D080086
:1039040077087302031D0800760872020800AD01EF
:10391400A71F992CA409A509A609A709A40A031994
:10392400A50A0319A60A0319A70A0130AD00AB1FA3
:10393400A82CA809A909AA09AB09A80A0319A90A64
:103944000319AA0A0319AB0A0130AD060030B1000D
:103954000030B0000030AF000030AE00270826046D
:10396400250424040319EF2C0130AC00A71BC42C3C
:103974000130A435A50DA60DA70D890BBB2C013074
:10398400AC07B82C0130AE35AF0DB00DB10D890BBD
:10399400C52C27082B02031DD92C26082A02031D37
:1039A400D92C25082902031DD92C24082802031C1C
:1039B400E42C2408A8022508A93B2608AA3B2708CA
:1039C400AB3B2E140130A736A60CA50CA40C890B16
:1039D400E52C0130AC02031DC42C2D080319FD2C69
:1039E400AE09AF09B009B109AE0A0319AF0A031948
:1039F400B00A0319B10A3108A7003008A6002F083D
:103A0400A5002E08A4000800AF002F08031DAA1F5C
:103A14001B2D2709B1002809B2002909B3002A097E
:103A2400B400B10A0319B20A0319B30A0319B40A98
:103A3400232D2A08B4002908B3002808B200270857
:103A4400B1002A08290428042704031D322D00305C
:103A5400AA000030A9000030A8000030A700080028
:103A64009630B000FE3034050319512D0130B007F3
:103A74000130B436B30CB20CB10C890B3B2D342D90
:103A84000130B0070130B1070030B23DB33DB43D61
:103A94000130B436B30CB20CB10C890B4B2DFF3092
:103AA40034050319632D422D02303002031C652DA9
:103AB4000130B0020130B135B20DB30DB40D890B34
:103AC4005D2DB31F562D30186F2DFF30B105FF301B
:103AD400B2057F30B305FF30B4050310B00C3008D5
:103AE400AB00AC01AD01AE011830AB35AC0DAD0D82
:103AF400AE0D890B772D2B08B1042C08B2042D08C8
:103B0400B3042E08B4042F08031DAA1F8A2DB4176A
:103B14003408AA003308A9003208A8003108A70015
:103B240008002108F7002008F600A53199259D31E9
:103B34002000B001B1010030A6002408063CA50015
:103B4400031CA6033108A700A80126082806031DA4
:103B5400AD2D25082706031DB52D3108293E860005
:103B640087012E30BA2D3108293E86008701303076
:103B740081000130B10706303102031C9D2D06304F
:103B8400B1003108293E860087012E300106031D4D
:103B9400CD2D0130B1023108293E860087010A305B
:103BA400F2000030F3002308F5002208F4009831F5
:103BB40000209D317208303E81000130B1020A308C
:103BC400F2000030F3002308F5002208F4009931D4
:103BD40021219D3173082000A3007208A20022084D
:103BE4002304031DC32D0030A6002408053CA500B2
:103BF400031CA6032608803AA70080302702031D71
:103C0400052E3108250203180B2E20002408053C3C
:103C1400B10020003108013E293E860087012E3084
:103C24000106031D172E0130B1023108013E293E61
:103C3400F2000030F300A631042608002000A000A2
:103C44002008A10022004908031D5C2E2000211C2D
:103C54002E2E22008D15302E22008D112000A11C45
:103C6400362E22000C15382E22000C112000211DA6
:103C74003E2E22000D16402E22000D122000A11D02
:103C8400462E22008C15482E22008C112000211E65
:103C94004E2E22008D16502E22008D122000A11EC1
:103CA400562E22008C16582E22008C122000211B26
:103CB400A42EA72E03102000211C0314031C652E20
:103CC40022008D15672E22008D1103102000A11CE7
:103CD4000314031C702E22000C15722E22000C11EA
:103CE40003102000211D0314031C7B2E22000D163B
:103CF4007D2E22000D1203102000A11D0314031CAD
:103D0400862E22008C15882E22008C110310200090
:103D1400211E0314031C912E22008D16932E2200C3
:103D24008D1203102000A11E0314031C9C2E2200DC
:103D34008C169E2E22008C1203102000211F0314C7
:103D4400031CA72E22000C16A92E22000C122708F1
:103D5400F8002608F700A43151240800033021009C
:103D6400E7002200D2015208A73177279E310330A1
:103D74002200D000943132249E3122002C082D04DC
:103D8400031908001430F2000030F3002D08F50088
:103D94002C08F400993121219E3122002C0872074D
:103DA4002100E50022002D08733D2100E6000330C8
:103DB400E8007A08F2006808A4318E249E31A73105
:103DC40077279E31943132249E3122002C082D0411
:103DD400031908002D08803A2100E4006608803A9F
:103DE4006402031DF82E650822002C0203184A2FD2
:103DF4001430F2000030F30022002D08F5002C08E6
:103E0400F400993121219E3122002C0872072100EF
:103E1400E50022002D08733D2100E6007A08F20037
:103E24006808A4318E249E312200D2002100670844
:103E34002200D0002D08803A2100E4008030640282
:103E4400031D272F783022002C02031C4A2F210047
:103E54006708E80722004A08031D382F09302100AB
:103E64006806031D382F0830E800452F22004A0851
:103E7400031D452F113021006806031D452F103006
:103E8400E8000430E700203021006802031CDB2E28
:103E940022005208A7317727080003302100EE00E2
:103EA400EC0103302200CF0003302100ED00143078
:103EB400F2000030F30022002D08F5002C08F40075
:103EC400993121219F3122002C0872072100EA0038
:103ED40022002D08733D2100EB00EF017B08F20066
:103EE4006F08A4318E249F319E3120269F319E314C
:103EF400B0269F31943132249F3122002C082D04A6
:103F0400031908002D08803A2100E9006B08803A63
:103F14006902031D902F6A0822002C020318E82F5F
:103F24001430F2000030F30022002D08F5002C08B4
:103F3400F400993121219F3122002C0872072100BD
:103F4400EA0022002D08733D2100EB007B08F200FB
:103F54006F08A4318E249F312200D300520821001F
:103F6400EC006E082200CF0050082100ED00220072
:103F74002D08803A2100E90080306902031DC52F15
:103F8400783022002C02031CE82F21006E08EF0772
:103F940022004B08031DD62F093021006F06031D94
:103FA400D62F0830EF00E32F22004B08031DE32F28
:103FB400113021006F06031DE32F1030EF00043091
:103FC400EE00203021006F02031C702F21006C08CA
:103FD4002200D20053089E3120269F31220052082D
:103FE400A73177279F3121006D082200D0000A30C5
:0C3FF400F2000030F300A5313125080078
:104882001034273410342734640080010131890B3D
:10489200462C0034FE0012001E00FE0B4C2C00348D
:1048A2007808F3007708F200A53131250800C230FC
:1048B200F200A830F300A63104260800A23020003E
:1048C200A000A830A100A4319D24080025340234A0
:1048D2000134203401340734073401342200B0019A
:1048E200D930F200A830F300A63104260800F830CF
:1048F20021009505951595128B160B178B1708003D
:10490200F900790C031C0E1003180E142708F80086
:104912002608F700A43151240800F400F301741CA6
:10492200942C7208F3070310F20D0310F40C7408B0
:10493200031D902C730808003030F2002108F400A7
:104942002008F3001430F5000030F600A631DB2613
:1049520001302200BB000800F7000F307705F50098
:104962000A30F2007708F6000430F636890BB62CCE
:104972007608A4318E2475070800F4006400230031
:104982009518BF2C7408F200F301720891007308A5
:1049920092003F30950515141308080023006008A3
:1049A2007306031DD62C5F0872060319DF2C7308E9
:1049B200E0007208DF0001302200BA006400080043
:1049C200A4316F24A43178302000A000A830A100C7
:1049D2002408A2000230A300A5317C25A431A43111
:1049E200582408002200D301D20153089E31202608
:1049F200A43122005208A7317727A43122002708C8
:104A0200F8002608F700A4315124080064002200AF
:104A12004408031D0F2D0130C400102DC4014408A9
:104A22002000A0000230A531BB2564000130220025
:104A3200BA000800220038083906031D222D003072
:104A420008003808A03E8600023087000108F20004
:104A52000130B807253038020318B801720808007F
:104A62007308F6007208F5006400750876040319ED
:104A720008000630F4003030890B3D2DF40B3D2D3B
:104A8200003264000130F5020030F63B362D210879
:104A9200F7002008F600A5319925A531200022084B
:104AA20003195A2DAE30F200A830F300A6310426C5
:104AB20008007230F200A830F300A6310426080084
:104AC200F801F901201C692D2208F8072308F93D95
:104AD2000130A235A30D890B6A2D0130A136A00C3D
:104AE200890B6F2D20082104031D632D7908A10075
:104AF2007808A00008002108F7002008F600A53178
:104B02009925A531CC30F200A830F300A631042655
:104B1200A53120002308F3002208F200A631042662
:104B2200A531CC30F200A830F300A63104260800EB
:104B3200220030080319A42DD630F200A830F30069
:104B4200A6310426A531CA30F200A830F300A631FE
:104B52000426A5317708F3007608F200A631042670
:104B6200A531C630F200A830F300A6310426013088
:104B7200B0000800A30023009518BC2D20002308D4
:104B8200A100A20121082300910020002208230095
:104B9200920020002008230093003F309505031067
:104BA2008B1B03148B13151555309600AA309600F3
:104BB20095141511031C08008B17080020342034AB
:104BC2002034203420342034203420342034203443
:104BD2002034203420342034203420342034203433
:104BE2002034203420342034203420342034203423
:104BF2002034203420342034203420342034203413
:104C0200203420340A34F5012200370803191B2E00
:104C12006400052E7508C53E8600023087007508BF
:104C22007207840073080318013E850000088100A2
:104C32000130F50775087207840073080318013EF6
:104C420085001200031D0B2E75082200E7000130BB
:104C5200B70008002208F7004F2E0D08342E0D0C65
:104C6200342E0D0C890C0139F800402E2000210849
:104C7200003A03192E2E013A0319302E322E7808EB
:104C820023060319462E003008000130F2000030DE
:104C9200F300A5313125A6310130F7027708031D53
:104CA200372EFF300800622E72088600023087001D
:104CB20001080319702E0130F2070130F3070030AA
:104CC200F43D73088400740885000008F50072083A
:104CD200860002308700010875060319552E7208F6
:104CE200860002308700730884007408850000087B
:104CF2000102F200F301031CF30308002000A000EC
:104D02002008F400F40DF40D21001D087406833907
:104D120074069D009D140630890B8D2E00322100F1
:104D22009D18902E1B082000A30021001C082000C3
:104D3200A4002408F400F5017408F500F401230826
:104D42007407A1000030753DA2002208F30021087B
:104D5200F200080000302000A000A830A100A43119
:104D62009D24A631A431F324A63101302200D100C2
:104D72005108A4318124A631220052082000A0004B
:104D8200FF30A531BB25A631220053082000A00028
:104D9200FE30A531BB25A631220051082000A0001B
:104DA200FD30A531BB25A63101302200BD0099316D
:104DB2006E2108007208F900750876040319022FA3
:104DC2000130F5020030F63B790886000230870098
:104DD200F90A7408F8007308F700F30A0319F40AD1
:104DE20077088400780885000008C03F8908031905
:104DF200022FDD2E79088600023087008101013002
:104E0200F9070130F5020030F63B750A031DFB2E4F
:104E1200760A03190800FB2E00302000A3000030A0
:104E2200A2000030A1000030A000721C212F7608E1
:104E32002000A0077708A13D7808A23D7908A33D8C
:104E42000130F635F70DF80DF90D890B222F0130DF
:104E5200F536F40CF30CF20C890B292F7508740447
:104E620073047204031D162F20002308F500220884
:104E7200F4002108F3002008F20008006400210079
:104E8200971217169711171597106400C030230058
:104E92008C050C148C14C0308D05220091139313D1
:104EA2007A302100990020008C018D018E01C030E2
:104EB20022008C008D018E01033021008C0007300E
:104EC2008D008E010D158D108731FF271E149E1443
:104ED200813022009700A33021009E001D149513FB
:104EE20024000D148D140D158B1308002000A00052
:104EF2002008A100211C802F22008E17822F220061
:104F02008E132000A11C882F22008E158A2F2200CA
:104F12008E112000211D902F22000E17922F2200A9
:104F22000E132000A11D982F22000E159A2F220089
:104F32000E112000211EA02F22008E16A22F220069
:104F42008E122000A11EA82F22008E14AA2F22004A
:104F52008E102000211FB02F22000E16B22F220029
:104F62000E122708F8002608F700A4315124080081
:104F72000D0C890C0139F10022003308031DC92FE1
:104F82007108031DC92FB1010130B3000530E800DB
:104F920068080319CF2F0130E80208000330E80047
:104FA200F72F0310B20C7108F0000730F035890BAF
:104FB200D72F7008B2040130B10708303106031D43
:104FC20008000230B30008007103031DF52F3908F1
:104FD200A03E860002308700320881000130B90706
:104FE200253039020318B901B30108003308013A28
:104FF2000319D22F033A0319E52FFF2F0800543467
:1050020065347334743420346D346F3464346534ED
:10501200203469346E3464347534633474346F34D8
:10502200723400344134543455342D3431343034F4
:1050320030345F34453458345434003443346134AA
:105042007034613463346934743461346E3463347B
:105052006534003449346E346434753463347434E2
:1050620061346E34633465340034433461347034F3
:1050720061346334693474346F34723400346534A7
:10508200663466346934633465346E346334793437
:1050920000344F347634653472346C346F34613496
:1050A2006434003449346E34643475346334743493
:1050B2006F3472340034533474346134723474345F
:1050C200753470340034423479347034613473345A
:1050D2007334003443347234653464346934743460
:1050E2000034663461346C347334653400344534CE
:1050F200763465346E34743400344E343734443488
:1051020044344334003475346B346F346434613462
:1051120000344234753469346C34643400344234BB
:105122006F3461347234643400344F347234643412
:1051320065347234003450346F34773465347234E9
:1051420000344534723472346F3472340034523461
:1051520065347334653474340034743472347534A1
:1051620065340034543475346E346534003441345B
:10517200753474346F3400344C346F347334733494
:1051820000340A347D340A34003422343A34203470
:105192000034203420342234003433342E34323478
:1051A200003453345734523400342C340A3400342B
:1051B2007B340A3400344C344334003443344C34AA
:0851C200003446345734003478
:020000040001F9
:08000000FF3FFF3FFF3FFF3F00
:04000E00FC3FFF3F75
:10E00000780001000100150013000100000000006D
:10E0100002000000070000000700000001000000EF
:10E020000000500001001000020020000400500019
:10E03000100000002200000045000000FF00FF006B
:10E040000000100000002200000047000100000056
:10E05000020020000400700010000000FF00FF001C
:10E06000000011000000010000000000FF00FF00A0
:10E07000FF00FF00FF00FF00FF00FF00FF00FF00A8
:10E08000FF00FF00FF00FF00FF00FF00FF00FF0098
:10E09000FF00FF00FF00FF00FF00FF00FF00FF0088
:10E0A000FF00FF00FF00FF00FF00FF00FF00FF0078
:10E0B000FF00FF00FF00FF00FF00FF00FF00FF0068
:10E0C000FF00FF00FF00FF00FF00FF00FF00FF0058
:10E0D000FF00FF00FF00FF00FF00FF00FF00FF0048
:10E0E000FF00FF00FF00FF00FF00FF00FF00FF0038
:10E0F000FF00FF00FF00FF00FF00FF00FF00FF0028
:10E10000FF00FF00FF00FF00FF00FF00FF00FF0017
:10E11000FF00FF00FF00FF00FF00FF00FF00FF0007
:10E12000FF00FF00FF00FF00FF00FF00FF00FF00F7
:10E13000FF00FF00FF00FF00FF00FF00FF00FF00E7
:10E14000FF00FF00FF00FF00FF00FF00FF00FF00D7
:10E15000FF00FF00FF00FF00FF00FF00FF00FF00C7
:10E16000FF00FF00FF00FF00FF00FF00FF00FF00B7
:10E17000FF00FF00FF00FF00FF00FF00FF00FF00A7
:10E18000FF00FF00FF00FF00FF00FF00FF00FF0097
:10E19000FF00FF00FF00FF00FF00FF00FF00FF0087
:10E1A000FF00FF00FF00FF00FF00FF00FF00FF0077
:10E1B000FF00FF00FF00FF00FF00FF00FF00FF0067
:10E1C000FF00FF00FF00FF00FF00FF00FF00FF0057
:10E1D000FF00FF00FF00FF00FF00FF00FF00FF0047
:10E1E000FF00FF00FF00FF00FF00FF00FF00FF0037
:10E1F000FF00FF00FF000000000001000000000021
:00000001FF
