:1000000080311828013401347E148031003086009C
:10001000003087008B1A0B1D162837302000950002
:100020000B11883103208031A73125277E1009006C
:1000300080311A28803102208031FA00803103207B
:100040008031FB00F93084008730850068308600FD
:10005000013087000730903100208031A6308400C5
:10006000A4308500DD3086000130870004309031F7
:100070000020803129308400A6308500A030860021
:1000800002308700253090310020803120308400FC
:10009000013085003A30A431B0248031A030840092
:1000A000013085003D30A431B024803120308400FF
:1000B000023085003430A431B0247E10200092310B
:1000C000012A640022004803031D76282100380815
:1000D000803ABB0080303B02031D70280A30370293
:1000E000031C762801302200BC007F2822003C033C
:1000F000031D7D289B31672380312200BC016400F1
:100100002300600821003806031D8A2823005F08A9
:10011000210037060319AB2B38082300E00021002B
:1001200037082300DF00210038082300B100210038
:1001300037082300B00022003C03031DA82B5508FC
:10014000031DAD285408031DAD2821003A082200E4
:10015000D900210039082200D8004A082100BB003C
:10016000BC01BD01BE013E082000AA0021003D08DF
:100170002000A90021003C082000A80021003B0825
:100180002000A70001309C315D2480312A08E60060
:100190002908E5002808E4002708E30022005808A1
:1001A0002000A700220059082000A800890D893BE3
:1001B0008909A900AA0001309C315D2480312A08F8
:1001C000B8002908B7002808B6002708B500423053
:1001D000BC00C830BB000030BA000030B900883124
:1001E000362080313808D2003708D1003608D000D8
:1001F0003508CF004230B800C830B7000030B60034
:100200000030B500220058082000A700220059083D
:100210002000A800890D893B8909A900AA000130A6
:100220009C315D2480312A08BC002908BB002808C5
:10023000BA002708B9008831362080313808D60046
:100240003708D5003608D4003508D3008931A121FC
:1002500080315208EA005108E9005008E8004F08D0
:10026000E7008D317225803166082100C200200030
:1002700065082100C100200064082100C0002000A2
:1002800063082100BF003F302000D2008030D10041
:100290000030D0000030CF003D30E600EB30E5000C
:1002A0008530E4001F30E3004130B8002030B70053
:1002B0000030B6000030B500210042082000BC002C
:1002C000210041082000BB00210040082000BA00A6
:1002D00021003F082000B9008831362080313808DD
:1002E000EA003708E9003608E8003508E7008D31F4
:1002F000722580316608D6006508D5006408D400F0
:100300006308D3008931A121803152082100CC003B
:10031000200051082100CB00200050082100CA0015
:1003200020004F082100C9004C082000B80021001F
:100330004B082000B70021004A082000B600210029
:1003400049082000B5003F30BC008030BB000030C1
:10035000BA000030B90088313620803138082100D9
:10036000D800200037082100D700200036082100DF
:10037000D600200035082100D50040302000D200F2
:100380000030D1000030D0000030CF004230B80043
:10039000C830B7000030B6000030B5002100390881
:1003A0002000A70021003A082000A800890D893B01
:1003B0008909A900AA0001309C315D2480312A08F6
:1003C000BC002908BB002808BA002708B9008831FA
:1003D000362080313808D6003708D5003608D400DA
:1003E0003508D3008931A121803152082100C6008F
:1003F000200051082100C500200050082100C40041
:1004000020004F082100C30039082000A700210068
:100410003A082000A800890D893B8909A900AA0093
:1004200001309C315D2480312A08B8002908B700CA
:100430002808B6002708B5004230BC00C830BB0011
:100440000030BA000030B9008831362080313808D9
:10045000D2003708D1003608D0003508CF0021007F
:1004600046082000D600210045082000D5002100C4
:1004700044082000D400210043082000D300893123
:10048000A121803152082100CC0020005108210018
:10049000CB00200050082100CA0020004F08210096
:1004A000C9004C082000B80021004B082000B7000C
:1004B00021004A082000B600210049082000B500AC
:1004C0004030BC008030BB000030BA000030B900C2
:1004D00088313620803138082100D40020003708C8
:1004E0002100D300200036082100D200200035086A
:1004F0002100D1005808F5005708F4005608F30011
:100500005508F2003F30F9008030F8000030F70065
:100510000030F6009B31E1238031031C982A3F30E4
:100520002100D8008030D7000030D6000030D50040
:1005300021005408F5005308F4005208F300510854
:10054000F2003F30F9008030F8000030F700003052
:10055000F6009B31E1238031031CB72A3F30210094
:10056000D4008030D3000030D2000030D100210010
:1005700037082000A700210038082000A800890DB6
:10058000893B8909A900AA0001309C315D24803192
:100590002A08EA002908E9002808E8002708E700F7
:1005A000210058082000E600210057082000E5003F
:1005B000210056082000E400210055082000E30037
:1005C0008D317225803166082100D0002000650839
:1005D0002100CF00200064082100CE002000630825
:1005E0002100CD0050082000EA0021004F08200023
:1005F000E90021004E082000E80021004D082000FD
:10060000E700210054082000E600210053082000E4
:10061000E500210052082000E400210051082000DC
:10062000E3008D317225803166082100B000200082
:1006300065082100AF00200064082100AE00200002
:1006400063082100AD009A31A82280312E08C8002D
:100650002D08C70058082000EA0021005708200094
:10066000E900210056082000E8002100550820007C
:10067000E700210054082000E60021005308200074
:10068000E500210052082000E4002100510820006C
:10069000E3008D317225803166082100D0002000F2
:1006A00065082100CF00200064082100CE00200052
:1006B00063082100CD0050082000EA0021004F0807
:1006C0002000E90021004E082000E80021004D082C
:1006D0002000E7004230E600C830E5000030E400CA
:1006E0000030E3008D317225803166082100B000B2
:1006F000200065082100AF00200064082100AE0042
:10070000200063082100AD009A31A82280312E0814
:100710002200A10021002D082200A0002108803A1B
:100720002100BB0080303B02031D992B6430220066
:100730002002031CA02B63302200A0000030A10087
:10074000210048082300B100210047082300B00021
:1007500001302200BA006400080064000230A531B4
:1007600013258331013A031DB82B01302200C50047
:100770000330A53113258331A531022583312000B3
:10078000A400A50124082200A600200025082200BC
:10079000A7000430A53113258331A531022583310B
:1007A0002000A400A5012408A0002508A1000A300B
:1007B000A2000030A300A5318C258331210823003D
:1007C000BB00200020082300BA000530A531132506
:1007D0008331A531022583312000A400A50124081E
:1007E000A0002508A1000A30A2000030A300A53116
:1007F0008C25833121082300B90020002008230024
:10080000B8000630A53113258331A5310225833187
:100810002000A400A5012408A0002508A1000A309A
:10082000A2000030A300A5318C25833121082300CC
:10083000B700200020082300B6000930A531132599
:100840008331A531022583312000A400A5012408AD
:10085000A0002508A1000A30A2000030A300A531A5
:100860008C25833121082300B500200020082300B7
:10087000B4000A30A531132583312200ED000B307E
:10088000A531132583312200CD000C30A53113256D
:1008900083312200EC000D30A53113258331220075
:1008A000CC000E30A531132583312200EB000F3030
:1008B000A531132583312200CB0064001130A5310E
:1008C00013258331A531022583312000A400A50121
:1008D0001030A53113258331A53102258331200045
:1008E000A600A7012608A0002708A1006430A200E6
:1008F0000030A300A5318C25833124082007230074
:10090000C80020002508213D2300C9001330A5316F
:1009100013258331A531022583312000A400A501D0
:100920001230A53113258331A531022583312000F2
:10093000A600A7012608A0002708A1006430A20095
:100940000030A300A5318C25833124082007230023
:10095000C60020002508213D2300C7001530A53121
:1009600013258331A531022583312000A400A50180
:100970001430A53113258331A531022583312000A0
:10098000A600A7012608A0002708A1006430A20045
:100990000030A300A5318C258331240820072300D3
:1009A000C40020002508213D2300C5001730A531D3
:1009B00013258331A531022583312000A400A50130
:1009C0001630A53113258331A5310225833120004E
:1009D000A600A7012608A0002708A1006430A200F5
:1009E0000030A300A5318C25833124082007230083
:1009F000C20020002508213D2300C3001930A53185
:100A000013258331A531022583312000A400A501DF
:100A10001830A53113258331A531022583312000FB
:100A2000A600A7012608A0002708A1006430A200A4
:100A30000030A300A5318C25833124082007230032
:100A4000C00020002508213D2300C1001B30A53136
:100A500013258331A531022583312000A400A5018F
:100A60001A30A53113258331A531022583312000A9
:100A7000A600A7012608A0002708A1006430A20054
:100A80000030A300A5318C258331240820072300E2
:100A9000BE0020002508213D2300BF001D30A531E8
:100AA00013258331A531022583312000A400A5013F
:100AB0001C30A53113258331A53102258331200057
:100AC000A600A7012608A0002708A1006430A20004
:100AD0000030A300A5318C25833124082007230092
:100AE000BC0020002508213D2300BD002130A53198
:100AF00013258331A531022583312000A400A501EF
:100B00002030A53113258331A53102258331200002
:100B1000A600A7012608A0002708A1006430A200B3
:100B20000030A300A5318C25833124082007230041
:100B3000D60020002508213D2300D7002330A53111
:100B400013258331A531022583312000A400A5019E
:100B50002230A53113258331A531022583312000B0
:100B6000A600A7012608A0002708A1006430A20063
:100B70000030A300A5318C258331240820072300F1
:100B8000D40020002508213D2300D5002530A531C3
:100B900013258331A531022583312000A400A5014E
:100BA0002430A53113258331A5310225833120005E
:100BB000A600A7012608A0002708A1006430A20013
:100BC0000030A300A5318C258331240820072300A1
:100BD000D20020002508213D2300D3002730A53175
:100BE00013258331A531022583312000A400A501FE
:100BF0002630A53113258331A5310225833120000C
:100C0000A600A7012608A0002708A1006430A200C2
:100C10000030A300A5318C25833124082007230050
:100C2000D00020002508213D2300D1002930A53126
:100C300013258331A531022583312000A400A501AD
:100C40002830A53113258331A531022583312000B9
:100C5000A600A7012608A0002708A1006430A20072
:100C60000030A300A5318C25833124082007230000
:100C7000CE0020002508213D2300CF002B30A531D8
:100C800013258331A531022583312000A400A5015D
:100C90002A30A53113258331A53102258331200067
:100CA000A600A7012608A0002708A1006430A20022
:100CB0000030A300A5318C258331240820072300B0
:100CC000CC0020002508213D2300CD002D30A5318A
:100CD00013258331A531022583312000A400A5010D
:100CE0002C30A53113258331A53102258331200015
:100CF000A600A7012608A0002708A1006430A200D2
:100D00000030A300A5318C2583312408200723005F
:100D1000CA0020002508213D2300CB003030A5313A
:100D2000132583312200C9003130A53113258331C9
:100D3000A531022583312200EA003330A531132585
:100D400083312200C8003430A53113258331A53109
:100D5000022583312200CA003530A53113258331A5
:100D6000A53102252200C700640008002100E1012E
:100D7000E20123003A089C3E2100DF00FF302300FF
:100D80003B3D2100E0002200AA01AB016400783065
:100D90002100DC00DD015C085D020318FB2E8B31B5
:100DA0005723863121006208803AD90022002B089F
:100DB000803A21005902031DE12E22002A08210059
:100DC00061020318F02E22002B082100E20022000D
:100DD0002A082100E10022002D08A3002C08A2000F
:100DE0000330F2000030F300A5315C25863101307C
:100DF0002100DD07CB2E640021006208803AD90073
:100E000080305902031D062F64306102031C322F0B
:100E10000A30F2000030F30021006108053EF400C2
:100E20000030623DF5009931502186317308210070
:100E3000E2007208E1000A302000A0000030A100AA
:100E4000210062082000A300210061082000A20008
:100E5000A5318C25863121082100E20020002008E0
:100E60002100E100210062082300B3002100610895
:100E70002300B2003308803A2100D90080305902A3
:100E8000031D452F0A302300320203184A2F220087
:100E9000A201A30122002308F3002208F200A531D9
:100EA0002425863101302100DE0022002508803A09
:100EB0002100D90022002308803A21005902031D95
:100EC000642F22002208240203187C2F2200240809
:100ED00022022100D90022002508233B2100DA004C
:100EE0006008803ADB005A08803A5B02031D7A2FC3
:100EF00059085F02031CAD2F22002308803A21000D
:100F0000D90022002508803A21005902031D8B2FA9
:100F10002200240822020318A32F22002208240200
:100F20002100D90022002308253B2100DA006008B7
:100F3000803ADB005A08803A5B02031DA12F590852
:100F40005F02031CAD2FE730220024060330031993
:100F500025060319AD2F2100DE0122002308803A67
:100F60002100D90023003B08803A21005902031DCB
:100F7000BD2F23003A0822002202031CC12F01309A
:100F8000C22F00302200450521005E050319CB2F3A
:100F900001302200C600230033082100B8002300DE
:100FA00032082100B700220023082100BA002200E5
:100FB00022082100B90080316120863164002200BE
:100FC0004E03031D08004A302000A000A830A100F5
:100FD000A431F2248631640010302300DD00273074
:100FE000DE0022002308F3002208F200A5312425A8
:100FF0000800253401342034013407340734013427
:1010000022008D1408000D0C890C0139F1002928EB
:101010007108031D0800B2010130B400080003107C
:10102000B30C7108F0000730F035890B14287008F4
:10103000B3040130B20708303206031D0800023045
:10104000B40008007103031D27283308B500B4015C
:10105000080022003408003A03190828013A03194D
:101060000F28033A03192228352808003C08803944
:10107000C6003C35CD00BB1B4D144D0803194E284E
:101080004D0A031D4B280030BC000030BB0000306F
:10109000BA000030B900BB17BC0156280030BC00B4
:1010A0000030BB000030BA000030B9003808803989
:1010B000C6063835CE00B71B4E144E0803196E28ED
:1010C0004E0A031D6B280030B8000030B700003016
:1010D000B6000030B500B717B80176280030B80068
:1010E0000030B7000030B6000030B50038083704D3
:1010F00036043504031D93280030BC000030BB00CB
:101100000030BA000030B9008030BB047F30BC042E
:101110004608BC043C08B8003B08B7003A08B600D3
:101120003908B50008004D08031D9F280030B8009D
:101130000030B7000030B6000030B50008004D08A0
:10114000BD00BE013E08C0004E083D02BF00031CAA
:10115000C0033F087F3EC7000030403DC8003C0848
:10116000C5003B08C4003A08C3003908C20000307B
:10117000BC000030BB000030BA000030B9000030C5
:10118000CC000030CB000030CA000030C900CE01D6
:101190001A304E02031802294E080319E6280130BE
:1011A000C235C30DC40DC50D890BD0280130B9352A
:1011B000BA0DBB0DBC0D890BD728CC1B39140130DF
:1011C000C935CA0DCB0DCC0D890BE0283808450276
:1011D000031DF42837084402031DF428360843028F
:1011E000031DF42835084202031CFF284C1735085C
:1011F000C2023608C33B3708C43B3808C53B013040
:10120000CE07C8284508440443044204031D49147A
:10121000BB1B1F290130B935BA0DBB0DBC0D890BA5
:101220000B29CC1B39140130C935CA0DCB0DCC0D9F
:10123000890B1429FF30C707FF30C83D0829CE01AC
:10124000CC1F3829FF304905BD00FF304A05BE00DC
:10125000FF304B05BF007F304C05C00040083F0405
:101260003E043D0403193918362938290130CE00CF
:101270004E0803195F290130B9070030BA3DBB3D64
:10128000BC3D3C1C5F293908BD003A08BE003B0844
:10129000BF003C08C0000130C100C037BF0CBE0C0D
:1012A000BD0CC10B4D294008BC003F08BB003E08E7
:1012B000BA003D08B9000130C7070030C83D4808F2
:1012C000803ABD0080303D02031D6829FF3047028F
:1012D000031C7729FF302000C7000030C800003011
:1012E000BC000030BB000030BA000030B900200064
:1012F0004808803ABD0080303D02031D812901303D
:10130000470203188F292000C701C8010030BC0024
:101310000030BB000030BA000030B900C601200028
:101320004708CD004D1C9629BB1798297F30BB0577
:101330004D08BD000130BD36890B9B293D08BC001E
:10134000882852088039DF005235E100D11B611432
:1013500061080319B929610A031DB6290030D200BA
:101360000030D1000030D0000030CF00D117D201C2
:10137000C1290030D2000030D1000030D000003050
:10138000CF0056088039E00060085F06031D5F1734
:101390005635E000D51B601460080319DD29600A8A
:1013A000031DDA290030D6000030D5000030D4000B
:1013B0000030D300D517D601E5290030D600003023
:1013C000D5000030D4000030D3006108600203185B
:1013D0000B2A5F1FED298030DF066108E2006008FC
:1013E000E1006208E0004F08E2005308CF00620805
:1013F000D3005008E2005408D0006208D40051081D
:10140000E2005508D1006208D5005208E2005608F3
:10141000D2006208D600E2016008D700D80158085F
:10142000DA0061085702D900031CDA035A08803A2F
:10143000DB0080305B02031D1F2A1A305902031C97
:10144000512A20005208510450044F0403192A2A3B
:1014500001302B2A0030E2000030D2000030D100F1
:101460000030D0000030CF006008E100562A621C36
:10147000432A6208D7000130D736890B3C2A570827
:101480000138E200452A0310E20C4F18E217013040
:10149000D700D237D10CD00CCF0CD70B492A013052
:1014A000E107200060086102031C372A5F1B892ABC
:1014B0006108031D642A0030D2000030D1000030E2
:1014C000D0000030CF0008005308CF075408D03DAB
:1014D0005508D13D5608D23D521C022B621C7A2A77
:1014E0006208D7000130D736890B732A57080138B4
:1014F000E2007C2A0310E20C4F18E2170130D700FB
:10150000D237D10CD00CCF0CD70B802A0130E10799
:10151000022B5208803AD7005608803A5702031D22
:101520009B2A55085102031D9B2A54085002031D93
:101530009B2A53084F020318D02AFF30D700FF30F0
:10154000D800FF30D900FF30DA004F085302DB002B
:101550005008543BDC005108553BDD005208563B17
:10156000DE005B08D7075C08D83D5D08D93D5E0802
:10157000DA3D5A08D2005908D1005808D00057085F
:10158000CF008030DF066203FF3AE2006208031DED
:10159000D82A0130CF070030D03DD13DD23DD82AE6
:1015A0005308CF025408D03B5508D13B5608D23BD4
:1015B0005208510450044F04031D002B6208031D00
:1015C000002B0030D2000030D1000030D0000030BD
:1015D000CF0008000130CF35D00DD10DD20D890BD1
:1015E000EB2AE21B4F14621CF92A0314620DE2007D
:1015F000FB2A0310E20D61080319002B0130E10200
:10160000D11FEA2AE001E21F0D2B62087F3903197E
:101610004F180B2B0D2B0130E00060080319352B00
:101620000130CF070030D03DD13DD23D521C352B8B
:101630004F08D7005008D8005108D9005208DA00E6
:101640000130DB00DA37D90CD80CD70CDB0B222B9E
:101650005A08D2005908D1005808D0005708CF00C6
:10166000610A0319352B0130E107610A031D610886
:10167000031D452B0030D2000030D1000030D000D7
:101680000030CF0061080319DF01611C492BD1171D
:101690004B2B7F30D1056108D7000130D736890B3D
:1016A0004E2B5708D200DF1F0800D2170800640035
:1016B0009B3107238B3125082100C3002000260819
:1016C0002100C400C501C6019831B9208B3125081D
:1016D0002100BF00200026082100C000C101C20176
:1016E00022006B03031D952B03302000A200003065
:1016F000A300210044082000A1002100430820008D
:10170000A000A5318C258B312108A5002008A4005C
:101710009531F1258B312408A7002508A800890DF3
:10172000893B8909A900AA00B12B0030F9000030DB
:10173000F8000030F7000330F60021004608F500FD
:101740004508F4004408F3004308F20098310220F1
:101750008B317508AA007408A9007308A8007208E4
:10176000A70001309C315D248B312A082100CA007A
:10177000200029082100C900200028082100C800F5
:10178000200027082100C7004208803AB700460819
:10179000803A3702031DD62B45084102031DD62B84
:1017A00044084002031DD62B43083F0203183B2C7C
:1017B0003F084302B7004008443BB8004108453B9E
:1017C000B9004208463BBA003A082000A7002100B1
:1017D00039082000A600210038082000A5002100BB
:1017E00037082000A400210043083F07BB0044083D
:1017F000403DBC004508413DBD004608423DBE009D
:101800003E08F5003D08F4003C08F3003B08F200F8
:101810000030F9000030F8000030F7006430F600C6
:10182000983102208B317508AB007408AA00730848
:10183000A9007208A800903106208B3127082100EA
:10184000C600200026082100C50020002508210030
:10185000C400200024082100C300C61B442C4608F5
:10186000031D3B2C4508031D3B2CE830430203308D
:10187000443B031C442C00302100C6000030C5004E
:101880000330C400E730C30044302000B8007A3091
:10189000B7000030B6000030B50021004A08200033
:1018A000E600210049082000E5002100480820004A
:1018B000E400210047082000E30022006A0821001C
:1018C000B700B801B901BA013A082000AA00210006
:1018D00039082000A900210038082000A8002100B4
:1018E00037082000A70001309C315D248B312A0885
:1018F000EA002908E9002808E8002708E7008D31F8
:1019000072258B316608BC006508BB006408BA000C
:101910006308B900883136208B3138082100CA00AD
:10192000200037082100C900200036082100C80027
:10193000200035082100C7003F302000B800B43037
:10194000B700FD30B600F430B50021004A08200091
:10195000BC00210049082000BB00210048082000ED
:10196000BA00210047082000B900883136208B31A9
:1019700038082100CA00200037082100C9002000D3
:1019800036082100C800200035082100C7002200C9
:101990004903031DD02C42302000B8004830D42C1D
:1019A00040302000B800A030B7000030B600003052
:1019B000B50021004A082000E60021004908200067
:1019C000E500210048082000E4002100470820002D
:1019D000E30021004A082000EA0021004908200015
:1019E000E900210048082000E80021004708200005
:1019F000E7008D3172258B316608BC006508BB009D
:101A00006408BA006308B900883136208B31380881
:101A10002100CA00200037082100C9002000360834
:101A20002100C800200035082100C7003F302000F9
:101A3000D2000030D1000030D0000030CF002100B3
:101A40004A082000D600210049082000D5002100C6
:101A500048082000D400210047082000D300893125
:101A6000A1218B3152082100CA0020005108210019
:101A7000C900200050082100C80020004F082100A4
:101A8000C7004A08B0004908AF004808AE00470840
:101A9000AD009A31A8228B312E082200AB00210024
:101AA0002D082200AA002100C61B632D4608031D35
:101AB000692D4508031D692D4408031D692D6430F7
:101AC00043020318692DE7302200AC000330AD005B
:101AD0000800210044082200AD0021004308220034
:101AE000AC000800660880392100A000200066359F
:101AF0002100A2002000E51F7F2D210022142100DB
:101B000022080319922D220A031D8F2D0030200078
:101B1000E6000030E5000030E4000030E300200083
:101B2000E5179B2D00302000E6000030E500003076
:101B3000E4000030E3006A0880392100A00620009C
:101B40006A352100A1002000E91FA82D21002114E1
:101B5000210021080319BB2D210A031DB82D0030D7
:101B60002000EA000030E9000030E8000030E70023
:101B70002000E917C42D00302000EA000030E90001
:101B80000030E8000030E70021002108031D220892
:101B9000031DD42D00302000E6000030E5000030A9
:101BA000E4000030E300080020006308F200690848
:101BB000A531C4258D3173082100AC007208AB003B
:101BC0002B082000EB00EC01ED01EE016E08210076
:101BD000A60020006D082100A50020006C0821004F
:101BE000A40020006B082100A3002C082000EB00BB
:101BF000EC01ED01EE016E082100AA0020006D0845
:101C00002100A90020006C082100A80020006B081A
:101C10002100A70020006408F2006808A531C4254F
:101C20008D3173082100AC007208AB002B08200036
:101C3000EB00EC01ED01EE016B082100A307200091
:101C40006C082100A43D20006D082100A53D200066
:101C50006E082100A63D2C082000EB00EC01ED01F0
:101C6000EE016B082100A70720006C082100A83DA9
:101C700020006D082100A93D20006E082100AA3D2A
:101C800020006508F2006708A531C4258D3173086E
:101C90002100AC007208AB002B082000EB00EC0127
:101CA000ED01EE016B082100A30720006C08210064
:101CB000A43D20006D082100A53D20006E082100F4
:101CC000A63D2C082000EB00EC01ED01EE016B08B5
:101CD0002100A70720006C082100A83D20006D0806
:101CE0002100A93D20006E082100AA3D0830A3353F
:101CF000A40DA50DA60D890B772E20006408F20017
:101D00006708A531C4258D3173082100AC00720825
:101D1000AB002B08A3072C08A43D0030A53DA63D31
:101D200020006308F2006808A531C4258D317308CE
:101D30002100AC007208AB002B08A3072C08A43DBF
:101D40000030A53DA63D0830A335A40DA50DA60D78
:101D5000890BA42E20006308F2006708A531C42572
:101D60008D3173082100AC007208AB002B08A3076B
:101D70002C08A43D0030A53DA63D20006408F200DB
:101D80006908A531C4258D3173082100AC007208A3
:101D9000AB002B08A7072C08A83D0030A93DAA3DA1
:101DA00020006508F2006808A531C4258D3173084C
:101DB0002100AC007208AB002B08A7072C08A83D37
:101DC0000030A93DAA3D20006508F2006908A53150
:101DD000C4258D3173082100AC007208AB002B08BC
:101DE0002000EB0021002C082000EC00ED01EE01AA
:101DF0000830EB35EC0DED0DEE0D890BF92E6B086F
:101E00002100A70720006C082100A83D20006D08D4
:101E10002100A93D20006E082100AA3D26082000CF
:101E2000EB00EC01ED01EE016B082100A70720009B
:101E30006C082100A83D20006D082100A93D20006C
:101E40006E082100AA3D0830A335A40DA50DA60DEE
:101E5000890B242F220821072000EB00EC01EC0D58
:101E60006B08823E2100AB00FF3020006C3D21005A
:101E7000AC00A91B502F0130A735A80DA90DAA0D44
:101E8000890B3C2FA61B27140130A335A40DA50DEB
:101E9000A60D890B452FFF30AB07FF30AC3D392F26
:101EA000A101A61F722FFF3023052000EB00FF3099
:101EB000210024052000EC00FF3021002505200032
:101EC000ED007F30210026052000EE006E086D0435
:101ED0006C046B04031D6F2F2100271C722F01302F
:101EE0002100A10021080319A72F0130A707003006
:101EF000A83DA93DAA3D2A1CA72F27082000EB00DA
:101F0000210028082000EC00210029082000ED0015
:101F100021002A082000EE000130EF00EE37ED0C22
:101F2000EC0CEB0CEF0B8E2F6E082100AA002000AA
:101F30006D082100A90020006C082100A8002000E5
:101F40006B082100A7000130AB070030AC3D2C0826
:101F5000803A2000EB0080306B02031DB22FFF306F
:101F600021002B02031CBE2F7F302100AA008030ED
:101F7000A9000030A8000030A700EE2F21002C0897
:101F8000803A2000EB0080306B02031DCA2F013025
:101F900021002B020318D72F00302100AA000030A7
:101FA000A9000030A8000030A700A001EE2F2100FA
:101FB0002B08A200FF30A705FF30A8057F30A90538
:101FC0000030AA052218A91722082000EB000130D2
:101FD000EB36890BE82F6B082100AA002008AA0421
:101FE0002A082000E600210029082000E500210041
:101FF00028082000E400210027082000E300080052
:10200000FE0012001E00FE0B01280034AD01A71FC8
:102010001628A409A509A609A709A40A0319A50A4F
:102020000319A60A0319A70A0130AD00AB1F252822
:10203000A809A909AA09AB09A80A0319A90A031939
:10204000AA0A0319AB0A0130AD060030B100003016
:10205000B0000030AF000030AE0027082604250491
:10206000240403196C280130AC00A71B412801305F
:10207000A435A50DA60DA70D890B38280130AC0796
:1020800035280130AE35AF0DB00DB10D890B4228AA
:1020900027082B02031D562826082A02031D56284E
:1020A00025082902031D562824082802031C61283C
:1020B0002408A8022508A93B2608AA3B2708AB3B11
:1020C0002E140130A736A60CA50CA40C890B62288F
:1020D0000130AC02031D41282D0803197A28AE09EE
:1020E000AF09B009B109AE0A0319AF0A0319B00A62
:1020F0000319B10A3108A7003008A6002F08A5006F
:102100002E08A400080064002200CF01A801A90144
:10211000D00194315324903122002D08803AE300FD
:1021200080306302031D96286E302C02031C0800C9
:10213000A5314825903122004808031DA2289B3173
:10214000672390313230F2000030F300A5315C2576
:10215000903194315324903122002D08D9002C085D
:10216000D8002D08803AE30080306302031DBA28AE
:102170006E302C02031C080023003508803A220030
:10218000E30080306302031DC8286F30230034024F
:10219000031CD92823003508803A2200E3002D08CB
:1021A000803A6302031DD7282C0823003402031C45
:1021B00008009631DE26903122002C082D04031DE4
:1021C000E428A531482508002D08803AE300803036
:1021D0006302031DED2878302C02031C0800053033
:1021E00022006C06031DF82805306D06031908004F
:1021F00006306D02031C03297B08D1000130FB006F
:1022000093318B23903122002D08803AE3008030F7
:102210006302031D0D2978302C02031C08000630D0
:1022200022006C02031C1B297A08D2000130FA003C
:102230009231C3229031053022006D06031D222900
:1022400001302D2906306D06031D282902302D2965
:1022500007306D06031D2E290430FB0005306C0687
:10226000031D342901303F2906306C06031D3A292D
:1022700002303F2907306C06031D40290430FA0064
:102280006400080022005708031D08003B080319DA
:102290005029BB0130302000A400A53136259131F2
:1022A0003A0803190800BA01A431C4249131BA30A4
:1022B0002000A000A830A1002200450803196229CF
:1022C0000130632900302000A200A531732591312F
:1022D0006C302000A000A830A1002200440803199F
:1022E00073290130742900302000A200A531732524
:1022F00091312108803A2000B20080303202031D63
:102300008429013022002002031C9729403020003C
:10231000A000A830A100220021082000A300220074
:1023200020082000A200A4019C31EA24913122005F
:102330004908031D9F2901302000B500A129200074
:10234000B501A430A000A830A1002300310820006E
:10235000A300230030082000A2003508A4009C310F
:10236000EA249131D4302000A000A830A10022003E
:1023700023082000A300220022082000A20002302F
:10238000A4009C31EA24913153030319CC29E13094
:102390002000B300A830D029DE302000B300A830E0
:1023A000B4009E30A000A830A1003408A300330878
:1023B000A200A531A72591311F302000A000A83030
:1023C000A100230059082000A30023005808200082
:1023D000A200A4019C31EA2491312B302000A000FE
:1023E000A830A10023005B082000A30023005A08A6
:1023F0002000A200A4019C31EA249131A431BD2423
:102400000800031A062A01302200BF00A7318827DE
:102410009231883100209231A431CD2492312C3078
:10242000F2000130F300A5315C2592316400833164
:10243000AD2392312C30F2000130F300A5315C2540
:1024400092316400053022006D06031D292A0130F7
:10245000342A06306D06031D2F2A0230342A073035
:102460006D06031D352A0430FB0005306C06031D84
:102470003B2A0130462A06306C06031D412A0230F1
:10248000462A07306C06031D472A0430FA002C3018
:10249000F2000130F300A5315C25923164002C304C
:1024A000F2000130F300A5315C25923164002C303C
:1024B000F2000130F300A5315C25923164002C302C
:1024C000F2000130F300A5315C25923164002C301C
:1024D000F2000130F300A5315C2592316400FF3039
:1024E000A531132592312200D400FE30A5311325E9
:1024F00092312200D500FD30A53113259231220002
:10250000D300FC30A53113259231E100E2016108CE
:10251000E200E10161082200D800230062082200E5
:10252000D900FB30A53113259231E100E2016108A9
:102530002200D807230062082200D93D55089D31AA
:1025400077259231220054089831342092312200AC
:102550005308A431D624923122003F03031DB22A2E
:102560000130BD0099319D2192319B316723923119
:1025700064008631B6269231A731C027923191315D
:1025800042219231B82A7A08F20022005208A4317E
:10259000E32492312100EB002200540821006B0754
:1025A000E9007A08E400E5010530E435E50D890B22
:1025B000D52A6408FF3EE600FF30653DE700670866
:1025C000803AE80080306802031DE82A6908660244
:1025D0000318F42A7A082100E4000530E435890B59
:1025E000EE2A6408FF3EE9002200540821006B0235
:1025F0000318002B6B08220054022100EA00012B73
:10260000EA016A082200D40054089831342092313B
:1026100094315324923122002C082D040319080010
:102620002D082100ED0022002C082100EC006A0892
:102630007A07EE006E086902031C862B6E0898313B
:102640003420923194315324923122002C082D04ED
:10265000031908002D08803A2100E4006D08803A33
:102660006402031D362B6C0822002C02031C422B33
:102670000A30F2000030F300A5315C25923194312C
:102680005324923122002D08803A2100E4006D0885
:10269000803A6402031D4F2B6C0822002C02031C9D
:1026A0005B2B0A30F2000030F300A5315C2592313B
:1026B00094315324923122002D08803A2100E40005
:1026C0006D08803A6402031D682B6C0822002C02FE
:1026D0000318862B22002D082100ED0022002C0873
:1026E0002100EC006E082200D4002D08803A210061
:1026F000E40080306402031D802B783022002C021D
:10270000031C862B7A082100EE071A2B220054089E
:102710009831342008007B08F20022005108A431CF
:10272000E32493312100EB002200550821006B07C0
:10273000E9007B08E400E5010530E435E50D890B8F
:102740009D2B6408FF3EE600FF30653DE70067080B
:10275000803AE80080306802031DB02B69086602E9
:102760000318BC2B7B082100E4000530E435890BFD
:10277000B62B6408FF3EE9002200550821006B02D9
:102780000318C82B6B08220055022100EA00C92B50
:10279000EA016A082200D50055089D31772593315A
:1027A00094315324933122002C082D04031908007E
:1027B0002D082100ED0022002C082100EC006A0801
:1027C0007B07EE006E086902031C4E2C6E089D31DB
:1027D0007725933194315324933122002C082D0412
:1027E000031908002D08803A2100E4006D08803AA2
:1027F0006402031DFE2B6C0822002C02031C0A2C11
:102800000A30F2000030F300A5315C259331943199
:102810005324933122002D08803A2100E4006D08F2
:10282000803A6402031D172C6C0822002C02031C42
:10283000232C0A30F2000030F300A5315C259331DF
:1028400094315324933122002D08803A2100E40072
:102850006D08803A6402031D302C6C0822002C02A3
:1028600003184E2C22002D082100ED0022002C0818
:102870002100EC006E082200D5002D08803A2100CE
:10288000E40080306402031D482C783022002C02C2
:10289000031C4E2C7B082100EE07E22B220055087A
:1028A0009D31772508008B315723943164304F06D2
:1028B0000319722C0130CF072908803A2100E30068
:1028C00022002B08803A21006302031D6A2C22009B
:1028D0002A0828020318882C22002B08A9002A089D
:1028E000A800882CCF0129082100B8002200280860
:1028F0002100B70022002D082100BA0022002C0878
:102900002100B9008031612094312200A801A90181
:1029100022002B08803A2100E30023003908803A86
:1029200021006302031D982C2300380822002A028C
:102930000318FE2C64008B315723943164304F060A
:102940000319BA2C0130CF072908803A2100E3008F
:1029500022002B08803A21006302031DB22C2200C2
:102960002A0828020318D02C22002B08A9002A08C4
:10297000A800D02CCF0129082100B8002200280887
:102980002100B70022002D082100BA0022002C08E7
:102990002100B9008031612094312200A801A901F1
:1029A0000D302000A000A1010530A200A301A30A60
:1029B000A63175269431003A0319E12C013022002A
:1029C000D0000D302000A000A1010530A200A3011D
:1029D000A631752694312100E30022005003031D27
:1029E000F32C0130F42C0030210063050319882CEE
:1029F000993104212200AC01AD0108002300370801
:102A0000803A2100E30022002B08803A2100630273
:102A1000031D0E2D22002A08230036020318080089
:102A200023003708803A2100E30080306302031D51
:102A30001C2D013023003602031C08009A2C2000B4
:102A4000A600D12D7B302606031D2B2D0130220040
:102A5000D7000130832D013008007D302606031D8C
:102A6000362D2200D701AF0105300800223026069E
:102A7000031DEF2D2200AE010230832D22302606E9
:102A8000031D442D0330822D0F3022002E02031827
:102A9000EF2D2E08443E86000230870020002608D5
:102AA000810001302200AE072E08443ECC2D22309A
:102AB0002606031D5F2D2200AE010530832D7430E4
:102AC0002606031D6D2D01302200B100692D220064
:102AD000B1010130AF00023008006630260603194C
:102AE000672D30302602031CEF2D3A3026020318E2
:102AF000EF2D2608D03E2300AE00FF300318003033
:102B0000AF0004302200AF00EF2D30302602031C4E
:102B1000AC2D3A3026020318AC2D23002F082000DC
:102B2000A10023002E082000A0000A30A2000030DF
:102B3000A300A5318C25953126082007A40000307C
:102B4000213DA5002408D03E2300AE00FF30200028
:102B5000253D2300AF00EF2D01302200AF000330F0
:102B6000080022302606031DBA2D01302200AF00D6
:102B7000043008000F3022002E020318EF2D2E081B
:102B8000203E8600023087002000260881000130A8
:102B90002200AE072E08203E860002308700810109
:102BA000EF2D22002F082000A400A5012508003ADF
:102BB0000319DB2DEF2D2408003A0319222D013AC9
:102BC00003192D2D033A03193E2D013A0319572DF0
:102BD000073A0319852D013A0319B12DEF2D003065
:102BE00008002508803AA60080302602031DFA2D31
:102BF000513024020318002E2000A401A501080072
:102C000020002508803AA60080302602031D0A2EE7
:102C1000AC3024020318122EF4302000A407003038
:102C2000A53D080020002508803AA6008130260234
:102C3000031D1C2E493024020318242EFE302000D0
:102C4000A4070030A53D080020002508803AA60012
:102C500082302602031D2E2E473024020318362E02
:102C600018302000A4070130A53D080020002508E9
:102C7000803AA60083302602031D402E3530240200
:102C80000318482E29302000A4070130A53D080074
:102C900020002508803AA60084302602031D522E0B
:102CA0004D30240203185A2E36302000A40701307C
:102CB000A53D080020002508803AA600883026029D
:102CC000031D642E8630240203186C2EAE302000C3
:102CD000A4070130A53D080020002508803AA60081
:102CE0008C302602031D762EFB30240203187E2E24
:102CF000E4302000A4070130A53D0800200025088D
:102D0000803AA60092302602031D882E103024023D
:102D10000318902E12302000A4070230A53D0800B1
:102D200020002508803AA60096302602031D9A2E20
:102D3000E73024020318A22E88302000A4070230B6
:102D4000A53D080020002508803AA6009B302602F9
:102D5000031DAC2EEB3024020318B42EE730200004
:102D6000A4070230A53D080020002508803AA600EF
:102D7000A1302602031DBE2E373024020318C62EB2
:102D800020302000A4070330A53D080020002508BE
:102D9000803AA600A9302602031DD02E0530240259
:102DA0000318D82E48302000A4070330A53D0800A2
:102DB0005C302000A4070330A53D080022002D0848
:102DC000E2002C08E1009F314F27963122002C08A9
:102DD0002D04031DEE2EA5314825080094315324FF
:102DE000963122002D08803ADA0080305A02031D05
:102DF000FB2E78302C02031C080093318B23963174
:102E000022002C082D040319EB2E94315324963103
:102E100022002D08803ADA0080305A02031D122F5A
:102E200078302C02031C08009231C3229631220014
:102E30002C082D040319EB2E9431532496312200D3
:102E40002D08803ADA0080305A02031D292F78308D
:102E50002C02031C080022002D08803ADA00803082
:102E60005A02031D352FC8302C020318562F22009A
:102E70002D08803ADA006208803A5A02031D422F78
:102E800061082C020318562F22002C086102DA0078
:102E90002D08623BDB005B08803ADC0080305C027E
:102EA000031D542F65305A020318080022002D0814
:102EB000E2002C08E1005508DA00DB015A08DD00C9
:102EC0005B08DE005408DA00DB015A08DF005B080B
:102ED000E0005303031D6E2FD301702F0130D30088
:102EE000A5314825963122005308A431D6249631C5
:102EF0003230F2000030F300A5315C259631943178
:102F00005324963122002D08803ADA0080305A028C
:102F1000031D8C2F78302C02031C08009F314F2793
:102F2000963122002C082D040319EB2E94315324E2
:102F3000963122002D08803ADA0080305A02031DB3
:102F4000A32F78302C02031C080093318B23963179
:102F500022002C082D040319EB2E943153249631B2
:102F600022002D08803ADA0080305A02031DBA2F61
:102F700078302C02031C08009231C32296312200C3
:102F80002C082D040319EB2E943153249631220082
:102F90002D08803ADA0080305A02031DD12F783094
:102FA0002C02031C080022006208803ADA002D0877
:102FB000803A5A02031DDE2F2C0861020318FE2FEF
:102FC00022005303031DE62FD301E82F0130D30065
:102FD0005308A431D624963122005D08D5005F083D
:102FE000D40055089D317725963122005408983138
:102FF000342022006208AD006108AC0064000800C3
:10300200080000302000A3000030A2000030A10020
:103012000030A000721C162876082000A00777084E
:10302200A13D7808A23D7908A33D0130F635F70DA0
:10303200F80DF90D890B17280130F536F40CF30C55
:10304200F20C890B1E287508740473047204031DA4
:103052000B2820002308F5002208F4002108F300C1
:103062002008F20008002000A0002008A100211C76
:103072003D2822008E173F2822008E132000A11C1B
:10308200452822008E15472822008E112000211D7E
:103092004D2822000E174F2822000E132000A11DDA
:1030A200552822000E15572822000E112000211E3D
:1030B2005D2822008E165F2822008E122000A11E9B
:1030C200652822008E14672822008E102000211FFE
:1030D2006D2822000E166F2822000E122708F80013
:1030E2002608F700A431B6240800F701F51F80284E
:1030F200F409F509F40A0319F50A0130F700F31F80
:103102008728F209F309F20A0319F30A7208730411
:103112000319AC280130F600F31B97280130F23571
:10312200F30D890B90280130F6078D28730875027C
:10313200031D9D2872087402031CA3287208F4025E
:103142007308F53B0130F336F20C890BA4280130E9
:10315200F602031D972877080319B428F409F50924
:10316200F40A0319F50A7508F3007408F20008005E
:10317200813022009700171FBC280030A631C926D3
:1031820098317308A8007208A70003302802E930BA
:10319200031927020318D2282808A6002708A50029
:1031A2000800823022009700171FD5280030A63170
:1031B200C92698317308A8007208A70003302802B4
:1031C200E930031927020318EB282735A500280D3B
:1031D200A6000800833022009700171FEE28003057
:1031E200A631C9267308A8007208A7002808F800AB
:1031F2002708F700F735F80DF735F80D7708A50021
:103202007808A6000800A53148259931013022002E
:10321200D3005308A431D62499312000A001FF30F5
:10322200A631052699312000A001FE30A6310526DF
:1032320099312000A001A00AFD30A631052699315E
:103242002000A001FC30A631052699312000A00102
:10325200FB30A631052699319B3167239931220033
:10326200BC01D6010130D600AC01AD01AA01AB010F
:10327200A401A501AA302000A000A830A100A43119
:10328200F2249931640010302300DD002730DE0083
:103292001030DF002730E0008631B6260800F70143
:1032A200F31F5A29F209F309F20A0319F30A01304A
:1032B200F700F51F6329F409F509F40A0319F50A61
:1032C2000130F706F801F901720873040319902915
:1032D2000130F600F31B75290130F235F30D890B2D
:1032E2006E290130F6076B290130F835F90D890B8B
:1032F200762973087502031D802972087402031C63
:1033020087297208F4027308F53B78140130F3360A
:10331200F20C890B88290130F602031D7529770802
:1033220003199829F809F909F80A0319F90A790819
:10333200F3007808F2000800640022003D08031D33
:10334200E729D930F200A830F300A6314E26993190
:1033520064302000A000A830A100A431F2249931E9
:10336200A431C424993198302000A000A830A100D3
:103372001330A200A830A300A531A72599317330DC
:103382002000A000A830A1008630A200A830A3002F
:10339200A531A7259931E4302000A000A830A10072
:1033A200D030A200A830A300A531A72599319230D0
:1033B2002000A000A830A1008C30A200A830A300F9
:1033C200A531A7259931A431BD24993164009B31DF
:1033D200672301302200BA0008006400B5302000E3
:1033E200A000A830A100A431F224993190318320A9
:1033F200993122003C08031D4808031D032A9B3112
:1034020067239931220054082000A000FF30A63122
:1034120005269931220055082000A000FE30A63171
:1034220005269931220053082000A000FD30A63164
:10343200052699310030F2000130F30022005908CC
:10344200F5005808F4009931502199317208200092
:10345200A000FC30A6310526993122005808200030
:10346200A000FB30A631052699311030DD0027304F
:10347200DE001030DF002730E0008631B626220061
:103482002D08A5002C08A400D6010130D600640046
:1034920008000D302000A000A1013230A200A301DB
:1034A200A63175269A31003A0319802AFA30F200C1
:1034B2000030F300A5315C259A31640022005308E4
:1034C200031D662A0130D300672AD3015308A431B1
:1034D200D6249A319B3167239A310D302000A00007
:1034E200A1013230A200A301A63175269A31003A19
:1034F2000319802A8631B6269A3164006E2A0D306D
:103502002000A0000230A1003230A200A301A631A7
:1035120075269A31003A031D640022004408031DF7
:10352200942A0130952A00302100E3000D3020005A
:10353200A000A101A10A3230A200A301A631752682
:103542009A31210063050319080064000800031082
:103552002F0D300DB6003608031DB82A0030B0001A
:103562000030AF000030AE000030AD0008002D0882
:10357200B1002E08B2002F08B3003008B4001F308B
:10358200B436B30CB20CB10C890BC12A3108B500A8
:10359200AF17FF30AD05FF30AE05FF30AF0500308D
:1035A200B0059630B602B61FE72A3608803A973E33
:1035B200031CAF2A0130B036AF0CAE0CAD0C890B38
:1035C200DC2A0130B6070319F82ADB2A203036023A
:1035D2000318AF2A36080319F82A0130AD35AE0DAB
:1035E200AF0DB00D890BEF2A0130B602EB2A350878
:1035F20003190800AD09AE09AF09B009AD0A0319F4
:10360200AE0A0319AF0A0319B00A0800813022007A
:103612009700171F0A2B0130A631C9269B31730868
:10362200A8007208A70003302802E9300319270214
:103632000318232B2200CE0120002808A600270809
:10364200A5000800823022009700171F262B0130A8
:10365200A631C9269B317308A8007208A70003305F
:103662002802E9300319270203183F2B2200CE015A
:1036720020002735A500280DA6000800833022006F
:103682009700171F422B0130A631C9269B317308C0
:10369200A8007208A70003302802E93003192702A4
:1036A200031C572B01302200CE00592B2200CE01E1
:1036B20020002808F8002708F700F735F80DF7353D
:1036C200F80D7708A5007808A6000800640022001B
:1036D2005508F400F201F301741C742B230048080E
:1036E200F2074908F33DF41C7B2B23004608F2073E
:1036F2004708F33D741D822B23004408F207450856
:10370200F33DF41D892B23004208F2074308F33DE1
:10371200741E902B23004008F2074108F33DF41E6B
:10372200972B23003E08F2073F08F33D741F9E2BA0
:1037320023003C08F2073D08F33D73082300DB0039
:103742007208DA006400F201F30122005408F50065
:10375200751CB02B23005608F2075708F33DF51CE1
:10376200B72B23005408F2075508F33D751DBE2BF5
:1037720023005208F2075308F33DF51DC52B230021
:103782005008F2075108F33D751ECC2B23004E085A
:10379200F2074F08F33DF51ED32B23004C08F20726
:1037A2004D08F33D751FDA2B23004A08F2074B0838
:1037B200F33D73082300D9007208D80064000800A2
:1037C200003072052000A00000307305A100803097
:1037D2007405A2007F307505A3002308220421048A
:1037E2002004031DFC2B0030F5000030F4000030F3
:1037F200F3000030F20000307605A00000307705BB
:10380200A10080307805A2007F307905A30023084B
:10381200220421042004031D162C0030F90000307C
:10382200F8000030F7000030F600F51F302C0030B1
:10383200A0000030A1000030A2008030A300720876
:10384200A0027308A13B7408A23B7508A33B23089E
:10385200F5002208F4002108F3002008F200F91F05
:103862004A2C0030A0000030A1000030A2008030BD
:10387200A3007608A0027708A13B7808A23B79084A
:10388200A33B2308F9002208F8002108F7002008CA
:10389200F6008030F5068030F90679087502031DBE
:1038A200080078087402031D080077087302031DDC
:1038B2000800760872020800AF002F08031DAA1F35
:1038C200722C2709B1002809B2002909B3002A097C
:1038D200B400B10A0319B20A0319B30A0319B40AEC
:1038E2007A2C2A08B4002908B3002808B200270855
:1038F200B1002A08290428042704031D892C00305A
:10390200AA000030A9000030A8000030A70008007B
:103912009630B000FE3034050319A82C0130B007F0
:103922000130B436B30CB20CB10C890B922C8B2C37
:103932000130B0070130B1070030B23DB33DB43DB4
:103942000130B436B30CB20CB10C890BA22CFF308F
:1039520034050319BA2C992C02303002031CBC2CFA
:103962000130B0020130B135B20DB30DB40D890B87
:10397200B42CB31FAD2C3018C62CFF30B105FF306C
:10398200B2057F30B305FF30B4050310B00C300828
:10399200AB00AC01AD01AE011830AB35AC0DAD0DD5
:1039A200AE0D890BCE2C2B08B1042C08B2042D08C5
:1039B200B3042E08B4042F08031DAA1FE12CB41768
:1039C2003408AA003308A9003208A8003108A70069
:1039D20008002108F7002008F600A531E3259C31F4
:1039E2002000B001B1010030A6002408063CA50069
:1039F200031CA6033108A700A80126082806031DF8
:103A0200042D25082706031D0C2D3108293E8600AA
:103A120087012E30112D3108293E86008701303072
:103A220081000130B10706303102031CF42C06304C
:103A3200B1003108293E860087012E300106031DA0
:103A4200242D0130B1023108293E860087010A3057
:103A5200F2000030F3002308F5002208F400983148
:103A620076209C317208303E81000130B1020A306A
:103A7200F2000030F3002308F5002208F400993127
:103A820050219C3173082000A3007208A200220872
:103A92002304031D1A2D0030A6002408053CA500AE
:103AA200031CA6032608803AA70080302702031DC4
:103AB2005C2D310825020318622D20002408053CE4
:103AC200B10020003108013E293E860087012E30D8
:103AD2000106031D6E2D0130B1023108013E293E5F
:103AE200F2000030F300A6314E2608002000A000AC
:103AF2002008A10022004B08031DB32D2000211C29
:103B0200852D22008D15872D22008D112000A11CEC
:103B12008D2D22000C158F2D22000C112000211D4D
:103B2200952D22000D16972D22000D122000A11DA9
:103B32009D2D22008C159F2D22008C112000211E0C
:103B4200A52D22008D16A72D22008D122000A11E68
:103B5200AD2D22008C16AF2D22008C122000211BCD
:103B6200FB2DFE2D03102000211C0314031CBC2D71
:103B720022008D15BE2D22008D1103102000A11CE4
:103B82000314031CC72D22000C15C92D22000C1191
:103B920003102000211D0314031CD22D22000D1638
:103BA200D42D22000D1203102000A11D0314031CAA
:103BB200DD2D22008C15DF2D22008C110310200038
:103BC200211E0314031CE82D22008D16EA2D22006B
:103BD2008D1203102000A11E0314031CF32D2200DA
:103BE2008C16F52D22008C1203102000211F0314C5
:103BF200031CFE2D22000C16002E22000C12270898
:103C0200F8002608F700A431B6240800033021008A
:103C1200E7002200D4015408983134209E31033049
:103C22002200D200943153249E3122002C082D040C
:103C3200031908001430F2000030F3002D08F500DB
:103C42002C08F400993150219E3122002C08720771
:103C52002100E50022002D08733D2100E60003301B
:103C6200E8007A08F2006808A431E3249E31983112
:103C720034209E31943153249E3122002C082D048D
:103C8200031908002D08803A2100E4006608803AF2
:103C92006402031D4F2E650822002C020318A12E78
:103CA2001430F2000030F30022002D08F5002C0839
:103CB200F400993150219E3122002C087207210014
:103CC200E50022002D08733D2100E6007A08F2008B
:103CD2006808A431E3249E312200D4002100670841
:103CE2002200D2002D08803A2100E40080306402D4
:103CF200031D7E2E783022002C02031CA12E2100EF
:103D02006708E80722004C08031D8F2E09302100A6
:103D12006806031D8F2E0830E8009C2E22004C08F6
:103D2200031D9C2E113021006806031D9C2E1030AD
:103D3200E8000430E700203021006802031C322E24
:103D420022005408983134200800E40072306406DE
:103D5200031DBA2EFA30F2000030F300A5315C25C3
:103D62009E316400993104219E312200C401013048
:103D7200BA00743064060319C12E46080319DC2EFA
:103D8200FA30F2000030F300A5315C259E31640068
:103D920001302200D600D601FA30F2000030F300E2
:103DA200A5315C259E319931EE219E312200C4015C
:103DB200C6010130BA0062306406031D342F64006C
:103DC20022004408031D112F0130C4005408C3000F
:103DD2005508C2005308C100D4014B080319F42E40
:103DE200FF30D500F52ED5010130D30055089D31A5
:103DF20077259E3122005408983134209E312200CA
:103E02005308A431D6249E3122003C08031D0C2FF6
:103E12009B3167239E3122004508C000C501302F27
:103E2200C4014308D4004208D5004108D300540815
:103E3200983134209E31220055089D3177259E31DC
:103E420022005308A431D6249E3122003C08031DCF
:103E52002D2F9B3167239E3122004008C50064004C
:103E620001302200BA0061306406031D08004408D4
:103E7200031D0800640022004508031D432F013082
:103E8200C500442FC50145082000A0000230A6311C
:103E92000526640001302200BA0008000330210028
:103EA200EE00EC0103302200D10003302100ED00CE
:103EB2001430F2000030F30022002D08F5002C0827
:103EC200F400993150219F3122002C087207210001
:103ED200EA0022002D08733D2100EB00EF017B0870
:103EE200F2006F08A431E3249F319D3177259F3181
:103EF2009E3107269F31943153249F3122002C0892
:103F02002D04031908002D08803A2100E9006B08EE
:103F1200803A6902031D902F6A0822002C020318BE
:103F2200E82F1430F2000030F30022002D08F500D3
:103F32002C08F400993150219F3122002C0872077D
:103F42002100EA0022002D08733D2100EB007B08CE
:103F5200F2006F08A431E3249F312200D5005408F7
:103F62002100EC006E082200D10052082100ED0071
:103F720022002D08803A2100E90080306902031DE9
:103F8200C52F783022002C02031CE82F21006E0876
:103F9200EF0722004D08031DD62F093021006F06BE
:103FA200031DD62F0830EF00E32F22004D08031D1A
:103FB200E32F113021006F06031DE32F1030EF00B5
:103FC2000430EE00203021006F02031C702F21000C
:103FD2006C082200D40055089D3177259F312200BC
:103FE2005408983134209F3121006D082200D200FC
:0E3FF2000A30F2000030F300A5315C25080013
:10494C00103427341034273422003508F200B50116
:10495C0072080800640080010131890BB12C00340D
:10496C007808F3007708F200A5315C250800C43004
:10497C00F200A830F300A6314E2608002200B00148
:10498C00DB30F200A830F300A6314E260800F830D8
:10499C0021009505951195128B160B178B17080096
:1049AC00F900790C031C0E1003180E142708F800DC
:1049BC002608F700A431B6240800F400F301741C97
:1049CC00E92C7208F3070310F20D0310F40C7408B1
:1049DC00031DE52C730808003030F2002108F400A8
:1049EC002008F3001430F5000030F600A7315627EC
:1049FC0001302200BB000800F7000F307705F500EE
:104A0C000A30F2007708F6000430F636890B0B2DCD
:104A1C007608A431E32475070800F4006400230031
:104A2C009518142D7408F200F301720891007308A4
:104A3C0092003F30950515141308080023005E08FA
:104A4C007306031D2B2D5D0872060319342D730894
:104A5C00DE007208DD0001302200BA00640008009C
:104A6C00A431C424A53180302000A000A830A100BE
:104A7C002408A2000230A300A531A725A531A4313A
:104A8C00BD2408002200D501D40155089D3177259D
:104A9C00A5312200540898313420A5312200270872
:104AAC00F8002608F700A431B62408007308F600B5
:104ABC007208F500640075087604031908000630C6
:104ACC00F4003030890B682DF40B682D0032640033
:104ADC000130F5020030F63B612D2108F70020086B
:104AEC00F600A531E325A531200022080319852DF8
:104AFC00B030F200A830F300A6314E2608007A3010
:104B0C00F200A830F300A6314E260800F801F90196
:104B1C00201C942D2208F8072308F93D0130A235FA
:104B2C00A30D890B952D0130A136A00C890B9A2D64
:104B3C0020082104031D8E2D7908A1007808A000FF
:104B4C0008002108F7002008F600A531E325A5315F
:104B5C00CE30F200A830F300A6314E26A53120004D
:104B6C002308F3002208F200A6314E26A531CE30E0
:104B7C00F200A830F300A6314E260800A400A001D4
:104B8C00A1017208F400F5017408A2007508A300D5
:104B9C00241CD42D2208A0072308A13D0130A235E6
:104BAC00A30D890BD52D0310A40C2408031DCE2DA9
:104BBC002108F3002008F200080022003008031935
:104BCC00EE2DD830F200A830F300A6314E26A531D8
:104BDC00CC30F200A830F300A6314E26A531770870
:104BEC00F3007608F200A6314E26A531C830F2004B
:104BFC00A830F300A6314E260130B0000800A30007
:104C0C0023009518062E20002308A100A2012108DC
:104C1C00230091002000220823009200200020088D
:104C2C00230093003F30950503108B1B03148B134B
:104C3C00151555309600AA30960095141511031CC5
:104C4C0008008B1708002034203420342034203402
:104C5C0020342034203420342034203420342034A8
:104C6C002034203420342034203420342034203498
:104C7C002034203420342034203420342034203488
:104C8C0020342034203420342034203420340A348E
:104C9C00F501220039080319652E64004F2E7508A2
:104CAC00A03E8600023087007508720784007308E6
:104CBC000318013E8500000881000130F5077508D6
:104CCC007207840073080318013E85001200031D4F
:104CDC00552E75082200E8000130B90008002208A2
:104CEC00F700992E0D087E2E0D0C7E2E0D0C890CC6
:104CFC000139F8008A2E20002108003A0319782E79
:104D0C00013A03197A2E7C2E780823060319902E6B
:104D1C00003008000130F2000030F300A5315C25B2
:104D2C00A6310130F7027708031D812EFF300800F1
:104D3C00AC2E720886000230870001080319BA2EC7
:104D4C000130F2070130F3070030F43D73088400A2
:104D5C00740885000008F500720886000230870090
:104D6C000108750603199F2E720886000230870011
:104D7C00730884007408850000080102F200F30136
:104D8C00031CF30308002000A0002008F400F40D1D
:104D9C00F40D21001D087406833974069D009D14C2
:104DAC000630890BD72E003221009D18DA2E1B08F5
:104DBC002000A30021001C082000A4002408F400FB
:104DCC00F5017408F500F40123087407A100003004
:104DDC00753DA2002208F3002108F2000800003003
:104DEC002000A000A830A100A431F224A631A531E6
:104DFC004825A63101302200D3005308A431D62413
:104E0C00A631220054082000A000FF30A631052650
:104E1C00A631220055082000A000FE30A631052640
:104E2C00A631220053082000A000FD30A631052633
:104E3C00A63101302200BD0099319D2108003708B0
:104E4C00031D442F39080319080068083802031899
:104E5C00412F8D103808A03E8600023087000108D3
:104E6C00B600412F361C3C2F8D143D2F8D10031096
:104E7C00B60C412F8D140130B707080009303702EA
:104E8C00031C382F0B303702031C402FB7010130A5
:104E9C00B80738086806031D0800B901B8010800F6
:104EAC007208F9007508760403197D2F0130F5029C
:104EBC000030F63B7908860002308700F90A740846
:104ECC00F8007308F700F30A0319F40A7708840052
:104EDC00780885000008C03F890803197D2F582FDA
:104EEC00790886000230870081010130F907013012
:104EFC00F5020030F63B750A031D762F760A03196E
:104F0C000800762F640021009712171697111715B9
:104F1C0097106400C03023008C050C148C14C03026
:104F2C008D052200911393137A30210099002000F3
:104F3C008C018D018E01C03022008C008D018E0100
:104F4C00033021008C0007308D008E010D158D1063
:104F5C00983101201E149E14813022009700A3303A
:104F6C0021009E001D14951324000D148D140D1595
:104F7C008B130800A431AA24A731E700EB2F670894
:104F8C009E31A62608004430F200BA30F300A83057
:104F9C00F400A6319E26A731720873040319080089
:104FAC004430F2006C30F300A830F400A6319E2699
:104FBC00A73172087304031908005C302000A000AC
:104FCC00A830A100A431F2240800670895311F25F0
:104FDC00A7312200E500E6016608003A0319F72F15
:104FEC00FF2F6508013A0319C52F033A0319C92F7E
:104FFC00FF2F0800543465347334743420346D340A
:10500C006F3464346534203469346E3464347534EC
:10501C00633474346F347234003441345434553442
:10502C002D343134303430345F34453458345434C6
:10503C00003443346134703461346334693474340F
:10504C0061346E3463346534003449346E34643402
:10505C0075346334743461346E34633465340034C1
:10506C0043346134703461346334693474346F3470
:10507C0072340034653466346634693463346534B0
:10508C006E346334793400344F347634653472348E
:10509C006C346F3461346434003449346E346434A9
:1050AC007534633474346F347234003449346E3470
:1050BC00763461346C34693464340034533474346D
:1050CC00613472347434753470340034423479344D
:1050DC007034613473347334003443347234653453
:1050EC006434693474340034663461346C3473342D
:1050FC00653400344534763465346E34743400349D
:10510C004E343734443444344334003475346B34C3
:10511C006F346434613400344234753469346C3423
:10512C006434003442346F34613472346434003487
:10513C004F347234643465347234003450346F3408
:10514C0077346534723400345234653473346534D6
:10515C00743400347434723475346534003454341B
:10516C0075346E34653400344134753474346F34B2
:10517C0000344C346F347334733400340A347D345B
:10518C000A34003422343A342034003420342034AD
:10519C002234003433342E34323400345334573404
:1051AC00523400342C340A3400347B340A34003446
:1051BC004C344334003443344C3400344634573488
:0251CC000034AD
:020000040001F9
:08000000FF3FFF3FFF3FFF3F00
:04000E00FC3FFF3F75
:10E00000780001000100150013000100000000006D
:10E0100002000000070000000700000001000000EF
:10E020000000500001001000020020000400500019
:10E03000100000002200000045000000FF00FF006B
:10E040000000100000002200000047000100000056
:10E05000020020000400700010000000FF00FF001C
:10E06000000011000000010000000000FF00FF00A0
:10E07000FF00FF00FF00FF00FF00FF00FF00FF00A8
:10E08000FF00FF00FF00FF00FF00FF00FF00FF0098
:10E09000FF00FF00FF00FF00FF00FF00FF00FF0088
:10E0A000FF00FF00FF00FF00FF00FF00FF00FF0078
:10E0B000FF00FF00FF00FF00FF00FF00FF00FF0068
:10E0C000FF00FF00FF00FF00FF00FF00FF00FF0058
:10E0D000FF00FF00FF00FF00FF00FF00FF00FF0048
:10E0E000FF00FF00FF00FF00FF00FF00FF00FF0038
:10E0F000FF00FF00FF00FF00FF00FF00FF00FF0028
:10E10000FF00FF00FF00FF00FF00FF00FF00FF0017
:10E11000FF00FF00FF00FF00FF00FF00FF00FF0007
:10E12000FF00FF00FF00FF00FF00FF00FF00FF00F7
:10E13000FF00FF00FF00FF00FF00FF00FF00FF00E7
:10E14000FF00FF00FF00FF00FF00FF00FF00FF00D7
:10E15000FF00FF00FF00FF00FF00FF00FF00FF00C7
:10E16000FF00FF00FF00FF00FF00FF00FF00FF00B7
:10E17000FF00FF00FF00FF00FF00FF00FF00FF00A7
:10E18000FF00FF00FF00FF00FF00FF00FF00FF0097
:10E19000FF00FF00FF00FF00FF00FF00FF00FF0087
:10E1A000FF00FF00FF00FF00FF00FF00FF00FF0077
:10E1B000FF00FF00FF00FF00FF00FF00FF00FF0067
:10E1C000FF00FF00FF00FF00FF00FF00FF00FF0057
:10E1D000FF00FF00FF00FF00FF00FF00FF00FF0047
:10E1E000FF00FF00FF00FF00FF00FF00FF00FF0037
:10E1F000FF00FF00FF000000000001000000000021
:00000001FF
