:1000000080311828013401347E148031003086009C
:10001000003087008B1A0B1D162837302000950002
:100020000B11A73121278031883102207E10090071
:1000300080311A28803102208031FA00803103207B
:100040008031FB00E9308400A230850068308600F2
:10005000013087000730A231D5228031CA308400B8
:10006000A2308500E9308600013087000530A231DA
:10007000D5228031D3308400A43085004B308600F7
:10008000023087002530A231D52280312030840013
:10009000013085003A30A231CF228031A030840077
:1000A000013085004930A231CF22803120308400D8
:1000B000023085002B30A231CF228031A030840065
:1000C000023085002530A231CF227E1020009031F1
:1000D0008F28640022004803031D7E282100380871
:1000E000803ABB0080303B02031D78280A3037027B
:1000F000031C7E2801302200BE00872822003E0318
:10010000031D85289A31A02280312200BE0164009F
:1001100023006C0821003806031D922823006B0879
:10012000210037060319B32B38082300EC00210007
:1001300037082300EB00210038082300AA00210023
:1001400037082300A90022003E03031DB02B5508E9
:10015000031DB5285408031DB52821003A082200C4
:10016000D900210039082200D8004A082100BB002C
:10017000BC01BD01BE013E082000AA0021003D08CF
:100180002000A90021003C082000A80021003B0815
:100190002000A70001309C31132480312A08E6009A
:1001A0002908E5002808E4002708E3002200580891
:1001B0002000A700220059082000A800890D893BD3
:1001C0008909A900AA0001309C31132480312A0832
:1001D000B8002908B7002808B6002708B500423043
:1001E000BC00C830BB000030BA000030B900883114
:1001F000362080313808D2003708D1003608D000C8
:100200003508CF004230B800C830B7000030B60023
:100210000030B500220058082000A700220059082D
:100220002000A800890D893B8909A900AA00013096
:100230009C31132480312A08BC002908BB002808FF
:10024000BA002708B9008831362080313808D60036
:100250003708D5003608D4003508D3008931A121EC
:1002600080315208EA005108E9005008E8004F08C0
:10027000E7008D317225803166082100C200200020
:1002800065082100C100200064082100C000200092
:1002900063082100BF003F302000D2008030D10031
:1002A0000030D0000030CF003D30E600EB30E500FC
:1002B0008530E4001F30E3004130B8002030B70043
:1002C0000030B6000030B500210042082000BC001C
:1002D000210041082000BB00210040082000BA0096
:1002E00021003F082000B9008831362080313808CD
:1002F000EA003708E9003608E8003508E7008D31E4
:10030000722580316608D6006508D5006408D400DF
:100310006308D3008931A121803152082100CC002B
:10032000200051082100CB00200050082100CA0005
:1003300020004F082100C9004C082000B80021000F
:100340004B082000B70021004A082000B600210019
:1003500049082000B5003F30BC008030BB000030B1
:10036000BA000030B90088313620803138082100C9
:10037000D800200037082100D700200036082100CF
:10038000D600200035082100D50040302000D200E2
:100390000030D1000030D0000030CF004230B80033
:1003A000C830B7000030B6000030B5002100390871
:1003B0002000A70021003A082000A800890D893BF1
:1003C0008909A900AA0001309C31132480312A0830
:1003D000BC002908BB002808BA002708B9008831EA
:1003E000362080313808D6003708D5003608D400CA
:1003F0003508D3008931A121803152082100C6007F
:10040000200051082100C500200050082100C40030
:1004100020004F082100C30039082000A700210058
:100420003A082000A800890D893B8909A900AA0083
:1004300001309C31132480312A08B8002908B70004
:100440002808B6002708B5004230BC00C830BB0001
:100450000030BA000030B9008831362080313808C9
:10046000D2003708D1003608D0003508CF0021006F
:1004700046082000D600210045082000D5002100B4
:1004800044082000D400210043082000D300893113
:10049000A121803152082100CC0020005108210008
:1004A000CB00200050082100CA0020004F08210086
:1004B000C9004C082000B80021004B082000B700FC
:1004C00021004A082000B600210049082000B5009C
:1004D0004030BC008030BB000030BA000030B900B2
:1004E00088313620803138082100D40020003708B8
:1004F0002100D300200036082100D200200035085A
:100500002100D1005808F5005708F4005608F30000
:100510005508F2003F30F9008030F8000030F70055
:100520000030F6009B311A238031031CA02A3F3093
:100530002100D8008030D7000030D6000030D50030
:1005400021005408F5005308F4005208F300510844
:10055000F2003F30F9008030F8000030F700003042
:10056000F6009B311A238031031CBF2A3F30210043
:10057000D4008030D3000030D2000030D100210000
:1005800037082000A700210038082000A800890DA6
:10059000893B8909A900AA0001309C3113248031CC
:1005A0002A08EA002908E9002808E8002708E700E7
:1005B000210058082000E600210057082000E5002F
:1005C000210056082000E400210055082000E30027
:1005D0008D317225803166082100D0002000650829
:1005E0002100CF00200064082100CE002000630815
:1005F0002100CD0050082000EA0021004F08200013
:10060000E90021004E082000E80021004D082000EC
:10061000E700210054082000E600210053082000D4
:10062000E500210052082000E400210051082000CC
:10063000E3008D317225803166082100B000200072
:1006400065082100AF00200064082100AE002000F2
:1006500063082100AD009931E12180312E08C800E6
:100660002D08C70058082000EA0021005708200084
:10067000E900210056082000E8002100550820006C
:10068000E700210054082000E60021005308200064
:10069000E500210052082000E4002100510820005C
:1006A000E3008D317225803166082100D0002000E2
:1006B00065082100CF00200064082100CE00200042
:1006C00063082100CD0050082000EA0021004F08F7
:1006D0002000E90021004E082000E80021004D081C
:1006E0002000E7004230E600C830E5000030E400BA
:1006F0000030E3008D317225803166082100B000A2
:10070000200065082100AF00200064082100AE0031
:10071000200063082100AD009931E12180312E08CD
:100720002200A10021002D082200A0002108803A0B
:100730002100BB0080303B02031DA12B643022004E
:100740002002031CA82B63302200A0000030A1006F
:10075000210048082300AA00210047082300A9001F
:1007600001302200BC006400080064000230A331A4
:100770004B238331013A031DC02B01302200C600F8
:100780000330A3314B238331A3315C238331200019
:10079000A400A50124082200A600200025082200AC
:1007A000A7000430A3314B238331A3315C23833171
:1007B0002000A400A5012408A0002508A1000A30FB
:1007C000A2000030A300A4311324833121082300A8
:1007D000B400200020082300B3000530A3314B23D0
:1007E0008331A3315C2383312000A400A5012408B8
:1007F000A0002508A1000A30A2000030A300A43107
:100800001324833121082300B20020002008230094
:10081000B1000630A3314B238331A3315C238331F4
:100820002000A400A5012408A0002508A1000A308A
:10083000A2000030A300A431132483312108230037
:10084000B000200020082300AF000930A3314B2363
:100850008331A3315C2383312000A400A501240847
:10086000A0002508A1000A30A2000030A300A43196
:100870001324833121082300AE0020002008230028
:10088000AD000A30A3314B2383312200EE000B3040
:10089000A3314B2383312200CD000C30A3314B23F5
:1008A00083312200ED000D30A3314B238331220030
:1008B000CC000E30A3314B2383312200EC000F30EB
:1008C000A3314B2383312200CB0064001130A331CC
:1008D0004B238331A3315C2383312000A400A50185
:1008E0001030A3314B238331A3315C2383312000AB
:1008F000A600A7012608A0002708A1006430A200D6
:100900000030A300A43113248331240820072300DE
:10091000C10020002508213D2300C2001330A3316F
:100920004B238331A3315C2383312000A400A50134
:100930001230A3314B238331A3315C238331200058
:10094000A600A7012608A0002708A1006430A20085
:100950000030A300A431132483312408200723008E
:10096000BF0020002508213D2300C0001530A33121
:100970004B238331A3315C2383312000A400A501E4
:100980001430A3314B238331A3315C238331200006
:10099000A600A7012608A0002708A1006430A20035
:1009A0000030A300A431132483312408200723003E
:1009B000BD0020002508213D2300BE001730A331D3
:1009C0004B238331A3315C2383312000A400A50194
:1009D0001630A3314B238331A3315C2383312000B4
:1009E000A600A7012608A0002708A1006430A200E5
:1009F0000030A300A43113248331240820072300EE
:100A0000BB0020002508213D2300BC001930A33184
:100A10004B238331A3315C2383312000A400A50143
:100A20001830A3314B238331A3315C238331200061
:100A3000A600A7012608A0002708A1006430A20094
:100A40000030A300A431132483312408200723009D
:100A5000B90020002508213D2300BA001B30A33136
:100A60004B238331A3315C2383312000A400A501F3
:100A70001A30A3314B238331A3315C23833120000F
:100A8000A600A7012608A0002708A1006430A20044
:100A90000030A300A431132483312408200723004D
:100AA000B70020002508213D2300B8001D30A331E8
:100AB0004B238331A3315C2383312000A400A501A3
:100AC0001C30A3314B238331A3315C2383312000BD
:100AD000A600A7012608A0002708A1006430A200F4
:100AE0000030A300A43113248331240820072300FD
:100AF000B50020002508213D2300B6002130A33198
:100B00004B238331A3315C2383312000A400A50152
:100B10002030A3314B238331A3315C238331200068
:100B2000A600A7012608A0002708A1006430A200A3
:100B30000030A300A43113248331240820072300AC
:100B4000CF0020002508213D2300D0002330A33111
:100B50004B238331A3315C2383312000A400A50102
:100B60002230A3314B238331A3315C238331200016
:100B7000A600A7012608A0002708A1006430A20053
:100B80000030A300A431132483312408200723005C
:100B9000CD0020002508213D2300CE002530A331C3
:100BA0004B238331A3315C2383312000A400A501B2
:100BB0002430A3314B238331A3315C2383312000C4
:100BC000A600A7012608A0002708A1006430A20003
:100BD0000030A300A431132483312408200723000C
:100BE000CB0020002508213D2300CC002730A33175
:100BF0004B238331A3315C2383312000A400A50162
:100C00002630A3314B238331A3315C238331200071
:100C1000A600A7012608A0002708A1006430A200B2
:100C20000030A300A43113248331240820072300BB
:100C3000C90020002508213D2300CA002930A33126
:100C40004B238331A3315C2383312000A400A50111
:100C50002830A3314B238331A3315C23833120001F
:100C6000A600A7012608A0002708A1006430A20062
:100C70000030A300A431132483312408200723006B
:100C8000C70020002508213D2300C8002B30A331D8
:100C90004B238331A3315C2383312000A400A501C1
:100CA0002A30A3314B238331A3315C2383312000CD
:100CB000A600A7012608A0002708A1006430A20012
:100CC0000030A300A431132483312408200723001B
:100CD000C50020002508213D2300C6002D30A3318A
:100CE0004B238331A3315C2383312000A400A50171
:100CF0002C30A3314B238331A3315C23833120007B
:100D0000A600A7012608A0002708A1006430A200C1
:100D10000030A300A43113248331240820072300CA
:100D2000C30020002508213D2300C4003030A3313A
:100D30004B2383312200C9003130A3314B2383314F
:100D4000A3315C2383312200EB003330A3314B23EA
:100D500083312200C8003430A3314B238331A331C7
:100D60005C2383312200CA003530A3314B23833109
:100D7000A3315C232300D7006400080022002D0863
:100D8000E2002C08E1009D31CF25863122002C089D
:100D90002D04031DCE2EA331912308009231E322AE
:100DA000863122002D08803ADA0080305A02031D75
:100DB000DB2E78302C02031C080092311B22863176
:100DC00022002C082D040319CB2E9231E322863108
:100DD00022002D08803ADA0080305A02031DF22EDC
:100DE00078302C02031C08009131532186312200F7
:100DF0002C082D040319CB2E9231E32286312200D8
:100E00002D08803ADA0080305A02031D092F78300D
:100E10002C02031C080022002D08803ADA008030E2
:100E20005A02031D152FC8302C020318362F22003A
:100E30002D08803ADA006208803A5A02031D222FF8
:100E400061082C020318362F22002C086102DA00F8
:100E50002D08623BDB005B08803ADC0080305C02DE
:100E6000031D342F65305A020318080022002D0894
:100E7000E2002C08E1005508DA00DB015A08DD0029
:100E80005B08DE005408DA00DB015A08DF005B086B
:100E9000E0005303031D4E2FD301502F0130D30028
:100EA000A3319123863122005308A33112238631C6
:100EB0003230F2000030F300A331E3238631923167
:100EC000E322863122002D08803ADA0080305A026F
:100ED000031D6C2F78302C02031C08009D31CF2598
:100EE000863122002C082D040319CB2E9231E322E7
:100EF000863122002D08803ADA0080305A02031D24
:100F0000832F78302C02031C080092311B2286317B
:100F100022002C082D040319CB2E9231E3228631B6
:100F200022002D08803ADA0080305A02031D9A2FE1
:100F300078302C02031C08009131532186312200A5
:100F40002C082D040319CB2E9231E3228631220086
:100F50002D08803ADA0080305A02031DB12F783014
:100F60002C02031C080022006208803ADA002D08D7
:100F7000803A5A02031DBE2F2C0861020318DE2F8F
:100F800022005303031DC62FD301C82F0130D30005
:100F90005308A3311223863122005D08D5005F0873
:100FA000D40055089C31A024863122005408A63173
:100FB0009C2622006208AD006108AC0064000800B5
:100FC000A400A001A1017208F400F5017408A200B8
:100FD0007508A300241CF02F2208A0072308A13DB8
:100FE0000130A235A30D890BF12F0310A40C2408A6
:100FF000031DEA2F2108F3002008F2000800080072
:101004006908031D08003708031D2428390803193B
:10101400080068083802031821288D1038084B3E50
:101024008600023087000108B6002128361C1C28DF
:101034008D141D288D100310B60C21288D14013039
:10104400B707080009303702031C18280B30370291
:10105400031C2028B7010130B80738086806031DAF
:101064000800B901B80108003C088039C6003C35C5
:10107400CD00BB1B4D144D0803194E284D0A031D0A
:101084004B280030BC000030BB000030BA000030F8
:10109400B900BB17BC0156280030BC000030BB00AF
:1010A4000030BA000030B90038088039C606383537
:1010B400CE00B71B4E144E0803196E284E0A031DAA
:1010C4006B280030B8000030B7000030B6000030A4
:1010D400B500B717B80176280030B8000030B70063
:1010E4000030B6000030B500380837043604350443
:1010F400031D93280030BC000030BB000030BA0050
:101104000030B9008030BB047F30BC044608BC0406
:101114003C08B8003B08B7003A08B6003908B500E7
:1011240008004D08031D9F280030B8000030B700A8
:101134000030B6000030B50008004D08BD00BE0107
:101144003E08C0004E083D02BF00031CC0033F0818
:101154007F3EC7000030403DC8003C08C5003B0846
:10116400C4003A08C3003908C2000030BC00003093
:10117400BB000030BA000030B9000030CC000030B1
:10118400CB000030CA000030C900CE011A304E0234
:10119400031802294E080319E6280130C235C30D8D
:1011A400C40DC50D890BD0280130B935BA0DBB0D5E
:1011B400BC0D890BD728CC1B39140130C935CA0D95
:1011C400CB0DCC0D890BE02838084502031DF4280B
:1011D40037084402031DF42836084302031DF4288B
:1011E40035084202031CFF284C173508C202360892
:1011F400C33B3708C43B3808C53B0130CE07C82879
:101204004508440443044204031D4914BB1B1F291D
:101214000130B935BA0DBB0DBC0D890B0B29CC1BA4
:1012240039140130C935CA0DCB0DCC0D890B1429E5
:10123400FF30C707FF30C83D0829CE01CC1F38292D
:10124400FF304905BD00FF304A05BE00FF304B05A5
:10125400BF007F304C05C00040083F043E043D04FD
:1012640003193918362938290130CE004E080319DC
:101274005F290130B9070030BA3DBB3DBC3D3C1C81
:101284005F293908BD003A08BE003B08BF003C088E
:10129400C0000130C100C037BF0CBE0CBD0CC10B77
:1012A4004D294008BC003F08BB003E08BA003D0879
:1012B400B9000130C7070030C83D4808803ABD0076
:1012C40080303D02031D6829FF304702031C772943
:1012D400FF302000C7000030C8000030BC000030E0
:1012E400BB000030BA000030B90020004808803A42
:1012F400BD0080303D02031D8129013047020318DF
:101304008F292000C701C8010030BC000030BB0099
:101314000030BA000030B900C60120004708CD00F3
:101324004D1C9629BB1798297F30BB054D08BD007D
:101334000130BD36890B9B293D08BC008828520822
:101344008039DF005235E100D11B611461080319B3
:10135400B929610A031DB6290030D2000030D1003A
:101364000030D0000030CF00D117D201C1290030A5
:10137400D2000030D1000030D0000030CF00560839
:101384008039E00060085F06031D5F175635E000F2
:10139400D51B601460080319DD29600A031DDA29CE
:1013A4000030D6000030D5000030D4000030D30027
:1013B400D517D601E5290030D6000030D50000301D
:1013C400D4000030D3006108600203180B2A5F1FA9
:1013D400ED298030DF066108E2006008E100620860
:1013E400E0004F08E2005308CF006208D300500821
:1013F400E2005408D0006208D4005108E200550805
:10140400D1006208D5005208E2005608D2006208F2
:10141400D600E2016008D700D8015808DA00610854
:101424005702D900031CDA035A08803ADB008030E3
:101434005B02031D1F2A1A305902031C512A200083
:101444005208510450044F0403192A2A01302B2A4C
:101454000030E2000030D2000030D1000030D00073
:101464000030CF006008E100562A621C432A62085B
:10147400D7000130D736890B3C2A57080138E200DF
:10148400452A0310E20C4F18E2170130D700D23777
:10149400D10CD00CCF0CD70B492A0130E107200026
:1014A40060086102031C372A5F1B892A6108031D37
:1014B400642A0030D2000030D1000030D000003067
:1014C400CF0008005308CF075408D03D5508D13D3C
:1014D4005608D23D521C022B621C7A2A6208D7009D
:1014E4000130D736890B732A57080138E2007C2A69
:1014F4000310E20C4F18E2170130D700D237D10C99
:10150400D00CCF0CD70B802A0130E107022B5208F4
:10151400803AD7005608803A5702031D9B2A550883
:101524005102031D9B2A54085002031D9B2A530891
:101534004F020318D02AFF30D700FF30D800FF3005
:10154400D900FF30DA004F085302DB005008543B47
:10155400DC005108553BDD005208563BDE005B08B9
:10156400D7075C08D83D5D08D93D5E08DA3D5A08C6
:10157400D2005908D1005808D0005708CF00803055
:10158400DF066203FF3AE2006208031DD82A013035
:10159400CF070030D03DD13DD23DD82A5308CF02E9
:1015A4005408D03B5508D13B5608D23B520851044D
:1015B40050044F04031D002B6208031D002B003050
:1015C400D2000030D1000030D0000030CF0008003D
:1015D4000130CF35D00DD10DD20D890BEB2AE21B92
:1015E4004F14621CF92A0314620DE200FB2A031053
:1015F400E20D61080319002B0130E102D11FEA2A30
:10160400E001E21F0D2B62087F3903194F180B2BE1
:101614000D2B0130E00060080319352B0130CF0792
:101624000030D03DD13DD23D521C352B4F08D70060
:101634005008D8005108D9005208DA000130DB0004
:10164400DA37D90CD80CD70CDB0B222B5A08D20072
:101654005908D1005808D0005708CF00610A03196F
:10166400352B0130E107610A031D6108031D452B79
:101674000030D2000030D1000030D0000030CF0064
:1016840061080319DF01611C492BD1174B2B7F30F3
:10169400D1056108D7000130D736890B4E2B570886
:1016A400D200DF1F0800D217080064009A314022DC
:1016B4008B3125082100C300200026082100C40026
:1016C400C501C601A73168278B3125082100BF0059
:1016D400200026082100C000C101C20122006C03C1
:1016E400031D952B03302000A2000030A30021002D
:1016F40044082000A100210043082000A000A431D8
:1017040013248B312108A5002008A40094318324DC
:101714008B312408A7002508A800890D893B890975
:10172400A900AA00B12B0030F9000030F800003005
:10173400F7000330F60021004608F5004508F400E0
:101744004408F3004308F200A63132268B317508B1
:10175400AA007408A9007308A8007208A700013041
:101764009C3113248B312A082100CA002000290847
:101774002100C900200028082100C80020002708F3
:101784002100C7004208803AB7004608803A370271
:10179400031DD62B45084102031DD62B44084002E5
:1017A400031DD62B43083F0203183B2C3F0843027A
:1017B400B7004008443BB8004108453BB900420823
:1017C400463BBA003A082000A7002100390820004F
:1017D400A600210038082000A500210037082000B9
:1017E400A400210043083F07BB004408403DBC005F
:1017F4004508413DBD004608423DBE003E08F50097
:101804003D08F4003C08F3003B08F2000030F90006
:101814000030F8000030F7006430F600A6313226BC
:101824008B317508AB007408AA007308A90072080C
:10183400A8009B3196238B3127082100C600200085
:1018440026082100C500200025082100C40020002E
:1018540024082100C300C61B442C4608031D3B2C4E
:101864004508031D3B2CE83043020330443B031C72
:10187400442C00302100C6000030C5000330C400F1
:10188400E730C30044302000B8007A30B70000309D
:10189400B6000030B50021004A082000E60021000F
:1018A40049082000E500210048082000E400210048
:1018B40047082000E30022006B082100B700B801AC
:1018C400B901BA013A082000AA0021003908200011
:1018D400A900210038082000A800210037082000B2
:1018E400A70001309C3113248B312A08EA0029080F
:1018F400E9002808E8002708E7008D3172258B31BC
:101904006608BC006508BB006408BA006308B90037
:10191400883136208B3138082100CA00200037086E
:101924002100C900200036082100C8002000350825
:101934002100C7003F302000B800B430B700FD30AC
:10194400B600F430B50021004A082000BC00210094
:1019540049082000BB00210048082000BA002100EB
:1019640047082000B900883136208B31380821001F
:10197400CA00200037082100C900200036082100D1
:10198400C800200035082100C70022004903031DB8
:10199400D02C42302000B8004830D42C40302000F5
:1019A400B800A030B7000030B6000030B500210008
:1019B4004A082000E600210049082000E500210033
:1019C40048082000E400210047082000E30021002B
:1019D4004A082000EA00210049082000E90021000B
:1019E40048082000E800210047082000E7008D3166
:1019F40072258B316608BC006508BB006408BA0018
:101A04006308B900883136208B3138082100CA00B8
:101A1400200037082100C900200036082100C80032
:101A2400200035082100C7003F302000D2000030DC
:101A3400D1000030D0000030CF0021004A0820003F
:101A4400D600210049082000D500210048082000C4
:101A5400D400210047082000D3008931A1218B3113
:101A640052082100CA00200051082100C9002000AA
:101A740050082100C80020004F082100C7004A0870
:101A8400B0004908AF004808AE004708AD009931DE
:101A9400E1218B312E082200AB0021002D08220009
:101AA400AA002100C61B632D4608031D692D4508A5
:101AB400031D692D4408031D692D64304302031876
:101AC400692DE7302200AC000330AD00080021008E
:101AD40044082200AD00210043082200AC000800A5
:101AE400660880392100A000200066352100A2008C
:101AF4002000E51F7F2D2100221421002208031954
:101B0400922D220A031D8F2D00302000E6000030A4
:101B1400E5000030E4000030E3002000E5179B2DD1
:101B240000302000E6000030E5000030E400003022
:101B3400E3006A0880392100A00620006A352100EC
:101B4400A1002000E91FA82D210021142100210853
:101B54000319BB2D210A031DB82D00302000EA0013
:101B64000030E9000030E8000030E7002000E91709
:101B7400C42D00302000EA000030E9000030E80005
:101B84000030E70021002108031D2208031DD42D85
:101B940000302000E6000030E5000030E4000030B2
:101BA400E300080020006308F20069088731E02799
:101BB4008D3173082100AC007208AB002B082000A3
:101BC400EB00EC01ED01EE016E082100A6002000FF
:101BD4006D082100A50020006C082100A40020004D
:101BE4006B082100A3002C082000EB00EC01ED01A0
:101BF400EE016E082100AA0020006D082100A90052
:101C040020006C082100A80020006B082100A70018
:101C140020006408F20068088731E0278D317308DA
:101C24002100AC007208AB002B082000EB00EC0193
:101C3400ED01EE016B082100A30720006C082100D0
:101C4400A43D20006D082100A53D20006E08210060
:101C5400A63D2C082000EB00EC01ED01EE016B0821
:101C64002100A70720006C082100A83D20006D0872
:101C74002100A93D20006E082100AA3D200065082E
:101C8400F20067088731E0278D3173082100AC002A
:101C94007208AB002B082000EB00EC01ED01EE0113
:101CA4006B082100A30720006C082100A43D20003C
:101CB4006D082100A53D20006E082100A63D2C08DA
:101CC4002000EB00EC01ED01EE016B082100A707F9
:101CD40020006C082100A83D20006D082100A93DCA
:101CE40020006E082100AA3D0830A335A40DA50DDF
:101CF400A60D890B772E20006408F200670887314F
:101D0400E0278D3173082100AC007208AB002B086A
:101D1400A3072C08A43D0030A53DA63D2000630880
:101D2400F20068088731E0278D3173082100AC0088
:101D34007208AB002B08A3072C08A43D0030A53D76
:101D4400A63D0830A335A40DA50DA60D890BA42E20
:101D540020006308F20067088731E0278D3173089B
:101D64002100AC007208AB002B08A3072C08A43D8B
:101D74000030A53DA63D20006408F20069088731C3
:101D8400E0278D3173082100AC007208AB002B08EA
:101D9400A7072C08A83D0030A93DAA3D20006508EE
:101DA400F20068088731E0278D3173082100AC0008
:101DB4007208AB002B08A7072C08A83D0030A93DEA
:101DC400AA3D20006508F20069088731E0278D31BB
:101DD40073082100AC007208AB002B082000EB0054
:101DE40021002C082000EC00ED01EE010830EB3559
:101DF400EC0DED0DEE0D890BF92E6B082100A707F4
:101E040020006C082100A83D20006D082100A93D98
:101E140020006E082100AA3D26082000EB00EC01FA
:101E2400ED01EE016B082100A70720006C082100DA
:101E3400A83D20006D082100A93D20006E08210066
:101E4400AA3D0830A335A40DA50DA60D890B242F9A
:101E5400220821072000EB00EC01EC0D6B08823E08
:101E64002100AB00FF3020006C3D2100AC00A91B19
:101E7400502F0130A735A80DA90DAA0D890B3C2FB1
:101E8400A61B27140130A335A40DA50DA60D890B9F
:101E9400452FFF30AB07FF30AC3D392FA101A61F02
:101EA400722FFF3023052000EB00FF3021002405B2
:101EB4002000EC00FF30210025052000ED007F30DC
:101EC400210026052000EE006E086D046C046B04EE
:101ED400031D6F2F2100271C722F01302100A10048
:101EE40021080319A72F0130A7070030A83DA93DF9
:101EF400AA3D2A1CA72F27082000EB002100280850
:101F04002000EC00210029082000ED0021002A080F
:101F14002000EE000130EF00EE37ED0CEC0CEB0C82
:101F2400EF0B8E2F6E082100AA0020006D082100FF
:101F3400A90020006C082100A80020006B082100E3
:101F4400A7000130AB070030AC3D2C08803A2000DC
:101F5400EB0080306B02031DB22FFF3021002B02F7
:101F6400031CBE2F7F302100AA008030A90000305E
:101F7400A8000030A700EE2F21002C08803A200092
:101F8400EB0080306B02031DCA2F013021002B02AD
:101F94000318D72F00302100AA000030A900003018
:101FA400A8000030A700A001EE2F21002B08A200FA
:101FB400FF30A705FF30A8057F30A9050030AA052A
:101FC4002218A91722082000EB000130EB36890BF8
:101FD400E82F6B082100AA002008AA042A08200080
:101FE400E600210029082000E5002100280820003F
:0C1FF400E400210027082000E3000800A2
:102004002108F7002008F600A4316724903120004D
:10201400B001B1010030A6002408063CA500031C51
:10202400A6033108A700A80126082806031D1C28BA
:1020340025082706031D24283108293E8600870128
:102044002E3029283108293E86008701303081004E
:102054000130B10706303102031C0C280630B100F0
:102064003108293E860087012E300106031D3C28D5
:102074000130B1023108293E860087010A30F2009E
:102084000030F3002308F5002208F400A631DE2610
:1020940090317208303E81000130B1020A30F20002
:1020A4000030F3002308F5002208F400A731B32719
:1020B400903173082000A3007208A20022082304B0
:1020C400031D32280030A6002408053CA500031C8B
:1020D400A6032608803AA70080302702031D74282F
:1020E4003108250203187A2820002408053CB10091
:1020F40020003108013E293E860087012E3001066A
:10210400031D86280130B1023108013E293EF20048
:102114000030F300A431F8240800031A9428013095
:102124002200C000A63164269031A231C72290312A
:10213400A331092390312C30F2000130F300A33194
:10214400E323903164008331B52390312C30F200C5
:102154000130F300A331E323903164000530220001
:102164006E06031DB7280130C22806306E06031D13
:10217400BD280230C22807306E06031DC328043070
:10218400FB0005306D06031DC9280130D428063034
:102194006D06031DCF280230D42807306D06031DB9
:1021A400D5280430FA002C30F2000130F300A331BA
:1021B400E323903164002C30F2000130F300A331AA
:1021C400E323903164002C30F2000130F300A3319A
:1021D400E323903164002C30F2000130F300A3318A
:1021E400E323903164002C30F2000130F300A3317A
:1021F400E32390316400FF30A3314B23903122005C
:10220400D400FE30A3314B2390312200D500FD30A1
:10221400A3314B2390312200D300FC30A3314B2354
:1022240090312500C500C6014508C600C501450812
:102234002200D800250046082200D900FB30A33133
:102244004B2390312500C500C60145082200D8075C
:10225400250046082200D93D55089C31A024903120
:1022640022005408A6319C26903122005308A33141
:102274001223903122004003031D42290130BF0084
:102284009831812090319A31A022903164009531A7
:10229400702590319631B32690319F313F2790318C
:1022A40048297A08F20022005208A3312C239131E4
:1022B4002100EB002200540821006B07E9007A0892
:1022C400E400E5010530E435E50D890B6529640872
:1022D400FF3EE600FF30653DE7006708803AE8000E
:1022E40080306802031D782969086602031884296E
:1022F4007A082100E4000530E435890B7E2964085E
:10230400FF3EE9002200540821006B0203189029C3
:102314006B08220054022100EA009129EA016A08AC
:102324002200D4005408A6319C2691319231E32234
:10233400913122002C082D04031908002D082100D6
:10234400ED0022002C082100EC006A087A07EE0058
:102354006E086902031C162A6E08A6319C26913168
:102364009231E322913122002C082D040319080034
:102374002D08803A2100E4006D08803A6402031DB0
:10238400C6296C0822002C02031CD2290A30F20050
:102394000030F300A331E32391319231E3229131F0
:1023A40022002D08803A2100E4006D08803A64027E
:1023B400031DDF296C0822002C02031CEB290A30C0
:1023C400F2000030F300A331E32391319231E32290
:1023D400913122002D08803A2100E4006D08803AF2
:1023E4006402031DF8296C0822002C020318162A23
:1023F40022002D082100ED0022002C082100EC0011
:102404006E082200D4002D08803A2100E4008030B8
:102414006402031D102A783022002C02031C162AA1
:102424007A082100EE07AA2922005408A6319C2626
:1024340008007B08F20022005108A3312C239231BA
:102444002100EB002200550821006B07E9007B08FE
:10245400E400E5010530E435E50D890B2D2A640817
:10246400FF3EE600FF30653DE7006708803AE8007C
:1024740080306802031D402A6908660203184C2A4A
:102484007B082100E4000530E435890B462A640802
:10249400FF3EE9002200550821006B020318582A68
:1024A4006B08220055022100EA00592AEA016A0851
:1024B4002200D50055089C31A02492319231E322A8
:1024C400923122002C082D04031908002D08210044
:1024D400ED0022002C082100EC006A087B07EE00C6
:1024E4006E086902031CDE2A6E089C31A024923116
:1024F4009231E322923122002C082D0403190800A2
:102504002D08803A2100E4006D08803A6402031D1E
:102514008E2A6C0822002C02031C9A2A0A30F2002C
:102524000030F300A331E32392319231E32292315C
:1025340022002D08803A2100E4006D08803A6402EC
:10254400031DA72A6C0822002C02031CB32A0A309C
:10255400F2000030F300A331E32392319231E322FD
:10256400923122002D08803A2100E4006D08803A5F
:102574006402031DC02A6C0822002C020318DE2A00
:1025840022002D082100ED0022002C082100EC007F
:102594006E082200D5002D08803A2100E400803026
:1025A4006402031DD82A783022002C02031CDE2A80
:1025B4007B082100EE07722A220055089C31A024D2
:1025C40008008B315723923164304F060319022BD4
:1025D4000130CF072908803A2100E30022002B08AC
:1025E400803A21006302031DFA2A22002A082802E5
:1025F4000318182B22002B08A9002A08A800182B5E
:10260400CF0129082100B800220028082100B700C2
:1026140022002D082100BA0022002C082100B90054
:102624008031692092312200A801A90122002B08DF
:10263400803A2100E30023003208803A210063023B
:10264400031D282B2300310822002A0203188E2B95
:1026540064008B315723923164304F0603194A2B9F
:102664000130CF072908803A2100E30022002B081B
:10267400803A21006302031D422B22002A0828020B
:102684000318602B22002B08A9002A08A800602B3D
:10269400CF0129082100B800220028082100B70032
:1026A40022002D082100BA0022002C082100B900C4
:1026B4008031692092312200A801A9010D30200047
:1026C400A000A1010530A200A301A30AA5311F2582
:1026D4009231003A0319712B01302200D0000D30E1
:1026E4002000A000A1010530A200A301A5311F25EF
:1026F40092312100E30022005003031D832B01309B
:10270400842B0030210063050319182B98313320E2
:102714002200AC01AD01080023003008803A2100FA
:10272400E30022002B08803A21006302031D9E2B44
:1027340022002A0823002F0203180800230030086F
:10274400803A2100E30080306302031DAC2B01308A
:1027540023002F02031C08002A2B2000A600632C50
:102764007B302606031DBB2B01302200D70001302D
:10277400152C013008007D302606031DC62B2200CF
:10278400D701B1010530080022302606031D812C33
:102794002200B0010230152C22302606031DD52B51
:1027A40003302200152C0F30220030020318812C34
:1027B4003008D93E860001308700200026088100B9
:1027C40001302200B0073008D93E86000130602C69
:1027D40022302606031DF22B2200B0010530152CF1
:1027E40074302606031D002C01302200D600FC2B79
:1027F4002200D6010130B1000230080066302606FE
:102804000319FA2B30302602031C812C3A3026029D
:102814000318812C2608D03E2200AE00FF30031896
:102824000030AF000430B100812C30302602031C8C
:102834003E2C3A30260203183E2C22002F0820009A
:10284400A10022002E082000A0000A30A2000030BF
:10285400A300A4311324933126082007A4000030D8
:10286400213DA5002408D03E2200AE00FF30200008
:10287400253D2200AF00812C01302200B10003303D
:10288400080022302606031D4C2C01302200B10022
:10289400043008000F30220030020318812C300865
:1028A400203E860002308700200026088100013087
:1028B4002200B0073008203E8600023087008101E4
:1028C400812C220031082000A400A5012508003A2B
:1028D40003196D2C812C2408003A0319B22B013AF8
:1028E4000319BD2B033A0319CE2B013A0319EA2B22
:1028F400073A0319172C013A0319432C812C003091
:1029040008002508803AA60080302602031D8C2C7E
:10291400513024020318922C2000A401A5010800C0
:1029240020002508803AA60080302602031D9C2C36
:10293400AC3024020318A42CF4302000A407003087
:10294400A53D080020002508803AA6008130260213
:10295400031DAE2C493024020318B62CFE3020008F
:10296400A4070030A53D080020002508803AA600F1
:1029740082302602031DC02C473024020318C82CC1
:1029840018302000A4070130A53D080020002508C8
:10299400803AA60083302602031DD22C353024024F
:1029A4000318DA2C29302000A4070130A53D0800C3
:1029B40020002508803AA60084302602031DE42C5A
:1029C4004D3024020318EC2C36302000A4070130CB
:1029D400A53D080020002508803AA600883026027C
:1029E400031DF62C863024020318FE2CAE30200082
:1029F400A4070130A53D080020002508803AA60060
:102A04008C302602031D082DFB3024020318102DE0
:102A1400E4302000A4070130A53D0800200025086B
:102A2400803AA60092302602031D1A2D103024028B
:102A34000318222D12302000A4070230A53D0800FF
:102A440020002508803AA60096302602031D2C2D6E
:102A5400E73024020318342D88302000A407023004
:102A6400A53D080020002508803AA6009B302602D8
:102A7400031D3E2DEB3024020318462DE7302000C1
:102A8400A4070230A53D080020002508803AA600CE
:102A9400A1302602031D502D373024020318582D6F
:102AA40020302000A4070330A53D0800200025089D
:102AB400803AA600A9302602031D622D05302402A7
:102AC40003186A2D48302000A4070330A53D0800F0
:102AD4005C302000A4070330A53D08002100E1017B
:102AE400E201230033089C3E2100DF00FF30230075
:102AF400343D2100E0002200AA01AB0164007830DB
:102B04002100DC00DD015C085D020318B52D8B316A
:102B14005723953121006208803AD90022002B08FE
:102B2400803A21005902031D9B2D22002A0821000E
:102B340061020318AA2D22002B082100E2002200C2
:102B44002A082100E10022002D08A3002C08A2007D
:102B54000330F2000030F300A331E3239531013058
:102B64002100DD07852D640021006208803AD90028
:102B740080305902031DC02D64306102031CEC2D0A
:102B84000A30F2000030F30021006108053EF40031
:102B94000030623DF500A731B32795317308210059
:102BA400E2007208E1000A302000A0000030A10019
:102BB400210062082000A300210061082000A20077
:102BC400A4311324953121082100E20020002008BB
:102BD4002100E100210062082300AC00210061080B
:102BE4002300AB002C08803A2100D9008030590220
:102BF400031DFF2D0A3023002B020318042E22008C
:102C0400A201A30122002308F3002208F200A33149
:102C14006D23953101302100DE0022002508803A21
:102C24002100D90022002308803A21005902031D03
:102C34001E2E2200220824020318362E2200240805
:102C440022022100D90022002508233B2100DA00BA
:102C54006008803ADB005A08803A5B02031D342E78
:102C640059085F02031C672E22002308803A2100C2
:102C7400D90022002508803A21005902031D452E5F
:102C840022002408220203185D2E220022082402B6
:102C94002100D90022002308253B2100DA00600826
:102CA400803ADB005A08803A5B02031D5B2E590808
:102CB4005F02031C672EE730220024060330031949
:102CC40025060319672E2100DE0122002308803A1D
:102CD4002100D90023003408803A21005902031D41
:102CE400772E2300330822002202031C7B2E01309E
:102CF4007C2E00302200460521005E050319852E36
:102D040001302200C70023002C082100B800230052
:102D14002B082100B700220023082100BA0022005A
:102D240022082100B9008031692095316400220015
:102D34004E03031D08004A302000A000A830A10063
:102D4400A3313B239531640010302300E900273080
:102D5400EA0022002308F3002208F200A3316D23C5
:102D64000800D82F6708A531CF259631D82FD93040
:102D7400F200D330F300A830F400A5314825963191
:102D840072087304031DDB2E22004508031DD72E91
:102D94004603031DCF2E0130D02E003056060319F2
:102DA400152FA331B9239631152FA231F82296316C
:102DB400D82FD930F2007230F300A830F400A531D6
:102DC4004825963172087304031DF62E220045032C
:102DD400031DEE2E0130EF2E003056060319152F79
:102DE4009831D2209631152FD930F200C330F30038
:102DF400A830F400A5314825963172087304031DE8
:102E0400072FA231F0229631D82FD930F200793031
:102E1400F300A830F400A5314825963172087304F4
:102E2400031D192F640001302200BC00D82FD930B3
:102E3400F200CE30F300A830F400A53148259631D5
:102E440072087304031DD72EA331A5239631152FC1
:102E5400D930F200F630F300A830F400A53148254B
:102E6400963172087304031D432F22002F0820009B
:102E7400A50022002E082000A400A431AE2496311F
:102E8400D82FD930F200FA30F300A830F400A5317D
:102E94004825963172087304031D592F22002F0808
:102EA4002300A80022002E082300A700D82FD93021
:102EB400F200AB30F300A830F400A5314825963178
:102EC40072087304031D7A2F22002E082000A0002C
:102ED40023002708A4318924963128082000A5005E
:102EE400230027082000A400A431AE249631D82F53
:102EF400D930F2006B30F300A830F400A531482536
:102F0400963172087304031D972F22002E08D500F2
:102F140055089C31A0249631220055082000A000B9
:102F2400FE30A43189249631152FD930F200643053
:102F3400F300A830F400A5314825963172087304D3
:102F4400031DD72E22002E087F39D400AE1FAD2FCB
:102F54000130D300AE2FD3015408A6319C269631FC
:102F6400220054082000A000FF30A43189249631A7
:102F740022005308A3311223963122005308200063
:102F8400A000FD30A43189249631152FD930F200E8
:102F9400D830F300A830F400A531482596317208E2
:102FA4007304031DD72E983100209631A331CD230D
:102FB4009631E70067080319080080306702031898
:102FC40008006400220067089331AF239631220081
:102FD400E500E6016608003A0319F12FD82F6508C9
:102FE400013A0319B42E033A0319B92E013A03190D
:102FF4002A2F073A0319C82FD82FDC2F6400A331D6
:10300400002398312000AA01AB012430F5002A08DE
:10301400A4312E2498312730F50020002A08A3314A
:103024004B239831A4312E2498316400243020009D
:10303400A0000030A1002730A2000030A300A4317A
:103044004A24983101302000AA070030AB3D0130FA
:103054002B02003003192A02031C0728A231E222A2
:103064000800A3319123983101302200D300530882
:10307400A331122398312000A001FF30A431892408
:1030840098312000A001FE30A43189249831200019
:10309400A001A00AFD30A431892498312000A001A8
:1030A400FC30A431892498312000A001FB30A431E4
:1030B400892498319A31A02298312200BE0123003C
:1030C400D8010130D8002200AC01AD01AA01AB0146
:1030D400A401A501C3302000A000A830A100A331A1
:1030E4003B239831640010302300E9002730EA00C4
:1030F4001030EB002730EC00953170250800640097
:1031040022003F08031DCB28FF30F200A830F30053
:10311400A431F82498315C302000A000A830A1002C
:10312400A3313B239831A33100239831A5302000EB
:10313400A000A830A1001330A200A830A300A4313D
:103144004A24983180302000A000A830A100933098
:10315400A200A830A300A4314A2498310A302000E8
:10316400A000A930A100EE30A200A830A300A43131
:103174004A2498319F302000A000A830A100993043
:10318400A200A830A300A4314A249831A231E2223B
:10319400983164009A31A02201302200BC0008005A
:1031A400640022004508031D03290130C5005408AA
:1031B400C4005508C3005308C200D4014B080319C6
:1031C400E628FF30D500E728D5010130D3005508A3
:1031D4009C31A024983122005408A6319C269831B1
:1031E40022005308A3311223983122003E08031D04
:1031F400FE289A31A022983122004608C100C60157
:103204002129C5014408D4004308D5004208D3004D
:103214005408A6319C269831220055089C31A024DC
:10322400983122005308A3311223983122003E081A
:10323400031D1E299A31A02222004108C600640001
:1032440001302200BC0008006400CE302000A00041
:10325400A830A100A3313B2399319E3180269931B6
:1032640022003E08031D4808031D3B299A31A02271
:103274009931220054082000A000FF30A431892491
:103284009931220055082000A000FE30A431892481
:103294009931220053082000A000FD30A431892474
:1032A40099310030F2000130F30022005908F50092
:1032B4005808F400A731B327993172082000A00000
:1032C400FC30A43189249931220058082000A00040
:1032D400FB30A431892499311030E9002730EA0009
:1032E4001030EB002730EC009531702522002D08BA
:1032F400A5002C08A4002300D8010130D8006400E4
:1033040008000D302000A000A1013230A200A3016A
:10331400A5311F259931003A0319B929FA30F20071
:103324000030F300A331E3239931640022005308F1
:10333400031D9F290130D300A029D3015308A331D1
:10334400122399319A31A02299310D302000A00026
:10335400A1013230A200A301A5311F259931003A01
:103364000319B9299531702599316400A7290D30C5
:103374002000A0000230A1003230A200A301A53138
:103384001F259931003A031D640022004508031DDE
:10339400CD290130CE2900302100E3000D3020007A
:1033A400A000A101A10A3230A200A301A5311F256A
:1033B4009931210063050319080064000800031013
:1033C4002F0D300DB6003608031DF1290030B00072
:1033D4000030AF000030AE000030AD0008002D0812
:1033E400B1002E08B2002F08B3003008B4001F301B
:1033F400B436B30CB20CB10C890BFA293108B50000
:10340400AF17FF30AD05FF30AE05FF30AF0500301C
:10341400B0059630B602B61F202A3608803A973E89
:10342400031CE8290130B036AF0CAE0CAD0C890B8F
:10343400152A0130B6070319312A142A203036021E
:103444000318E82936080319312A0130AD35AE0DC9
:10345400AF0DB00D890B282A0130B602242A350895
:1034640003190800AD09AE09AF09B009AD0A031983
:10347400AE0A0319AF0A0319B00A0800813022000A
:103484009700171F432A0130A53173259A31730819
:10349400A8007208A70003302802E93003192702A4
:1034A40003185C2A2200CE0120002808A600270861
:1034B400A5000800823022009700171F5F2A013000
:1034C400A53173259A317308A8007208A700033048
:1034D4002802E930031927020318782A2200CE01B2
:1034E40020002735A500280DA600080083302200FF
:1034F4009700171F7B2A0130A53173259A31730871
:10350400A8007208A70003302802E9300319270233
:10351400031C902A01302200CE00922A2200CE0100
:1035240020002808F8002708F700F735F80DF735CC
:10353400F80D7708A5007808A600080064002200AA
:103544005508F400F201F301741CAD2A230041086C
:10355400F2074208F33DF41CB42A23003F08F207A3
:103564004008F33D741DBB2A23003D08F2073E08C2
:10357400F33DF41DC22A23003B08F2073C08F33D47
:10358400741EC92A23003908F2073A08F33DF41ED1
:10359400D02A23003708F2073808F33D741FD72ACE
:1035A40023003508F2073608F33D73082300D400DE
:1035B4007208D3006400F201F30122005408F500FC
:1035C400751CE92A23004F08F2075008F33DF51C47
:1035D400F02A23004D08F2074E08F33D751DF72A23
:1035E40023004B08F2074C08F33DF51DFE2A230087
:1035F4004908F2074A08F33D751E052B23004708C6
:10360400F2074808F33DF51E0C2B23004508F2078A
:103614004608F33D751F132B23004308F2074408A3
:10362400F33D73082300D2007208D100640008003F
:10363400003072052000A00000307305A100803026
:103644007405A2007F307505A30023082204210419
:103654002004031D352B0030F5000030F400003049
:10366400F3000030F20000307605A000003077054A
:10367400A10080307805A2007F307905A3002308DB
:10368400220421042004031D4F2B0030F9000030D4
:10369400F8000030F7000030F600F51F692B003009
:1036A400A0000030A1000030A2008030A300720806
:1036B400A0027308A13B7408A23B7508A33B23082E
:1036C400F5002208F4002108F3002008F200F91F95
:1036D400832B0030A0000030A1000030A200803015
:1036E400A3007608A0027708A13B7808A23B7908DA
:1036F400A33B2308F9002208F8002108F70020085A
:10370400F6008030F5068030F90679087502031D4D
:10371400080078087402031D080077087302031D6B
:103724000800760872020800AD01A71FA62BA409A1
:10373400A509A609A709A40A0319A50A0319A60A33
:103744000319A70A0130AD00AB1FB52BA809A909BD
:10375400AA09AB09A80A0319A90A0319AA0A031991
:10376400AB0A0130AD060030B1000030B0000030CB
:10377400AF000030AE0027082604250424040319F2
:10378400FC2B0130AC00A71BD12B0130A435A50DB7
:10379400A60DA70D890BC82B0130AC07C52B013032
:1037A400AE35AF0DB00DB10D890BD22B27082B020E
:1037B400031DE62B26082A02031DE62B25082902F1
:1037C400031DE62B24082802031CF12B2408A8025D
:1037D4002508A93B2608AA3B2708AB3B2E14013039
:1037E400A736A60CA50CA40C890BF22B0130AC0255
:1037F400031DD12B2D0803190A2CAE09AF09B009FA
:10380400B109AE0A0319AF0A0319B00A0319B10AC0
:103814003108A7003008A6002F08A5002E08A40030
:103824000800AF002F08031DAA1F282C2709B10088
:103834002809B2002909B3002A09B400B10A0319FE
:10384400B20A0319B30A0319B40A302C2A08B400C3
:103854002908B3002808B2002708B1002A0829045F
:1038640028042704031D3F2C0030AA000030A900BF
:103874000030A8000030A70008009630B000FE30E9
:10388400340503195E2C0130B0070130B436B30C93
:10389400B20CB10C890B482C412C0130B00701301B
:1038A400B1070030B23DB33DB43D0130B436B30C82
:1038B400B20CB10C890B582CFF3034050319702C51
:1038C4004F2C02303002031C722C0130B002013044
:1038D400B135B20DB30DB40D890B6A2CB31F632C33
:1038E40030187C2CFF30B105FF30B2057F30B305B2
:1038F400FF30B4050310B00C3008AB00AC01AD01CF
:10390400AE011830AB35AC0DAD0DAE0D890B842C6A
:103914002B08B1042C08B2042D08B3042E08B404F7
:103924002F08031DAA1F972CB4173408AA003308C4
:10393400A9003208A8003108A70008002000A00050
:103944002008A10022004B08031DDC2C2000211CB0
:10395400AE2C22008D15B02C22008D112000A11C4C
:10396400B62C22000C15B82C22000C112000211DAD
:10397400BE2C22000D16C02C22000D122000A11D09
:10398400C62C22008C15C82C22008C112000211E6C
:10399400CE2C22008D16D02C22008D122000A11EC8
:1039A400D62C22008C16D82C22008C122000211B2D
:1039B400242D272D03102000211C0314031CE52CA7
:1039C40022008D15E72C22008D1103102000A11C6C
:1039D4000314031CF02C22000C15F22C22000C11F1
:1039E40003102000211D0314031CFB2C22000D16C0
:1039F400FD2C22000D1203102000A11D0314031C32
:103A0400062D22008C15082D22008C110310200095
:103A1400211E0314031C112D22008D16132D2200C8
:103A24008D1203102000A11E0314031C1C2D220060
:103A34008C161E2D22008C1203102000211F03144B
:103A4400031C272D22000C16292D22000C122708F6
:103A5400F8002608F700A231DB2208000330210019
:103A6400E7002200D4015408A6319C269D3103307E
:103A74002200D2009231E3229D3122002C082D0431
:103A8400031908001430F2000030F3002D08F5008B
:103A94002C08F400A731B3279D3122002C087207AB
:103AA4002100E50022002D08733D2100E6000330CB
:103AB400E8007A08F2006808A3312C239D31A6316E
:103AC4009C269D319231E3229D3122002C082D0445
:103AD400031908002D08803A2100E4006608803AA2
:103AE4006402031D782D650822002C020318CA2DD8
:103AF4001430F2000030F30022002D08F5002C08E9
:103B0400F400A731B3279D3122002C08720721004D
:103B1400E50022002D08733D2100E6007A08F2003A
:103B24006808A3312C239D312200D40021006708AA
:103B34002200D2002D08803A2100E4008030640283
:103B4400031DA72D783022002C02031CCA2D21004E
:103B54006708E80722004C08031DB82D093021002E
:103B64006806031DB82D0830E800C52D22004C0856
:103B7400031DC52D113021006806031DC52D10300D
:103B8400E8000430E700203021006802031C5B2DAC
:103B940022005408A6319C26080003302100EE00C0
:103BA400EC0103302200D10003302100ED00143079
:103BB400F2000030F30022002D08F5002C08F40078
:103BC400A731B3279D3122002C0872072100EA0097
:103BD40022002D08733D2100EB00EF017B08F20069
:103BE4006F08A3312C239D319C31A0249D319D313C
:103BF40030259D319231E3229D3122002C082D0481
:103C0400031908002D08803A2100E9006B08803A66
:103C14006902031D102E6A0822002C020318682E64
:103C24001430F2000030F30022002D08F5002C08B7
:103C3400F400A731B3279D3122002C08720721001C
:103C4400EA0022002D08733D2100EB007B08F200FE
:103C54006F08A3312C239D312200D5005408210084
:103C6400EC006E082200D10052082100ED00220071
:103C74002D08803A2100E90080306902031D452E99
:103C8400783022002C02031C682E21006E08EF07F6
:103C940022004D08031D562E093021006F06031D16
:103CA400562E0830EF00632E22004D08031D632EAC
:103CB400113021006F06031D632E1030EF00043015
:103CC400EE00203021006F02031CF02D21006C084F
:103CD4002200D40055089C31A0249D3122005408B0
:103CE400A6319C269D3121006D082200D2000A30A5
:103CF400F2000030F300A331E32308006400220043
:103D0400CF01A801A901D0019231E3229E31220002
:103D14002D08803AE30080306302031D932E6E3039
:103D24002C02031C0800A33191239E312200480871
:103D3400031D9F2E9A31A0229E313230F2000030B2
:103D4400F300A331E3239E319231E3229E3122001A
:103D54002D08D9002C08D8002D08803AE3008030C3
:103D64006302031DB72E6E302C02031C08002300CF
:103D74002E08803A2200E30080306302031DC52E22
:103D84006F3023002D02031CD62E23002E08803A08
:103D94002200E3002D08803A6302031DD42E2C0870
:103DA40023002D02031C08008631BE269E3122000A
:103DB4002C082D04031DE12EA331912308002D08A6
:103DC400803AE30080306302031DEA2E78302C022F
:103DD400031C0800053022006D06031DF52E053076
:103DE4006E060319080006306E02031C002F7B08C0
:103DF400D1000130FB0092311B229E3122002D089C
:103E0400803AE30080306302031D0A2F78302C02CD
:103E1400031C0800063022006D02031C182F7A08C8
:103E2400D2000130FA00913153219E310530220035
:103E34006E06031D1F2F01302A2F06306E06031D48
:103E4400252F02302A2F07306E06031D2B2F043036
:103E5400FB0005306D06031D312F01303C2F063069
:103E64006D06031D372F02303C2F07306D06031DEE
:103E74003D2F0430FA00640008005708031D0800B1
:103E84003D0803194C2FBD0137302000A400A33195
:103E94007F239F313C0803190800BC019A31A022FA
:103EA4009F31A33100239F31D3302000A000A830DC
:103EB400A100220046080319612F0130622F00304F
:103EC4002000A200A331FA239F3172302000A00009
:103ED400A830A100220045080319722F0130732F66
:103EE40000302000A200A331FA239F312108803A38
:103EF4002000B20080303202031D832F01302200E3
:103F04002002031C962F40302000A000A830A100FE
:103F1400220021082000A300220020082000A20083
:103F2400A401903102209F3122004908031D9E2FD5
:103F340001302000B500A02F2000B501B730A0004B
:103F4400A830A10023002A082000A3002300290888
:103F54002000A2003508A400903102209F31F230E5
:103F64002000A000A830A100220023082000A30004
:103F7400220022082000A2000230A4009031022076
:103F84009F3153030319CB2F07302000B300A9300E
:103F9400CF2F04302000B300A930B400B130A0000A
:103FA400A830A1003408A3003308A200A4314A2495
:103FB4009F311F302000A000A830A1002300520828
:103FC4002000A300230051082000A200A401903186
:103FD40002209F312B302000A000A830A100230034
:103FE40054082000A300230053082000A200A401C9
:0C3FF400903102209F31A231E22208002F
:10458E0022008D14080010342734103427340134DF
:10459E00640080010131890BD02A0034FE00120024
:1045AE001E00FE0BD62A00347808F3007708F200BE
:1045BE00A331E3230800E230F200A830F300A43167
:1045CE00F824080025340234013420340134073431
:1045DE0007346400983133202200C5010130BC003D
:1045EE000800BD302000A000A830A100A3313B235D
:1045FE0008002200B2010130F200A930F300A4310C
:10460E00F8240800F83021009505951595128B16A3
:10461E000B178B170800F900790C031C0E100318EA
:10462E000E142708F8002608F700A231DB22080036
:10463E00F2000F30F2050A3072020318292B7208AD
:10464E00303E08007208573E0800F400F301741C57
:10465E00322B7208F3070310F20D0310F40C7408DA
:10466E00031D2E2B730808003730F2002108F400CA
:10467E002008F3001430F5000030F600A6310026B5
:10468E0001302200BD000800F400640023009518DC
:10469E004C2B7408F200F30172089100730892001B
:1046AE003F309505151413080800F7000F307705F5
:1046BE00F5000A30F2007708F6000430F636890B62
:1046CE00652B7608A3312C237507080023006A0892
:1046DE007306031D742B6908720603197D2B73086C
:1046EE00EA007208E90001302200BC0064000800F4
:1046FE00A3310023A3318D302000A000A830A100EB
:10470E002408A2000230A300A4314A24A331A2310E
:10471E00E22208002200D501D40155089C31A024C4
:10472E00A33122005408A6319C26A331220027086B
:10473E00F8002608F700A231DB22080064000130E1
:10474E002300D800D801FA30F2000030F300A33174
:10475E00E323A331993126212200C501C70101307F
:10476E00BC000800640022004608031DC12B013066
:10477E00C600C22BC60146082000A0000230A4319C
:10478E008924640001302200BC00080022003A088F
:10479E003B06031DD42B003008003A08A03E8600CD
:1047AE00023087000108F2000130BA0725303A02C4
:1047BE000318BA01720808007308F6007208F500B3
:1047CE00640075087604031908000630F4003030D2
:1047DE00890BEF2BF40BEF2B003264000130F50246
:1047EE000030F63BE82B2108F7002008F600A43134
:1047FE006724A3312000220803190C2CC930F200C3
:10480E00A830F300A431F82408008730F200A83055
:10481E00F300A431F8240800F801F901201C1B2C28
:10482E002208F8072308F93D0130A235A30D890BA4
:10483E001C2C0130A136A00C890B212C2008210440
:10484E00031D152C7908A1007808A0000800F700B8
:10485E007508860087017708F6000430F636890B56
:10486E00352C7608A3311F23A4318100750A8600EA
:10487E0087017708A3311F2381007508023E860049
:10488E008701810108002108F7002008F600A431F5
:10489E006724A431EC30F200A830F300A431F824E0
:1048AE00A43120002308F3002208F200A431F824DA
:1048BE00A431EC30F200A830F300A431F824080043
:1048CE00220032080319722CFE30F200A830F300D9
:1048DE00A431F824A431EA30F200A830F300A43158
:1048EE00F824A4317708F3007608F200A431F824F6
:1048FE00A431E630F200A830F300A431F8240130E0
:10490E00B20008002000A300230095188B2C200075
:10491E002308A100A20121082300910020002208F3
:10492E002300920020002008230093003F309505BD
:10493E0003108B1B03148B13151555309600AA30DC
:10494E00960095141511031C08008B1708006400BF
:10495E00A3310023A4312630F50020002408A43111
:10496E002E24A4312930F50020002408A3314B2336
:10497E00A431A4312E24A431640026302000A000DE
:10498E000030A1002930A2000030A300A4314A2437
:10499E00A431A231E2220800203420342034203405
:1049AE002034203420342034203420342034203459
:1049BE002034203420342034203420342034203449
:1049CE002034203420342034203420342034203439
:1049DE002034203420342034203420342034203429
:1049EE000A34F5012200390803190F2D6400F92C41
:1049FE0075084B3E860002308700750872078400EA
:104A0E0073080318013E8500000881000130F50788
:104A1E0075087207840073080318013E85001200A2
:104A2E00031DFF2C75082200E8000130B9000800B4
:104A3E002208F700432D0D08282D0D0C282D0D0CE6
:104A4E00890C0139F800342D20002108003A031991
:104A5E00222D013A0319242D262D78082306031939
:104A6E003A2D003008000130F2000030F300A3317F
:104A7E00E323A5310130F7027708031D2B2DFF30FC
:104A8E000800562D720886000130870001080319B0
:104A9E00642D0130F2070130F3070030F43D730846
:104AAE008400740885000008F50072088600013045
:104ABE008700010875060319492D7208860001301A
:104ACE008700730884007408850000080102F20054
:104ADE00F301031CF30308002000A0002008F400DB
:104AEE00F40DF40D21001D087406833974069D0023
:104AFE009D140630890B812D003221009D18842DC6
:104B0E001B082000A30021001C082000A40024087C
:104B1E00F400F5017408F500F40123087407A100F0
:104B2E000030753DA2002208F3002108F2000800B3
:104B3E0000302000A000A830A100A3313B23A531F6
:104B4E00A3319123A53101302200D3005308A331A4
:104B5E001223A531220054082000A000FF30A431FA
:104B6E008924A531220055082000A000FE30A43172
:104B7E008924A531220053082000A000FD30A43165
:104B8E008924A53101302200BF0098318120080010
:104B9E00E40072306406031DDE2DFA30F2000030A0
:104BAE00F300A331E323A531A231F022A5317430F5
:104BBE0064060319E52D47080319EF2DFA30F200AC
:104BCE000030F300A331E323A531A331A523A53192
:104BDE0062306406031DF62D9831D220A531613066
:104BEE006406031D08004508031D0800A331B92300
:104BFE0008007208F900750876040319272E013093
:104C0E00F5020030F63B7908860002308700F90A7B
:104C1E007408F8007308F700F30A0319F40A77080A
:104C2E008400780885000008C03F89080319272EE4
:104C3E00022E790886000230870081010130F907C3
:104C4E000130F5020030F63B750A031D202E760A60
:104C5E0003190800202E00302000A3000030A2000F
:104C6E000030A1000030A000721C462E76082000F5
:104C7E00A0077708A13D7808A23D7908A33D013031
:104C8E00F635F70DF80DF90D890B472E0130F53677
:104C9E00F40CF30CF20C890B4E2E7508740473048D
:104CAE007204031D3B2E20002308F5002208F40099
:104CBE002108F3002008F20008006400210097127A
:104CCE0017169711171597106400C03023008C0526
:104CDE000C148C14C0308D052200911393137A306E
:104CEE002100990020008C018D018E01C030220020
:104CFE008C008D018E01033021008C0007308D0059
:104D0E008E010D158D108731FF271E149E148130D4
:104D1E0022009700A33021009E001D14951324003D
:104D2E000D148D140D158B1308002000A000200803
:104D3E00A100211CA52E22008E17A72E22008E1355
:104D4E002000A11CAD2E22008E15AF2E22008E113A
:104D5E002000211DB52E22000E17B72E22000E1395
:104D6E002000A11DBD2E22000E15BF2E22000E11F9
:104D7E002000211EC52E22008E16C72E22008E1256
:104D8E002000A11ECD2E22008E14CF2E22008E10BA
:104D9E002000211FD52E22000E16D72E22000E1215
:104DAE002708F8002608F700A231DB220800F701D9
:104DBE00F51FE82EF409F509F40A0319F50A013076
:104DCE00F700F31FEF2EF209F309F20A0319F30AA3
:104DDE00720873040319142F0130F600F31BFF2E13
:104DEE000130F235F30D890BF82E0130F607F52E52
:104DFE0073087502031D052F72087402031C0B2F16
:104E0E007208F4027308F53B0130F336F20C890B8D
:104E1E000C2F0130F602031DFF2E770803191C2FED
:104E2E00F409F509F40A0319F50A7508F300740874
:104E3E00F20008000D0C890C0139F1002200350832
:104E4E00031D312F7108031D312FB3010130B50041
:104E5E000530E90069080319372F0130E90208000F
:104E6E000330E9005F2F0310B40C7108F000073017
:104E7E00F035890B3F2F7008B4040130B3070830AA
:104E8E003306031D08000230B50008007103031D30
:104E9E005D2F3B08A03E860002308700340881005B
:104EAE000130BB0725303B020318BB01B5010800DA
:104EBE003508013A03193A2F033A03194D2F672F7C
:104ECE000800813022009700171F6B2F0030A5318C
:104EDE007325A7317308A8007208A70003302802B3
:104EEE00E930031927020318812F2808A600270886
:104EFE00A5000800823022009700171F842F003073
:104F0E00A5317325A7317308A8007208A7000330D6
:104F1E002802E9300319270203189A2F2735A50016
:104F2E00280DA6000800833022009700171F9D2F22
:104F3E000030A53173257308A8007208A700280851
:104F4E00F8002708F700F735F80DF735F80D770854
:104F5E00A5007808A6000800F701F31FBD2FF2097F
:104F6E00F309F20A0319F30A0130F700F51FC62FF1
:104F7E00F409F509F40A0319F50A0130F706F801E8
:104F8E00F901720873040319F32F0130F600F31BB5
:104F9E00D82F0130F235F30D890BD12F0130F607E2
:104FAE00CE2F0130F835F90D890BD92F7308750204
:104FBE00031DE32F72087402031CEA2F7208F40219
:104FCE007308F53B78140130F336F20C890BEB2F96
:104FDE000130F602031DD82F77080319FB2FF809AD
:104FEE00F909F80A0319F90A7908F3007808F200AA
:104FFE000800543465347334743420346D346F3493
:10500E0064346534203469346E34643475346334F6
:10501E0074346F34723400344134543455342D3476
:10502E003134303430345F344534583454340034F1
:10503E0043346134703461346334693474346134AC
:10504E006E3463346534003449346E3464347534EC
:10505E006334743461346E346334653400344334F1
:10506E006134703461346334693474346F3472343F
:10507E0000346534663466346934633465346E34B2
:10508E006334793400344F347634653472346C348E
:10509E006F3461346434003449346E34643475349E
:1050AE00633474346F347234003453347434613472
:1050BE0072347434753470340034523465346C3454
:1050CE006134793443340034523465346C34613491
:1050DE007934493400344234793470346134733461
:1050EE00733400345334743461347434753473341B
:1050FE0000344334723465346434693474340034A7
:10510E00663461346C34733465340034453476342B
:10511E0065346E34743400344E343734443444348D
:10512E004334003475346B346F346434613400347A
:10513E004234753469346C346434003442346F3420
:10514E006134723464340034563461346C347534E2
:10515E00653400344F347234643465347234003440
:10516E0050346F34773465347234003445347234CD
:10517E0072346F347234003452346534733465349F
:10518E0074340034743472347534653400345434E9
:10519E0075346E34653400344134753474346F3480
:1051AE000034443475346D34703400344C346F3400
:1051BE007334733400340A347D340A3400342234A8
:1051CE003A34203400342034203422340034333442
:1051DE002E3432340034533457345234003447347E
:1051EE0065347434003453346534743400342C34E0
:1051FE000A3400347B340A3400344C3443340034E3
:0C520E0043344C34003446345734003430
:020000040001F9
:08000000FF3FFF3FFF3FFF3F00
:04000E00FC3FFF3F75
:10E00000780001000100150013000100000000006D
:10E0100002000000070000000700000001000000EF
:10E020000000500001001000020020000400500019
:10E03000100000002200000045000000FF00FF006B
:10E040000000100000002200000047000100000056
:10E05000020020000400700010000000FF00FF001C
:10E06000000011000000010000000000FF00FF00A0
:10E07000FF00FF00FF00FF00FF00FF00FF00FF00A8
:10E08000FF00FF00FF00FF00FF00FF00FF00FF0098
:10E09000FF00FF00FF00FF00FF00FF00FF00FF0088
:10E0A000FF00FF00FF00FF00FF00FF00FF00FF0078
:10E0B000FF00FF00FF00FF00FF00FF00FF00FF0068
:10E0C000FF00FF00FF00FF00FF00FF00FF00FF0058
:10E0D000FF00FF00FF00FF00FF00FF00FF00FF0048
:10E0E000FF00FF00FF00FF00FF00FF00FF00FF0038
:10E0F000FF00FF00FF00FF00FF00FF00FF00FF0028
:10E10000FF00FF00FF00FF00FF00FF00FF00FF0017
:10E11000FF00FF00FF00FF00FF00FF00FF00FF0007
:10E12000FF00FF00FF00FF00FF00FF00FF00FF00F7
:10E13000FF00FF00FF00FF00FF00FF00FF00FF00E7
:10E14000FF00FF00FF00FF00FF00FF00FF00FF00D7
:10E15000FF00FF00FF00FF00FF00FF00FF00FF00C7
:10E16000FF00FF00FF00FF00FF00FF00FF00FF00B7
:10E17000FF00FF00FF00FF00FF00FF00FF00FF00A7
:10E18000FF00FF00FF00FF00FF00FF00FF00FF0097
:10E19000FF00FF00FF00FF00FF00FF00FF00FF0087
:10E1A000FF00FF00FF00FF00FF00FF00FF00FF0077
:10E1B000FF00FF00FF00FF00FF00FF00FF00FF0067
:10E1C000FF00FF00FF00FF00FF00FF00FF00FF0057
:10E1D000FF00FF00FF00FF00FF00FF00FF00FF0047
:10E1E000FF00FF00FF00FF00FF00FF00FF00FF0037
:10E1F000FF00FF00FF000000000001000000000021
:00000001FF
