:1000000080311828013401347E148031003086009C
:10001000003087008B1A0B1D162837302000950002
:100020000B11983110208031883102207E10090098
:1000300080311A28803102208031FA00803103207B
:100040008031FB0036308400A430850067308600A4
:10005000013087000830A431122480310830840038
:10006000A4308500E8308600013087000430A431D8
:1000700012248031B2308400A53085004B308600D8
:10008000023087002530A4311224803120308400D2
:10009000013085003930A4310C248031A030840037
:1000A000013085004830A4310C2480312030840098
:1000B000023085002B30A4310C248031A030840024
:1000C000023085002530A4310C247E1020009131AF
:1000D000DE29640022004603031D7E282100380823
:1000E000803ABB0080303B02031D78280A3037027B
:1000F000031C7E2801302200BC00872822003C031C
:10010000031D85289A31F92280312200BC01640048
:1001100023006B0821003806031D922823006A087B
:10012000210037060319B32B38082300EB00210008
:1001300037082300EA00210038082300AA00210024
:1001400037082300A90022003C03031DB02B5308ED
:10015000031DB5285208031DB52821003A082200C6
:10016000D800210039082200D70048082100BB0030
:10017000BC01BD01BE013E082000AA0021003D08CF
:100180002000A90021003C082000A80021003B0815
:100190002000A70001309C316C2480312A08E60041
:1001A0002908E5002808E4002708E3002200570892
:1001B0002000A700220058082000A800890D893BD4
:1001C0008909A900AA0001309C316C2480312A08D9
:1001D000B8002908B7002808B6002708B500423043
:1001E000BC00C830BB000030BA000030B900883114
:1001F000362080313808D2003708D1003608D000C8
:100200003508CF004230B800C830B7000030B60023
:100210000030B500220057082000A700220058082F
:100220002000A800890D893B8909A900AA00013096
:100230009C316C2480312A08BC002908BB002808A6
:10024000BA002708B9008831362080313808D60036
:100250003708D5003608D4003508D3008931A121EC
:1002600080315208EA005108E9005008E8004F08C0
:10027000E7008D317225803166082100C200200020
:1002800065082100C100200064082100C000200092
:1002900063082100BF003F302000D2008030D10031
:1002A0000030D0000030CF003D30E600EB30E500FC
:1002B0008530E4001F30E3004130B8002030B70043
:1002C0000030B6000030B500210042082000BC001C
:1002D000210041082000BB00210040082000BA0096
:1002E00021003F082000B9008831362080313808CD
:1002F000EA003708E9003608E8003508E7008D31E4
:10030000722580316608D6006508D5006408D400DF
:100310006308D3008931A121803152082100CC002B
:10032000200051082100CB00200050082100CA0005
:1003300020004F082100C9004C082000B80021000F
:100340004B082000B70021004A082000B600210019
:1003500049082000B5003F30BC008030BB000030B1
:10036000BA000030B90088313620803138082100C9
:10037000D800200037082100D700200036082100CF
:10038000D600200035082100D50040302000D200E2
:100390000030D1000030D0000030CF004230B80033
:1003A000C830B7000030B6000030B5002100390871
:1003B0002000A70021003A082000A800890D893BF1
:1003C0008909A900AA0001309C316C2480312A08D7
:1003D000BC002908BB002808BA002708B9008831EA
:1003E000362080313808D6003708D5003608D400CA
:1003F0003508D3008931A121803152082100C6007F
:10040000200051082100C500200050082100C40030
:1004100020004F082100C30039082000A700210058
:100420003A082000A800890D893B8909A900AA0083
:1004300001309C316C2480312A08B8002908B700AB
:100440002808B6002708B5004230BC00C830BB0001
:100450000030BA000030B9008831362080313808C9
:10046000D2003708D1003608D0003508CF0021006F
:1004700046082000D600210045082000D5002100B4
:1004800044082000D400210043082000D300893113
:10049000A121803152082100CC0020005108210008
:1004A000CB00200050082100CA0020004F08210086
:1004B000C9004C082000B80021004B082000B700FC
:1004C00021004A082000B600210049082000B5009C
:1004D0004030BC008030BB000030BA000030B900B2
:1004E00088313620803138082100D40020003708B8
:1004F0002100D300200036082100D200200035085A
:100500002100D1005808F5005708F4005608F30000
:100510005508F2003F30F9008030F8000030F70055
:100520000030F6009B3173238031031CA02A3F303A
:100530002100D8008030D7000030D6000030D50030
:1005400021005408F5005308F4005208F300510844
:10055000F2003F30F9008030F8000030F700003042
:10056000F6009B3173238031031CBF2A3F302100EA
:10057000D4008030D3000030D2000030D100210000
:1005800037082000A700210038082000A800890DA6
:10059000893B8909A900AA0001309C316C24803173
:1005A0002A08EA002908E9002808E8002708E700E7
:1005B000210058082000E600210057082000E5002F
:1005C000210056082000E400210055082000E30027
:1005D0008D317225803166082100D0002000650829
:1005E0002100CF00200064082100CE002000630815
:1005F0002100CD0050082000EA0021004F08200013
:10060000E90021004E082000E80021004D082000EC
:10061000E700210054082000E600210053082000D4
:10062000E500210052082000E400210051082000CC
:10063000E3008D317225803166082100B000200072
:1006400065082100AF00200064082100AE002000F2
:1006500063082100AD009A319A2280312E08C8002B
:100660002D08C70058082000EA0021005708200084
:10067000E900210056082000E8002100550820006C
:10068000E700210054082000E60021005308200064
:10069000E500210052082000E4002100510820005C
:1006A000E3008D317225803166082100D0002000E2
:1006B00065082100CF00200064082100CE00200042
:1006C00063082100CD0050082000EA0021004F08F7
:1006D0002000E90021004E082000E80021004D081C
:1006E0002000E7004230E600C830E5000030E400BA
:1006F0000030E3008D317225803166082100B000A2
:10070000200065082100AF00200064082100AE0031
:10071000200063082100AD009A319A2280312E0812
:100720002200A10021002D082200A0002108803A0B
:100730002100BB0080303B02031DA12B643022004E
:100740002002031CA82B63302200A0000030A1006F
:10075000210048082300AA00210047082300A9001F
:1007600001302200BA006400080064000230A431A5
:100770007D248331013A031DC02B01302200C400C7
:100780000330A4317D248331A4316C2483312000D3
:10079000A400A50124082200A600200025082200AC
:1007A000A7000430A4317D248331A4316C2483312B
:1007B0002000A400A5012408A0002508A1000A30FB
:1007C000A2000030A300A531342583312108230085
:1007D000B400200020082300B3000530A4317D249C
:1007E0008331A4316C2483312000A400A5012408A6
:1007F000A0002508A1000A30A2000030A300A53106
:100800003425833121082300B20020002008230072
:10081000B1000630A4317D248331A4316C248331AE
:100820002000A400A5012408A0002508A1000A308A
:10083000A2000030A300A531342583312108230014
:10084000B000200020082300AF000930A4317D242F
:100850008331A4316C2483312000A400A501240835
:10086000A0002508A1000A30A2000030A300A53195
:100870003425833121082300AE0020002008230006
:10088000AD000A30A4317D2483312200ED000B300D
:10089000A4317D2483312200CB000C30A4317D248F
:1008A00083312200EC000D30A4317D2483312200FD
:1008B000CA000E30A4317D2483312200EB000F30BA
:1008C000A4317D2483312200C90064001130A43199
:1008D0007D248331A4316C2483312000A400A50140
:1008E0001030A4317D248331A4316C248331200065
:1008F000A600A7012608A0002708A1006430A200D6
:100900000030A300A53134258331240820072300BB
:10091000C10020002508213D2300C2001330A4316E
:100920007D248331A4316C2483312000A400A501EF
:100930001230A4317D248331A4316C248331200012
:10094000A600A7012608A0002708A1006430A20085
:100950000030A300A531342583312408200723006B
:10096000BF0020002508213D2300C0001530A43120
:100970007D248331A4316C2483312000A400A5019F
:100980001430A4317D248331A4316C2483312000C0
:10099000A600A7012608A0002708A1006430A20035
:1009A0000030A300A531342583312408200723001B
:1009B000BD0020002508213D2300BE001730A431D2
:1009C0007D248331A4316C2483312000A400A5014F
:1009D0001630A4317D248331A4316C24833120006E
:1009E000A600A7012608A0002708A1006430A200E5
:1009F0000030A300A53134258331240820072300CB
:100A0000BB0020002508213D2300BC001930A43183
:100A10007D248331A4316C2483312000A400A501FE
:100A20001830A4317D248331A4316C24833120001B
:100A3000A600A7012608A0002708A1006430A20094
:100A40000030A300A531342583312408200723007A
:100A5000B90020002508213D2300BA001B30A43135
:100A60007D248331A4316C2483312000A400A501AE
:100A70001A30A4317D248331A4316C2483312000C9
:100A8000A600A7012608A0002708A1006430A20044
:100A90000030A300A531342583312408200723002A
:100AA000B70020002508213D2300B8001D30A431E7
:100AB0007D248331A4316C2483312000A400A5015E
:100AC0001C30A4317D248331A4316C248331200077
:100AD000A600A7012608A0002708A1006430A200F4
:100AE0000030A300A53134258331240820072300DA
:100AF000B50020002508213D2300B6002130A43197
:100B00007D248331A4316C2483312000A400A5010D
:100B10002030A4317D248331A4316C248331200022
:100B2000A600A7012608A0002708A1006430A200A3
:100B30000030A300A5313425833124082007230089
:100B4000CF0020002508213D2300D0002330A43110
:100B50007D248331A4316C2483312000A400A501BD
:100B60002230A4317D248331A4316C2483312000D0
:100B7000A600A7012608A0002708A1006430A20053
:100B80000030A300A5313425833124082007230039
:100B9000CD0020002508213D2300CE002530A431C2
:100BA0007D248331A4316C2483312000A400A5016D
:100BB0002430A4317D248331A4316C24833120007E
:100BC000A600A7012608A0002708A1006430A20003
:100BD0000030A300A53134258331240820072300E9
:100BE000CB0020002508213D2300CC002730A43174
:100BF0007D248331A4316C2483312000A400A5011D
:100C00002630A4317D248331A4316C24833120002B
:100C1000A600A7012608A0002708A1006430A200B2
:100C20000030A300A5313425833124082007230098
:100C3000C90020002508213D2300CA002930A43125
:100C40007D248331A4316C2483312000A400A501CC
:100C50002830A4317D248331A4316C2483312000D9
:100C6000A600A7012608A0002708A1006430A20062
:100C70000030A300A5313425833124082007230048
:100C8000C70020002508213D2300C8002B30A431D7
:100C90007D248331A4316C2483312000A400A5017C
:100CA0002A30A4317D248331A4316C248331200087
:100CB000A600A7012608A0002708A1006430A20012
:100CC0000030A300A53134258331240820072300F8
:100CD000C50020002508213D2300C6002D30A43189
:100CE0007D248331A4316C2483312000A400A5012C
:100CF0002C30A4317D248331A4316C248331200035
:100D0000A600A7012608A0002708A1006430A200C1
:100D10000030A300A53134258331240820072300A7
:100D2000C30020002508213D2300C4003030A43139
:100D30007D2483312200C7003130A4317D248331EA
:100D4000A4316C2483312200EA003330A4317D24A5
:100D500083312200C6003430A4317D248331A43194
:100D60006C2483312200C8003530A4317D248331C6
:100D7000A4316C242300D7006400080022002D0851
:100D8000E1002C08E0009F314F27863122002C081B
:100D90002D04031DCE2EA431B2240800943130243A
:100DA000863122002D08803AD90080305902031D77
:100DB000DB2E78302C02031C080093316823863127
:100DC00022002C082D040319CB2E943130248631B7
:100DD00022002D08803AD90080305902031DF22EDE
:100DE00078302C02031C08009231A02286312200A8
:100DF0002C082D040319CB2E943130248631220087
:100E00002D08803AD90080305902031D092F78300F
:100E10002C02031C080022002D08803AD9008030E3
:100E20005902031D152FC8302C020318362F22003B
:100E30002D08803AD9006108803A5902031D222FFB
:100E400060082C020318362F22002C086002D900FB
:100E50002D08613BDA005A08803ADB0080305B02E3
:100E6000031D342F653059020318080022002D0895
:100E7000E1002C08E0005308D900DA015908DC0031
:100E80005A08DD005208D900DA015908DE005A0874
:100E9000DF005103031D4E2FD101502F0130D1002F
:100EA000A431B224863122005108A4315024863165
:100EB0003230F2000030F300A53104258631943140
:100EC0003024863122002D08803AD9008030590222
:100ED000031D6C2F78302C02031C08009F314F2714
:100EE000863122002C082D040319CB2E9431302496
:100EF000863122002D08803AD90080305902031D26
:100F0000832F78302C02031C08009331682386312C
:100F100022002C082D040319CB2E94313024863165
:100F200022002D08803AD90080305902031D9A2FE3
:100F300078302C02031C08009231A0228631220056
:100F40002C082D040319CB2E943130248631220035
:100F50002D08803AD90080305902031DB12F783016
:100F60002C02031C080022006108803AD9002D08D9
:100F7000803A5902031DBE2F2C0860020318DE2F91
:100F800022005103031DC62FD101C82F0130D1000B
:100F90005108A4315024863122005C08D3005E0839
:100FA000D20053089D318625863122005208A73190
:100FB0007B2722006108AD006008AC0064000800D7
:100FC000A400A001A1017208F400F5017408A200B8
:100FD0007508A300241CF02F2208A0072308A13DB8
:100FE0000130A235A30D890BF12F0310A40C2408A6
:100FF000031DEA2F2108F3002008F2000800080072
:101004006808031D08003508031D24283708031940
:10101400080067083602031821288D1036084B3E55
:101024008600023087000108B4002128341C1C28E3
:101034008D141D288D100310B40C21288D1401303B
:10104400B507080009303502031C18280B30350297
:10105400031C2028B5010130B60736086706031DB6
:101064000800B701B60108003C088039C6003C35C9
:10107400CD00BB1B4D144D0803194E284D0A031D0A
:101084004B280030BC000030BB000030BA000030F8
:10109400B900BB17BC0156280030BC000030BB00AF
:1010A4000030BA000030B90038088039C606383537
:1010B400CE00B71B4E144E0803196E284E0A031DAA
:1010C4006B280030B8000030B7000030B6000030A4
:1010D400B500B717B80176280030B8000030B70063
:1010E4000030B6000030B500380837043604350443
:1010F400031D93280030BC000030BB000030BA0050
:101104000030B9008030BB047F30BC044608BC0406
:101114003C08B8003B08B7003A08B6003908B500E7
:1011240008004D08031D9F280030B8000030B700A8
:101134000030B6000030B50008004D08BD00BE0107
:101144003E08C0004E083D02BF00031CC0033F0818
:101154007F3EC7000030403DC8003C08C5003B0846
:10116400C4003A08C3003908C2000030BC00003093
:10117400BB000030BA000030B9000030CC000030B1
:10118400CB000030CA000030C900CE011A304E0234
:10119400031802294E080319E6280130C235C30D8D
:1011A400C40DC50D890BD0280130B935BA0DBB0D5E
:1011B400BC0D890BD728CC1B39140130C935CA0D95
:1011C400CB0DCC0D890BE02838084502031DF4280B
:1011D40037084402031DF42836084302031DF4288B
:1011E40035084202031CFF284C173508C202360892
:1011F400C33B3708C43B3808C53B0130CE07C82879
:101204004508440443044204031D4914BB1B1F291D
:101214000130B935BA0DBB0DBC0D890B0B29CC1BA4
:1012240039140130C935CA0DCB0DCC0D890B1429E5
:10123400FF30C707FF30C83D0829CE01CC1F38292D
:10124400FF304905BD00FF304A05BE00FF304B05A5
:10125400BF007F304C05C00040083F043E043D04FD
:1012640003193918362938290130CE004E080319DC
:101274005F290130B9070030BA3DBB3DBC3D3C1C81
:101284005F293908BD003A08BE003B08BF003C088E
:10129400C0000130C100C037BF0CBE0CBD0CC10B77
:1012A4004D294008BC003F08BB003E08BA003D0879
:1012B400B9000130C7070030C83D4808803ABD0076
:1012C40080303D02031D6829FF304702031C772943
:1012D400FF302000C7000030C8000030BC000030E0
:1012E400BB000030BA000030B90020004808803A42
:1012F400BD0080303D02031D8129013047020318DF
:101304008F292000C701C8010030BC000030BB0099
:101314000030BA000030B900C60120004708CD00F3
:101324004D1C9629BB1798297F30BB054D08BD007D
:101334000130BD36890B9B293D08BC008828520822
:101344008039DF005235E100D11B611461080319B3
:10135400B929610A031DB6290030D2000030D1003A
:101364000030D0000030CF00D117D201C1290030A5
:10137400D2000030D1000030D0000030CF00560839
:101384008039E00060085F06031D5F175635E000F2
:10139400D51B601460080319DD29600A031DDA29CE
:1013A4000030D6000030D5000030D4000030D30027
:1013B400D517D601E5290030D6000030D50000301D
:1013C400D4000030D3006108600203180B2A5F1FA9
:1013D400ED298030DF066108E2006008E100620860
:1013E400E0004F08E2005308CF006208D300500821
:1013F400E2005408D0006208D4005108E200550805
:10140400D1006208D5005208E2005608D2006208F2
:10141400D600E2016008D700D8015808DA00610854
:101424005702D900031CDA035A08803ADB008030E3
:101434005B02031D1F2A1A305902031C512A200083
:101444005208510450044F0403192A2A01302B2A4C
:101454000030E2000030D2000030D1000030D00073
:101464000030CF006008E100562A621C432A62085B
:10147400D7000130D736890B3C2A57080138E200DF
:10148400452A0310E20C4F18E2170130D700D23777
:10149400D10CD00CCF0CD70B492A0130E107200026
:1014A40060086102031C372A5F1B892A6108031D37
:1014B400642A0030D2000030D1000030D000003067
:1014C400CF0008005308CF075408D03D5508D13D3C
:1014D4005608D23D521C022B621C7A2A6208D7009D
:1014E4000130D736890B732A57080138E2007C2A69
:1014F4000310E20C4F18E2170130D700D237D10C99
:10150400D00CCF0CD70B802A0130E107022B5208F4
:10151400803AD7005608803A5702031D9B2A550883
:101524005102031D9B2A54085002031D9B2A530891
:101534004F020318D02AFF30D700FF30D800FF3005
:10154400D900FF30DA004F085302DB005008543B47
:10155400DC005108553BDD005208563BDE005B08B9
:10156400D7075C08D83D5D08D93D5E08DA3D5A08C6
:10157400D2005908D1005808D0005708CF00803055
:10158400DF066203FF3AE2006208031DD82A013035
:10159400CF070030D03DD13DD23DD82A5308CF02E9
:1015A4005408D03B5508D13B5608D23B520851044D
:1015B40050044F04031D002B6208031D002B003050
:1015C400D2000030D1000030D0000030CF0008003D
:1015D4000130CF35D00DD10DD20D890BEB2AE21B92
:1015E4004F14621CF92A0314620DE200FB2A031053
:1015F400E20D61080319002B0130E102D11FEA2A30
:10160400E001E21F0D2B62087F3903194F180B2BE1
:101614000D2B0130E00060080319352B0130CF0792
:101624000030D03DD13DD23D521C352B4F08D70060
:101634005008D8005108D9005208DA000130DB0004
:10164400DA37D90CD80CD70CDB0B222B5A08D20072
:101654005908D1005808D0005708CF00610A03196F
:10166400352B0130E107610A031D6108031D452B79
:101674000030D2000030D1000030D0000030CF0064
:1016840061080319DF01611C492BD1174B2B7F30F3
:10169400D1056108D7000130D736890B4E2B570886
:1016A400D200DF1F0800D217080064009031012027
:1016B4008B3125082100C300200026082100C40026
:1016C400C501C601983157208B3125082100BF0080
:1016D400200026082100C000C101C20122006B03C2
:1016E400031D952B03302000A2000030A30021002D
:1016F40044082000A100210043082000A000A531D7
:1017040034258B312108A5002008A4009531D0256B
:101714008B312408A7002508A800890D893B890975
:10172400A900AA00B12B0030F9000030F800003005
:10173400F7000330F60021004608F5004508F400E0
:101744004408F3004308F200A73111278B317508D0
:10175400AA007408A9007308A8007208A700013041
:101764009C316C248B312A082100CA0020002908EE
:101774002100C900200028082100C80020002708F3
:101784002100C7004208803AB7004608803A370271
:10179400031DD62B45084102031DD62B44084002E5
:1017A400031DD62B43083F0203183B2C3F0843027A
:1017B400B7004008443BB8004108453BB900420823
:1017C400463BBA003A082000A7002100390820004F
:1017D400A600210038082000A500210037082000B9
:1017E400A400210043083F07BB004408403DBC005F
:1017F4004508413DBD004608423DBE003E08F50097
:101804003D08F4003C08F3003B08F2000030F90006
:101814000030F8000030F7006430F600A7311127DB
:101824008B317508AB007408AA007308A90072080C
:10183400A8009B31EF238B3127082100C60020002C
:1018440026082100C500200025082100C40020002E
:1018540024082100C300C61B442C4608031D3B2C4E
:101864004508031D3B2CE83043020330443B031C72
:10187400442C00302100C6000030C5000330C400F1
:10188400E730C30044302000B8007A30B70000309D
:10189400B6000030B50021004A082000E60021000F
:1018A40049082000E500210048082000E400210048
:1018B40047082000E30022006A082100B700B801AD
:1018C400B901BA013A082000AA0021003908200011
:1018D400A900210038082000A800210037082000B2
:1018E400A70001309C316C248B312A08EA002908B6
:1018F400E9002808E8002708E7008D3172258B31BC
:101904006608BC006508BB006408BA006308B90037
:10191400883136208B3138082100CA00200037086E
:101924002100C900200036082100C8002000350825
:101934002100C7003F302000B800B430B700FD30AC
:10194400B600F430B50021004A082000BC00210094
:1019540049082000BB00210048082000BA002100EB
:1019640047082000B900883136208B31380821001F
:10197400CA00200037082100C900200036082100D1
:10198400C800200035082100C70022004703031DBA
:10199400D02C42302000B8004830D42C40302000F5
:1019A400B800A030B7000030B6000030B500210008
:1019B4004A082000E600210049082000E500210033
:1019C40048082000E400210047082000E30021002B
:1019D4004A082000EA00210049082000E90021000B
:1019E40048082000E800210047082000E7008D3166
:1019F40072258B316608BC006508BB006408BA0018
:101A04006308B900883136208B3138082100CA00B8
:101A1400200037082100C900200036082100C80032
:101A2400200035082100C7003F302000D2000030DC
:101A3400D1000030D0000030CF0021004A0820003F
:101A4400D600210049082000D500210048082000C4
:101A5400D400210047082000D3008931A1218B3113
:101A640052082100CA00200051082100C9002000AA
:101A740050082100C80020004F082100C7004A0870
:101A8400B0004908AF004808AE004708AD009A31DD
:101A94009A228B312E082200AB0021002D0822004F
:101AA400AA002100C61B632D4608031D692D4508A5
:101AB400031D692D4408031D692D64304302031876
:101AC400692DE7302200AC000330AD00080021008E
:101AD40044082200AD00210043082200AC000800A5
:101AE400660880392100A000200066352100A2008C
:101AF4002000E51F7F2D2100221421002208031954
:101B0400922D220A031D8F2D00302000E6000030A4
:101B1400E5000030E4000030E3002000E5179B2DD1
:101B240000302000E6000030E5000030E400003022
:101B3400E3006A0880392100A00620006A352100EC
:101B4400A1002000E91FA82D210021142100210853
:101B54000319BB2D210A031DB82D00302000EA0013
:101B64000030E9000030E8000030E7002000E91709
:101B7400C42D00302000EA000030E9000030E80005
:101B84000030E70021002108031D2208031DD42D85
:101B940000302000E6000030E5000030E4000030B2
:101BA400E300080020006308F20069088731E02799
:101BB4008D3173082100AC007208AB002B082000A3
:101BC400EB00EC01ED01EE016E082100A6002000FF
:101BD4006D082100A50020006C082100A40020004D
:101BE4006B082100A3002C082000EB00EC01ED01A0
:101BF400EE016E082100AA0020006D082100A90052
:101C040020006C082100A80020006B082100A70018
:101C140020006408F20068088731E0278D317308DA
:101C24002100AC007208AB002B082000EB00EC0193
:101C3400ED01EE016B082100A30720006C082100D0
:101C4400A43D20006D082100A53D20006E08210060
:101C5400A63D2C082000EB00EC01ED01EE016B0821
:101C64002100A70720006C082100A83D20006D0872
:101C74002100A93D20006E082100AA3D200065082E
:101C8400F20067088731E0278D3173082100AC002A
:101C94007208AB002B082000EB00EC01ED01EE0113
:101CA4006B082100A30720006C082100A43D20003C
:101CB4006D082100A53D20006E082100A63D2C08DA
:101CC4002000EB00EC01ED01EE016B082100A707F9
:101CD40020006C082100A83D20006D082100A93DCA
:101CE40020006E082100AA3D0830A335A40DA50DDF
:101CF400A60D890B772E20006408F200670887314F
:101D0400E0278D3173082100AC007208AB002B086A
:101D1400A3072C08A43D0030A53DA63D2000630880
:101D2400F20068088731E0278D3173082100AC0088
:101D34007208AB002B08A3072C08A43D0030A53D76
:101D4400A63D0830A335A40DA50DA60D890BA42E20
:101D540020006308F20067088731E0278D3173089B
:101D64002100AC007208AB002B08A3072C08A43D8B
:101D74000030A53DA63D20006408F20069088731C3
:101D8400E0278D3173082100AC007208AB002B08EA
:101D9400A7072C08A83D0030A93DAA3D20006508EE
:101DA400F20068088731E0278D3173082100AC0008
:101DB4007208AB002B08A7072C08A83D0030A93DEA
:101DC400AA3D20006508F20069088731E0278D31BB
:101DD40073082100AC007208AB002B082000EB0054
:101DE40021002C082000EC00ED01EE010830EB3559
:101DF400EC0DED0DEE0D890BF92E6B082100A707F4
:101E040020006C082100A83D20006D082100A93D98
:101E140020006E082100AA3D26082000EB00EC01FA
:101E2400ED01EE016B082100A70720006C082100DA
:101E3400A83D20006D082100A93D20006E08210066
:101E4400AA3D0830A335A40DA50DA60D890B242F9A
:101E5400220821072000EB00EC01EC0D6B08823E08
:101E64002100AB00FF3020006C3D2100AC00A91B19
:101E7400502F0130A735A80DA90DAA0D890B3C2FB1
:101E8400A61B27140130A335A40DA50DA60D890B9F
:101E9400452FFF30AB07FF30AC3D392FA101A61F02
:101EA400722FFF3023052000EB00FF3021002405B2
:101EB4002000EC00FF30210025052000ED007F30DC
:101EC400210026052000EE006E086D046C046B04EE
:101ED400031D6F2F2100271C722F01302100A10048
:101EE40021080319A72F0130A7070030A83DA93DF9
:101EF400AA3D2A1CA72F27082000EB002100280850
:101F04002000EC00210029082000ED0021002A080F
:101F14002000EE000130EF00EE37ED0CEC0CEB0C82
:101F2400EF0B8E2F6E082100AA0020006D082100FF
:101F3400A90020006C082100A80020006B082100E3
:101F4400A7000130AB070030AC3D2C08803A2000DC
:101F5400EB0080306B02031DB22FFF3021002B02F7
:101F6400031CBE2F7F302100AA008030A90000305E
:101F7400A8000030A700EE2F21002C08803A200092
:101F8400EB0080306B02031DCA2F013021002B02AD
:101F94000318D72F00302100AA000030A900003018
:101FA400A8000030A700A001EE2F21002B08A200FA
:101FB400FF30A705FF30A8057F30A9050030AA052A
:101FC4002218A91722082000EB000130EB36890BF8
:101FD400E82F6B082100AA002008AA042A08200080
:101FE400E600210029082000E5002100280820003F
:0C1FF400E400210027082000E3000800A2
:10200200813022009700171F04280130A631522682
:1020120090317308A8007208A70003302802E93043
:102022000319270203181D282200CC0120002808CA
:10203200A6002708A5000800823022009700171F7B
:1020420020280130A631522690317308A800720868
:10205200A70003302802E9300319270203183928A0
:102062002200CC0120002735A500280DA60008007B
:10207200833022009700171F3C280130A6315226D8
:1020820090317308A8007208A70003302802E930D3
:1020920003192702031C512801302200CC005328C7
:1020A2002200CC0120002808F8002708F700F735A5
:1020B200F80DF735F80D7708A5007808A600080096
:1020C2005608031D08003B0803196E28BB01373070
:1020D2002000A400A431A02490313A08031908007A
:1020E200BA01A4313E249031BF302000A000A830B4
:1020F200A100220044080319802801308128003001
:102102002000A200A5311B25903164302000A000E0
:10211200A830A10022004308031991280130922817
:1021220000302000A200A5311B2590312108803A01
:102132002000B20080303202031DA22801302200AA
:102142002002031CB52840302000A000A830A100C6
:10215200220021082000A300220020082000A20063
:10216200A4019C31F924903122004708031DBD28A7
:1021720001302000B500BF282000B501A330A00027
:10218200A830A10023002A082000A3002300290868
:102192002000A2003508A4009C31F9249031D930E6
:1021A2002000A000A830A100220023082000A300E4
:1021B200220022082000A2000230A4009C31F9244F
:1021C200903151030319EA28E6302000B300A83009
:1021D200EE28E3302000B300A830B4009D30A00008
:1021E200A830A1003408A3003308A200A5314F256E
:1021F20090311F302000A000A830A1002300520817
:102202002000A300230051082000A200A4019C3159
:10221200F92490312B302000A000A830A100230027
:1022220054082000A300230053082000A200A401A8
:102232009C31F9249031A4311F240800640022004B
:10224200CD01A801A901CE0194313024913122009F
:102252002D08803AE20080306202031D32296E307E
:102262002C02031C0800A431B2249131220046083A
:10227200031D3E299A31F92291313230F2000030A9
:10228200F300A5310425913194313024913122009B
:102292002D08D8002C08D7002D08803AE2008030A3
:1022A2006202031D56296E302C02031C0800230013
:1022B2002E08803A2200E20080306202031D642967
:1022C2006F3023002D02031C752923002E08803A4B
:1022D2002200E2002D08803A6202031D73292C08B5
:1022E20023002D02031C08008631BE2691312200F4
:1022F2002C082D04031D8029A431B22408002D08C6
:10230200803AE20080306202031D892978302C0273
:10231200031C0800053022006C06031D94290530B9
:102322006D060319080006306D02031C9F297B0805
:10233200CF000130FB0093316823913122002D0838
:10234200803AE20080306202031DA92978302C0213
:10235200031C0800063022006C02031CB7297A080D
:10236200D0000130FA009231A022913105302200D2
:102372006D06031DBE290130C92906306D06031DF5
:10238200C4290230C92907306D06031DCA29043049
:10239200FB0005306C06031DD0290130DB29063015
:1023A2006C06031DD6290230DB2907306C06031D9B
:1023B200DC290430FA0064000800031AE329013022
:1023C2002200BE00A73143279131A4310524913167
:1023D200A431472491312C30F2000130F300A531B1
:1023E2000425913164008331B52391312C30F20000
:1023F2000130F300A531042591316400053022003B
:102402006D06031D062A0130112A06306D06031DD2
:102412000C2A0230112A07306D06031D122A0430DD
:10242200FB0005306C06031D182A0130232A0630F2
:102432006C06031D1E2A0230232A07306C06031D78
:10244200242A0430FA002C30F2000130F300A531C6
:102452000425913164002C30F2000130F300A531E3
:102462000425913164002C30F2000130F300A531D3
:102472000425913164002C30F2000130F300A531C3
:102482000425913164002C30F2000130F300A531B3
:10249200042591316400FF30A4317D249131220062
:1024A200D200FE30A4317D2491312200D300FD30D0
:1024B200A4317D2491312200D100FC30A4317D244D
:1024C2009131EC00ED016C08ED00EC016C0822008A
:1024D200D70023006D082200D800FB30A4317D24F0
:1024E2009131EC00ED016C082200D70723006D0842
:1024F2002200D83D53089D31862591312200520891
:10250200A7317B27913122005108A4315024913107
:1025120022003E03031D8F2A0130BD0099313B2169
:1025220091319A31F922913164009631BD2691316F
:102532009E3116269131903161209131952A7A0887
:10254200F20022005008A4315D2492312100EB00F8
:102552002200520821006B07E9007A08E400E50135
:102562000530E435E50D890BB22A6408FF3EE6002A
:10257200FF30653DE7006708803AE8008030680276
:10258200031DC52A690866020318D12A7A082100A8
:10259200E4000530E435890BCB2A6408FF3EE900EC
:1025A2002200520821006B020318DD2A6B08220068
:1025B20052022100EA00DE2AEA016A082200D20061
:1025C2005208A7317B279231943130249231220074
:1025D2002C082D04031908002D082100ED0022000B
:1025E2002C082100EC006A087A07EE006E086902E6
:1025F200031C632B6E08A7317B2792319431302460
:10260200923122002C082D04031908002D08803A6B
:102612002100E4006D08803A6402031D132B6C084C
:1026220022002C02031C1F2B0A30F2000030F300A0
:10263200A5310425923194313024923122002D08A3
:10264200803A2100E4006D08803A6402031D2C2BBD
:102652006C0822002C02031C382B0A30F2000030D6
:10266200F300A531042592319431302492312200B5
:102672002D08803A2100E4006D08803A6402031DAF
:10268200452B6C0822002C020318632B22002D0814
:102692002100ED0022002C082100EC006E0822002F
:1026A200D2002D08803A2100E40080306402031D2C
:1026B2005D2B783022002C02031C632B7A08210048
:1026C200EE07F72A22005208A7317B2708007B0871
:1026D200F20022004F08A4315D2493312100EB0067
:1026E2002200530821006B07E9007B08E400E501A2
:1026F2000530E435E50D890B7A2B6408FF3EE600D0
:10270200FF30653DE7006708803AE80080306802E4
:10271200031D8D2B690866020318992B7B08210083
:10272200E4000530E435890B932B6408FF3EE90091
:102732002200530821006B020318A52B6B0822000C
:1027420053022100EA00A62BEA016A082200D30004
:1027520053089D31862593319431302493312200E0
:102762002C082D04031908002D082100ED00220079
:102772002C082100EC006A087B07EE006E08690253
:10278200031C2B2C6E089D31862593319431302405
:10279200933122002C082D04031908002D08803AD9
:1027A2002100E4006D08803A6402031DDB2B6C08F3
:1027B20022002C02031CE72B0A30F2000030F30047
:1027C200A5310425933194313024933122002D0810
:1027D200803A2100E4006D08803A6402031DF42B64
:1027E2006C0822002C02031C002C0A30F20000307C
:1027F200F300A53104259331943130249331220022
:102802002D08803A2100E4006D08803A6402031D1D
:102812000D2C6C0822002C0203182B2C22002D08F0
:102822002100ED0022002C082100EC006E0822009D
:10283200D3002D08803A2100E40080306402031D99
:10284200252C783022002C02031C2B2C7B08210023
:10285200EE07BF2B220053089D31862508008B31DD
:102862005723943164304D0603194F2C0130CD07A4
:102872002908803A2100E30022002B08803A210037
:102882006302031D472C22002A0828020318652C24
:1028920022002B08A9002A08A800652CCD012908CE
:1028A2002100B800220028082100B70022002D08CC
:1028B2002100BA0022002C082100B90080316920D1
:1028C20094312200A801A90122002B08803A21009C
:1028D200E30023003208803A21006302031D752CB5
:1028E2002300310822002A020318DB2C64008B31FA
:1028F2005723943164304D060319972C0130CD07CC
:102902002908803A2100E30022002B08803A2100A6
:102912006302031D8F2C22002A0828020318AD2C03
:1029220022002B08A9002A08A800AD2CCD012908F5
:102932002100B800220028082100B70022002D083B
:102942002100BA0022002C082100B9008031692040
:1029520094312200A801A9010D302000A000A1019C
:102962000530A200A301A30AA531FE259431003A45
:102972000319BE2C01302200CE000D302000A00031
:10298200A1010530A200A301A531FE259431210049
:10299200E30022004E03031DD02C0130D12C003065
:1029A200210063050319652C9831A2202200AC0195
:1029B200AD01080023003008803A2100E300220024
:1029C2002B08803A21006302031DEB2C22002A0807
:1029D20023002F020318080023003008803A210048
:1029E200E30080306302031DF92C013023002F0223
:1029F200031C0800772C2000A600B02D7B30260691
:102A0200031D082D01302200D6000130622D013055
:102A120008007D302606031D132D2200D601AF01CA
:102A22000530080022302606031DCE2D2200AE01FD
:102A32000230622D22302606031D212D0330612D26
:102A42000F3022002E020318CE2D2E08D83E86000B
:102A52000130870020002608810001302200AE07E5
:102A62002E08D83E86000130AD2D22302606031DE9
:102A72003E2D2200AE010530622D74302606031D64
:102A82004C2D01302200D500482D2200D501013005
:102A9200AF0002300800663026060319462D30309A
:102AA2002602031CCE2D3A3026020318CE2D26080C
:102AB200D03E2300A700FF3003180030A8000430E6
:102AC2002200AF00CE2D30302602031C8B2D3A306F
:102AD200260203188B2D230028082000A1002300C2
:102AE20027082000A0000A30A2000030A300A53170
:102AF2003425943126082007A4000030213DA5008A
:102B02002408D03E2300A700FF302000253D2300EB
:102B1200A800CE2D01302200AF0003300800223081
:102B22002606031D992D01302200AF000430080053
:102B32000F3022002E020318CE2D2E08203E8600D2
:102B42000230870020002608810001302200AE07F3
:102B52002E08203E8600023087008101CE2D220001
:102B62002F082000A400A5012508003A0319BA2D58
:102B7200CE2D2408003A0319FF2C013A03190A2D1D
:102B8200033A03191B2D013A0319362D073A03198B
:102B9200642D013A0319902DCE2D0030080025082E
:102BA200803AA60080302602031DD92D513024021E
:102BB2000318DF2D2000A401A5010800200025082C
:102BC200803AA60080302602031DE92DAC30240293
:102BD2000318F12DF4302000A4070030A53D0800B1
:102BE20020002508803AA60081302602031DFB2D15
:102BF200493024020318032EFE302000A4070030BF
:102C0200A53D080020002508803AA6008230260251
:102C1200031D0D2E473024020318152E18302000F4
:102C2200A4070130A53D080020002508803AA6002F
:102C320083302602031D1F2E353024020318272E4F
:102C420029302000A4070130A53D080020002508F6
:102C5200803AA60084302602031D312E4D30240214
:102C62000318392E36302000A4070130A53D080094
:102C720020002508803AA60088302602031D432E34
:102C82008630240203184B2EAE302000A4070130F8
:102C9200A53D080020002508803AA6008C302602B7
:102CA200031D552EFB30240203185D2EE430200054
:102CB200A4070130A53D080020002508803AA6009F
:102CC20092302602031D672E1030240203186F2E45
:102CD20012302000A4070230A53D0800200025087C
:102CE200803AA60096302602031D792EE730240290
:102CF2000318812E88302000A4070230A53D080069
:102D020020002508803AA6009B302602031D8B2E48
:102D1200EB3024020318932EE7302000A407023080
:102D2200A53D080020002508803AA600A130260211
:102D3200031D9D2E373024020318A52E20302000BB
:102D4200A4070330A53D080020002508803AA6000C
:102D5200A9302602031DAF2E053024020318B72E18
:102D620048302000A4070330A53D08005C30200055
:102D7200A4070330A53D08002100E101E201230080
:102D820033089C3E2100DF00FF302300343D210048
:102D9200E0002200AA01AB01640078302100DC00CF
:102DA200DD015C085D020318022F8B315723963137
:102DB20021006208803AD90022002B08803A2100C3
:102DC2005902031DE82E22002A082100610203187D
:102DD200F72E22002B082100E20022002A082100FF
:102DE200E10022002D08A3002C08A2000330F2000B
:102DF2000030F300A5310425963101302100DD07B2
:102E0200D22E640021006208803AD9008030590233
:102E1200031D0D2F64306102031C392F0A30F200AA
:102E22000030F30021006108053EF4000030623DED
:102E3200F5009831EE20963173082100E200720805
:102E4200E1000A302000A0000030A1002100620849
:102E52002000A300210061082000A200A531342532
:102E6200963121082100E200200020082100E10023
:102E7200210062082300AC00210061082300AB009E
:102E82002C08803A2100D90080305902031D4C2FB2
:102E92000A3023002B020318512F2200A201A301A2
:102EA20022002308F3002208F200A4318E24963176
:102EB20001302100DE0022002508803A2100D900DD
:102EC20022002308803A21005902031D6B2F2200A1
:102ED200220824020318832F220024082202210040
:102EE200D90022002508233B2100DA006008803A3D
:102EF200DB005A08803A5B02031D812F59085F02EA
:102F0200031CB42F22002308803A2100D90022009A
:102F12002508803A21005902031D922F220024081D
:102F220022020318AA2F2200220824022100D9001B
:102F320022002308253B2100DA006008803ADB00EA
:102F42005A08803A5B02031DA82F59085F02031C2E
:102F5200B42FE73022002406033003192506031993
:102F6200B42F2100DE0122002308803A2100D9007B
:102F720023003408803A21005902031DC42F230084
:102F8200330822002202031CC82F0130C92F00304F
:102F92002200440521005E050319D22F01302200D0
:102FA200C50023002C082100B80023002B082100B3
:102FB200B700220023082100BA00220022082100C3
:102FC200B900803169209631640022004C03031D50
:102FD20008004A302000A000A830A100983100204B
:102FE2009631640010302300E8002730E900220007
:102FF2002308F3002208F200A4318E24080037309F
:10300200F2002108F4002008F3001430F50000302B
:10301200F600A631DF2601302200BB0008000D0CAD
:10302200890C0139F10022003308031D20287108A0
:10303200031D2028B1010130B3000530E800680803
:10304200031926280130E80208000330E8004E2860
:103052000310B20C7108F0000730F035890B2E28EE
:103062007008B2040130B10708303106031D0800B0
:103072000230B30008007103031D4C283908A03E3A
:10308200860002308700320881000130B9072530FE
:1030920039020318B901B30108003308013A0319D0
:1030A2002928033A03193C285628080081302200B7
:1030B2009700171F5A280030A631522698317308FC
:1030C200A8007208A70003302802E930031927027A
:1030D200031870282808A6002708A50008008230D7
:1030E20022009700171F73280030A631522698310C
:1030F2007308A8007208A70003302802E9300319F8
:103102002702031889282735A500280DA6000800E4
:10311200833022009700171F8C280030A6315226D8
:103122007308A8007208A7002808F8002708F7000B
:10313200F735F80DF735F80D7708A5007808A600E1
:103142000800A431B224983101302200D100510884
:10315200A431502498312000A001FF30A5318E25E2
:1031620098312000A001FE30A5318E259831200033
:10317200A001A00AFD30A5318E2598312000A001C2
:10318200FC30A5318E2598312000A001FB30A531FD
:103192008E2598319A31F92298312200BC01D4014E
:1031A2000130D400AC01AD01AA01AB01A401A5011B
:1031B200AF302000A000A830A10098310020983143
:1031C200640010302300E8002730E9001030EA00E4
:1031D2002730EB009631BD260800F701F31FF828CF
:1031E200F209F309F20A0319F30A0130F700F51F95
:1031F2000129F409F509F40A0319F50A0130F70661
:10320200F801F9017208730403192E290130F6003E
:10321200F31B13290130F235F30D890B0C29013010
:10322200F60709290130F835F90D890B14297308BD
:103232007502031D1E2972087402031C25297208D7
:10324200F4027308F53B78140130F336F20C890B63
:1032520026290130F602031D13297708031936299E
:10326200F809F909F80A0319F90A7908F300780844
:10327200F2000800640022003D08031D8529DE30AB
:10328200F200A830F300A531D72599315C30200037
:10329200A000A830A100983100209931A4313E2429
:1032A200993197302000A000A830A1001330A2006D
:1032B200A830A300A5314F25993172302000A0001B
:1032C200A830A1008530A200A830A300A5314F2567
:1032D2009931E9302000A000A830A100D530A20029
:1032E200A830A300A5314F25993191302000A000CC
:1032F200A830A1008B30A200A830A300A5314F2531
:103302009931A4311F24993164009A31F922013094
:103312002200BA000800640022004308031DBD29F0
:103322000130C3005208C2005308C1005108C00056
:10333200D20149080319A029FF30D300A129D301E2
:103342000130D10053089D3186259931220052085F
:10335200A7317B27993122005108A4315024993199
:1033620022003C08031DB8299A31F9229931220022
:103372004408BF00C401DB29C3014208D20041084E
:10338200D3004008D1005208A7317B27993122008F
:1033920053089D318625993122005108A4315024C9
:1033A200993122003C08031DD8299A31F9222200C2
:1033B2003F08C400640001302200BA000800640023
:1033C200BA302000A000A830A10098310020993125
:1033D20091311F21993122003C08031D4608031D2B
:1033E200F5299A31F9229931220052082000A000D1
:1033F200FF30A5318E259931220053082000A0000C
:10340200FE30A5318E259931220051082000A000FE
:10341200FD30A5318E2599310030F2000130F300E4
:1034220022005808F5005708F4009831EE2099312F
:1034320072082000A000FC30A5318E2599312200AF
:1034420057082000A000FB30A5318E25993110309D
:10345200E8002730E9001030EA002730EB0096310F
:10346200BD2622002D08A5002C08A400D40101309D
:10347200D400640008000D302000A000A101323009
:10348200A200A301A531FE259A31003A0319722A3E
:10349200FA30F2000030F300A53104259A316400BD
:1034A20022005108031D582A0130D100592AD101A6
:1034B2005108A43150249A319A31F9229A310D30AF
:1034C2002000A000A1013230A200A301A531FE25F7
:1034D2009A31003A0319722A9631BD269A31640054
:1034E200602A0D302000A0000230A1003230A2007C
:1034F200A301A531FE259A31003A031D6400220082
:103502004308031D862A0130872A00302100E30088
:103512000D302000A000A101A10A3230A200A301B7
:10352200A531FE259A3121006305031908006400C4
:10353200080003102F0D300DB6003608031DAA2A0D
:103542000030B0000030AF000030AE000030AD00FF
:1035520008002D08B1002E08B2002F08B300300871
:10356200B4001F30B436B30CB20CB10C890BB32AC1
:103572003108B500AF17FF30AD05FF30AE05FF30A3
:10358200AF050030B0059630B602B61FD92A36080C
:10359200803A973E031CA12A0130B036AF0CAE0C24
:1035A200AD0C890BCE2A0130B6070319EA2ACD2ABF
:1035B200203036020318A12A36080319EA2A0130FC
:1035C200AD35AE0DAF0DB00D890BE12A0130B6025B
:1035D200DD2A350803190800AD09AE09AF09B009A3
:1035E200AD0A0319AE0A0319AF0A0319B00A08009B
:1035F200640022005308F400F201F301741C062B4C
:1036020023004108F2074208F33DF41C0D2B23006E
:103612003F08F2074008F33D741D142B23003D08B8
:10362200F2073E08F33DF41D1B2B23003B08F20773
:103632003C08F33D741E222B23003908F2073A0896
:10364200F33DF41E292B23003708F2073808F33D17
:10365200741F302B23003508F2073608F33D730838
:103662002300D4007208D3006400F201F3012200A7
:103672005208F500751C422B23004F08F207500830
:10368200F33DF51C492B23004D08F2074E08F33D8C
:10369200751D502B23004B08F2074C08F33DF51D16
:1036A200572B23004908F2074A08F33D751E5E2B8B
:1036B20023004708F2074808F33DF51E652B230057
:1036C2004508F2074608F33D751F6C2B230043089B
:1036D200F2074408F33D73082300D2007208D100B8
:1036E20064000800003072052000A000003073055D
:1036F200A10080307405A2007F307505A300230865
:10370200220421042004031D8E2B0030F50000301A
:10371200F4000030F3000030F20000307605A00023
:1037220000307705A10080307805A2007F3079054E
:10373200A3002308220421042004031DA82B003027
:10374200F9000030F8000030F7000030F600F51FF5
:10375200C22B0030A0000030A1000030A200803057
:10376200A3007208A0027308A13B7408A23B75086B
:10377200A33B2308F5002208F4002108F3002008E7
:10378200F200F91FDC2B0030A0000030A100003055
:10379200A2008030A3007608A0027708A13B780837
:1037A200A23B7908A33B2308F9002208F80021086C
:1037B200F7002008F6008030F5068030F906790817
:1037C2007502031D080078087402031D08007708BB
:1037D2007302031D0800760872020800AD01A71FDC
:1037E200FF2BA409A509A609A709A40A0319A50A7A
:1037F2000319A60A0319A70A0130AD00AB1F0E2C4C
:10380200A809A909AA09AB09A80A0319A90A03194F
:10381200AA0A0319AB0A0130AD060030B10000302C
:10382200B0000030AF000030AE00270826042504A7
:1038320024040319552C0130AC00A71B2A2C01309B
:10384200A435A50DA60DA70D890B212C0130AC07BF
:103852001E2C0130AE35AF0DB00DB10D890B2B2CE6
:1038620027082B02031D3F2C26082A02031D3F2C8A
:1038720025082902031D3F2C24082802031C4A2C78
:103882002408A8022508A93B2608AA3B2708AB3B27
:103892002E140130A736A60CA50CA40C890B4B2CB8
:1038A2000130AC02031D2A2C2D080319632CAE092A
:1038B200AF09B009B109AE0A0319AF0A0319B00A78
:1038C2000319B10A3108A7003008A6002F08A50085
:1038D2002E08A4000800AF002F08031DAA1F812C88
:1038E2002709B1002809B2002909B3002A09B40046
:1038F200B10A0319B20A0319B30A0319B40A892CCB
:103902002A08B4002908B3002808B2002708B10029
:103912002A08290428042704031D982C0030AA0031
:103922000030A9000030A8000030A700080096303F
:10393200B000FE3034050319B72C0130B007013056
:10394200B436B30CB20CB10C890BA12C9A2C0130F9
:10395200B0070130B1070030B23DB33DB43D013094
:10396200B436B30CB20CB10C890BB12CFF30340558
:103972000319C92CA82C02303002031CCB2C0130B5
:10398200B0020130B135B20DB30DB40D890BC32CA9
:10399200B31FBC2C3018D52CFF30B105FF30B20557
:1039A2007F30B305FF30B4050310B00C3008AB0014
:1039B200AC01AD01AE011830AB35AC0DAD0DAE0DA5
:1039C200890BDD2C2B08B1042C08B2042D08B3049A
:1039D2002E08B4042F08031DAA1FF02CB4173408B4
:1039E200AA003308A9003208A8003108A70008007D
:1039F2002108F7002008F600A5316C259C31200033
:103A0200B001B1010030A6002408063CA500031C49
:103A1200A6033108A700A80126082806031D132DB6
:103A220025082706031D1B2D3108293E8600870124
:103A32002E30202D3108293E86008701303081004A
:103A42000130B10706303102031C032D0630B100EC
:103A52003108293E860087012E300106031D332DD1
:103A62000130B1023108293E860087010A30F20096
:103A72000030F3002308F5002208F400A731BD2727
:103A82009C317208303E81000130B1020A30F200EE
:103A92000030F3002308F5002208F4009831EE20EC
:103AA2009C3173082000A3007208A200220823049C
:103AB200031D292D0030A6002408053CA500031C87
:103AC200A6032608803AA70080302702031D6B2D2B
:103AD200310825020318712D20002408053CB1008D
:103AE20020003108013E293E860087012E30010662
:103AF200031D7D2D0130B1023108013E293EF20045
:103B02000030F300A531D72508002000A0002008CE
:103B1200A10022004908031DC22D2000211C942D62
:103B220022008D15962D22008D112000A11C9C2DA6
:103B320022000C159E2D22000C112000211DA42D07
:103B420022000D16A62D22000D122000A11DAC2D63
:103B520022008C15AE2D22008C112000211EB42DC6
:103B620022008D16B62D22008D122000A11EBC2D22
:103B720022008C16BE2D22008C122000211B0A2E40
:103B82000D2E03102000211C0314031CCB2D220038
:103B92008D15CD2D22008D1103102000A11C0314C0
:103BA200031CD62D22000C15D82D22000C11031057
:103BB2002000211D0314031CE12D22000D16E32D0C
:103BC20022000D1203102000A11D0314031CEC2D72
:103BD20022008C15EE2D22008C1103102000211ED4
:103BE2000314031CF72D22008D16F92D22008D12CD
:103BF20003102000A11E0314031C022E22008C16A7
:103C0200042E22008C1203102000211F0314031C17
:103C12000D2E22000C160F2E22000C122708F8007F
:103C22002608F700A43118240800A431EE249E319E
:103C3200E6006608031908008030660203180800CF
:103C420064009A2E6608A631AE269E31162ED83012
:103C5200F200BF30F300A830F400A63127269E31CF
:103C620072087304031D4B2E22004308031D472EC6
:103C72004403031D3E2E01303F2E0030550603192A
:103C8200452EA431DA249E310130872EA4312E2410
:103C92009E31162ED830F2006430F300A830F400C2
:103CA200A63127269E3172087304031D662E220058
:103CB2004303031D5E2E01305F2E003055060319AB
:103CC200452E99318C219E31452ED830F200AF30ED
:103CD200F300A830F400A63127269E31720873043F
:103CE200031D772EA43126249E31162ED830F200E1
:103CF2006B30F300A830F400A63127269E317208FB
:103D02007304031D892E640001302200BA00162EAE
:103D1200D830F200BA30F300A830F400A6312726DA
:103D22009E3172087304031D472EA431C6249E31AE
:103D3200452E220066089431FC249E312200E400C4
:103D4200E5016508003A0319A72E162E6408013A08
:103D52000319232E033A0319282E162E1A2E033086
:103D62002100E7002200D2015208A7317B279E31B1
:103D720003302200D000943130249E3122002C08DE
:103D82002D04031908001430F2000030F3002D084E
:103D9200F5002C08F4009831EE209E3122002C0808
:103DA20072072100E50022002D08733D2100E60084
:103DB2000330E8007A08F2006808A4315D249E31DD
:103DC200A7317B279E31943130249E3122002C086A
:103DD2002D04031908002D08803A2100E40066082A
:103DE200803A6402031DF82E650822002C02031893
:103DF2004A2F1430F2000030F30022002D08F500A3
:103E02002C08F4009831EE209E3122002C08720713
:103E12002100E50022002D08733D2100E6007A080A
:103E2200F2006808A4315D249E312200D2002100F4
:103E320067082200D0002D08803A2100E40080307B
:103E42006402031D272F783022002C02031C4A2F04
:103E520021006708E80722004A08031D382F0930AD
:103E620021006806031D382F0830E800452F220084
:103E72004A08031D452F113021006806031D452FF6
:103E82001030E8000430E700203021006802031CF3
:103E9200DB2E22005208A7317B27080003302100C5
:103EA200EE00EC0103302200CF0003302100ED00D0
:103EB2001430F2000030F30022002D08F5002C0827
:103EC200F4009831EE209F3122002C087207210065
:103ED200EA0022002D08733D2100EB00EF017B0870
:103EE200F2006F08A4315D249F319D3186259F31F8
:103EF2009E31B0269F31943130249F3122002C080C
:103F02002D04031908002D08803A2100E9006B08EE
:103F1200803A6902031D902F6A0822002C020318BE
:103F2200E82F1430F2000030F30022002D08F500D3
:103F32002C08F4009831EE209F3122002C087207E1
:103F42002100EA0022002D08733D2100EB007B08CE
:103F5200F2006F08A4315D249F312200D300520881
:103F62002100EC006E082200CF0050082100ED0075
:103F720022002D08803A2100E90080306902031DE9
:103F8200C52F783022002C02031CE82F21006E0876
:103F9200EF0722004B08031DD62F093021006F06C0
:103FA200031DD62F0830EF00E32F22004B08031D1C
:103FB200E32F113021006F06031DE32F1030EF00B5
:103FC2000430EE00203021006F02031C702F21000C
:103FD2006C082200D20053089D3186259F312200B1
:103FE2005208A7317B279F3121006D082200D000A3
:0E3FF2000A30F2000030F300A531042508006B
:10480A0022008D1408001034273410342734640031
:10481A0080010131890B0D2C0034FE0012001E00AC
:10482A00FE0B132C00347808F3007708F200A53148
:10483A0004250800C930F200A830F300A531D725B5
:10484A00080064009831A2202200C3010130BA0096
:10485A000800A9302000A000A830A100983100204B
:10486A000800253402340134203401340734073473
:10487A0001342200B001E030F200A830F300A53183
:10488A00D7250800F83021009505951595128B1645
:10489A000B178B170800F900790C031C0E1003186C
:1048AA000E142708F8002608F700A4311824080077
:1048BA00F400F301741C632C7208F3070310F20D61
:1048CA000310F40C7408031D5F2C73080800F7002A
:1048DA000F307705F5000A30F2007708F600043049
:1048EA00F636890B752C7608A4315D247507080005
:1048FA00F4006400230095187E2C7408F200F3017A
:10490A0072089100730892003F3095051514130838
:10491A000800230069087306031D952C68087206AF
:10492A0003199E2C7308E9007208E800013022007E
:10493A00BA0064000800A4313E24A4317F3020006C
:10494A00A000A830A1002408A2000230A300A531CB
:10495A004F25A431A4311F2408002200D301D2011B
:10496A0053089D318625A43122005208A7317B279E
:10497A00A43122002708F8002608F700A4311824D9
:10498A000800640001302200D400D401FA30F20099
:10499A000030F300A5310425A4319931E021220029
:1049AA00C301C5010130BA000800640022004408AE
:1049BA00031DE22C0130C400E32CC401440820008A
:1049CA00A0000230A5318E25640001302200BA0011
:1049DA000800220038083906031DF52C00300800AB
:1049EA003808A03E8600023087000108F200013034
:1049FA00B807253038020318B8017208080073088E
:104A0A00F6007208F50064007508760403190800B8
:104A1A000630F4003030890B102DF40B102D0032C3
:104A2A0064000130F5020030F63B092D2108F70039
:104A3A002008F600A5316C25A531200022080319AB
:104A4A002D2DB530F200A830F300A531D725080086
:104A5A007930F200A830F300A531D7250800F80113
:104A6A00F901201C3C2D2208F8072308F93D0130E2
:104A7A00A235A30D890B3D2D0130A136A00C890B5F
:104A8A00422D20082104031D362D7908A10078083B
:104A9A00A00008002108F7002008F600A5316C25BF
:104AAA00A531D330F200A830F300A531D725A531BE
:104ABA0020002308F3002208F200A531D725A531EA
:104ACA00D330F200A830F300A531D7250800220020
:104ADA0030080319772DDD30F200A830F300A53134
:104AEA00D725A531D130F200A830F300A531D7255A
:104AFA00A5317708F3007608F200A531D725A5314C
:104B0A00CD30F200A830F300A531D7250130B0002E
:104B1A000800A300230095188F2D20002308A10068
:104B2A00A2012108230091002000220823009200FC
:104B3A0020002008230093003F30950503108B1BAB
:104B4A0003148B13151555309600AA309600951448
:104B5A001511031C08008B17080020342034203458
:104B6A00203420342034203420342034203420349B
:104B7A00203420342034203420342034203420348B
:104B8A00203420342034203420342034203420347B
:104B9A00203420342034203420342034203420346B
:104BAA0020340A34F501220037080319EE2D640077
:104BBA00D82D75084B3E86000230870075087207AB
:104BCA00840073080318013E850000088100013043
:104BDA00F50775087207840073080318013E8500FB
:104BEA001200031DDE2D75082200E7000130B70010
:104BFA0008002208F700222E0D08072E0D0C072E9A
:104C0A000D0C890C0139F800132E20002108003AF6
:104C1A000319012E013A0319032E052E78082306DB
:104C2A000319192E003008000130F2000030F30099
:104C3A00A5310425A5310130F7027708031D0A2E94
:104C4A00FF300800352E72088600013087000108FF
:104C5A000319432E0130F2070130F3070030F43D07
:104C6A0073088400740885000008F500720886003D
:104C7A0001308700010875060319282E720886007C
:104C8A000130870073088400740885000008010257
:104C9A00F200F301031CF30308002000A00020081F
:104CAA00F400F40DF40D21001D087406833974060E
:104CBA009D009D140630890B602E003221009D183C
:104CCA00632E1B082000A30021001C082000A4005A
:104CDA002408F400F5017408F500F40123087407A8
:104CEA00A1000030753DA2002208F3002108F2005D
:104CFA00080000302000A000A830A1009831002050
:104D0A00A631A431B224A63101302200D1005108C3
:104D1A00A4315024A631220052082000A000FF30FE
:104D2A00A5318E25A631220053082000A000FE30AE
:104D3A00A5318E25A631220051082000A000FD30A1
:104D4A00A5318E25A63101302200BD0099313B21C3
:104D5A000800E30072306306031DBD2EFA30F2002C
:104D6A000030F300A5310425A631A4312624A6314A
:104D7A00743063060319C42E45080319CE2EFA307F
:104D8A00F2000030F300A5310425A631A431C6246F
:104D9A00A63162306306031DD52E99318C21A631C6
:104DAA0061306306031D08004308031D0800A4318F
:104DBA00DA2408007208F900750876040319062F28
:104DCA000130F5020030F63B790886000230870090
:104DDA00F90A7408F8007308F700F30A0319F40AC9
:104DEA0077088400780885000008C03F89080319FD
:104DFA00062FE12E790886000230870081010130F2
:104E0A00F9070130F5020030F63B750A031DFF2E43
:104E1A00760A03190800FF2E00302000A300003094
:104E2A00A2000030A1000030A000721C252F7608D5
:104E3A002000A0077708A13D7808A23D7908A33D84
:104E4A000130F635F70DF80DF90D890B262F0130D3
:104E5A00F536F40CF30CF20C890B2D2F750874043B
:104E6A0073047204031D1A2F20002308F500220878
:104E7A00F4002108F3002008F20008006400210071
:104E8A00971217169711171597106400C030230050
:104E9A008C050C148C14C0308D05220091139313C9
:104EAA007A302100990020008C018D018E01C030DA
:104EBA0022008C008D018E01033021008C00073006
:104ECA008D008E010D158D108731FF271E149E143B
:104EDA00813022009700A33021009E001D149513F3
:104EEA0024000D148D140D158B1308002000A0004A
:104EFA002008A100211C842F22008E17862F220051
:104F0A008E132000A11C8C2F22008E158E2F2200BA
:104F1A008E112000211D942F22000E17962F220099
:104F2A000E132000A11D9C2F22000E159E2F220079
:104F3A000E112000211EA42F22008E16A62F220059
:104F4A008E122000A11EAC2F22008E14AE2F22003A
:104F5A008E102000211FB42F22000E16B62F220019
:104F6A000E122708F8002608F700A43118240800B2
:104F7A00F701F51FC72FF409F509F40A0319F50A11
:104F8A000130F700F31FCE2FF209F309F20A0319D1
:104F9A00F30A720873040319F32F0130F600F31BA6
:104FAA00DE2F0130F235F30D890BD72F0130F607CA
:104FBA00D42F73087502031DE42F72087402031CB0
:104FCA00EA2F7208F4027308F53B0130F336F20C4B
:104FDA00890BEB2F0130F602031DDE2F7708031928
:104FEA00FB2FF409F509F40A0319F50A7508F30009
:104FFA007408F2000800543465347334743420346D
:10500A006D346F3464346534203469346E346434F6
:10501A007534633474346F34723400344134543424
:10502A0055342D343134303430345F3445345834C7
:10503A005434003443346134703461346334693431
:10504A00743461346E3463346534003449346E34F4
:10505A00643475346334743461346E34633465345F
:10506A0000344334613470346134633469347434E1
:10507A006F347234003465346634663469346334A8
:10508A0065346E346334793400344F34763465349D
:10509A0072346C346F3461346434003449346E349D
:1050AA0064347534633474346F3472340034533472
:1050BA007434613472347434753470340034423464
:1050CA00793470346134733473340034533474343F
:1050DA00613474347534733400344334723465344F
:1050EA006434693474340034663461346C3473342F
:1050FA00653400344534763465346E34743400349F
:10510A004E343734443444344334003475346B34C5
:10511A006F346434613400344234753469346C3425
:10512A006434003442346F34613472346434003489
:10513A004F347234643465347234003450346F340A
:10514A0077346534723400344534723472346F34CF
:10515A007234003452346534733465347434003430
:10516A0074347234753465340034543475346E349E
:10517A00653400344134753474346F3400344C343B
:10518A006F347334733400340A347D340A3400348F
:10519A0022343A3420340034203420342234003487
:1051AA0033342E34323400345334573452340034C6
:1051BA002C340A3400347B340A3400344C344334FB
:0E51CA00003443344C3400344634573400343F
:020000040001F9
:08000000FF3FFF3FFF3FFF3F00
:04000E00FC3FFF3F75
:10E00000780001000100150013000100000000006D
:10E0100002000000070000000700000001000000EF
:10E020000000500001001000020020000400500019
:10E03000100000002200000045000000FF00FF006B
:10E040000000100000002200000047000100000056
:10E05000020020000400700010000000FF00FF001C
:10E06000000011000000010000000000FF00FF00A0
:10E07000FF00FF00FF00FF00FF00FF00FF00FF00A8
:10E08000FF00FF00FF00FF00FF00FF00FF00FF0098
:10E09000FF00FF00FF00FF00FF00FF00FF00FF0088
:10E0A000FF00FF00FF00FF00FF00FF00FF00FF0078
:10E0B000FF00FF00FF00FF00FF00FF00FF00FF0068
:10E0C000FF00FF00FF00FF00FF00FF00FF00FF0058
:10E0D000FF00FF00FF00FF00FF00FF00FF00FF0048
:10E0E000FF00FF00FF00FF00FF00FF00FF00FF0038
:10E0F000FF00FF00FF00FF00FF00FF00FF00FF0028
:10E10000FF00FF00FF00FF00FF00FF00FF00FF0017
:10E11000FF00FF00FF00FF00FF00FF00FF00FF0007
:10E12000FF00FF00FF00FF00FF00FF00FF00FF00F7
:10E13000FF00FF00FF00FF00FF00FF00FF00FF00E7
:10E14000FF00FF00FF00FF00FF00FF00FF00FF00D7
:10E15000FF00FF00FF00FF00FF00FF00FF00FF00C7
:10E16000FF00FF00FF00FF00FF00FF00FF00FF00B7
:10E17000FF00FF00FF00FF00FF00FF00FF00FF00A7
:10E18000FF00FF00FF00FF00FF00FF00FF00FF0097
:10E19000FF00FF00FF00FF00FF00FF00FF00FF0087
:10E1A000FF00FF00FF00FF00FF00FF00FF00FF0077
:10E1B000FF00FF00FF00FF00FF00FF00FF00FF0067
:10E1C000FF00FF00FF00FF00FF00FF00FF00FF0057
:10E1D000FF00FF00FF00FF00FF00FF00FF00FF0047
:10E1E000FF00FF00FF00FF00FF00FF00FF00FF0037
:10E1F000FF00FF00FF000000000001000000000021
:00000001FF
