:1000000080311828073407347E1480310030860090
:10001000003087008B1A0B1D162837302000950002
:100020000B11A73166278031A6315B267E100900AF
:1000300080311A28803102208031FA00803103207B
:100040008031FB00BA308400A23085006830860021
:10005000013087000730A231A622803100308400B1
:1000600090308500E9308600013087000530A231EC
:10007000A6228031C4308400A4308500C5308600BB
:10008000023087002530A231A62280312030840042
:10009000013085003330A231A0228031A0308400AD
:1000A000013085004930A231A02280312030840007
:1000B000023085003230A231A0228031A03084008D
:1000C000023085002530A231A0227E102000903120
:1000D0008228640022004103031D7E282100380885
:1000E000803ABB0080303B02031D78280A3037027B
:1000F000031C7E2801302200B70087282200370326
:10010000031D85289A31A22280312200B7016400A4
:1001100023006C0821003806031D922823006B0879
:10012000210037060319B32B38082300EC00210007
:1001300037082300EB00210038082300A500210028
:1001400037082300A40022003703031DB02B4E08FC
:10015000031DB5284D08031DB52821003A082200CB
:10016000D200210039082200D10043082100BB0041
:10017000BC01BD01BE013E082000AA0021003D08CF
:100180002000A90021003C082000A80021003B0815
:100190002000A70001309B31982380312A08E60017
:1001A0002908E5002808E4002708E3002200510898
:1001B0002000A700220052082000A800890D893BDA
:1001C0008909A900AA0001309B31982380312A08AF
:1001D000B8002908B7002808B6002708B500423043
:1001E000BC00C830BB000030BA000030B900883114
:1001F000362080313808D2003708D1003608D000C8
:100200003508CF004230B800C830B7000030B60023
:100210000030B500220051082000A700220052083B
:100220002000A800890D893B8909A900AA00013096
:100230009B31982380312A08BC002908BB0028087C
:10024000BA002708B9008831362080313808D60036
:100250003708D5003608D4003508D3008931A121EC
:1002600080315208EA005108E9005008E8004F08C0
:10027000E7008D317225803166082100C200200020
:1002800065082100C100200064082100C000200092
:1002900063082100BF003F302000D2008030D10031
:1002A0000030D0000030CF003D30E600EB30E500FC
:1002B0008530E4001F30E3004130B8002030B70043
:1002C0000030B6000030B500210042082000BC001C
:1002D000210041082000BB00210040082000BA0096
:1002E00021003F082000B9008831362080313808CD
:1002F000EA003708E9003608E8003508E7008D31E4
:10030000722580316608D6006508D5006408D400DF
:100310006308D3008931A121803152082100CC002B
:10032000200051082100CB00200050082100CA0005
:1003300020004F082100C9004C082000B80021000F
:100340004B082000B70021004A082000B600210019
:1003500049082000B5003F30BC008030BB000030B1
:10036000BA000030B90088313620803138082100C9
:10037000D800200037082100D700200036082100CF
:10038000D600200035082100D50040302000D200E2
:100390000030D1000030D0000030CF004230B80033
:1003A000C830B7000030B6000030B5002100390871
:1003B0002000A70021003A082000A800890D893BF1
:1003C0008909A900AA0001309B31982380312A08AD
:1003D000BC002908BB002808BA002708B9008831EA
:1003E000362080313808D6003708D5003608D400CA
:1003F0003508D3008931A121803152082100C6007F
:10040000200051082100C500200050082100C40030
:1004100020004F082100C30039082000A700210058
:100420003A082000A800890D893B8909A900AA0083
:1004300001309B31982380312A08B8002908B70081
:100440002808B6002708B5004230BC00C830BB0001
:100450000030BA000030B9008831362080313808C9
:10046000D2003708D1003608D0003508CF0021006F
:1004700046082000D600210045082000D5002100B4
:1004800044082000D400210043082000D300893113
:10049000A121803152082100CC0020005108210008
:1004A000CB00200050082100CA0020004F08210086
:1004B000C9004C082000B80021004B082000B700FC
:1004C00021004A082000B600210049082000B5009C
:1004D0004030BC008030BB000030BA000030B900B2
:1004E00088313620803138082100D40020003708B8
:1004F0002100D300200036082100D200200035085A
:100500002100D1005808F5005708F4005608F30000
:100510005508F2003F30F9008030F8000030F70055
:100520000030F6009B311C238031031CA02A3F3091
:100530002100D8008030D7000030D6000030D50030
:1005400021005408F5005308F4005208F300510844
:10055000F2003F30F9008030F8000030F700003042
:10056000F6009B311C238031031CBF2A3F30210041
:10057000D4008030D3000030D2000030D100210000
:1005800037082000A700210038082000A800890DA6
:10059000893B8909A900AA0001309B319823803149
:1005A0002A08EA002908E9002808E8002708E700E7
:1005B000210058082000E600210057082000E5002F
:1005C000210056082000E400210055082000E30027
:1005D0008D317225803166082100D0002000650829
:1005E0002100CF00200064082100CE002000630815
:1005F0002100CD0050082000EA0021004F08200013
:10060000E90021004E082000E80021004D082000EC
:10061000E700210054082000E600210053082000D4
:10062000E500210052082000E400210051082000CC
:10063000E3008D317225803166082100B000200072
:1006400065082100AF00200064082100AE002000F2
:1006500063082100AD009931E32180312E08C800E4
:100660002D08C70058082000EA0021005708200084
:10067000E900210056082000E8002100550820006C
:10068000E700210054082000E60021005308200064
:10069000E500210052082000E4002100510820005C
:1006A000E3008D317225803166082100D0002000E2
:1006B00065082100CF00200064082100CE00200042
:1006C00063082100CD0050082000EA0021004F08F7
:1006D0002000E90021004E082000E80021004D081C
:1006E0002000E7004230E600C830E5000030E400BA
:1006F0000030E3008D317225803166082100B000A2
:10070000200065082100AF00200064082100AE0031
:10071000200063082100AD009931E32180312E08CB
:100720002300A30021002D082300A2002308803A03
:100730002100BB0080303B02031DA12B643023004D
:100740002202031CA82B63302300A2000030A30068
:10075000210048082300A500210047082300A40029
:1007600001302200B5006400080064000230A331AB
:100770001C238331013A031DC02B01302200BF002E
:100780000330A3311C238331A3312D238331200077
:10079000A400A50124082200A400200025082200AE
:1007A000A5000430A3311C238331A3312D238331D1
:1007B0002000A400A5012408A0002508A1000A30FB
:1007C000A2000030A300A331E423833121082300D9
:1007D000AF00200020082300AE000530A3311C2309
:1007E0008331A3312D2383312000A400A5012408E7
:1007F000A0002508A1000A30A2000030A300A33108
:10080000E423833121082300AD00200020082300C9
:10081000AC000630A3311C238331A3312D23833157
:100820002000A400A5012408A0002508A1000A308A
:10083000A2000030A300A331E42383312108230068
:10084000AB00200020082300AA000930A3311C239C
:100850008331A3312D2383312000A400A501240876
:10086000A0002508A1000A30A2000030A300A33197
:10087000E423833121082300A9002000200823005D
:10088000A8000A30A3311C238331FB000B30A331B5
:100890001C2383312200C6000C30A3311C2383317A
:1008A000FA000D30A3311C2383312200C5000E3025
:1008B000A3311C2383312200EC000F30A3311C2311
:1008C00083312200C40064001130A3311C23833122
:1008D000A3312D2383312000A400A5011030A331C2
:1008E0001C238331A3312D2383312000A600A701CF
:1008F0002608A0002708A1006430A2000030A30051
:10090000A331E4238331240820072300BC00200006
:100910002508213D2300BD001330A3311C23833162
:10092000A3312D2383312000A400A5011230A3316F
:100930001C238331A3312D2383312000A600A7017E
:100940002608A0002708A1006430A2000030A30000
:10095000A331E4238331240820072300BA002000B8
:100960002508213D2300BB001530A3311C23833112
:10097000A3312D2383312000A400A5011430A3311D
:100980001C238331A3312D2383312000A600A7012E
:100990002608A0002708A1006430A2000030A300B0
:1009A000A331E4238331240820072300B80020006A
:1009B0002508213D2300B9001730A3311C238331C2
:1009C000A3312D2383312000A400A5011630A331CB
:1009D0001C238331A3312D2383312000A600A701DE
:1009E0002608A0002708A1006430A2000030A30060
:1009F000A331E4238331240820072300B60020001C
:100A00002508213D2300B7001930A3311C23833171
:100A1000A3312D2383312000A400A5011830A33178
:100A20001C238331A3312D2383312000A600A7018D
:100A30002608A0002708A1006430A2000030A3000F
:100A4000A331E4238331240820072300B4002000CD
:100A50002508213D2300B5001B30A3311C23833121
:100A6000A3312D2383312000A400A5011A30A33126
:100A70001C238331A3312D2383312000A600A7013D
:100A80002608A0002708A1006430A2000030A300BF
:100A9000A331E4238331240820072300B20020007F
:100AA0002508213D2300B3001D30A3311C238331D1
:100AB000A3312D2383312000A400A5011C30A331D4
:100AC0001C238331A3312D2383312000A600A701ED
:100AD0002608A0002708A1006430A2000030A3006F
:100AE000A331E4238331240820072300B000200031
:100AF0002508213D2300B1002130A3311C2383317F
:100B0000A3312D2383312000A400A5012030A3317F
:100B10001C238331A3312D2383312000A600A7019C
:100B20002608A0002708A1006430A2000030A3001E
:100B3000A331E4238331240820072300CA002000C6
:100B40002508213D2300CB002330A3311C23833112
:100B5000A3312D2383312000A400A5012230A3312D
:100B60001C238331A3312D2383312000A600A7014C
:100B70002608A0002708A1006430A2000030A300CE
:100B8000A331E4238331240820072300C800200078
:100B90002508213D2300C9002530A3311C238331C2
:100BA000A3312D2383312000A400A5012430A331DB
:100BB0001C238331A3312D2383312000A600A701FC
:100BC0002608A0002708A1006430A2000030A3007E
:100BD000A331E4238331240820072300C60020002A
:100BE0002508213D2300C7002730A3311C23833172
:100BF000A3312D2383312000A400A5012630A33189
:100C00001C238331A3312D2383312000A600A701AB
:100C10002608A0002708A1006430A2000030A3002D
:100C2000A331E4238331240820072300C4002000DB
:100C30002508213D2300C5002930A3311C23833121
:100C4000A3312D2383312000A400A5012830A33136
:100C50001C238331A3312D2383312000A600A7015B
:100C60002608A0002708A1006430A2000030A300DD
:100C7000A331E4238331240820072300C20020008D
:100C80002508213D2300C3002B30A3311C238331D1
:100C9000A3312D2383312000A400A5012A30A331E4
:100CA0001C238331A3312D2383312000A600A7010B
:100CB0002608A0002708A1006430A2000030A3008D
:100CC000A331E4238331240820072300C00020003F
:100CD0002508213D2300C1002D30A3311C23833181
:100CE000A3312D2383312000A400A5012C30A33192
:100CF0001C238331A3312D2383312000A600A701BB
:100D00002608A0002708A1006430A2000030A3003C
:100D1000A331E4238331240820072300BE002000F0
:100D20002508213D2300BF003030A3311C2383312F
:100D30002200C2003130A3311C238331A3312D2383
:100D400083312200EB003330A3311C238331220096
:100D5000C1003430A3311C238331A3312D238331CF
:100D60002200C3003530A3311C238331A3312D234E
:100D70002300D700640008002100E101E201230004
:100D80002E089C3E2100DF00FF3023002F3D210074
:100D9000E0002200A801A901640078302100DC00F5
:100DA000DD015C085D020318012F8B31572386316A
:100DB00021006208803AD90022002908803A2100E7
:100DC0005902031DE72E22002808210061020318A2
:100DD000F62E220029082100E20022002808210026
:100DE000E10022002B08A1002A08A0000330F20035
:100DF0000030F300A331B423863101302100DD0738
:100E0000D12E640021006208803AD9008030590256
:100E1000031D0C2F64306102031C382F0A30F200CE
:100E20000030F30021006108053EF4000030623D0F
:100E3000F500A731B327863173082100E20072085C
:100E4000E1000A302000A0000030A100210062086B
:100E50002000A300210061082000A200A331E423A8
:100E6000863121082100E200200020082100E10055
:100E7000210062082300A700210061082300A600CA
:100E80002708803A2100D90080305902031D4B2FDA
:100E90000A30230026020318502F2200A001A101CE
:100EA00022002108F3002008F200A3313E238631FE
:100EB00001302100DE0022002308803A2100D90001
:100EC00022002108803A21005902031D6A2F2200C6
:100ED000200822020318822F22002208200221006B
:100EE000D90022002308213B2100DA006008803A63
:100EF000DB005A08803A5B02031D802F59085F020D
:100F0000031CB32F22002108803A2100D9002200BF
:100F10002308803A21005902031D912F2200220844
:100F200020020318A92F2200200822022100D90044
:100F300022002108233B2100DA006008803ADB0010
:100F40005A08803A5B02031DA72F59085F02031C51
:100F5000B32FE730220022060330031923060319BA
:100F6000B32F2100DE0122002108803A2100D900A0
:100F700023002F08803A21005902031DC32F2300AC
:100F80002E0822002002031CC72F0130C82F00307A
:100F900022003F0521005E050319D12F01302200F8
:100FA000C000230027082100B800230026082100E4
:100FB000B700220021082100BA00220020082100E9
:100FC000B900803169208631640022004703031D87
:100FD00008004A302000A000A830A100A3310C2353
:100FE0008631640010302300E9002730EA00220037
:100FF0002108F3002008F200A3313E230800080076
:1010000022008D1408006400A231D1228831200012
:10101000AA01AB012430F5002A08A331FF2388314F
:101020002730F50020002A08A3311C238831A33182
:10103000FF238831640024302000A0000030A1008C
:101040002730A2000030A300A4311B2488310130D6
:101050002000AA070030AB3D01302B0200300319FD
:101060002A02031C0A28A231B32208003C08803956
:10107000C6003C35CD00BB1B4D144D0803194E284E
:101080004D0A031D4B280030BC000030BB0000306F
:10109000BA000030B900BB17BC0156280030BC00B4
:1010A0000030BB000030BA000030B9003808803989
:1010B000C6063835CE00B71B4E144E0803196E28ED
:1010C0004E0A031D6B280030B8000030B700003016
:1010D000B6000030B500B717B80176280030B80068
:1010E0000030B7000030B6000030B50038083704D3
:1010F00036043504031D93280030BC000030BB00CB
:101100000030BA000030B9008030BB047F30BC042E
:101110004608BC043C08B8003B08B7003A08B600D3
:101120003908B50008004D08031D9F280030B8009D
:101130000030B7000030B6000030B50008004D08A0
:10114000BD00BE013E08C0004E083D02BF00031CAA
:10115000C0033F087F3EC7000030403DC8003C0848
:10116000C5003B08C4003A08C3003908C20000307B
:10117000BC000030BB000030BA000030B9000030C5
:10118000CC000030CB000030CA000030C900CE01D6
:101190001A304E02031802294E080319E6280130BE
:1011A000C235C30DC40DC50D890BD0280130B9352A
:1011B000BA0DBB0DBC0D890BD728CC1B39140130DF
:1011C000C935CA0DCB0DCC0D890BE0283808450276
:1011D000031DF42837084402031DF428360843028F
:1011E000031DF42835084202031CFF284C1735085C
:1011F000C2023608C33B3708C43B3808C53B013040
:10120000CE07C8284508440443044204031D49147A
:10121000BB1B1F290130B935BA0DBB0DBC0D890BA5
:101220000B29CC1B39140130C935CA0DCB0DCC0D9F
:10123000890B1429FF30C707FF30C83D0829CE01AC
:10124000CC1F3829FF304905BD00FF304A05BE00DC
:10125000FF304B05BF007F304C05C00040083F0405
:101260003E043D0403193918362938290130CE00CF
:101270004E0803195F290130B9070030BA3DBB3D64
:10128000BC3D3C1C5F293908BD003A08BE003B0844
:10129000BF003C08C0000130C100C037BF0CBE0C0D
:1012A000BD0CC10B4D294008BC003F08BB003E08E7
:1012B000BA003D08B9000130C7070030C83D4808F2
:1012C000803ABD0080303D02031D6829FF3047028F
:1012D000031C7729FF302000C7000030C800003011
:1012E000BC000030BB000030BA000030B900200064
:1012F0004808803ABD0080303D02031D812901303D
:10130000470203188F292000C701C8010030BC0024
:101310000030BB000030BA000030B900C601200028
:101320004708CD004D1C9629BB1798297F30BB0577
:101330004D08BD000130BD36890B9B293D08BC001E
:10134000882852088039DF005235E100D11B611432
:1013500061080319B929610A031DB6290030D200BA
:101360000030D1000030D0000030CF00D117D201C2
:10137000C1290030D2000030D1000030D000003050
:10138000CF0056088039E00060085F06031D5F1734
:101390005635E000D51B601460080319DD29600A8A
:1013A000031DDA290030D6000030D5000030D4000B
:1013B0000030D300D517D601E5290030D600003023
:1013C000D5000030D4000030D3006108600203185B
:1013D0000B2A5F1FED298030DF066108E2006008FC
:1013E000E1006208E0004F08E2005308CF00620805
:1013F000D3005008E2005408D0006208D40051081D
:10140000E2005508D1006208D5005208E2005608F3
:10141000D2006208D600E2016008D700D80158085F
:10142000DA0061085702D900031CDA035A08803A2F
:10143000DB0080305B02031D1F2A1A305902031C97
:10144000512A20005208510450044F0403192A2A3B
:1014500001302B2A0030E2000030D2000030D100F1
:101460000030D0000030CF006008E100562A621C36
:10147000432A6208D7000130D736890B3C2A570827
:101480000138E200452A0310E20C4F18E217013040
:10149000D700D237D10CD00CCF0CD70B492A013052
:1014A000E107200060086102031C372A5F1B892ABC
:1014B0006108031D642A0030D2000030D1000030E2
:1014C000D0000030CF0008005308CF075408D03DAB
:1014D0005508D13D5608D23D521C022B621C7A2A77
:1014E0006208D7000130D736890B732A57080138B4
:1014F000E2007C2A0310E20C4F18E2170130D700FB
:10150000D237D10CD00CCF0CD70B802A0130E10799
:10151000022B5208803AD7005608803A5702031D22
:101520009B2A55085102031D9B2A54085002031D93
:101530009B2A53084F020318D02AFF30D700FF30F0
:10154000D800FF30D900FF30DA004F085302DB002B
:101550005008543BDC005108553BDD005208563B17
:10156000DE005B08D7075C08D83D5D08D93D5E0802
:10157000DA3D5A08D2005908D1005808D00057085F
:10158000CF008030DF066203FF3AE2006208031DED
:10159000D82A0130CF070030D03DD13DD23DD82AE6
:1015A0005308CF025408D03B5508D13B5608D23BD4
:1015B0005208510450044F04031D002B6208031D00
:1015C000002B0030D2000030D1000030D0000030BD
:1015D000CF0008000130CF35D00DD10DD20D890BD1
:1015E000EB2AE21B4F14621CF92A0314620DE2007D
:1015F000FB2A0310E20D61080319002B0130E10200
:10160000D11FEA2AE001E21F0D2B62087F3903197E
:101610004F180B2B0D2B0130E00060080319352B00
:101620000130CF070030D03DD13DD23D521C352B8B
:101630004F08D7005008D8005108D9005208DA00E6
:101640000130DB00DA37D90CD80CD70CDB0B222B9E
:101650005A08D2005908D1005808D0005708CF00C6
:10166000610A0319352B0130E107610A031D610886
:10167000031D452B0030D2000030D1000030D000D7
:101680000030CF0061080319DF01611C492BD1171D
:101690004B2B7F30D1056108D7000130D736890B3D
:1016A0004E2B5708D200DF1F0800D2170800640035
:1016B0009A3142228B3125082100C30020002608E0
:1016C0002100C400C501C601A7311B278B312508A5
:1016D0002100BF00200026082100C000C101C20176
:1016E00022006C03031D952B03302000A200003064
:1016F000A300210044082000A1002100430820008D
:10170000A000A331E4238B312108A5002008A40008
:101710009331B4238B312408A7002508A800890D34
:10172000893B8909A900AA00B12B0030F9000030DB
:10173000F8000030F7000330F60021004608F500FD
:101740004508F4004408F3004308F20098310320F0
:101750008B317508AA007408A9007308A8007208E4
:10176000A70001309B3198238B312A082100CA0041
:10177000200029082100C900200028082100C800F5
:10178000200027082100C7004208803AB700460819
:10179000803A3702031DD62B45084102031DD62B84
:1017A00044084002031DD62B43083F0203183B2C7C
:1017B0003F084302B7004008443BB8004108453B9E
:1017C000B9004208463BBA003A082000A7002100B1
:1017D00039082000A600210038082000A5002100BB
:1017E00037082000A400210043083F07BB0044083D
:1017F000403DBC004508413DBD004608423DBE009D
:101800003E08F5003D08F4003C08F3003B08F200F8
:101810000030F9000030F8000030F7006430F600C6
:10182000983103208B317508AB007408AA00730847
:10183000A9007208A800903105208B3127082100EB
:10184000C600200026082100C50020002508210030
:10185000C400200024082100C300C61B442C4608F5
:10186000031D3B2C4508031D3B2CE830430203308D
:10187000443B031C442C00302100C6000030C5004E
:101880000330C400E730C30044302000B8007A3091
:10189000B7000030B6000030B50021004A08200033
:1018A000E600210049082000E5002100480820004A
:1018B000E400210047082000E30022006B0821001B
:1018C000B700B801B901BA013A082000AA00210006
:1018D00039082000A900210038082000A8002100B4
:1018E00037082000A70001309B3198238B312A084C
:1018F000EA002908E9002808E8002708E7008D31F8
:1019000072258B316608BC006508BB006408BA000C
:101910006308B900883136208B3138082100CA00AD
:10192000200037082100C900200036082100C80027
:10193000200035082100C7003F302000B800B43037
:10194000B700FD30B600F430B50021004A08200091
:10195000BC00210049082000BB00210048082000ED
:10196000BA00210047082000B900883136208B31A9
:1019700038082100CA00200037082100C9002000D3
:1019800036082100C800200035082100C7002200C9
:101990004203031DD02C42302000B8004830D42C24
:1019A00040302000B800A030B7000030B600003052
:1019B000B50021004A082000E60021004908200067
:1019C000E500210048082000E4002100470820002D
:1019D000E30021004A082000EA0021004908200015
:1019E000E900210048082000E80021004708200005
:1019F000E7008D3172258B316608BC006508BB009D
:101A00006408BA006308B900883136208B31380881
:101A10002100CA00200037082100C9002000360834
:101A20002100C800200035082100C7003F302000F9
:101A3000D2000030D1000030D0000030CF002100B3
:101A40004A082000D600210049082000D5002100C6
:101A500048082000D400210047082000D300893125
:101A6000A1218B3152082100CA0020005108210019
:101A7000C900200050082100C80020004F082100A4
:101A8000C7004A08B0004908AF004808AE00470840
:101A9000AD009931E3218B312E082200A9002100ED
:101AA0002D082200A8002100C61B632D4608031D37
:101AB000692D4508031D692D4408031D692D6430F7
:101AC00043020318692DE7302200AA000330AB005F
:101AD0000800210044082200AB0021004308220036
:101AE000AA000800660880392100A00020006635A1
:101AF0002100A2002000E51F7F2D210022142100DB
:101B000022080319922D220A031D8F2D0030200078
:101B1000E6000030E5000030E4000030E300200083
:101B2000E5179B2D00302000E6000030E500003076
:101B3000E4000030E3006A0880392100A00620009C
:101B40006A352100A1002000E91FA82D21002114E1
:101B5000210021080319BB2D210A031DB82D0030D7
:101B60002000EA000030E9000030E8000030E70023
:101B70002000E917C42D00302000EA000030E90001
:101B80000030E8000030E70021002108031D220892
:101B9000031DD42D00302000E6000030E5000030A9
:101BA000E4000030E300080020006308F200690848
:101BB000A43138248D3173082100AC007208AB00C9
:101BC0002B082000EB00EC01ED01EE016E08210076
:101BD000A60020006D082100A50020006C0821004F
:101BE000A40020006B082100A3002C082000EB00BB
:101BF000EC01ED01EE016E082100AA0020006D0845
:101C00002100A90020006C082100A80020006B081A
:101C10002100A70020006408F2006808A4313824DD
:101C20008D3173082100AC007208AB002B08200036
:101C3000EB00EC01ED01EE016B082100A307200091
:101C40006C082100A43D20006D082100A53D200066
:101C50006E082100A63D2C082000EB00EC01ED01F0
:101C6000EE016B082100A70720006C082100A83DA9
:101C700020006D082100A93D20006E082100AA3D2A
:101C800020006508F2006708A43138248D317308FC
:101C90002100AC007208AB002B082000EB00EC0127
:101CA000ED01EE016B082100A30720006C08210064
:101CB000A43D20006D082100A53D20006E082100F4
:101CC000A63D2C082000EB00EC01ED01EE016B08B5
:101CD0002100A70720006C082100A83D20006D0806
:101CE0002100A93D20006E082100AA3D0830A3353F
:101CF000A40DA50DA60D890B772E20006408F20017
:101D00006708A43138248D3173082100AC007208B3
:101D1000AB002B08A3072C08A43D0030A53DA63D31
:101D200020006308F2006808A43138248D3173085C
:101D30002100AC007208AB002B08A3072C08A43DBF
:101D40000030A53DA63D0830A335A40DA50DA60D78
:101D5000890BA42E20006308F2006708A431382400
:101D60008D3173082100AC007208AB002B08A3076B
:101D70002C08A43D0030A53DA63D20006408F200DB
:101D80006908A43138248D3173082100AC00720831
:101D9000AB002B08A7072C08A83D0030A93DAA3DA1
:101DA00020006508F2006808A43138248D317308DA
:101DB0002100AC007208AB002B08A7072C08A83D37
:101DC0000030A93DAA3D20006508F2006908A43151
:101DD00038248D3173082100AC007208AB002B0849
:101DE0002000EB0021002C082000EC00ED01EE01AA
:101DF0000830EB35EC0DED0DEE0D890BF92E6B086F
:101E00002100A70720006C082100A83D20006D08D4
:101E10002100A93D20006E082100AA3D26082000CF
:101E2000EB00EC01ED01EE016B082100A70720009B
:101E30006C082100A83D20006D082100A93D20006C
:101E40006E082100AA3D0830A335A40DA50DA60DEE
:101E5000890B242F220821072000EB00EC01EC0D58
:101E60006B08823E2100AB00FF3020006C3D21005A
:101E7000AC00A91B502F0130A735A80DA90DAA0D44
:101E8000890B3C2FA61B27140130A335A40DA50DEB
:101E9000A60D890B452FFF30AB07FF30AC3D392F26
:101EA000A101A61F722FFF3023052000EB00FF3099
:101EB000210024052000EC00FF3021002505200032
:101EC000ED007F30210026052000EE006E086D0435
:101ED0006C046B04031D6F2F2100271C722F01302F
:101EE0002100A10021080319A72F0130A707003006
:101EF000A83DA93DAA3D2A1CA72F27082000EB00DA
:101F0000210028082000EC00210029082000ED0015
:101F100021002A082000EE000130EF00EE37ED0C22
:101F2000EC0CEB0CEF0B8E2F6E082100AA002000AA
:101F30006D082100A90020006C082100A8002000E5
:101F40006B082100A7000130AB070030AC3D2C0826
:101F5000803A2000EB0080306B02031DB22FFF306F
:101F600021002B02031CBE2F7F302100AA008030ED
:101F7000A9000030A8000030A700EE2F21002C0897
:101F8000803A2000EB0080306B02031DCA2F013025
:101F900021002B020318D72F00302100AA000030A7
:101FA000A9000030A8000030A700A001EE2F2100FA
:101FB0002B08A200FF30A705FF30A8057F30A90538
:101FC0000030AA052218A91722082000EB000130D2
:101FD000EB36890BE82F6B082100AA002008AA0421
:101FE0002A082000E600210029082000E500210041
:101FF00028082000E400210027082000E300080052
:1020000010342734103427340134AD01A71F1528AC
:10201000A409A509A609A709A40A0319A50A031971
:10202000A60A0319A70A0130AD00AB1F2428A8098E
:10203000A909AA09AB09A80A0319A90A0319AA0A36
:102040000319AB0A0130AD060030B1000030B0001A
:102050000030AF000030AE00270826042504240419
:1020600003196B280130AC00A71B40280130A435B0
:10207000A50DA60DA70D890B37280130AC07342814
:102080000130AE35AF0DB00DB10D890B41282708D9
:102090002B02031D552826082A02031D5528250852
:1020A0002902031D552824082802031C602824083F
:1020B000A8022508A93B2608AA3B2708AB3B2E14FB
:1020C0000130A736A60CA50CA40C890B61280130A1
:1020D000AC02031D40282D0803197928AE09AF0969
:1020E000B009B109AE0A0319AF0A0319B00A0319FE
:1020F000B10A3108A7003008A6002F08A5002E0855
:10210000A4000800031A872801302200B900A63174
:1021100023269031883100209031A231DA2290318B
:102120002C30F2000130F300A331B423903164006D
:102130008331B52390312C30F2000130F300A3310C
:10214000B4239031640005307B06031DA9280130BB
:10215000B42806307B06031DAF280230B4280730B0
:102160007B06031DB62804302200EE0005307A06F7
:10217000031DBC280130C72806307A06031DC2287B
:102180000230C72807307A06031DC9280430220010
:10219000ED002C30F2000130F300A331B423903174
:1021A00064002C30F2000130F300A331B4239031ED
:1021B00064002C30F2000130F300A331B4239031DD
:1021C00064002C30F2000130F300A331B4239031CD
:1021D00064002C30F2000130F300A331B4239031BD
:1021E0006400FF30A3311C2390312200CD00FE306B
:1021F000A3311C2390312200CE00FD30A3311C23DB
:1022000090312200CC00FC30A3311C2390312400FB
:10221000D200D3015208D300D20152082200D100CB
:10222000240053082200D200FB30A3311C2390313C
:102230002400D200D30152082200D1072400530801
:102240002200D23D4E089C31B224903122004D082C
:10225000A6319626903122004C08A231E32290311B
:1022600022003903031D36290130B800983183203C
:1022700090319A31A222903164008631BC2690318F
:102280009631B32690319F313E2790313C29220070
:102290006D08F2004B08A231FD2291312200D500D9
:1022A0004D085507D3006D082100EB00EC01053007
:1022B000EB35EC0D890B58296B08FF3EED00FF3024
:1022C0006C3DEE006E08803AEF0080306F02031D17
:1022D0006D292200530821006D0203187B2922007A
:1022E0006D082100EB000530EB35890B74296B0874
:1022F000FF3E2200D30022004D0855020318842916
:1023000055084D02D4008529D4015408CD004D084C
:10231000A631962691319431A124913122002A08C8
:102320002B04031908002B08D7002A08D6005408EC
:102330006D07D80058085302031C082A5808A63114
:10234000962691319431A124913122002A082B0440
:10235000031908002B08803A2100EB0022005708DF
:10236000803A21006B02031DB829220056082A0278
:10237000031CC4290A30F2000030F300A331B42357
:1023800091319431A124913122002B08803A21000F
:10239000EB0022005708803A21006B02031DD3296D
:1023A000220056082A02031CDF290A30F2000030FE
:1023B000F300A331B42391319431A124913122004F
:1023C0002B08803A2100EB0022005708803A2100B8
:1023D0006B02031DEE29220056082A020318082A60
:1023E00022002B08D7002A08D6005808CD002B0859
:1023F000803A2100EB0080306B02031D022A783006
:1024000022002A02031C082A22006D08D8079A29F4
:1024100022004D08A6319626080022006E08F20020
:102420004A08A231FD2292312200D5004E085507FC
:10243000D3006E082100EB00EC010530EB35EC0D0C
:10244000890B1E2A6B08FF3EED00FF306C3DEE004D
:102450006E08803AEF0080306F02031D332A22009D
:10246000530821006D020318412A22006E08210042
:10247000EB000530EB35890B3A2A6B08FF3E220052
:10248000D30022004E08550203184A2A55084E026E
:10249000D4004B2AD4015408CE004E089C31B224FB
:1024A00092319431A124923122002A082B0403197D
:1024B00008002B08D7002A08D60054086E07D80059
:1024C00058085302031CCE2A58089C31B22492317A
:1024D0009431A124923122002A082B040319080008
:1024E0002B08803A2100EB0022005708803A210097
:1024F0006B02031D7E2A220056082A02031C8A2A28
:102500000A30F2000030F300A331B4239231943149
:10251000A124923122002B08803A2100EB002200F6
:102520005708803A21006B02031D992A22005608A1
:102530002A02031CA52A0A30F2000030F300A3315E
:10254000B42392319431A124923122002B08803A95
:102550002100EB0022005708803A21006B02031D86
:10256000B42A220056082A020318CE2A22002B0879
:10257000D7002A08D6005808CE002B08803A210040
:10258000EB0080306B02031DC82A783022002A023B
:10259000031CCE2A22006E08D807602A22004E08AB
:1025A0009C31B22408002000A600942B7B30260624
:1025B000031DDF2A01302200D0000130452B0130FD
:1025C00008007D302606031DEB2A2200D0012300DF
:1025D000D1010530080022302606031DB22B22004F
:1025E000AE010230452B22302606031D042B03309A
:1025F0002300D10078305906031DB22B22002E0390
:10260000031DB22B0100022B0F3022002E020318F3
:10261000B22B2E08D93E8600013087002000260804
:10262000810001302200AE072E08D93E860001301D
:10263000912B22302606031D212B2200AE010530EE
:10264000452B74302606031D302B01302200CF00AD
:102650002B2B2200CF0101302300D10002300800D3
:10266000663026060319292B30302602031CB22BB4
:102670003A3026020318B22B2608D03E2200AC00C6
:10268000FF3003180030AD0004302300D100B22B1E
:1026900030302602031C6F2B3A30260203186F2BB2
:1026A00022002D082000A10022002C082000A000FC
:1026B0000A30A2000030A300A331E423923126089F
:1026C0002007A4000030213DA5002408D03E2200B0
:1026D000AC00FF302000253D2200AD00B22B0130C0
:1026E0002300D1000330080022302606031D7D2B75
:1026F00001302300D100043008000F3022002E02E8
:102700000318B22B2E08203E8600023087002000DE
:102710002608810001302200AE072E08203E8600E8
:10272000023087008101B22B230051082000A40051
:10273000A5012508003A03199E2BB22B2408003A64
:102740000319D62A013A0319E12A033A0319F32A95
:10275000013A0319192B073A0319482B013A0319B7
:10276000742BB22B003008002508803AA600803078
:102770002602031DBD2B513024020318C32B200059
:10278000A401A501080020002508803AA600803099
:102790002602031DCD2BAC3024020318D52BF430B8
:1027A0002000A4070030A53D080020002508803A3D
:1027B000A60081302602031DDF2B493024020318B6
:1027C000E72BFE302000A4070030A53D08002000C4
:1027D0002508803AA60082302602031DF12B4730DF
:1027E00024020318F92B18302000A4070130A53D5E
:1027F000080020002508803AA60083302602031D29
:10280000032C3530240203180B2C29302000A40798
:102810000130A53D080020002508803AA60084303C
:102820002602031D152C4D30240203181D2C3630B2
:102830002000A4070130A53D080020002508803AAB
:10284000A60088302602031D272C86302402031898
:102850002F2CAE302000A4070130A53D0800200039
:102860002508803AA6008C302602031D392CFB3047
:1028700024020318412CE4302000A4070130A53DB8
:10288000080020002508803AA60092302602031D89
:102890004B2C103024020318532C12302000A407B4
:1028A0000230A53D080020002508803AA600963099
:1028B0002602031D5D2CE73024020318652C8830A6
:1028C0002000A4070230A53D080020002508803A1A
:1028D000A6009B302602031D6F2CEB302402031848
:1028E000772CE7302000A4070230A53D0800200027
:1028F0002508803AA600A1302602031D812C37301E
:1029000024020318892C20302000A4070330A53DA1
:10291000080020002508803AA600A9302602031DE1
:10292000932C0530240203189B2C48302000A40768
:102930000330A53D08005C302000A4070330A53D0E
:10294000080000302100EA000030E9000030E80013
:102950000030E7008B315723943164304806031967
:10296000C92C0130C8072708803A2100E300220063
:102970002908803A21006302031DC12C2200280887
:1029800026020318DF2C22002908A7002808A60029
:10299000DF2CC80127082100B800220026082100EA
:1029A000B70022002B082100BA0022002A082100CB
:1029B000B9008031692094312200A601A7012200CC
:1029C0002908803A2100E30023002D08803A2100E5
:1029D0006302031DEF2C23002C0822002802031899
:1029E000702D64008B3157239431643048060319ED
:1029F000112D0130C8072708803A2100E30022008A
:102A00002908803A21006302031D092D22002808AD
:102A100026020318272D22002908A7002808A6004F
:102A2000272DC80127082100B80022002608210010
:102A3000B70022002B082100BA0022002A0821003A
:102A4000B9008031692094312200A601A7010D3020
:102A50002000A000A1010530A200A301A30AA53116
:102A600010259431003A0319382D01302200C90095
:102A700021006A08E6006908E5006808E4006708C4
:102A8000E3000130E7070030E83DE93DEA3D660834
:102A9000031D6A2D6508031D6A2D213063021C3059
:102AA000643B03186A2D0D302000A000A101053001
:102AB000A200A301A531102594312100E3002200DA
:102AC0004903031D652D0130662D0030210063058B
:102AD0000319DF2C983135202200AA01AB01080030
:102AE00023002B08803A2100E30022002908803AC5
:102AF00021006302031D802D2200280823002A02E2
:102B00000318080023002B08803A2100E3008030DE
:102B10006302031D8E2D013023002A02031C0800CE
:102B2000F12C22002B08E2002A08E1009D31422509
:102B3000953122002A082B04031DA12DA331622305
:102B400008009431A124953122002B08803ADA0044
:102B500080305A02031DAE2D78302A02031C080073
:102B600092310D22953122002A082B0403199E2D43
:102B70009431A124953122002B08803ADA0080306C
:102B80005A02031DC52D78302A02031C080091311A
:102B90004721953122002A082B0403199E2D9431D8
:102BA000A124953122002B08803ADA0080305A02A5
:102BB000031DDC2D78302A02031C080022002B089C
:102BC000803ADA0080305A02031DE82DC8302A020C
:102BD0000318092E22002B08803ADA006208803A96
:102BE0005A02031DF52D61082A020318092E22003E
:102BF0002A086102DA002B08623BDB005B08803A9E
:102C0000DC0080305C02031D072E65305A02031879
:102C1000080022002B08E2002A08E1004E08DA0032
:102C2000DB015A08DD005B08DE004D08DA00DB013D
:102C30005A08DF005B08E0004C03031D212ECC0185
:102C4000232E0130CC00A3316223953122004C08A1
:102C5000A231E32295313230F2000030F300A3318B
:102C6000B42395319431A124953122002B08803A68
:102C7000DA0080305A02031D3F2E78302A02031CEE
:102C800008009D314225953122002A082B040319A2
:102C90009E2D9431A124953122002B08803ADA0030
:102CA00080305A02031D562E78302A02031C080079
:102CB00092310D22953122002A082B0403199E2DF2
:102CC0009431A124953122002B08803ADA0080301B
:102CD0005A02031D6D2E78302A02031C0800913120
:102CE0004721953122002A082B0403199E2D943187
:102CF000A124953122002B08803ADA0080305A0254
:102D0000031D842E78302A02031C0800220062086A
:102D1000803ADA002B08803A5A02031D912E2A08C5
:102D200061020318B12E22004C03031D992ECC0121
:102D30009B2E0130CC004C08A231E32295312200B9
:102D40005D08CE005F08CD004E089C31B22495315D
:102D500022004D08A631962622006208AB006108C9
:102D6000AA0064000800D82F6708A531C025963155
:102D7000D82FD930F200D330F300A830F400A531B9
:102D80003925963172087304031DDB2E22003E089C
:102D9000031DD72E3F03031DCF2E0130D02E003050
:102DA0004F060319152FA3318A239631152FA2310F
:102DB000C9229631D82FD930F2007230F300A830F2
:102DC000F400A5313925963172087304031DF62EDF
:102DD00022003E03031DEE2E0130EF2E00304F0681
:102DE0000319152F9831D4209631152FD930F200C0
:102DF000C330F300A830F400A531392596317208AC
:102E00007304031D072FA231C1229631D82FD93068
:102E1000F2007930F300A830F400A531392596315D
:102E200072087304031D192F640001302200B500DD
:102E3000D82FD930F200CE30F300A830F400A531FD
:102E40003925963172087304031DD72EA3317623DA
:102E50009631152FD930F200F630F300A830F40087
:102E6000A5313925963172087304031D432F2200C2
:102E70002D082000A50022002C082000A400A43169
:102E80009F249631D82FD930F200FA30F300A830C1
:102E9000F400A5313925963172087304031D592FAA
:102EA00022002D082300A10022002C082300A000EE
:102EB000D82FD930F200AB30F300A830F400A531A0
:102EC0003925963172087304031D7A2F22002C08CD
:102ED0002000A00023002008A4317A249631210884
:102EE0002000A500230020082000A400A4319F2476
:102EF0009631D82FD930F2006B30F300A830F400AF
:102F0000A5313925963172087304031D972F2200CD
:102F10002C08CE004E089C31B224963122004E0877
:102F20002000A000FE30A4317A249631152FD9302C
:102F3000F2006430F300A830F400A5313925963151
:102F400072087304031DD72E22002C087F39CD0090
:102F5000AC1FAD2F0130CC00AE2FCC014D08A631F7
:102F60009626963122004D082000A000FF30A431A3
:102F70007A24963122004C08A231E32296312200B5
:102F80004C082000A000FD30A4317A249631152F82
:102F9000D930F200D830F300A830F400A53139253B
:102FA000963172087304031DD72E883103209631A1
:102FB000A3319E239631E70067080319080080308B
:102FC0006702031808006400220067089231D322C8
:102FD00096312200E500E6016608003A0319F12F58
:102FE000D82F6508013A0319B42E033A0319B92EF4
:102FF000013A03192A2F073A0319C82FD82FDC2FBB
:1030060000302000A3000030A2000030A1000030F4
:10301600A000721C172876082000A0077708A13D9B
:103026007808A23D7908A33D0130F635F70DF80D75
:10303600F90D890B18280130F536F40CF30CF20C57
:10304600890B1F287508740473047204031D0C2869
:1030560020002308F5002208F4002108F3002008C8
:10306600F2000800A3316223983101302200CC001F
:103076004C08A231E32298312000A001FF30A43190
:103086007A2498312000A001FE30A4317A249831A8
:103096002000A001A00AFD30A4317A249831200036
:1030A600A001FC30A4317A2498312000A001FB3025
:1030B600A4317A2498319A31A22298312200B7019C
:1030C6002300D8010130D8002200AA01AB01A801D3
:1030D600A901A201A301C3302000A000A830A100CD
:1030E600A3310C239831640010302300E900273007
:1030F600EA001030EB002730EC008631BC260800D1
:10310600640022003808031DCD28FF30F200A830E5
:10311600F300A431E92498315C302000A000A830E7
:10312600A100A3310C239831A231D1229831A530C8
:103136002000A000A830A1001330A200A830A300F0
:10314600A4311B24983180302000A000A830A100B3
:103156009330A200A830A300A4311B2498310A3072
:103166002000A000A930A100EE30A200A830A300E4
:10317600A4311B2498319F302000A000A830A10064
:103186009930A200A830A300A4311B249831A231A3
:10319600B322983164009A31A22201302200B50090
:1031A6000800640022003E08031D05290130BE0008
:1031B6004D08BD004E08BC004C08BB00CD014408BC
:1031C6000319E828FF30CE00E928CE010130CC00F3
:1031D6004E089C31B224983122004D08A63196261D
:1031E600983122004C08A231E32298312200370898
:1031F600031D00299A31A222983122003F08BA0005
:10320600BF012329BE013D08CD003C08CE003B0886
:10321600CC004D08A6319626983122004E089C31E6
:10322600B224983122004C08A231E32298312200C0
:103236003708031D20299A31A22222003A08BF002E
:10324600640001302200B50008006400CE30200082
:10325600A000A830A100A3310C2399319E317E260F
:10326600993122003708031D4108031D3D299A3173
:10327600A222993122004D082000A000FF30A4317F
:103286007A24993122004E082000A000FE30A43195
:103296007A24993122004C082000A000FD30A43188
:1032A6007A2499310030F2000130F30022005208EE
:1032B600F5005108F400A731B327993172082000B0
:1032C600A000FC30A4317A24993122005108200054
:1032D600A000FB30A4317A2499311030E900273060
:1032E600EA001030EB002730EC008631BC262200C5
:1032F6002B08A3002A08A2002300D8010130D80019
:10330600640008000D302000A000A1013230A200A8
:10331600A301A53110259931003A0319BB29FA30CA
:10332600F2000030F300A331B42399316400220087
:103336004C08031DA1290130CC00A229CC014C0860
:10334600A231E32299319A31A22299310D3020001F
:10335600A000A1013230A200A301A53110259931A8
:10336600003A0319BB298631BC2699316400A92984
:103376000D302000A0000230A1003230A200A301CF
:10338600A53110259931003A031D640022003E083C
:10339600031DCF290130D02900302100E3000D3074
:1033A6002000A000A101A10A3230A200A301A5318C
:1033B60010259931210063050319080064000800EF
:1033C60003102F0D300DB6003608031DF32900300B
:1033D600B0000030AF000030AE000030AD00080095
:1033E6002D08B1002E08B2002F08B3003008B40033
:1033F6001F30B436B30CB20CB10C890BFC29310862
:10340600B500AF17FF30AD05FF30AE05FF30AF0595
:103416000030B0059630B602B61F222A3608803A2A
:10342600973E031CEA290130B036AF0CAE0CAD0C4A
:10343600890B172A0130B6070319332A162A2030BA
:1034460036020318EA2936080319332A0130AD3546
:10345600AE0DAF0DB00D890B2A2A0130B602262A11
:10346600350803190800AD09AE09AF09B009AD0A60
:103476000319AE0A0319AF0A0319B00A080081300E
:1034860022009700171F452A0130A53164259A317D
:103496007308A8007208A70003302802E930031950
:1034A600270203185E2A2200C70120002808A6006A
:1034B6002708A5000800823022009700171F612AFE
:1034C6000130A53164259A317308A8007208A70057
:1034D60003302802E9300319270203187A2A22004A
:1034E600C70120002735A500280DA6000800833057
:1034F60022009700171F7D2A0130A53164259A31D5
:103506007308A8007208A70003302802E9300319DF
:103516002702031C922A01302200C700942A2200A7
:10352600C70120002808F8002708F700F735F80D2E
:10353600F735F80D7708A5007808A600080064009E
:1035460022004E08F400F201F301741CAF2A230096
:103556003C08F2073D08F33DF41CB62A23003A085E
:10356600F2073B08F33D741DBD2A23003808F20715
:103576003908F33DF41DC42A23003608F20737083C
:10358600F33D741ECB2A23003408F2073508F33DB9
:10359600F41ED22A23003208F2073308F33D741FC3
:1035A600D92A23003008F2073108F33D73082300B7
:1035B600CF007208CE006400F201F30122004D082C
:1035C600F500751CEB2A23004A08F2074B08F33D69
:1035D600F51CF22A23004808F2074908F33D751D39
:1035E600F92A23004608F2074708F33DF51D002B8C
:1035F60023004408F2074508F33D751E072B2300F8
:103606004208F2074308F33DF51E0E2B230040083F
:10361600F2074108F33D751F152B23003E08F207FC
:103626003F08F33D73082300CD007208CC00640008
:103636000800003072052000A00000307305A100CC
:1036460080307405A2007F307505A300230822048C
:1036560021042004031D372B0030F5000030F40050
:103666000030F3000030F20000307605A000003094
:103676007705A10080307805A2007F307905A30088
:103686002308220421042004031D512B0030F900D5
:103696000030F8000030F7000030F600F51F6B2B05
:1036A6000030A0000030A1000030A2008030A3004E
:1036B6007208A0027308A13B7408A23B7508A33BDD
:1036C6002308F5002208F4002108F3002008F20080
:1036D600F91F852B0030A0000030A1000030A200A9
:1036E6008030A3007608A0027708A13B7808A23BA9
:1036F6007908A33B2308F9002208F8002108F700FF
:103706002008F6008030F5068030F9067908750243
:10371600031D080078087402031D08007708730269
:10372600031D0800760872020800AF002F08031D6B
:10373600AA1FAD2B2709B1002809B2002909B30039
:103746002A09B400B10A0319B20A0319B30A031904
:10375600B40AB52B2A08B4002908B3002808B20019
:103766002708B1002A08290428042704031DC42BAE
:103776000030AA000030A9000030A8000030A700E1
:1037860008009630B000FE3034050319E32B0130F3
:10379600B0070130B436B30CB20CB10C890BCD2B8B
:1037A600C62B0130B0070130B1070030B23DB33D42
:1037B600B43D0130B436B30CB20CB10C890BDD2B21
:1037C600FF3034050319F52BD42B02303002031CCD
:1037D600F72B0130B0020130B135B20DB30DB40D87
:1037E600890BEF2BB31FE82B3018012CFF30B105E6
:1037F600FF30B2057F30B305FF30B4050310B00CBF
:103806003008AB00AC01AD01AE011830AB35AC0DE4
:10381600AD0DAE0D890B092C2B08B1042C08B20492
:103826002D08B3042E08B4042F08031DAA1F1C2C50
:10383600B4173408AA003308A9003208A8003108D2
:10384600A70008002108F7002008F600A431572435
:103856009C312000B001B1010030A6002408063CCE
:10386600A500031CA6033108A700A8012608280600
:10387600031D3F2C25082706031D472C3108293E2A
:10388600860087012E304C2C3108293E86008701A0
:10389600303081000130B10706303102031C2F2C75
:1038A6000630B1003108293E860087012E30010618
:1038B600031D5F2C0130B1023108293E86008701C5
:1038C6000A30F2000030F3002308F5002208F40065
:1038D600A631D8269C317208303E81000130B102F3
:1038E6000A30F2000030F3002308F5002208F40045
:1038F600A731B3279C3173082000A3007208A200E9
:1039060022082304031D552C0030A6002408053C7C
:10391600A500031CA6032608803AA70080302702CC
:10392600031D972C3108250203189D2C200024081E
:10393600053CB10020003108013E293E8600870182
:103946002E300106031DA92C0130B1023108013EBB
:10395600293EF2000030F300A431E92408002000DB
:10396600A0002008A10022004408031DEE2C200020
:10397600211CC02C22008D15C22C22008D11200086
:10398600A11CC82C22000C15CA2C22000C112000E8
:10399600211DD02C22000D16D22C22000D12200043
:1039A600A11DD82C22008C15DA2C22008C112000A7
:1039B600211EE02C22008D16E22C22008D12200002
:1039C600A11EE82C22008C16EA2C22008C12200064
:1039D600211B362D392D03102000211C0314031C36
:1039E600F72C22008D15F92C22008D1103102000D2
:1039F600A11C0314031C022D22000C15042D220009
:103A06000C1103102000211D0314031C0D2D220090
:103A16000D160F2D22000D1203102000A11D0314F8
:103A2600031C182D22008C151A2D22008C11031050
:103A36002000211E0314031C232D22008D16252D84
:103A460022008D1203102000A11E0314031C2E2D2C
:103A560022008C16302D22008C1203102000211F0C
:103A66000314031C392D22000C163B2D22000C12C8
:103A76002508F8002408F700A231AC22080003301C
:103A86002200D800D6010330CA000330D700143014
:103A9600F2000030F3002B08F5002A08F400A731E5
:103AA600B3279D3122002A087207D4002B08733DE4
:103AB600D500D9016E08F2005908A231FD229D31C8
:103AC6009C31B2249D319D31DB259D319431A12459
:103AD6009D3122002A082B04031908002B08803A7E
:103AE600D3005508803A5302031D7B2D54082A0241
:103AF6000318C52D1430F2000030F30022002B0805
:103B0600F5002A08F400A731B3279D3122002A08C0
:103B16007207D4002B08733DD5006E08F2005908D1
:103B2600A231FD229D312200CE004D08D600580854
:103B3600CA004B08D7002B08803AD30080305302C6
:103B4600031DA72D78302A02031CC52D2200580814
:103B5600D9074608031DB62D09305906031DB62D93
:103B66000830D900C12D4608031DC12D1130590654
:103B7600031DC12D1030D9000430D8002030590261
:103B8600031C5D2D22005608CD004E089C31B22440
:103B96009D3122004D08A63196269D3122005708F8
:103BA600CB000A30F2000030F300A331B423080042
:103BB60003302100EE002200CD014D08A6319626E5
:103BC6009D3103302200CB009431A1249D31220087
:103BD6002A082B04031908001430F2000030F30001
:103BE6002B08F5002A08F400A731B3279D312200DF
:103BF6002A0872072100EC0022002B08733D2100E1
:103C0600ED000330EF0022006D08F20021006F087E
:103C1600A231FD229D31A63196269D319431A124F3
:103C26009D3122002A082B04031908002B08803A2C
:103C36002100EB006D08803A6B02031D252E6C08EF
:103C460022002A020318792E1430F2000030F30005
:103C560022002B08F5002A08F400A731B3279D316E
:103C660022002A0872072100EC0022002B08733D6F
:103C76002100ED0022006D08F20021006F08A2313C
:103C8600FD229D312200CD0021006E082200CB00CE
:103C96002B08803A2100EB0080306B02031D562E64
:103CA600783022002A02031C792E21006E08EF07C5
:103CB60022004508031D672E093021006F06031DEB
:103CC600672E0830EF00742E22004508031D742E5F
:103CD600113021006F06031D742E1030EF000430E2
:103CE600EE00203021006F02031C062E22004D0834
:103CF600A6319626080064002200C801A601A70185
:103D0600C9019431A1249E3122002B08803AE30098
:103D160080306302031D912E6E302A02031C0800B8
:103D2600A33162239E3122004108031D9D2E9A3144
:103D3600A2229E313230F2000030F300A331B423C8
:103D46009E319431A1249E3122002B08D2002A08EC
:103D5600D1002B08803AE30080306302031DB52EA4
:103D66006E302A02031C080023002908803A22002C
:103D7600E30080306302031DC32E6F302300280248
:103D8600031CD42E23002908803A2200E3002B08C6
:103D9600803A6302031DD22E2A0823002802031C40
:103DA6000800953191259E3122002A082B04031D17
:103DB600DF2EA331622308002B08803AE30080300F
:103DC6006302031DE82E78302A02031C0800053022
:103DD6007A06031DF22E05307B060319080006300D
:103DE6007B02031CFE2E22006E08CA000130EE0084
:103DF60092310D229E3122002B08803AE30080305A
:103E06006302031D082F78302A02031C08000630BF
:103E16007A02031C162F22006D08CB000130ED003C
:103E2600913147219E3105307B06031D1C2F013041
:103E3600272F06307B06031D222F0230272F07303F
:103E46007B06031D292F04302200EE0005307A067A
:103E5600031D2F2F01303A2F06307A06031D352F0A
:103E660002303A2F07307A06031D3C2F0430220019
:103E7600ED00640008005008031D08003608031909
:103E86004B2FB6013E302000A400A33150239F31B2
:103E9600350803190800B5019A31A2229F31A231D3
:103EA600D1229F31D3302000A000A830A1002200EB
:103EB6003F080319602F0130612F00302000A20057
:103EC600A331CB239F3172302000A000A830A1007F
:103ED60022003E080319712F0130722F0030200096
:103EE600A200A331CB239F3123002308803A200070
:103EF600B20080303202031D832F013023002202DC
:103F0600031C962F40302000A000A830A1002300FB
:103F160023082000A300230022082000A200A401F9
:103F26009C3125249F3122004208031D9E2F01301B
:103F36002000B500A02F2000B501B730A000A830A2
:103F4600A100230025082000A30023002408200048
:103F5600A2003508A4009C3125249F31F2302000B0
:103F6600A000A830A100220021082000A300220002
:103F760020082000A2000230A4009C3125249F3195
:103F86004C030319CB2F07302000B300A930CF2FE5
:103F960004302000B300A930B400B130A000A8302E
:103FA600A1003408A3003308A200A4311B249F31CA
:103FB6001F302000A000A830A10023004D082000DB
:103FC600A30023004C082000A200A4019C31252454
:103FD6009F312B302000A000A830A10023004F08FD
:103FE6002000A30023004E082000A200A4019C315B
:0A3FF60025249F31A231B3220800F8
:10454000640080010131890BA12A0034FE001200B1
:104550001E00FE0BA72A00347808F3007708F2004B
:10456000A331B4230800E230F200A830F300A431F4
:10457000E9240800253402340134203401340134A4
:1045800001346400983135202200BE010130B500AD
:104590000800BD302000A000A830A100A3310C23EA
:1045A00008002300D2010130F200A930F300A43149
:1045B000E9240800F83021009505951595128B1611
:1045C0000B178B170800F900790C031C0E10031849
:1045D0000E142508F8002408F700A231AC220800C8
:1045E000F2000F30F2050A3072020318FA2A72083C
:1045F000303E08007208573E0800F400F301741CB6
:10460000032B7208F3070310F20D0310F40C740867
:10461000031DFF2A730808003E30F2002108F40051
:104620002008F3001430F5000030F600A531F12524
:1046300001302200B6000800F40064002300951841
:104640001D2B7408F200F3017208910073089200A8
:104650003F309505151413080800F7000F30770553
:10466000F5000A30F2007708F6000430F636890BC0
:10467000362B7608A231FD227507080023006A0850
:104680007306031D452B6908720603194E2B730828
:10469000EA007208E90001302200B5006400080059
:1046A000A231D122A3318D302000A000A830A1007A
:1046B0002408A2000230A300A4311B24A331A2319C
:1046C000B32208002200CE01CD014E089C31B22455
:1046D000A33122004D08A6319626A33122002508D9
:1046E000F8002408F700A231AC2208006400013071
:1046F0002300D800D801FA30F2000030F300A331D3
:10470000B423A331993128212200BE01C001013018
:10471000B5000800640022003F08031D922B013001
:10472000BF00932BBF013F082000A0000230A4313E
:104730007A24640001302200B5000800220033080A
:104740003406031DA52B003008003308A03E860068
:10475000023087000108F2000130B3072530330230
:104760000318B301720808007308F6007208F50018
:10477000640075087604031908000630F400303030
:10478000890BC02BF40BC02B003264000130F50202
:104790000030F63BB92B2108F7002008F600A431C1
:1047A0005724A331200022080319DD2BC930F20061
:1047B000A830F300A431E92408008730F200A830C3
:1047C000F300A431E9240800F801F901201CEC2BC6
:1047D0002208F8072308F93D0130A235A30D890B03
:1047E000ED2B0130A136A00C890BF22B20082104FF
:1047F000031DE62B7908A1007808A0000800F70047
:104800007508860087017708F6000430F636890BB4
:10481000062C7608A231F022A3318100750A8600A9
:1048200087017708A231F02281007508023E8600D8
:104830008701810108002108F7002008F600A43153
:104840005724A431EC30F200A830F300A431E9245D
:10485000A43120002308F3002208F200A431E92447
:10486000A431EC30F200A830F300A431E9240800B0
:10487000A400A001A1017208F400F5017408A200CF
:104880007508A300241C482C2208A0072308A13D7A
:104890000130A235A30D890B492C0310A40C240868
:1048A000031D422C2108F3002008F2000800230019
:1048B00052080319622CFE30F200A830F300A43134
:1048C000E924A431EA30F200A830F300A431E9244D
:1048D000A4317708F3007608F200A431E924A4316A
:1048E000E630F200A830F300A431E92401302300BF
:1048F000D20008002000A300230095187C2C200083
:104900002308A100A2012108230091002000220811
:104910002300920020002008230093003F309505DB
:1049200003108B1B03148B13151555309600AA30FA
:10493000960095141511031C08008B1708006400DD
:10494000A231D122A4312630F50020002408A33161
:10495000FF23A4312930F50020002408A3311C23B3
:10496000A431A331FF23A431640026302000A0002D
:104970000030A1002930A2000030A300A4311B2484
:10498000A431A231B3220800203420342034203452
:104990002034203420342034203420342034203477
:1049A0002034203420342034203420342034203467
:1049B0002034203420342034203420342034203457
:1049C0002034203420342034203420342034203447
:1049D0000A34F501220032080319002D6400EA2C84
:1049E0007508C53E8600023087007508720784008E
:1049F00073080318013E8500000881000130F507A7
:104A000075087207840073080318013E85001200C0
:104A1000031DF02C75082200E8000130B2000800E8
:104A20002208F700342D0D08192D0D0C192D0D0C31
:104A3000890C0139F800252D20002108003A0319BE
:104A4000132D013A0319152D172D78082306031984
:104A50002B2D003008000130F2000030F300A331AC
:104A6000B423A5310130F7027708031D1C2DFF3058
:104A70000800472D720886000130870001080319DD
:104A8000552D0130F2070130F3070030F43D730873
:104A90008400740885000008F50072088600013063
:104AA00087000108750603193A2D72088600013047
:104AB0008700730884007408850000080102F20072
:104AC000F301031CF30308002000A0002008F400F9
:104AD000F40DF40D21001D087406833974069D0041
:104AE0009D140630890B722D003221009D18752D02
:104AF0001B082000A30021001C082000A40024089B
:104B0000F400F5017408F500F40123087407A1000E
:104B10000030753DA2002208F3002108F2000800D1
:104B200000302000A000A830A100A3310C23A53143
:104B3000A3316223A53101302200CC004C08A23100
:104B4000E322A53122004D082000A000FF30A4314F
:104B50007A24A53122004E082000A000FE30A431A6
:104B60007A24A53122004C082000A000FD30A43199
:104B70007A24A53101302200B80098318320080042
:104B8000E40072306406031DCF2DFA30F2000030CD
:104B9000F300A331B423A531A231C122A531743071
:104BA00064060319D62D40080319E02DFA30F200EF
:104BB0000030F300A331B423A531A3317623A5310E
:104BC00062306406031DE72D9831D420A531613091
:104BD0006406031D08003E08031D0800A3318A2354
:104BE00008007208F900750876040319182E0130C0
:104BF000F5020030F63B7908860002308700F90A9A
:104C00007408F8007308F700F30A0319F40A770828
:104C10008400780885000008C03F89080319182E11
:104C2000F32D790886000230870081010130F907F1
:104C30000130F5020030F63B750A031D112E760A8D
:104C400003190800112E64002100971217169711FE
:104C5000171597106400C03023008C050C148C14B9
:104C6000C0308D052200911393137A3021009900F2
:104C700020008C018D018E01C03022008C008D013E
:104C80008E01033021008C0007308D008E010D1540
:104C90008D108731FF271E149E148130220097004B
:104CA000A33021009E001D14951324000D148D14B3
:104CB0000D158B13080022006908031D0800300839
:104CC000031D842E320803190800680831020318F6
:104CD000802E8D103108C53E860002308700010805
:104CE0002300D500802E2300551C792E22008D1420
:104CF0007B2E22008D1003102300D50C802E8D14E6
:104D000001302200B007080009303002031C732E66
:104D10000B303002031C7F2EB0010130B107310887
:104D20006806031D0800B201B10108002000A000C0
:104D30002008A100211C9F2E22008E17A12E2200E8
:104D40008E132000A11CA72E22008E15A92E220052
:104D50008E112000211DAF2E22000E17B12E220031
:104D60000E132000A11DB72E22000E15B92E220011
:104D70000E112000211EBF2E22008E16C12E2200F1
:104D80008E122000A11EC72E22008E14C92E2200D2
:104D90008E102000211FCF2E22000E16D12E2200B1
:104DA0000E122508F8002408F700A231AC220800F2
:104DB000F701F51FE22EF409F509F40A0319F50AC3
:104DC0000130F700F31FE92EF209F309F20A031983
:104DD000F30A7208730403190E2F0130F600F31B57
:104DE000F92E0130F235F30D890BF22E0130F60762
:104DF000EF2E73087502031DFF2E72087402031C48
:104E0000052F7208F4027308F53B0130F336F20CFB
:104E1000890B062F0130F602031DF92E77080319BE
:104E2000162FF409F509F40A0319F50A7508F300B9
:104E30007408F2000800813022009700171F1E2F0F
:104E40000030A5316425A7317308A8007208A700B7
:104E500003302802E930031927020318342F2808E9
:104E6000A6002708A5000800823022009700171F1F
:104E7000372F0030A5316425A7317308A8007208C8
:104E8000A70003302802E9300319270203184D2F29
:104E90002735A500280DA6000800833022009700C2
:104EA000171F502F0030A53164257308A800720821
:104EB000A7002808F8002708F700F735F80DF735A0
:104EC000F80D7708A5007808A60008000D0C890CDD
:104ED0000139F10022002F08031D782F7108031DEE
:104EE000782F2300D30101302200AF000530E90004
:104EF000690803197E2F0130E90208000330E90038
:104F0000AA2F03102300D40C7108F0000730F035ED
:104F1000890B872F7008D4040130D307083053065B
:104F2000031D080002302200AF0008007103031DBA
:104F3000A82F3408A03E86000230870023005408C2
:104F4000810001302200B407253034020318B40177
:104F5000AF0108002F08013A0319812F033A031902
:104F6000962FB22F0800F701F31FBD2FF209F309A6
:104F7000F20A0319F30A0130F700F51FC62FF409EE
:104F8000F509F40A0319F50A0130F706F801F901E9
:104F9000720873040319F32F0130F600F31BD82FA6
:104FA0000130F235F30D890BD12F0130F607CE2FEA
:104FB0000130F835F90D890BD92F73087502031DDF
:104FC000E32F72087402031CEA2F7208F4027308BC
:104FD000F53B78140130F336F20C890BEB2F0130DE
:104FE000F602031DD82F77080319FB2FF809F909DA
:104FF000F80A0319F90A7908F3007808F2000800A2
:10500000543465347334743420346D346F34643400
:105010006534203469346E346434753463347434E4
:105020006F34723400344134543455342D343134B7
:10503000303430345F3445345834543400344334DD
:1050400061347034613463346934743461346E347F
:1050500063346534003449346E34643475346334F5
:10506000743461346E3463346534003443346134F1
:10507000703461346334693474346F34723400349E
:105080006534663466346934633465346E3463344D
:10509000793400344F347634653472346C346F3480
:1050A00061346434003449346E34643475346334A8
:1050B00074346F3472340034533474346134723461
:1050C0007434753470340034523465346C34613463
:1050D000793443340034523465346C346134793477
:1050E0004934003442347934703461347334733465
:1050F000003453347434613474347534733400348C
:10510000433472346534643469347434003466343E
:1051100061346C347334653400344534763465342A
:105120006E34743400344E343734443444344334AD
:10513000003475346B346F34643461340034423479
:10514000753469346C346434003442346F346134FF
:10515000723464340034563461346C3475346534DC
:1051600000344F3472346434653472340034503453
:105170006F347734653472340034453472347234A9
:105180006F3472340034523465347334653474349B
:1051900000347434723475346534003454347534E6
:1051A0006E34653400344134753474346F340034F3
:1051B000443475346D34703400344C346F3473348B
:1051C000733400340A347D340A34003422343A34DF
:1051D00020340034203420342234003433342E344C
:1051E0003234003453345734523400344734653445
:1051F0007434003453346534743400342C340A3439
:1052000000347B340A3400344C34433400344334A7
:0A5210004C340034463457340034A7
:020000040001F9
:08000000FF3FFF3FFF3FFF3F00
:04000E00FC3FFF3F75
:10E00000780001000100150013000100000000006D
:10E0100002000000070000000700000001000000EF
:10E020000000500001001000020020000400500019
:10E03000100000002200000045000000FF00FF006B
:10E040000000100000002200000047000100000056
:10E05000020020000400700010000000FF00FF001C
:10E06000000011000000010000000000FF00FF00A0
:10E07000FF00FF00FF00FF00FF00FF00FF00FF00A8
:10E08000FF00FF00FF00FF00FF00FF00FF00FF0098
:10E09000FF00FF00FF00FF00FF00FF00FF00FF0088
:10E0A000FF00FF00FF00FF00FF00FF00FF00FF0078
:10E0B000FF00FF00FF00FF00FF00FF00FF00FF0068
:10E0C000FF00FF00FF00FF00FF00FF00FF00FF0058
:10E0D000FF00FF00FF00FF00FF00FF00FF00FF0048
:10E0E000FF00FF00FF00FF00FF00FF00FF00FF0038
:10E0F000FF00FF00FF00FF00FF00FF00FF00FF0028
:10E10000FF00FF00FF00FF00FF00FF00FF00FF0017
:10E11000FF00FF00FF00FF00FF00FF00FF00FF0007
:10E12000FF00FF00FF00FF00FF00FF00FF00FF00F7
:10E13000FF00FF00FF00FF00FF00FF00FF00FF00E7
:10E14000FF00FF00FF00FF00FF00FF00FF00FF00D7
:10E15000FF00FF00FF00FF00FF00FF00FF00FF00C7
:10E16000FF00FF00FF00FF00FF00FF00FF00FF00B7
:10E17000FF00FF00FF00FF00FF00FF00FF00FF00A7
:10E18000FF00FF00FF00FF00FF00FF00FF00FF0097
:10E19000FF00FF00FF00FF00FF00FF00FF00FF0087
:10E1A000FF00FF00FF00FF00FF00FF00FF00FF0077
:10E1B000FF00FF00FF00FF00FF00FF00FF00FF0067
:10E1C000FF00FF00FF00FF00FF00FF00FF00FF0057
:10E1D000FF00FF00FF00FF00FF00FF00FF00FF0047
:10E1E000FF00FF00FF00FF00FF00FF00FF00FF0037
:10E1F000FF00FF00FF000000000001000000000021
:00000001FF
