:1000000080311828013401347E148031003086009C
:10001000003087008B1A0B1D162837302000950002
:100020000B11A73180278031A631E5267E1009000B
:1000300080311A28803102208031FA00803103207B
:100040008031FB007A308400A4308500683086005F
:10005000013087000730A4316624803100308400ED
:1000600088308500DE308600013087000430A431FE
:1000700066248031E9308400A5308500C5308600D3
:10008000023087002530A43166248031203084007E
:10009000013085003A30A43160248031A0308400E2
:1000A000013085003E30A43160248031203084004E
:1000B000023085003430A43160248031A0308400C7
:1000C000023085002530A43160247E10200091315B
:1000D000E029640022004703031D7E282100380820
:1000E000803ABB0080303B02031D78280A3037027B
:1000F000031C7E2801302200BC00872822003C031C
:10010000031D85289A31FB2280312200BC01640046
:100110002300610821003806031D9228230060088F
:10012000210037060319B32B38082300E100210012
:1001300037082300E000210038082300B100210027
:1001400037082300B00022003C03031DB02B5408E5
:10015000031DB5285308031DB52821003A082200C5
:10016000D900210039082200D80049082100BB002D
:10017000BC01BD01BE013E082000AA0021003D08CF
:100180002000A90021003C082000A80021003B0815
:100190002000A70001309C316E2480312A08E6003F
:1001A0002908E5002808E4002708E3002200580891
:1001B0002000A700220059082000A800890D893BD3
:1001C0008909A900AA0001309C316E2480312A08D7
:1001D000B8002908B7002808B6002708B500423043
:1001E000BC00C830BB000030BA000030B900883114
:1001F000362080313808D2003708D1003608D000C8
:100200003508CF004230B800C830B7000030B60023
:100210000030B500220058082000A700220059082D
:100220002000A800890D893B8909A900AA00013096
:100230009C316E2480312A08BC002908BB002808A4
:10024000BA002708B9008831362080313808D60036
:100250003708D5003608D4003508D3008931A121EC
:1002600080315208EA005108E9005008E8004F08C0
:10027000E7008D317225803166082100C200200020
:1002800065082100C100200064082100C000200092
:1002900063082100BF003F302000D2008030D10031
:1002A0000030D0000030CF003D30E600EB30E500FC
:1002B0008530E4001F30E3004130B8002030B70043
:1002C0000030B6000030B500210042082000BC001C
:1002D000210041082000BB00210040082000BA0096
:1002E00021003F082000B9008831362080313808CD
:1002F000EA003708E9003608E8003508E7008D31E4
:10030000722580316608D6006508D5006408D400DF
:100310006308D3008931A121803152082100CC002B
:10032000200051082100CB00200050082100CA0005
:1003300020004F082100C9004C082000B80021000F
:100340004B082000B70021004A082000B600210019
:1003500049082000B5003F30BC008030BB000030B1
:10036000BA000030B90088313620803138082100C9
:10037000D800200037082100D700200036082100CF
:10038000D600200035082100D50040302000D200E2
:100390000030D1000030D0000030CF004230B80033
:1003A000C830B7000030B6000030B5002100390871
:1003B0002000A70021003A082000A800890D893BF1
:1003C0008909A900AA0001309C316E2480312A08D5
:1003D000BC002908BB002808BA002708B9008831EA
:1003E000362080313808D6003708D5003608D400CA
:1003F0003508D3008931A121803152082100C6007F
:10040000200051082100C500200050082100C40030
:1004100020004F082100C30039082000A700210058
:100420003A082000A800890D893B8909A900AA0083
:1004300001309C316E2480312A08B8002908B700A9
:100440002808B6002708B5004230BC00C830BB0001
:100450000030BA000030B9008831362080313808C9
:10046000D2003708D1003608D0003508CF0021006F
:1004700046082000D600210045082000D5002100B4
:1004800044082000D400210043082000D300893113
:10049000A121803152082100CC0020005108210008
:1004A000CB00200050082100CA0020004F08210086
:1004B000C9004C082000B80021004B082000B700FC
:1004C00021004A082000B600210049082000B5009C
:1004D0004030BC008030BB000030BA000030B900B2
:1004E00088313620803138082100D40020003708B8
:1004F0002100D300200036082100D200200035085A
:100500002100D1005808F5005708F4005608F30000
:100510005508F2003F30F9008030F8000030F70055
:100520000030F6009B3175238031031CA02A3F3038
:100530002100D8008030D7000030D6000030D50030
:1005400021005408F5005308F4005208F300510844
:10055000F2003F30F9008030F8000030F700003042
:10056000F6009B3175238031031CBF2A3F302100E8
:10057000D4008030D3000030D2000030D100210000
:1005800037082000A700210038082000A800890DA6
:10059000893B8909A900AA0001309C316E24803171
:1005A0002A08EA002908E9002808E8002708E700E7
:1005B000210058082000E600210057082000E5002F
:1005C000210056082000E400210055082000E30027
:1005D0008D317225803166082100D0002000650829
:1005E0002100CF00200064082100CE002000630815
:1005F0002100CD0050082000EA0021004F08200013
:10060000E90021004E082000E80021004D082000EC
:10061000E700210054082000E600210053082000D4
:10062000E500210052082000E400210051082000CC
:10063000E3008D317225803166082100B000200072
:1006400065082100AF00200064082100AE002000F2
:1006500063082100AD009A319C2280312E08C80029
:100660002D08C70058082000EA0021005708200084
:10067000E900210056082000E8002100550820006C
:10068000E700210054082000E60021005308200064
:10069000E500210052082000E4002100510820005C
:1006A000E3008D317225803166082100D0002000E2
:1006B00065082100CF00200064082100CE00200042
:1006C00063082100CD0050082000EA0021004F08F7
:1006D0002000E90021004E082000E80021004D081C
:1006E0002000E7004230E600C830E5000030E400BA
:1006F0000030E3008D317225803166082100B000A2
:10070000200065082100AF00200064082100AE0031
:10071000200063082100AD009A319C2280312E0810
:100720002200A10021002D082200A0002108803A0B
:100730002100BB0080303B02031DA12B643022004E
:100740002002031CA82B63302200A0000030A1006F
:10075000210048082300B100210047082300B00011
:1007600001302200BA006400080064000230A431A5
:10077000C8248331013A031DC02B01302200C4007C
:100780000330A431C8248331A431B724833120003D
:10079000A400A50124082200A600200025082200AC
:1007A000A7000430A431C8248331A431B724833195
:1007B0002000A400A5012408A0002508A1000A30FB
:1007C000A2000030A300A5316B258331210823004E
:1007D000BB00200020082300BA000530A431C82443
:1007E0008331A431B72483312000A400A50124085B
:1007F000A0002508A1000A30A2000030A300A53106
:100800006B25833121082300B90020002008230034
:10081000B8000630A431C8248331A431B724833111
:100820002000A400A5012408A0002508A1000A308A
:10083000A2000030A300A5316B25833121082300DD
:10084000B700200020082300B6000930A431C824D6
:100850008331A431B72483312000A400A5012408EA
:10086000A0002508A1000A30A2000030A300A53195
:100870006B25833121082300B500200020082300C8
:10088000B4000A30A431C82483312200ED000B30BB
:10089000A431C82483312200CC000C30A431C824F8
:1008A00083312200EC000D30A431C82483312200B2
:1008B000CB000E30A431C82483312200EB000F306E
:1008C000A431C82483312200CA0064001130A4314D
:1008D000C8248331A431B72483312000A400A501AA
:1008E0001030A431C8248331A431B72483312000CF
:1008F000A600A7012608A0002708A1006430A200D6
:100900000030A300A5316B25833124082007230084
:10091000C80020002508213D2300C9001330A43160
:10092000C8248331A431B72483312000A400A50159
:100930001230A431C8248331A431B724833120007C
:10094000A600A7012608A0002708A1006430A20085
:100950000030A300A5316B25833124082007230034
:10096000C60020002508213D2300C7001530A43112
:10097000C8248331A431B72483312000A400A50109
:100980001430A431C8248331A431B724833120002A
:10099000A600A7012608A0002708A1006430A20035
:1009A0000030A300A5316B258331240820072300E4
:1009B000C40020002508213D2300C5001730A431C4
:1009C000C8248331A431B72483312000A400A501B9
:1009D0001630A431C8248331A431B72483312000D8
:1009E000A600A7012608A0002708A1006430A200E5
:1009F0000030A300A5316B25833124082007230094
:100A0000C20020002508213D2300C3001930A43175
:100A1000C8248331A431B72483312000A400A50168
:100A20001830A431C8248331A431B7248331200085
:100A3000A600A7012608A0002708A1006430A20094
:100A40000030A300A5316B25833124082007230043
:100A5000C00020002508213D2300C1001B30A43127
:100A6000C8248331A431B72483312000A400A50118
:100A70001A30A431C8248331A431B7248331200033
:100A8000A600A7012608A0002708A1006430A20044
:100A90000030A300A5316B258331240820072300F3
:100AA000BE0020002508213D2300BF001D30A431D9
:100AB000C8248331A431B72483312000A400A501C8
:100AC0001C30A431C8248331A431B72483312000E1
:100AD000A600A7012608A0002708A1006430A200F4
:100AE0000030A300A5316B258331240820072300A3
:100AF000BC0020002508213D2300BD002130A43189
:100B0000C8248331A431B72483312000A400A50177
:100B10002030A431C8248331A431B724833120008C
:100B2000A600A7012608A0002708A1006430A200A3
:100B30000030A300A5316B25833124082007230052
:100B4000D60020002508213D2300D7002330A43102
:100B5000C8248331A431B72483312000A400A50127
:100B60002230A431C8248331A431B724833120003A
:100B7000A600A7012608A0002708A1006430A20053
:100B80000030A300A5316B25833124082007230002
:100B9000D40020002508213D2300D5002530A431B4
:100BA000C8248331A431B72483312000A400A501D7
:100BB0002430A431C8248331A431B72483312000E8
:100BC000A600A7012608A0002708A1006430A20003
:100BD0000030A300A5316B258331240820072300B2
:100BE000D20020002508213D2300D3002730A43166
:100BF000C8248331A431B72483312000A400A50187
:100C00002630A431C8248331A431B7248331200095
:100C1000A600A7012608A0002708A1006430A200B2
:100C20000030A300A5316B25833124082007230061
:100C3000D00020002508213D2300D1002930A43117
:100C4000C8248331A431B72483312000A400A50136
:100C50002830A431C8248331A431B7248331200043
:100C6000A600A7012608A0002708A1006430A20062
:100C70000030A300A5316B25833124082007230011
:100C8000CE0020002508213D2300CF002B30A431C9
:100C9000C8248331A431B72483312000A400A501E6
:100CA0002A30A431C8248331A431B72483312000F1
:100CB000A600A7012608A0002708A1006430A20012
:100CC0000030A300A5316B258331240820072300C1
:100CD000CC0020002508213D2300CD002D30A4317B
:100CE000C8248331A431B72483312000A400A50196
:100CF0002C30A431C8248331A431B724833120009F
:100D0000A600A7012608A0002708A1006430A200C1
:100D10000030A300A5316B25833124082007230070
:100D2000CA0020002508213D2300CB003030A4312B
:100D3000C82483312200C8003130A431C824833153
:100D4000A431B72483312200EA003330A431C8240F
:100D500083312200C7003430A431C8248331A43148
:100D6000B72483312200C9003530A431C82483312F
:100D7000A431B7242200C6006400080022002D0818
:100D8000E2002C08E1009F314F27863122002C0819
:100D90002D04031DCE2EA431FD24080094313224ED
:100DA000863122002D08803ADA0080305A02031D75
:100DB000DB2E78302C02031C080093316A23863125
:100DC00022002C082D040319CB2E943132248631B5
:100DD00022002D08803ADA0080305A02031DF22EDC
:100DE00078302C02031C08009231A22286312200A6
:100DF0002C082D040319CB2E943132248631220085
:100E00002D08803ADA0080305A02031D092F78300D
:100E10002C02031C080022002D08803ADA008030E2
:100E20005A02031D152FC8302C020318362F22003A
:100E30002D08803ADA006208803A5A02031D222FF8
:100E400061082C020318362F22002C086102DA00F8
:100E50002D08623BDB005B08803ADC0080305C02DE
:100E6000031D342F65305A020318080022002D0894
:100E7000E2002C08E1005408DA00DB015A08DD002A
:100E80005B08DE005308DA00DB015A08DF005B086C
:100E9000E0005203031D4E2FD201502F0130D2002B
:100EA000A431FD24863122005208A4319B248631CE
:100EB0003230F2000030F300A5313B258631943109
:100EC0003224863122002D08803ADA0080305A021E
:100ED000031D6C2F78302C02031C08009F314F2714
:100EE000863122002C082D040319CB2E9431322494
:100EF000863122002D08803ADA0080305A02031D24
:100F0000832F78302C02031C080093316A2386312A
:100F100022002C082D040319CB2E94313224863163
:100F200022002D08803ADA0080305A02031D9A2FE1
:100F300078302C02031C08009231A2228631220054
:100F40002C082D040319CB2E943132248631220033
:100F50002D08803ADA0080305A02031DB12F783014
:100F60002C02031C080022006208803ADA002D08D7
:100F7000803A5A02031DBE2F2C0861020318DE2F8F
:100F800022005203031DC62FD201C82F0130D20008
:100F90005208A4319B24863122005D08D4005F08EA
:100FA000D30054089D318825863122005308A7318B
:100FB000BE2722006208AD006108AC006400080092
:100FC000A400A001A1017208F400F5017408A200B8
:100FD0007508A300241CF02F2208A0072308A13DB8
:100FE0000130A235A30D890BF12F0310A40C2408A6
:100FF000031DEA2F2108F3002008F2000800080072
:10100000103427341034273400302000A30000307F
:10101000A2000030A1000030A000721C1828760841
:101020002000A0077708A13D7808A23D7908A33DDC
:101030000130F635F70DF80DF90D890B192801303F
:10104000F536F40CF30CF20C890B202875087404A7
:1010500073047204031D0D2820002308F5002208E4
:10106000F4002108F3002008F20008003C08803951
:10107000C6003C35CD00BB1B4D144D0803194E284E
:101080004D0A031D4B280030BC000030BB0000306F
:10109000BA000030B900BB17BC0156280030BC00B4
:1010A0000030BB000030BA000030B9003808803989
:1010B000C6063835CE00B71B4E144E0803196E28ED
:1010C0004E0A031D6B280030B8000030B700003016
:1010D000B6000030B500B717B80176280030B80068
:1010E0000030B7000030B6000030B50038083704D3
:1010F00036043504031D93280030BC000030BB00CB
:101100000030BA000030B9008030BB047F30BC042E
:101110004608BC043C08B8003B08B7003A08B600D3
:101120003908B50008004D08031D9F280030B8009D
:101130000030B7000030B6000030B50008004D08A0
:10114000BD00BE013E08C0004E083D02BF00031CAA
:10115000C0033F087F3EC7000030403DC8003C0848
:10116000C5003B08C4003A08C3003908C20000307B
:10117000BC000030BB000030BA000030B9000030C5
:10118000CC000030CB000030CA000030C900CE01D6
:101190001A304E02031802294E080319E6280130BE
:1011A000C235C30DC40DC50D890BD0280130B9352A
:1011B000BA0DBB0DBC0D890BD728CC1B39140130DF
:1011C000C935CA0DCB0DCC0D890BE0283808450276
:1011D000031DF42837084402031DF428360843028F
:1011E000031DF42835084202031CFF284C1735085C
:1011F000C2023608C33B3708C43B3808C53B013040
:10120000CE07C8284508440443044204031D49147A
:10121000BB1B1F290130B935BA0DBB0DBC0D890BA5
:101220000B29CC1B39140130C935CA0DCB0DCC0D9F
:10123000890B1429FF30C707FF30C83D0829CE01AC
:10124000CC1F3829FF304905BD00FF304A05BE00DC
:10125000FF304B05BF007F304C05C00040083F0405
:101260003E043D0403193918362938290130CE00CF
:101270004E0803195F290130B9070030BA3DBB3D64
:10128000BC3D3C1C5F293908BD003A08BE003B0844
:10129000BF003C08C0000130C100C037BF0CBE0C0D
:1012A000BD0CC10B4D294008BC003F08BB003E08E7
:1012B000BA003D08B9000130C7070030C83D4808F2
:1012C000803ABD0080303D02031D6829FF3047028F
:1012D000031C7729FF302000C7000030C800003011
:1012E000BC000030BB000030BA000030B900200064
:1012F0004808803ABD0080303D02031D812901303D
:10130000470203188F292000C701C8010030BC0024
:101310000030BB000030BA000030B900C601200028
:101320004708CD004D1C9629BB1798297F30BB0577
:101330004D08BD000130BD36890B9B293D08BC001E
:10134000882852088039DF005235E100D11B611432
:1013500061080319B929610A031DB6290030D200BA
:101360000030D1000030D0000030CF00D117D201C2
:10137000C1290030D2000030D1000030D000003050
:10138000CF0056088039E00060085F06031D5F1734
:101390005635E000D51B601460080319DD29600A8A
:1013A000031DDA290030D6000030D5000030D4000B
:1013B0000030D300D517D601E5290030D600003023
:1013C000D5000030D4000030D3006108600203185B
:1013D0000B2A5F1FED298030DF066108E2006008FC
:1013E000E1006208E0004F08E2005308CF00620805
:1013F000D3005008E2005408D0006208D40051081D
:10140000E2005508D1006208D5005208E2005608F3
:10141000D2006208D600E2016008D700D80158085F
:10142000DA0061085702D900031CDA035A08803A2F
:10143000DB0080305B02031D1F2A1A305902031C97
:10144000512A20005208510450044F0403192A2A3B
:1014500001302B2A0030E2000030D2000030D100F1
:101460000030D0000030CF006008E100562A621C36
:10147000432A6208D7000130D736890B3C2A570827
:101480000138E200452A0310E20C4F18E217013040
:10149000D700D237D10CD00CCF0CD70B492A013052
:1014A000E107200060086102031C372A5F1B892ABC
:1014B0006108031D642A0030D2000030D1000030E2
:1014C000D0000030CF0008005308CF075408D03DAB
:1014D0005508D13D5608D23D521C022B621C7A2A77
:1014E0006208D7000130D736890B732A57080138B4
:1014F000E2007C2A0310E20C4F18E2170130D700FB
:10150000D237D10CD00CCF0CD70B802A0130E10799
:10151000022B5208803AD7005608803A5702031D22
:101520009B2A55085102031D9B2A54085002031D93
:101530009B2A53084F020318D02AFF30D700FF30F0
:10154000D800FF30D900FF30DA004F085302DB002B
:101550005008543BDC005108553BDD005208563B17
:10156000DE005B08D7075C08D83D5D08D93D5E0802
:10157000DA3D5A08D2005908D1005808D00057085F
:10158000CF008030DF066203FF3AE2006208031DED
:10159000D82A0130CF070030D03DD13DD23DD82AE6
:1015A0005308CF025408D03B5508D13B5608D23BD4
:1015B0005208510450044F04031D002B6208031D00
:1015C000002B0030D2000030D1000030D0000030BD
:1015D000CF0008000130CF35D00DD10DD20D890BD1
:1015E000EB2AE21B4F14621CF92A0314620DE2007D
:1015F000FB2A0310E20D61080319002B0130E10200
:10160000D11FEA2AE001E21F0D2B62087F3903197E
:101610004F180B2B0D2B0130E00060080319352B00
:101620000130CF070030D03DD13DD23D521C352B8B
:101630004F08D7005008D8005108D9005208DA00E6
:101640000130DB00DA37D90CD80CD70CDB0B222B9E
:101650005A08D2005908D1005808D0005708CF00C6
:10166000610A0319352B0130E107610A031D610886
:10167000031D452B0030D2000030D1000030D000D7
:101680000030CF0061080319DF01611C492BD1171D
:101690004B2B7F30D1056108D7000130D736890B3D
:1016A0004E2B5708D200DF1F0800D2170800640035
:1016B000903103208B3125082100C300200026082B
:1016C0002100C400C501C601983153208B31250883
:1016D0002100BF00200026082100C000C101C20176
:1016E00022006B03031D952B03302000A200003065
:1016F000A300210044082000A1002100430820008D
:10170000A000A5316B258B312108A5002008A4007D
:101710009531D0258B312408A7002508A800890D14
:10172000893B8909A900AA00B12B0030F9000030DB
:10173000F8000030F7000330F60021004608F500FD
:101740004508F4004408F3004308F20088310420FF
:101750008B317508AA007408A9007308A8007208E4
:10176000A70001309C316E248B312A082100CA0069
:10177000200029082100C900200028082100C800F5
:10178000200027082100C7004208803AB700460819
:10179000803A3702031DD62B45084102031DD62B84
:1017A00044084002031DD62B43083F0203183B2C7C
:1017B0003F084302B7004008443BB8004108453B9E
:1017C000B9004208463BBA003A082000A7002100B1
:1017D00039082000A600210038082000A5002100BB
:1017E00037082000A400210043083F07BB0044083D
:1017F000403DBC004508413DBD004608423DBE009D
:101800003E08F5003D08F4003C08F3003B08F200F8
:101810000030F9000030F8000030F7006430F600C6
:10182000883104208B317508AB007408AA00730856
:10183000A9007208A8009B31F1238B3127082100F1
:10184000C600200026082100C50020002508210030
:10185000C400200024082100C300C61B442C4608F5
:10186000031D3B2C4508031D3B2CE830430203308D
:10187000443B031C442C00302100C6000030C5004E
:101880000330C400E730C30044302000B8007A3091
:10189000B7000030B6000030B50021004A08200033
:1018A000E600210049082000E5002100480820004A
:1018B000E400210047082000E30022006A0821001C
:1018C000B700B801B901BA013A082000AA00210006
:1018D00039082000A900210038082000A8002100B4
:1018E00037082000A70001309C316E248B312A0874
:1018F000EA002908E9002808E8002708E7008D31F8
:1019000072258B316608BC006508BB006408BA000C
:101910006308B900883136208B3138082100CA00AD
:10192000200037082100C900200036082100C80027
:10193000200035082100C7003F302000B800B43037
:10194000B700FD30B600F430B50021004A08200091
:10195000BC00210049082000BB00210048082000ED
:10196000BA00210047082000B900883136208B31A9
:1019700038082100CA00200037082100C9002000D3
:1019800036082100C800200035082100C7002200C9
:101990004803031DD02C42302000B8004830D42C1E
:1019A00040302000B800A030B7000030B600003052
:1019B000B50021004A082000E60021004908200067
:1019C000E500210048082000E4002100470820002D
:1019D000E30021004A082000EA0021004908200015
:1019E000E900210048082000E80021004708200005
:1019F000E7008D3172258B316608BC006508BB009D
:101A00006408BA006308B900883136208B31380881
:101A10002100CA00200037082100C9002000360834
:101A20002100C800200035082100C7003F302000F9
:101A3000D2000030D1000030D0000030CF002100B3
:101A40004A082000D600210049082000D5002100C6
:101A500048082000D400210047082000D300893125
:101A6000A1218B3152082100CA0020005108210019
:101A7000C900200050082100C80020004F082100A4
:101A8000C7004A08B0004908AF004808AE00470840
:101A9000AD009A319C228B312E082200AB00210030
:101AA0002D082200AA002100C61B632D4608031D35
:101AB000692D4508031D692D4408031D692D6430F7
:101AC00043020318692DE7302200AC000330AD005B
:101AD0000800210044082200AD0021004308220034
:101AE000AC000800660880392100A000200066359F
:101AF0002100A2002000E51F7F2D210022142100DB
:101B000022080319922D220A031D8F2D0030200078
:101B1000E6000030E5000030E4000030E300200083
:101B2000E5179B2D00302000E6000030E500003076
:101B3000E4000030E3006A0880392100A00620009C
:101B40006A352100A1002000E91FA82D21002114E1
:101B5000210021080319BB2D210A031DB82D0030D7
:101B60002000EA000030E9000030E8000030E70023
:101B70002000E917C42D00302000EA000030E90001
:101B80000030E8000030E70021002108031D220892
:101B9000031DD42D00302000E6000030E5000030A9
:101BA000E4000030E300080020006308F200690848
:101BB0008731E0278D3173082100AC007208AB003B
:101BC0002B082000EB00EC01ED01EE016E08210076
:101BD000A60020006D082100A50020006C0821004F
:101BE000A40020006B082100A3002C082000EB00BB
:101BF000EC01ED01EE016E082100AA0020006D0845
:101C00002100A90020006C082100A80020006B081A
:101C10002100A70020006408F20068088731E0274F
:101C20008D3173082100AC007208AB002B08200036
:101C3000EB00EC01ED01EE016B082100A307200091
:101C40006C082100A43D20006D082100A53D200066
:101C50006E082100A63D2C082000EB00EC01ED01F0
:101C6000EE016B082100A70720006C082100A83DA9
:101C700020006D082100A93D20006E082100AA3D2A
:101C800020006508F20067088731E0278D3173086E
:101C90002100AC007208AB002B082000EB00EC0127
:101CA000ED01EE016B082100A30720006C08210064
:101CB000A43D20006D082100A53D20006E082100F4
:101CC000A63D2C082000EB00EC01ED01EE016B08B5
:101CD0002100A70720006C082100A83D20006D0806
:101CE0002100A93D20006E082100AA3D0830A3353F
:101CF000A40DA50DA60D890B772E20006408F20017
:101D000067088731E0278D3173082100AC00720825
:101D1000AB002B08A3072C08A43D0030A53DA63D31
:101D200020006308F20068088731E0278D317308CE
:101D30002100AC007208AB002B08A3072C08A43DBF
:101D40000030A53DA63D0830A335A40DA50DA60D78
:101D5000890BA42E20006308F20067088731E02772
:101D60008D3173082100AC007208AB002B08A3076B
:101D70002C08A43D0030A53DA63D20006408F200DB
:101D800069088731E0278D3173082100AC007208A3
:101D9000AB002B08A7072C08A83D0030A93DAA3DA1
:101DA00020006508F20068088731E0278D3173084C
:101DB0002100AC007208AB002B08A7072C08A83D37
:101DC0000030A93DAA3D20006508F200690887316E
:101DD000E0278D3173082100AC007208AB002B089E
:101DE0002000EB0021002C082000EC00ED01EE01AA
:101DF0000830EB35EC0DED0DEE0D890BF92E6B086F
:101E00002100A70720006C082100A83D20006D08D4
:101E10002100A93D20006E082100AA3D26082000CF
:101E2000EB00EC01ED01EE016B082100A70720009B
:101E30006C082100A83D20006D082100A93D20006C
:101E40006E082100AA3D0830A335A40DA50DA60DEE
:101E5000890B242F220821072000EB00EC01EC0D58
:101E60006B08823E2100AB00FF3020006C3D21005A
:101E7000AC00A91B502F0130A735A80DA90DAA0D44
:101E8000890B3C2FA61B27140130A335A40DA50DEB
:101E9000A60D890B452FFF30AB07FF30AC3D392F26
:101EA000A101A61F722FFF3023052000EB00FF3099
:101EB000210024052000EC00FF3021002505200032
:101EC000ED007F30210026052000EE006E086D0435
:101ED0006C046B04031D6F2F2100271C722F01302F
:101EE0002100A10021080319A72F0130A707003006
:101EF000A83DA93DAA3D2A1CA72F27082000EB00DA
:101F0000210028082000EC00210029082000ED0015
:101F100021002A082000EE000130EF00EE37ED0C22
:101F2000EC0CEB0CEF0B8E2F6E082100AA002000AA
:101F30006D082100A90020006C082100A8002000E5
:101F40006B082100A7000130AB070030AC3D2C0826
:101F5000803A2000EB0080306B02031DB22FFF306F
:101F600021002B02031CBE2F7F302100AA008030ED
:101F7000A9000030A8000030A700EE2F21002C0897
:101F8000803A2000EB0080306B02031DCA2F013025
:101F900021002B020318D72F00302100AA000030A7
:101FA000A9000030A8000030A700A001EE2F2100FA
:101FB0002B08A200FF30A705FF30A8057F30A90538
:101FC0000030AA052218A91722082000EB000130D2
:101FD000EB36890BE82F6B082100AA002008AA0421
:101FE0002A082000E600210029082000E500210041
:101FF00028082000E400210027082000E300080052
:1020000022008D140800813022009700171F062837
:102010000130A631892690317308A8007208A70004
:1020200003302802E9300319270203181F28220071
:10203000CD0120002808A6002708A500080082304E
:1020400022009700171F22280130A63189269031DF
:102050007308A8007208A70003302802E9300319AA
:10206000270203183B282200CD0120002735A500B8
:10207000280DA6000800833022009700171F3E2875
:102080000130A631892690317308A8007208A70094
:1020900003302802E93003192702031C53280130BA
:1020A0002200CD0055282200CD0120002808F8008C
:1020B0002708F700F735F80DF735F80D7708A50074
:1020C0007808A60008005708031D08003B080319FC
:1020D0007028BB0130302000A400A431EB249031E3
:1020E0003A0803190800BA01A43189249031B830A4
:1020F0002000A000A830A100220044080319822873
:102100000130832800302000A200A53152259031F3
:1021100064302000A000A830A10022004308031969
:1021200093280130942800302000A200A5315225C8
:1021300090312108803A2000B20080303202031D25
:10214000A428013022002002031CB72840302000C0
:10215000A000A830A100220021082000A300220036
:1021600020082000A200A4019C31FB249031220011
:102170004808031DBF2801302000B500C1282000F9
:10218000B5019C30A000A830A10023003108200038
:10219000A300230030082000A2003508A4009C31D1
:1021A000FB249031D2302000A000A830A1002200F2
:1021B00023082000A300220022082000A2000230F1
:1021C000A4009C31FB24903152030319EC28DF302A
:1021D0002000B300A830F028DC302000B300A83085
:1021E000B4009630A000A830A1003408A300330842
:1021F000A200A531862590311F302000A000A83014
:10220000A100230059082000A30023005808200043
:10221000A200A4019C31FB2490312B302000A000AF
:10222000A830A10023005B082000A30023005A0867
:102230002000A200A4019C31FB249031A43173241E
:10224000080064002200CE01A801A901CF01943149
:102250003224913122002D08803AE300803063025D
:10226000031D34296E302C02031C0800A431FD2408
:10227000913122004708031D40299A31FB229131F8
:102280003230F2000030F300A5313B25913194311A
:102290003224913122002D08D9002C08D8002D08B5
:1022A000803AE30080306302031D58296E302C020F
:1022B000031C080023003508803A2200E300803028
:1022C0006302031D66296F3023003402031C772943
:1022D00023003508803A2200E3002D08803A63028B
:1022E000031D75292C0823003402031C08008631C5
:1022F000BE26913122002C082D04031D8229A43111
:10230000FD2408002D08803AE30080306302031D9D
:102310008B2978302C02031C0800053022006C0643
:10232000031D962905306D060319080006306D025D
:10233000031CA1297B08D0000130FB0093316A23E4
:10234000913122002D08803AE30080306302031DA2
:10235000AB2978302C02031C0800063022006C02E6
:10236000031CB9297A08D1000130FA009231A22267
:102370009131053022006D06031DC0290130CB29A3
:1023800006306D06031DC6290230CB2907306D06C5
:10239000031DCC290430FB0005306C06031DD22937
:1023A0000130DD2906306C06031DD8290230DD29F5
:1023B00007306C06031DDE290430FA0064000800B3
:1023C000031AE52901302200BE00A73148279131C8
:1023D000903100209131A431922491312C30F200BF
:1023E0000130F300A5313B25913164008331B523E1
:1023F00091312C30F2000130F300A5313B259131B1
:102400006400053022006D06031D082A0130132ADE
:1024100006306D06031D0E2A0230132A07306D06A2
:10242000031D142A0430FB0005306C06031D1A2A14
:102430000130252A06306C06031D202A0230252A89
:1024400007306C06031D262A0430FA002C30F200F7
:102450000130F300A5313B25913164002C30F200AE
:102460000130F300A5313B25913164002C30F2009E
:102470000130F300A5313B25913164002C30F2008E
:102480000130F300A5313B25913164002C30F2007E
:102490000130F300A5313B2591316400FF30A431B8
:1024A000C82491312200D300FE30A431C8249131D8
:1024B0002200D400FD30A431C82491312200D20082
:1024C000FC30A431C8249131E200E3016208E3004A
:1024D000E20162082200D800230063082200D9002C
:1024E000FB30A431C8249131E200E30162082200EC
:1024F000D807230063082200D93D54089D31882560
:10250000913122005308A731BE2791312200520891
:10251000A4319B24913122003E03031D912A0130F6
:10252000BD009931372191319A31FB2291316400FC
:102530009631BD26913199318821913190316320B6
:102540009131972A7A08F20022005108A431A82478
:1025500092312100EB002200530821006B07E900B3
:102560007A08E400E5010530E435E50D890BB42A6D
:102570006408FF3EE600FF30653DE7006708803AEB
:10258000E80080306802031DC72A69086602031844
:10259000D32A7A082100E4000530E435890BCD2ADE
:1025A0006408FF3EE9002200530821006B02031873
:1025B000DF2A6B08220053022100EA00E02AEA0128
:1025C0006A082200D3005308A731BE279231943104
:1025D0003224923122002C082D04031908002D0802
:1025E0002100ED0022002C082100EC006A087A0787
:1025F000EE006E086902031C652B6E08A731BE272A
:10260000923194313224923122002C082D04031986
:1026100008002D08803A2100E4006D08803A640229
:10262000031D152B6C0822002C02031C212B0A30E1
:10263000F2000030F300A5313B2592319431322471
:10264000923122002D08803A2100E4006D08803A82
:102650006402031D2E2B6C0822002C02031C3A2B53
:102660000A30F2000030F300A5313B25923194315D
:102670003224923122002D08803A2100E4006D08B6
:10268000803A6402031D472B6C0822002C020318B9
:10269000652B22002D082100ED0022002C082100CE
:1026A000EC006E082200D3002D08803A2100E400DF
:1026B00080306402031D5F2B783022002C02031C43
:1026C000652B7A082100EE07F92A22005308A7316A
:1026D000BE2708007B08F20022005008A431A8247D
:1026E00093312100EB002200540821006B07E90020
:1026F0007B08E400E5010530E435E50D890B7C2B12
:102700006408FF3EE600FF30653DE7006708803A59
:10271000E80080306802031D8F2B690866020318E9
:102720009B2B7B082100E4000530E435890B952BB9
:102730006408FF3EE9002200540821006B020318E0
:10274000A72B6B08220054022100EA00A82BEA0103
:102750006A082200D40054089D31882593319431B1
:102760003224933122002C082D04031908002D086F
:102770002100ED0022002C082100EC006A087B07F4
:10278000EE006E086902031C2D2C6E089D31882511
:10279000933194313224933122002C082D040319F3
:1027A00008002D08803A2100E4006D08803A640298
:1027B000031DDD2B6C0822002C02031CE92B0A30C0
:1027C000F2000030F300A5313B25933194313224DF
:1027D000933122002D08803A2100E4006D08803AF0
:1027E0006402031DF62B6C0822002C02031C022C31
:1027F0000A30F2000030F300A5313B2593319431CB
:102800003224933122002D08803A2100E4006D0823
:10281000803A6402031D0F2C6C0822002C0203185E
:102820002D2C22002D082100ED0022002C08210073
:10283000EC006E082200D4002D08803A2100E4004C
:1028400080306402031D272C783022002C02031CE8
:102850002D2C7B082100EE07C12B220054089D314E
:10286000882508008B315723943164304E060319B4
:10287000512C0130CE072908803A2100E3002200C4
:102880002B08803A21006302031D492C22002A08EC
:1028900028020318672C22002B08A9002A08A80088
:1028A000672CCE0129082100B80022002808210049
:1028B000B70022002D082100BA0022002C082100B8
:1028C000B9008031692094312200A801A9012200B9
:1028D0002B08803A2100E30023003908803A2100C8
:1028E0006302031D772C2300380822002A020318F4
:1028F000DD2C64008B315723943164304E0603196C
:10290000992C0130CE072908803A2100E3002200EB
:102910002B08803A21006302031D912C22002A0813
:1029200028020318AF2C22002B08A9002A08A800AF
:10293000AF2CCE0129082100B80022002808210070
:10294000B70022002D082100BA0022002C08210027
:10295000B9008031692094312200A801A9010D300D
:102960002000A000A1010530A200A301A30AA63106
:1029700035269431003A0319C02C01302200CF00D3
:102980000D302000A000A1010530A200A301A63156
:10299000352694312100E30022004F03031DD22C81
:1029A0000130D32C0030210063050319672C9831C6
:1029B0009E202200AC01AD01080023003708803AB8
:1029C0002100E30022002B08803A21006302031D4E
:1029D000ED2C22002A0823003602031808002300E9
:1029E0003708803A2100E30080306302031DFB2C8E
:1029F000013023003602031C0800792C2000A600B9
:102A0000B02D7B302606031D0A2D01302200D70091
:102A10000130622D013008007D302606031D152D82
:102A20002200D701AF010530080022302606031D21
:102A3000CE2D2200AE010230622D22302606031D6B
:102A4000232D0330612D0F3022002E020318CE2DCE
:102A50002E08443E860002308700200026088100B0
:102A600001302200AE072E08443EAB2D2230260650
:102A7000031D3E2D2200AE010530622D7430260666
:102A8000031D4C2D01302200D600482D2200D60116
:102A90000130AF0002300800663026060319462DCB
:102AA00030302602031CCE2D3A3026020318CE2DDC
:102AB0002608D03E2300AE00FF3003180030AF00E0
:102AC00004302200AF00CE2D30302602031C8B2DA7
:102AD0003A30260203188B2D23002F082000A10076
:102AE00023002E082000A0000A30A2000030A3001E
:102AF000A5316B25943126082007A4000030213D24
:102B0000A5002408D03E2300AE00FF302000253D64
:102B10002300AF00CE2D01302200AF0003300800AB
:102B200022302606031D992D01302200AF0004300B
:102B300008000F3022002E020318CE2D2E08203E52
:102B40008600023087002000260881000130220024
:102B5000AE072E08203E8600023087008101CE2D70
:102B600022002F082000A400A5012508003A03191F
:102B7000BA2DCE2D2408003A0319012D013A03196C
:102B80000C2D033A03191D2D013A0319362D073A6E
:102B90000319642D013A0319902DCE2D0030080041
:102BA0002508803AA60080302602031DD92D513019
:102BB00024020318DF2D2000A401A5010800200035
:102BC0002508803AA60080302602031DE92DAC308E
:102BD00024020318F12DF4302000A4070030A53D95
:102BE000080020002508803AA60081302602031D37
:102BF000FB2D493024020318032EFE302000A407C9
:102C00000030A53D080020002508803AA60082304B
:102C10002602031D0D2E473024020318152E1830EE
:102C20002000A4070130A53D080020002508803AB7
:102C3000A60083302602031D1F2E35302402031800
:102C4000272E29302000A4070130A53D08002000D0
:102C50002508803AA60084302602031D312E4D300F
:102C600024020318392E36302000A4070130A53D78
:102C7000080020002508803AA60088302602031D9F
:102C8000432E8630240203184B2EAE302000A407BA
:102C90000130A53D080020002508803AA6008C30B0
:102CA0002602031D552EFB30240203185D2EE4304E
:102CB0002000A4070130A53D080020002508803A27
:102CC000A60092302602031D672E1030240203183E
:102CD0006F2E12302000A4070230A53D080020000E
:102CE0002508803AA60096302602031D792EE7308B
:102CF00024020318812E88302000A4070230A53D4D
:102D0000080020002508803AA6009B302602031DFB
:102D10008B2EEB3024020318932EE7302000A407FB
:102D20000230A53D080020002508803AA600A13009
:102D30002602031D9D2E373024020318A52E2030B5
:102D40002000A4070330A53D080020002508803A94
:102D5000A600A9302602031DAF2E05302402031859
:102D6000B72E48302000A4070330A53D08005C3092
:102D70002000A4070330A53D08002100E101E20185
:102D800023003A089C3E2100DF00FF3023003B3D3A
:102D90002100E0002200AA01AB016400783021008C
:102DA000DC00DD015C085D020318022F8B31572324
:102DB000963121006208803AD90022002B08803A1F
:102DC00021005902031DE82E22002A082100610279
:102DD0000318F72E22002B082100E20022002A0807
:102DE0002100E10022002D08A3002C08A2000330DE
:102DF000F2000030F300A5313B259631013021006F
:102E0000DD07D22E640021006208803AD9008030AC
:102E10005902031D0D2F64306102031C392F0A3043
:102E2000F2000030F30021006108053EF40000309C
:102E3000623DF5009831EA20963173082100E200E6
:102E40007208E1000A302000A0000030A10021003B
:102E500062082000A300210061082000A200A53123
:102E60006B25963121082100E20020002008210076
:102E7000E100210062082300B30021006108230063
:102E8000B2003308803A2100D90080305902031D76
:102E90004C2F0A30230032020318512F2200A201C6
:102EA000A30122002308F3002208F200A431D92450
:102EB000963101302100DE0022002508803A2100F1
:102EC000D90022002308803A21005902031D6B2FEC
:102ED0002200220824020318832F22002408220241
:102EE0002100D90022002508233B2100DA006008D8
:102EF000803ADB005A08803A5B02031D812F590893
:102F00005F02031CB42F22002308803A2100D9005D
:102F100022002508803A21005902031D922F220029
:102F2000240822020318AA2F2200220824022100CA
:102F3000D90022002308253B2100DA006008803AEE
:102F4000DB005A08803A5B02031DA82F59085F0274
:102F5000031CB42FE7302200240603300319250692
:102F60000319B42F2100DE0122002308803A21003A
:102F7000D90023003B08803A21005902031DC42FC9
:102F800023003A0822002202031CC82F0130C92F57
:102F900000302200440521005E050319D22F0130C4
:102FA0002200C500230033082100B80023003208A6
:102FB0002100B700220023082100BA0022002208C5
:102FC0002100B900803169209631640022004D0350
:102FD000031D08004A302000A000A830A10098314D
:102FE00000209631640010302300DE002730DF001F
:102FF00022002308F3002208F200A431D92408009B
:103000003030F2002108F4002008F3001430F500FD
:103010000030F600A731162701302200BB0008005F
:10302000F701F51F1A28F409F509F40A0319F50A3E
:103030000130F700F31F2128F209F309F20A0319FE
:10304000F30A72087304031946280130F600F31BD3
:1030500031280130F235F30D890B2A280130F607AB
:10306000272873087502031D372872087402031C91
:103070003D287208F4027308F53B0130F336F20C78
:10308000890B3E280130F602031D31287708031909
:103090004E28F409F509F40A0319F50A7508F30036
:1030A0007408F2000800813022009700171F56288C
:1030B0000030A631892698317308A8007208A7004D
:1030C00003302802E9300319270203186C28280866
:1030D000A6002708A5000800823022009700171FCD
:1030E0006F280030A631892698317308A80072082D
:1030F000A70003302802E9300319270203188528A6
:103100002735A500280DA60008008330220097006F
:10311000171F88280030A63189267308A800720876
:10312000A7002808F8002708F700F735F80DF7354D
:10313000F80D7708A5007808A6000800A431FD2442
:10314000983101302200D2005208A4319B249831DA
:103150002000A001FF30A531C52598312000A00135
:10316000FE30A531C52598312000A001A00AFD3010
:10317000A531C52598312000A001FC30A531C52519
:1031800098312000A001FB30A531C52598319A3136
:10319000FB2298312200BC01D5010130D500AC01E1
:1031A000AD01AA01AB01A401A501A8302000A00037
:1031B000A830A1009831002098316400103023001D
:1031C000DE002730DF001030E0002730E1009631CC
:1031D000BD260800F701F31FF428F209F309F20AEB
:1031E0000319F30A0130F700F51FFD28F409F5096A
:1031F000F40A0319F50A0130F706F801F90172081B
:10320000730403192A290130F600F31B0F2901303A
:10321000F235F30D890B08290130F6070529013035
:10322000F835F90D890B102973087502031D1A2949
:1032300072087402031C21297208F4027308F53B1A
:1032400078140130F336F20C890B22290130F60292
:10325000031D0F29770803193229F809F909F80A1B
:103260000319F90A7908F3007808F20008006400ED
:1032700022003D08031D8129D730F200A830F30059
:10328000A6310E2699315C302000A000A830A100A4
:10329000983100209931A43189249931903020004F
:1032A000A000A830A1001330A200A830A300A531CF
:1032B000862599316B302000A000A830A1007E3017
:1032C000A200A830A300A53186259931E230200064
:1032D000A000A830A100CE30A200A830A300A531E4
:1032E000862599318A302000A000A830A1008430C2
:1032F000A200A830A300A53186259931A4317324FA
:10330000993164009A31FB2201302200BA00080092
:10331000A53125259931E700670803190800803099
:103320006702031808006400CC2967089E3118263C
:10333000993188294430F200B830F300A830F40005
:10334000A6315E26993172087304031DBE2922003E
:103350004308031DBA294403031DB0290130B129D4
:10336000003056060319B729A531112599310130CE
:10337000BA008829A4318124993188294430F20087
:103380006430F300A830F400A6315E26993172084B
:10339000730403198829BA29220067089431FE248E
:1033A00099312200E500E6016608003A0319D9299F
:1033B00088296508013A03199529033A03199A29BE
:1033C00088298C296400B3302000A000A830A10017
:1033D00098310020993191312121993122003C0806
:1033E000031D4708031DF7299A31FB22993122005A
:1033F00053082000A000FF30A531C52599312200D7
:1034000054082000A000FE30A531C52599312200C6
:1034100052082000A000FD30A531C52599310030AB
:10342000F2000130F30022005908F5005808F400BA
:103430009831EA20993172082000A000FC30A531B3
:10344000C5259931220058082000A000FB30A53185
:10345000C52599311030DE002730DF001030E00044
:103460002730E1009631BD2622002D08A5002C084A
:10347000A400D5010130D500640008000D30200003
:10348000A000A1013230A200A301A63135269A3155
:10349000003A0319742AFA30F2000030F300A53123
:1034A0003B259A31640022005208031D5A2A01303C
:1034B000D2005B2AD2015208A4319B249A319A315E
:1034C000FB229A310D302000A000A1013230A20071
:1034D000A301A63135269A31003A0319742A963190
:1034E000BD269A316400622A0D302000A00002300F
:1034F000A1003230A200A301A63135269A31003A4C
:10350000031D640022004308031D882A0130892A14
:1035100000302100E3000D302000A000A101A10A2D
:103520003230A200A301A63135269A31210063056D
:10353000031908006400080003102F0D300DB600B9
:103540003608031DAC2A0030B0000030AF00003058
:10355000AE000030AD0008002D08B1002E08B2000A
:103560002F08B3003008B4001F30B436B30CB20CCF
:10357000B10C890BB52A3108B500AF17FF30AD0586
:10358000FF30AE05FF30AF050030B0059630B60213
:10359000B61FDB2A3608803A973E031CA32A013067
:1035A000B036AF0CAE0CAD0C890BD02A0130B6078B
:1035B0000319EC2ACF2A203036020318A32A360832
:1035C0000319EC2A0130AD35AE0DAF0DB00D890BEE
:1035D000E32A0130B602DF2A350803190800AD09D5
:1035E000AE09AF09B009AD0A0319AE0A0319AF0A53
:1035F0000319B00A0800640022005408F400F20124
:10360000F301741C082B23004808F2074908F33D16
:10361000F41C0F2B23004608F2074708F33D741DE6
:10362000162B23004408F2074508F33DF41D1D2B1B
:1036300023004208F2074308F33D741E242B2300A5
:103640004008F2074108F33DF41E2B2B23003E08EF
:10365000F2073F08F33D741F322B23003C08F207AA
:103660003D08F33D73082300DB007208DA006400B4
:10367000F201F30122005308F500751C442B2300CE
:103680005608F2075708F33DF51C4B2B230054084E
:10369000F2075508F33D751D522B23005208F2071F
:1036A0005308F33DF51D592B23005008F20751082C
:1036B000F33D751E602B23004E08F2074F08F33DC3
:1036C000F51E672B23004C08F2074D08F33D751FCC
:1036D0006E2B23004A08F2074B08F33D73082300C2
:1036E000D9007208D800640008000030720520007C
:1036F000A00000307305A10080307405A2007F3067
:103700007505A3002308220421042004031D902B27
:103710000030F5000030F4000030F3000030F2001B
:1037200000307605A00000307705A10080307805D4
:10373000A2007F307905A30023082204210420047D
:10374000031DAA2B0030F9000030F8000030F7000C
:103750000030F600F51FC42B0030A0000030A1009F
:103760000030A2008030A3007208A0027308A13BC1
:103770007408A23B7508A33B2308F5002208F40057
:103780002108F3002008F200F91FDE2B0030A00012
:103790000030A1000030A2008030A3007608A00213
:1037A0007708A13B7808A23B7908A33B2308F900DE
:1037B0002208F8002108F7002008F6008030F506FE
:1037C0008030F90679087502031D08007808740234
:1037D000031D080077087302031D080076087202B3
:1037E0000800AD01A71F012CA409A509A609A70976
:1037F000A40A0319A50A0319A60A0319A70A013086
:10380000AD00AB1F102CA809A909AA09AB09A80A89
:103810000319A90A0319AA0A0319AB0A0130AD0654
:103820000030B1000030B0000030AF000030AE001A
:1038300027082604250424040319572C0130AC0062
:10384000A71B2C2C0130A435A50DA60DA70D890BA7
:10385000232C0130AC07202C0130AE35AF0DB00D5C
:10386000B10D890B2D2C27082B02031D412C260896
:103870002A02031D412C25082902031D412C24087E
:103880002802031C4C2C2408A8022508A93B260862
:10389000AA3B2708AB3B2E140130A736A60CA50C7B
:1038A000A40C890B4D2C0130AC02031D2C2C2D08CF
:1038B0000319652CAE09AF09B009B109AE0A0319A5
:1038C000AF0A0319B00A0319B10A3108A70030087A
:1038D000A6002F08A5002E08A4000800AF002F089E
:1038E000031DAA1F832C2709B1002809B20029094A
:1038F000B3002A09B400B10A0319B20A0319B30AC2
:103900000319B40A8B2C2A08B4002908B30028082C
:10391000B2002708B1002A08290428042704031D3F
:103920009A2C0030AA000030A9000030A800003016
:10393000A70008009630B000FE3034050319B92CFA
:103940000130B0070130B436B30CB20CB10C890BA6
:10395000A32C9C2C0130B0070130B1070030B23DE0
:10396000B33DB43D0130B436B30CB20CB10C890B8D
:10397000B32CFF3034050319CB2CAA2C02303002B3
:10398000031CCD2C0130B0020130B135B20DB30DA6
:10399000B40D890BC52CB31FBE2C3018D72CFF30AB
:1039A000B105FF30B2057F30B305FF30B405031019
:1039B000B00C3008AB00AC01AD01AE011830AB3536
:1039C000AC0DAD0DAE0D890BDF2C2B08B1042C080E
:1039D000B2042D08B3042E08B4042F08031DAA1F37
:1039E000F22CB4173408AA003308A9003208A80042
:1039F0003108A70008002108F7002008F600A531CB
:103A0000A3259C312000B001B1010030A60024089C
:103A1000063CA500031CA6033108A700A801260840
:103A20002806031D152D25082706031D1D2D310809
:103A3000293E860087012E30222D3108293E86003E
:103A40008701303081000130B10706303102031C9C
:103A5000052D0630B1003108293E860087012E3041
:103A60000106031D352D0130B1023108293E8600C3
:103A700087010A30F2000030F3002308F500220825
:103A8000F400983110209C317208303E81000130E2
:103A9000B1020A30F2000030F3002308F5002208DA
:103AA000F4009831EA209C3173082000A3007208CA
:103AB000A20022082304031D2B2D0030A600240899
:103AC000053CA500031CA6032608803AA700803009
:103AD0002702031D6D2D310825020318732D2000C8
:103AE0002408053CB10020003108013E293E860033
:103AF00087012E300106031D7F2D0130B1023108F0
:103B0000013E293EF2000030F300A6310E260800E7
:103B10002000A0002008A10022004A08031DC42D97
:103B20002000211C962D22008D15982D22008D112C
:103B30002000A11C9E2D22000C15A02D22000C118E
:103B40002000211DA62D22000D16A82D22000D12E9
:103B50002000A11DAE2D22008C15B02D22008C114D
:103B60002000211EB62D22008D16B82D22008D12A8
:103B70002000A11EBE2D22008C16C02D22008C120A
:103B80002000211B0C2E0F2E03102000211C0314DB
:103B9000031CCD2D22008D15CF2D22008D11031079
:103BA0002000A11C0314031CD82D22000C15DA2DB3
:103BB00022000C1103102000211D0314031CE32D0F
:103BC00022000D16E52D22000D1203102000A11D6C
:103BD0000314031CEE2D22008C15F02D22008C11F5
:103BE00003102000211E0314031CF92D22008D1642
:103BF000FB2D22008D1203102000A11E0314031CB4
:103C0000042E22008C16062E22008C120310200097
:103C1000211F0314031C0F2E22000C16112E22004C
:103C20000C122708F8002608F700A4316C240800BD
:103C3000E40072306406031D2C2EFA30F2000030CE
:103C4000F300A5313B259E31640098319E209E31C2
:103C50002200C3010130BA00743064060319332E08
:103C6000450803194E2EFA30F2000030F300A5315A
:103C70003B259E31640001302200D500D501FA3089
:103C8000F2000030F300A5313B259E319931E2214D
:103C90009E312200C301C5010130BA0062306406C2
:103CA000031DA62E640022004308031D832E01304D
:103CB000C3005308C2005408C1005208C000D30119
:103CC0004A080319662EFF30D400672ED401013054
:103CD000D20054089D3188259E3122005308A73117
:103CE000BE279E3122005208A4319B249E3122001F
:103CF0003C08031D7E2E9A31FB229E31220044088F
:103D0000BF00C401A22EC3014208D3004108D40061
:103D10004008D2005308A731BE279E312200540824
:103D20009D3188259E3122005208A4319B249E316A
:103D300022003C08031D9F2E9A31FB229E31220057
:103D40003F08C400640001302200BA0061306406FC
:103D5000031D08004308031D0800A53111250800B4
:103D600003302100E7002200D3015308A731BE270A
:103D70009E3103302200D100943132249E31220042
:103D80002C082D04031908001430F2000030F30051
:103D90002D08F5002C08F4009831EA209E3122000D
:103DA0002C0872072100E50022002D08733D210038
:103DB000E6000330E8007A08F2006808A431A8247D
:103DC0009E31A731BE279E31943132249E3122008C
:103DD0002C082D04031908002D08803A2100E40066
:103DE0006608803A6402031DF82E650822002C0242
:103DF00003184A2F1430F2000030F30022002D087F
:103E0000F5002C08F4009831EA209E3122002C089D
:103E100072072100E50022002D08733D2100E60015
:103E20007A08F2006808A431A8249E312200D30049
:103E3000210067082200D1002D08803A2100E4000B
:103E400080306402031D272F783022002C02031CCF
:103E50004A2F21006708E80722004B08031D382F6E
:103E6000093021006806031D382F0830E800452F6F
:103E700022004B08031D452F113021006806031D49
:103E8000452F1030E8000430E700203021006802A0
:103E9000031CDB2E22005308A731BE270800033085
:103EA0002100EE00EC0103302200D000033021009D
:103EB000ED001430F2000030F30022002D08F50070
:103EC0002C08F4009831EA209F3122002C08720758
:103ED0002100EA0022002D08733D2100EB00EF01D4
:103EE0007B08F2006F08A431A8249F319D318825FA
:103EF0009F319E31B0269F31943132249F31220070
:103F00002C082D04031908002D08803A2100E9002F
:103F10006B08803A6902031D902F6A0822002C0268
:103F20000318E82F1430F2000030F30022002D08AF
:103F3000F5002C08F4009831EA209F3122002C086B
:103F400072072100EA0022002D08733D2100EB00DA
:103F50007B08F2006F08A431A8249F312200D4000E
:103F600053082100EC006E082200D0005108210007
:103F7000ED0022002D08803A2100E900803069021E
:103F8000031DC52F783022002C02031CE82F2100CE
:103F90006E08EF0722004C08031DD62F09302100C0
:103FA0006F06031DD62F0830EF00E32F22004C08C8
:103FB000031DE32F113021006F06031DE32F103086
:103FC000EF000430EE00203021006F02031C702F40
:103FD00021006C082200D30054089D3188259F31B0
:103FE00022005308A731BE279F3121006D0822000F
:103FF000D1000A30F2000030F300A5313B25080063
:1048C000640080010131890B612C0034FE0012006C
:1048D0001E00FE0B672C00347808F3007708F20006
:1048E000A5313B250800C230F200A830F300A63104
:1048F0000E260800253401342034013407340734EF
:104900000134A2302000A000A830A100983100207E
:1049100008002200B001D930F200A830F300A6311F
:104920000E260800F83021009505951195128B167A
:104930000B178B170800F900790C031C0E100318D5
:104940000E142708F8002608F700A4316C2408008C
:10495000F400F301741CAE2C7208F3070310F20D7F
:104960000310F40C7408031DAA2C73080800F70048
:104970000F307705F5000A30F2007708F6000430B2
:10498000F636890BC02C7608A431A82475070800D8
:10499000F400640023009518C92C7408F200F30198
:1049A00072089100730892003F30950515141308A2
:1049B000080023005F087306031DE02C5E087206E2
:1049C0000319E92C7308DF007208DE0001302200B1
:1049D000BA0064000800A4318924A4317830200092
:1049E000A000A830A1002408A2000230A300A53135
:1049F0008625A431A431732408002200D401D301F8
:104A000054089D318825A43122005308A731BE27C0
:104A1000A43122002708F8002608F700A4316C24EE
:104A20000800640022004408031D192D0130C40051
:104A30001A2DC40144082000A0000230A531C5256C
:104A4000640001302200BA0008002200380839064C
:104A5000031D2C2D003008003808A03E86000230CF
:104A600087000108F2000130B8072530380203182A
:104A7000B801720808007308F6007208F5006400B7
:104A800075087604031908000630F4003030890BED
:104A9000472DF40B472D003264000130F502003041
:104AA000F63B402D2108F7002008F600A531A3258C
:104AB000A531200022080319642DAE30F200A83081
:104AC000F300A6310E2608007230F200A830F30081
:104AD000A6310E260800F801F901201C732D2208CA
:104AE000F8072308F93D0130A235A30D890B742D79
:104AF0000130A136A00C890B792D20082104031D5B
:104B00006D2D7908A1007808A00008002108F700A1
:104B10002008F600A531A325A531CC30F200A8303D
:104B2000F300A6310E26A53120002308F300220849
:104B3000F200A6310E26A531CC30F200A830F300E9
:104B4000A6310E260800220030080319AE2DD630FB
:104B5000F200A830F300A6310E26A531CA30F200CB
:104B6000A830F300A6310E26A5317708F3007608A9
:104B7000F200A6310E26A531C630F200A830F300AF
:104B8000A6310E260130B0000800A30023009518BE
:104B9000C62D20002308A100A201210823009100B6
:104BA0002000220823009200200020082300930008
:104BB0003F30950503108B1B03148B1315155530CF
:104BC0009600AA30960095141511031C08008B1747
:104BD0000800203420342034203420342034203481
:104BE0002034203420342034203420342034203425
:104BF0002034203420342034203420342034203415
:104C00002034203420342034203420342034203404
:104C1000203420342034203420340A34F50122009A
:104C200037080319252E64000F2E7508C53E86002F
:104C30000230870075087207840073080318013E6C
:104C40008500000881000130F507750872078400AF
:104C500073080318013E85001200031D152E750808
:104C60002200E8000130B70008002208F700592EA2
:104C70000D083E2E0D0C3E2E0D0C890C0139F8004E
:104C80004A2E20002108003A0319382E013A031950
:104C90003A2E3C2E780823060319502E00300800C7
:104CA0000130F2000030F300A5313B25A631013080
:104CB000F7027708031D412EFF3008006C2E7208A2
:104CC000860002308700010803197A2E0130F207AE
:104CD0000130F3070030F43D730884007408850048
:104CE0000008F5007208860002308700010875068A
:104CF00003195F2E72088600023087007308840053
:104D00007408850000080102F200F301031CF3039C
:104D100008002000A0002008F400F40DF40D21008C
:104D20001D087406833974069D009D140630890B96
:104D3000972E003221009D189A2E1B082000A300F8
:104D400021001C082000A4002408F400F5017408C8
:104D5000F500F40123087407A1000030753DA2009E
:104D60002208F3002108F200080000302000A00013
:104D7000A830A10098310020A631A431FD24A6312D
:104D800001302200D2005208A4319B24A631220017
:104D900053082000A000FF30A531C525A631220010
:104DA00054082000A000FE30A531C525A631220000
:104DB00052082000A000FD30A531C525A6310130E4
:104DC0002200BD009931372108003508031D042F4A
:104DD000370803190800680836020318012F8D10E0
:104DE0003608C53E8600023087000108B400012F56
:104DF000341CFC2E8D14FD2E8D100310B40C012FCD
:104E00008D140130B507080009303502031CF82E57
:104E10000B303502031C002FB5010130B6073608F0
:104E20006806031D0800B701B60108007208F90002
:104E30007508760403193D2F0130F5020030F63B6A
:104E40007908860002308700F90A7408F8007308B0
:104E5000F700F30A0319F40A77088400780885003C
:104E60000008C03F890803193D2F182F79088600D4
:104E70000230870081010130F9070130F50200306E
:104E8000F63B750A031D362F760A03190800362FE4
:104E900064002100971217169711171597106400D8
:104EA000C03023008C050C148C14C0308D052200FA
:104EB000911393137A302100990020008C018D0109
:104EC0008E01C03022008C008D018E010330210044
:104ED0008C0007308D008E010D158D108731FF2756
:104EE0001E149E14813022009700A33021009E00E2
:104EF0001D14951324000D148D140D158B1308002B
:104F00000D0C890C0139F100B12F7108031D080047
:104F1000B1010130B30008000310B20C7108F000B9
:104F20000730F035890B912F7008B2040130B107BA
:104F300008303106031D08000230B3000800710379
:104F4000031DAF2F3908A03E8600023087003208CB
:104F500081000130B907253039020318B901B301C6
:104F6000080022003308003A0319852F013A03197B
:104F70008C2F033A03199F2FBD2F08002000A0009B
:104F80002008A100211CC72F22008E17C92F220044
:104F90008E132000A11CCF2F22008E15D12F2200AE
:104FA0008E112000211DD72F22000E17D92F22008D
:104FB0000E132000A11DDF2F22000E15E12F22006D
:104FC0000E112000211EE72F22008E16E92F22004D
:104FD0008E122000A11EEF2F22008E14F12F22002E
:104FE0008E102000211FF72F22000E16F92F22000D
:104FF0000E122708F8002608F700A4316C240800D8
:10500000543465347334743420346D346F34643400
:105010006534203469346E346434753463347434E4
:105020006F34723400344134543455342D343134B7
:10503000303430345F3445345834543400344334DD
:1050400061347034613463346934743461346E347F
:1050500063346534003449346E34643475346334F5
:10506000743461346E3463346534003443346134F1
:10507000703461346334693474346F34723400349E
:105080006534663466346934633465346E3463344D
:10509000793400344F347634653472346C346F3480
:1050A00061346434003449346E34643475346334A8
:1050B00074346F3472340034533474346134723461
:1050C000743475347034003442347934703461345B
:1050D0007334733400344334723465346434693463
:1050E00074340034663461346C34733465340034A1
:1050F0004534763465346E34743400344E34373489
:10510000443444344334003475346B346F34643481
:10511000613400344234753469346C34643400349E
:1051200042346F3461347234643400344F34723436
:10513000643465347234003450346F3477346534F9
:10514000723400344534723472346F347234003443
:1051500052346534733465347434003474347234C6
:10516000753465340034543475346E346534003429
:105170004134753474346F3400344C346F347334C8
:10518000733400340A347D340A34003422343A341F
:1051900020340034203420342234003433342E348C
:1051A0003234003453345734523400342C340A34FB
:1051B00000347B340A3400344C34433400344334F8
:0A51C0004C340034463457340034F8
:020000040001F9
:08000000FF3FFF3FFF3FFF3F00
:04000E00FC3FFF3F75
:10E00000780001000100150013000100000000006D
:10E0100002000000070000000700000001000000EF
:10E020000000500001001000020020000400500019
:10E03000100000002200000045000000FF00FF006B
:10E040000000100000002200000047000100000056
:10E05000020020000400700010000000FF00FF001C
:10E06000000011000000010000000000FF00FF00A0
:10E07000FF00FF00FF00FF00FF00FF00FF00FF00A8
:10E08000FF00FF00FF00FF00FF00FF00FF00FF0098
:10E09000FF00FF00FF00FF00FF00FF00FF00FF0088
:10E0A000FF00FF00FF00FF00FF00FF00FF00FF0078
:10E0B000FF00FF00FF00FF00FF00FF00FF00FF0068
:10E0C000FF00FF00FF00FF00FF00FF00FF00FF0058
:10E0D000FF00FF00FF00FF00FF00FF00FF00FF0048
:10E0E000FF00FF00FF00FF00FF00FF00FF00FF0038
:10E0F000FF00FF00FF00FF00FF00FF00FF00FF0028
:10E10000FF00FF00FF00FF00FF00FF00FF00FF0017
:10E11000FF00FF00FF00FF00FF00FF00FF00FF0007
:10E12000FF00FF00FF00FF00FF00FF00FF00FF00F7
:10E13000FF00FF00FF00FF00FF00FF00FF00FF00E7
:10E14000FF00FF00FF00FF00FF00FF00FF00FF00D7
:10E15000FF00FF00FF00FF00FF00FF00FF00FF00C7
:10E16000FF00FF00FF00FF00FF00FF00FF00FF00B7
:10E17000FF00FF00FF00FF00FF00FF00FF00FF00A7
:10E18000FF00FF00FF00FF00FF00FF00FF00FF0097
:10E19000FF00FF00FF00FF00FF00FF00FF00FF0087
:10E1A000FF00FF00FF00FF00FF00FF00FF00FF0077
:10E1B000FF00FF00FF00FF00FF00FF00FF00FF0067
:10E1C000FF00FF00FF00FF00FF00FF00FF00FF0057
:10E1D000FF00FF00FF00FF00FF00FF00FF00FF0047
:10E1E000FF00FF00FF00FF00FF00FF00FF00FF0037
:10E1F000FF00FF00FF000000000001000000000021
:00000001FF
